{
  "contractName": "BillSystem",
  "abi": [
    {
      "constant": true,
      "inputs": [
        {
          "name": "",
          "type": "uint256"
        }
      ],
      "name": "roundBills",
      "outputs": [
        {
          "name": "",
          "type": "bytes32"
        }
      ],
      "payable": false,
      "stateMutability": "view",
      "type": "function"
    },
    {
      "constant": false,
      "inputs": [],
      "name": "renounceOwnership",
      "outputs": [],
      "payable": false,
      "stateMutability": "nonpayable",
      "type": "function"
    },
    {
      "constant": true,
      "inputs": [],
      "name": "owner",
      "outputs": [
        {
          "name": "",
          "type": "address"
        }
      ],
      "payable": false,
      "stateMutability": "view",
      "type": "function"
    },
    {
      "constant": true,
      "inputs": [],
      "name": "isOwner",
      "outputs": [
        {
          "name": "",
          "type": "bool"
        }
      ],
      "payable": false,
      "stateMutability": "view",
      "type": "function"
    },
    {
      "constant": true,
      "inputs": [
        {
          "name": "",
          "type": "uint256"
        },
        {
          "name": "",
          "type": "address"
        }
      ],
      "name": "roundBalances",
      "outputs": [
        {
          "name": "",
          "type": "uint256"
        }
      ],
      "payable": false,
      "stateMutability": "view",
      "type": "function"
    },
    {
      "constant": true,
      "inputs": [
        {
          "name": "",
          "type": "bytes32"
        }
      ],
      "name": "isBillPaid",
      "outputs": [
        {
          "name": "",
          "type": "bool"
        }
      ],
      "payable": false,
      "stateMutability": "view",
      "type": "function"
    },
    {
      "constant": false,
      "inputs": [
        {
          "name": "newOwner",
          "type": "address"
        }
      ],
      "name": "transferOwnership",
      "outputs": [],
      "payable": false,
      "stateMutability": "nonpayable",
      "type": "function"
    },
    {
      "anonymous": false,
      "inputs": [
        {
          "indexed": false,
          "name": "billId",
          "type": "bytes32"
        },
        {
          "indexed": false,
          "name": "ipfsMetadata",
          "type": "string"
        }
      ],
      "name": "NewBill",
      "type": "event"
    },
    {
      "anonymous": false,
      "inputs": [
        {
          "indexed": false,
          "name": "billId",
          "type": "bytes32"
        },
        {
          "indexed": false,
          "name": "ipfsMetadata",
          "type": "string"
        }
      ],
      "name": "BillPaid",
      "type": "event"
    },
    {
      "anonymous": false,
      "inputs": [
        {
          "indexed": true,
          "name": "previousOwner",
          "type": "address"
        },
        {
          "indexed": true,
          "name": "newOwner",
          "type": "address"
        }
      ],
      "name": "OwnershipTransferred",
      "type": "event"
    },
    {
      "constant": false,
      "inputs": [],
      "name": "initialize",
      "outputs": [],
      "payable": false,
      "stateMutability": "nonpayable",
      "type": "function"
    },
    {
      "constant": false,
      "inputs": [
        {
          "name": "roundsRegistryAddress",
          "type": "address"
        }
      ],
      "name": "setRoundsRegistry",
      "outputs": [],
      "payable": false,
      "stateMutability": "nonpayable",
      "type": "function"
    },
    {
      "constant": true,
      "inputs": [
        {
          "name": "billId",
          "type": "bytes32"
        }
      ],
      "name": "getBill",
      "outputs": [
        {
          "name": "tokenAddress",
          "type": "address"
        },
        {
          "name": "price",
          "type": "uint256"
        },
        {
          "name": "amount",
          "type": "uint256"
        },
        {
          "name": "ipfsMetadata",
          "type": "string"
        },
        {
          "name": "round",
          "type": "uint256"
        },
        {
          "name": "payer",
          "type": "address"
        }
      ],
      "payable": false,
      "stateMutability": "view",
      "type": "function"
    },
    {
      "constant": true,
      "inputs": [
        {
          "name": "tokenAddress",
          "type": "address"
        },
        {
          "name": "round",
          "type": "uint256"
        },
        {
          "name": "userAddress",
          "type": "address"
        }
      ],
      "name": "getBalance",
      "outputs": [
        {
          "name": "balance",
          "type": "uint256"
        }
      ],
      "payable": false,
      "stateMutability": "view",
      "type": "function"
    },
    {
      "constant": false,
      "inputs": [
        {
          "name": "ipfsBillMetadata",
          "type": "string"
        },
        {
          "name": "tokenAmount",
          "type": "uint256"
        },
        {
          "name": "proofs",
          "type": "bytes32[]"
        },
        {
          "name": "round",
          "type": "uint256"
        },
        {
          "name": "payer",
          "type": "address"
        }
      ],
      "name": "generateAndPayBillERC20",
      "outputs": [],
      "payable": false,
      "stateMutability": "nonpayable",
      "type": "function"
    },
    {
      "constant": false,
      "inputs": [
        {
          "name": "ipfsBillMetadata",
          "type": "string"
        },
        {
          "name": "tokenAmount",
          "type": "uint256"
        },
        {
          "name": "proofs",
          "type": "bytes32[]"
        },
        {
          "name": "round",
          "type": "uint256"
        }
      ],
      "name": "generateAndPayBillETH",
      "outputs": [],
      "payable": false,
      "stateMutability": "nonpayable",
      "type": "function"
    },
    {
      "constant": false,
      "inputs": [
        {
          "name": "ipfsBillMetadata",
          "type": "string"
        },
        {
          "name": "tokenAmount",
          "type": "uint256"
        },
        {
          "name": "proofs",
          "type": "bytes32[]"
        },
        {
          "name": "round",
          "type": "uint256"
        }
      ],
      "name": "generateBill",
      "outputs": [
        {
          "name": "",
          "type": "bytes32"
        }
      ],
      "payable": false,
      "stateMutability": "nonpayable",
      "type": "function"
    },
    {
      "constant": false,
      "inputs": [
        {
          "name": "round",
          "type": "uint256"
        }
      ],
      "name": "withdrawETH",
      "outputs": [],
      "payable": false,
      "stateMutability": "nonpayable",
      "type": "function"
    },
    {
      "constant": false,
      "inputs": [
        {
          "name": "tokenAddress",
          "type": "address"
        },
        {
          "name": "round",
          "type": "uint256"
        }
      ],
      "name": "withdrawERC20",
      "outputs": [],
      "payable": false,
      "stateMutability": "nonpayable",
      "type": "function"
    },
    {
      "constant": false,
      "inputs": [
        {
          "name": "billHash",
          "type": "bytes32"
        }
      ],
      "name": "payBillETH",
      "outputs": [],
      "payable": true,
      "stateMutability": "payable",
      "type": "function"
    },
    {
      "constant": false,
      "inputs": [
        {
          "name": "billHash",
          "type": "bytes32"
        },
        {
          "name": "payer",
          "type": "address"
        }
      ],
      "name": "payBillERC20",
      "outputs": [],
      "payable": false,
      "stateMutability": "nonpayable",
      "type": "function"
    },
    {
      "constant": true,
      "inputs": [
        {
          "name": "round",
          "type": "uint256"
        }
      ],
      "name": "getRoundBillsLength",
      "outputs": [
        {
          "name": "",
          "type": "uint256"
        }
      ],
      "payable": false,
      "stateMutability": "view",
      "type": "function"
    }
  ],
  "bytecode": "0x6080604052336000806101000a81548173ffffffffffffffffffffffffffffffffffffffff021916908373ffffffffffffffffffffffffffffffffffffffff1602179055506000809054906101000a900473ffffffffffffffffffffffffffffffffffffffff1673ffffffffffffffffffffffffffffffffffffffff16600073ffffffffffffffffffffffffffffffffffffffff167f8be0079c531659141344cd1fd0a4f28419497f9722a3daafe3b4186f6b6457e060405160405180910390a3612a85806100cf6000396000f300608060405260043610610107576000357c0100000000000000000000000000000000000000000000000000000000900463ffffffff1680630b6aaff81461010c5780630c551baa1461014f57806317f7526814610190578063342c196c146101e157806342b38934146103065780634863dc581461034f5780635161c9921461037357806354ce61b11461044f578063715018a6146104d05780638129fc1c146104e75780638da5cb5b146104fe5780638f32d59b146105555780639005ea8914610584578063a0c789b4146105e5578063a1db97821461062e578063a7992dcb1461067b578063f123b2a71461073b578063f14210a61461081b578063f2fde38b14610848575b600080fd5b34801561011857600080fd5b5061014d600480360381019080803573ffffffffffffffffffffffffffffffffffffffff16906020019092919050505061088b565b005b34801561015b57600080fd5b5061017a600480360381019080803590602001909291905050506108cf565b6040518082815260200191505060405180910390f35b34801561019c57600080fd5b506101df6004803603810190808035600019169060200190929190803573ffffffffffffffffffffffffffffffffffffffff1690602001909291905050506108f1565b005b3480156101ed57600080fd5b50610210600480360381019080803560001916906020019092919050505061137b565b604051808773ffffffffffffffffffffffffffffffffffffffff1673ffffffffffffffffffffffffffffffffffffffff168152602001868152602001858152602001806020018481526020018373ffffffffffffffffffffffffffffffffffffffff1673ffffffffffffffffffffffffffffffffffffffff168152602001828103825285818151815260200191508051906020019080838360005b838110156102c65780820151818401526020810190506102ab565b50505050905090810190601f1680156102f35780820380516001836020036101000a031916815260200191505b5097505050505050505060405180910390f35b34801561031257600080fd5b50610331600480360381019080803590602001909291905050506114b0565b60405180826000191660001916815260200191505060405180910390f35b61037160048036038101908080356000191690602001909291905050506114c8565b005b34801561037f57600080fd5b50610431600480360381019080803590602001908201803590602001908080601f0160208091040260200160405190810160405280939291908181526020018383808284378201915050505050509192919290803590602001909291908035906020019082018035906020019080806020026020016040519081016040528093929190818152602001838360200280828437820191505050505050919291929080359060200190929190505050611ba3565b60405180826000191660001916815260200191505060405180910390f35b34801561045b57600080fd5b506104ba600480360381019080803573ffffffffffffffffffffffffffffffffffffffff16906020019092919080359060200190929190803573ffffffffffffffffffffffffffffffffffffffff1690602001909291905050506121fa565b6040518082815260200191505060405180910390f35b3480156104dc57600080fd5b506104e5612206565b005b3480156104f357600080fd5b506104fc6122d8565b005b34801561050a57600080fd5b5061051361240f565b604051808273ffffffffffffffffffffffffffffffffffffffff1673ffffffffffffffffffffffffffffffffffffffff16815260200191505060405180910390f35b34801561056157600080fd5b5061056a612438565b604051808215151515815260200191505060405180910390f35b34801561059057600080fd5b506105cf60048036038101908080359060200190929190803573ffffffffffffffffffffffffffffffffffffffff16906020019092919050505061248f565b6040518082815260200191505060405180910390f35b3480156105f157600080fd5b5061061460048036038101908080356000191690602001909291905050506124b4565b604051808215151515815260200191505060405180910390f35b34801561063a57600080fd5b50610679600480360381019080803573ffffffffffffffffffffffffffffffffffffffff169060200190929190803590602001909291905050506124d4565b005b34801561068757600080fd5b50610739600480360381019080803590602001908201803590602001908080601f01602080910402602001604051908101604052809392919081815260200183838082843782019150505050505091929192908035906020019092919080359060200190820180359060200190808060200260200160405190810160405280939291908181526020018383602002808284378201915050505050509192919290803590602001909291905050506124d8565b005b34801561074757600080fd5b50610819600480360381019080803590602001908201803590602001908080601f0160208091040260200160405190810160405280939291908181526020018383808284378201915050505050509192919290803590602001909291908035906020019082018035906020019080806020026020016040519081016040528093929190818152602001838360200280828437820191505050505050919291929080359060200190929190803573ffffffffffffffffffffffffffffffffffffffff1690602001909291905050506124f8565b005b34801561082757600080fd5b506108466004803603810190808035906020019092919050505061251a565b005b34801561085457600080fd5b50610889600480360381019080803573ffffffffffffffffffffffffffffffffffffffff16906020019092919050505061251d565b005b80603360006101000a81548173ffffffffffffffffffffffffffffffffffffffff021916908373ffffffffffffffffffffffffffffffffffffffff16021790555050565b60006037600083815260200190815260200160002050602060ff169050919050565b6108f961292e565b600080600073ffffffffffffffffffffffffffffffffffffffff168473ffffffffffffffffffffffffffffffffffffffff16141515156109c7576040517f08c379a00000000000000000000000000000000000000000000000000000000081526004018080602001828103825260268152602001807f307820616464726573732069732062616e6e656420746f20706179207769746881526020017f204552433230000000000000000000000000000000000000000000000000000081525060400191505060405180910390fd5b600073ffffffffffffffffffffffffffffffffffffffff16603360009054906101000a900473ffffffffffffffffffffffffffffffffffffffff1673ffffffffffffffffffffffffffffffffffffffff1614151515610ab4576040517f08c379a00000000000000000000000000000000000000000000000000000000081526004018080602001828103825260238152602001807f526f756e647320726567697374727920696e7374616e6365206973206e6f742081526020017f736574000000000000000000000000000000000000000000000000000000000081525060400191505060405180910390fd5b60346000866000191660001916815260200190815260200160002060e060405190810160405290816000820160009054906101000a900473ffffffffffffffffffffffffffffffffffffffff1673ffffffffffffffffffffffffffffffffffffffff1673ffffffffffffffffffffffffffffffffffffffff168152602001600182015481526020016002820154815260200160038201548152602001600482018054600181600116156101000203166002900480601f016020809104026020016040519081016040528092919081815260200182805460018160011615610100020316600290048015610be85780601f10610bbd57610100808354040283529160200191610be8565b820191906000526020600020905b815481529060010190602001808311610bcb57829003601f168201915b505050505081526020016005820160009054906101000a900460ff161515151581526020016005820160019054906101000a900473ffffffffffffffffffffffffffffffffffffffff1673ffffffffffffffffffffffffffffffffffffffff1673ffffffffffffffffffffffffffffffffffffffff1681525050925060008360400151111515610ce0576040517f08c379a00000000000000000000000000000000000000000000000000000000081526004018080602001828103825260148152602001807f42696c6c20646f6573206e6f742065786973747300000000000000000000000081525060200191505060405180910390fd5b600073ffffffffffffffffffffffffffffffffffffffff16836000015173ffffffffffffffffffffffffffffffffffffffff1614151515610daf576040517f08c379a00000000000000000000000000000000000000000000000000000000081526004018080602001828103825260298152602001807f54686520455243323020746f6b656e2061646472657373206d757374206e6f7481526020017f20626520307830302e000000000000000000000000000000000000000000000081525060400191505060405180910390fd5b6000151560356000876000191660001916815260200190815260200160002060009054906101000a900460ff161515141515610e53576040517f08c379a00000000000000000000000000000000000000000000000000000000081526004018080602001828103825260158152602001807f42696c6c20697320616c726561647920706169642e000000000000000000000081525060200191505060405180910390fd5b82600001519150826000015173ffffffffffffffffffffffffffffffffffffffff166370a08231306040518263ffffffff167c0100000000000000000000000000000000000000000000000000000000028152600401808273ffffffffffffffffffffffffffffffffffffffff1673ffffffffffffffffffffffffffffffffffffffff168152602001915050602060405180830381600087803b158015610ef957600080fd5b505af1158015610f0d573d6000803e3d6000fd5b505050506040513d6020811015610f2357600080fd5b810190808051906020019092919050505090508173ffffffffffffffffffffffffffffffffffffffff166323b872dd853086604001516040518463ffffffff167c0100000000000000000000000000000000000000000000000000000000028152600401808473ffffffffffffffffffffffffffffffffffffffff1673ffffffffffffffffffffffffffffffffffffffff1681526020018373ffffffffffffffffffffffffffffffffffffffff1673ffffffffffffffffffffffffffffffffffffffff1681526020018281526020019350505050602060405180830381600087803b15801561101157600080fd5b505af1158015611025573d6000803e3d6000fd5b505050506040513d602081101561103b57600080fd5b810190808051906020019092919050505050826000015173ffffffffffffffffffffffffffffffffffffffff166370a08231306040518263ffffffff167c0100000000000000000000000000000000000000000000000000000000028152600401808273ffffffffffffffffffffffffffffffffffffffff1673ffffffffffffffffffffffffffffffffffffffff168152602001915050602060405180830381600087803b1580156110ec57600080fd5b505af1158015611100573d6000803e3d6000fd5b505050506040513d602081101561111657600080fd5b8101908080519060200190929190505050836040015182011415156111c9576040517f08c379a00000000000000000000000000000000000000000000000000000000081526004018080602001828103825260298152602001807f436f6e74726163742062616c616e636520646964206e6f74206368616e67652081526020017f636f72726563746c79000000000000000000000000000000000000000000000081525060400191505060405180910390fd5b826040015160366000856060015181526020019081526020016000206000856000015173ffffffffffffffffffffffffffffffffffffffff1673ffffffffffffffffffffffffffffffffffffffff16815260200190815260200160002060008282540192505081905550600160356000876000191660001916815260200190815260200160002060006101000a81548160ff0219169083151502179055508360346000876000191660001916815260200190815260200160002060050160016101000a81548173ffffffffffffffffffffffffffffffffffffffff021916908373ffffffffffffffffffffffffffffffffffffffff1602179055507f71ababf5e7216015af8d663a4dad4c03126995d38d4667931b79db78cdce3b0385846080015160405180836000191660001916815260200180602001828103825283818151815260200191508051906020019080838360005b8381101561133957808201518184015260208101905061131e565b50505050905090810190601f1680156113665780820380516001836020036101000a031916815260200191505b50935050505060405180910390a15050505050565b60008060006060600080600060346000896000191660001916815260200190815260200160002090508060000160009054906101000a900473ffffffffffffffffffffffffffffffffffffffff1696508060010154955080600201549450806004018054600181600116156101000203166002900480601f0160208091040260200160405190810160405280929190818152602001828054600181600116156101000203166002900480156114715780601f1061144657610100808354040283529160200191611471565b820191906000526020600020905b81548152906001019060200180831161145457829003601f168201915b50505050509350806003015492508060050160019054906101000a900473ffffffffffffffffffffffffffffffffffffffff1691505091939550919395565b60376020528060005260406000206000915090505481565b6114d061292e565b600073ffffffffffffffffffffffffffffffffffffffff16603360009054906101000a900473ffffffffffffffffffffffffffffffffffffffff1673ffffffffffffffffffffffffffffffffffffffff16141515156115bd576040517f08c379a00000000000000000000000000000000000000000000000000000000081526004018080602001828103825260238152602001807f526f756e647320726567697374727920696e7374616e6365206973206e6f742081526020017f736574000000000000000000000000000000000000000000000000000000000081525060400191505060405180910390fd5b60346000836000191660001916815260200190815260200160002060e060405190810160405290816000820160009054906101000a900473ffffffffffffffffffffffffffffffffffffffff1673ffffffffffffffffffffffffffffffffffffffff1673ffffffffffffffffffffffffffffffffffffffff168152602001600182015481526020016002820154815260200160038201548152602001600482018054600181600116156101000203166002900480601f0160208091040260200160405190810160405280929190818152602001828054600181600116156101000203166002900480156116f15780601f106116c6576101008083540402835291602001916116f1565b820191906000526020600020905b8154815290600101906020018083116116d457829003601f168201915b505050505081526020016005820160009054906101000a900460ff161515151581526020016005820160019054906101000a900473ffffffffffffffffffffffffffffffffffffffff1673ffffffffffffffffffffffffffffffffffffffff1673ffffffffffffffffffffffffffffffffffffffff16815250509050600073ffffffffffffffffffffffffffffffffffffffff16816000015173ffffffffffffffffffffffffffffffffffffffff1614151561183b576040517f08c379a000000000000000000000000000000000000000000000000000000000815260040180806020018281038252603b8152602001807f54686520455243323020746f6b656e206973206e6f74207468652073616d652081526020017f617320646566696e656420696e2074686520636f6e74726163742e000000000081525060400191505060405180910390fd5b600081604001511115156118b7576040517f08c379a000000000000000000000000000000000000000000000000000000000815260040180806020018281038252601b8152602001807f42696c6c2063616e206e6f74206265207a65726f20616d6f756e74000000000081525060200191505060405180910390fd5b348160400151141515611958576040517f08c379a00000000000000000000000000000000000000000000000000000000081526004018080602001828103825260338152602001807f42696c6c20616d6f756e74206973206e6f74207468652073616d65206173207481526020017f686520616d6f756e7420617267756d656e742e0000000000000000000000000081525060400191505060405180910390fd5b6000151560356000846000191660001916815260200190815260200160002060009054906101000a900460ff1615151415156119fc576040517f08c379a00000000000000000000000000000000000000000000000000000000081526004018080602001828103825260158152602001807f42696c6c20697320616c726561647920706169642e000000000000000000000081525060200191505060405180910390fd5b34603660008360600151815260200190815260200160002060008073ffffffffffffffffffffffffffffffffffffffff1673ffffffffffffffffffffffffffffffffffffffff16815260200190815260200160002060008282540192505081905550600160356000846000191660001916815260200190815260200160002060006101000a81548160ff0219169083151502179055503360346000846000191660001916815260200190815260200160002060050160016101000a81548173ffffffffffffffffffffffffffffffffffffffff021916908373ffffffffffffffffffffffffffffffffffffffff1602179055507f71ababf5e7216015af8d663a4dad4c03126995d38d4667931b79db78cdce3b0382826080015160405180836000191660001916815260200180602001828103825283818151815260200191508051906020019080838360005b83811015611b64578082015181840152602081019050611b49565b50505050905090810190601f168015611b915780820380516001836020036101000a031916815260200191505b50935050505060405180910390a15050565b600080600080600080600073ffffffffffffffffffffffffffffffffffffffff16603360009054906101000a900473ffffffffffffffffffffffffffffffffffffffff1673ffffffffffffffffffffffffffffffffffffffff1614151515611c99576040517f08c379a00000000000000000000000000000000000000000000000000000000081526004018080602001828103825260238152602001807f526f756e647320726567697374727920696e7374616e6365206973206e6f742081526020017f736574000000000000000000000000000000000000000000000000000000000081525060400191505060405180910390fd5b611ca38a8a61253c565b9450603360009054906101000a900473ffffffffffffffffffffffffffffffffffffffff1673ffffffffffffffffffffffffffffffffffffffff166387a8ab5c886040518263ffffffff167c010000000000000000000000000000000000000000000000000000000002815260040180828152602001915050608060405180830381600087803b158015611d3657600080fd5b505af1158015611d4a573d6000803e3d6000fd5b505050506040513d6080811015611d6057600080fd5b81019080805190602001909291908051906020019092919080519060200190929190805190602001909291905050509350935093509350600184141515611e0f576040517f08c379a00000000000000000000000000000000000000000000000000000000081526004018080602001828103825260178152602001807f526f756e64206d7573742062652061637469766174656400000000000000000081525060200191505060405180910390fd5b6001151573__MerkleUtils___________________________635e12939c8a84896040518463ffffffff167c0100000000000000000000000000000000000000000000000000000000028152600401808060200184600019166000191681526020018360001916600019168152602001828103825285818151815260200191508051906020019060200280838360005b83811015611eba578082015181840152602081019050611e9f565b5050505090500194505050505060206040518083038186803b158015611edf57600080fd5b505af4158015611ef3573d6000803e3d6000fd5b505050506040513d6020811015611f0957600080fd5b81019080805190602001909291905050501515141515611fb7576040517f08c379a00000000000000000000000000000000000000000000000000000000081526004018080602001828103825260288152602001807f42696c6c206973206e6f7420696e636c7564656420696e20746865204d65726b81526020017f6c6520747265652e00000000000000000000000000000000000000000000000081525060400191505060405180910390fd5b60e0604051908101604052808373ffffffffffffffffffffffffffffffffffffffff1681526020018481526020018a81526020018881526020018b8152602001600115158152602001600073ffffffffffffffffffffffffffffffffffffffff1681525060346000876000191660001916815260200190815260200160002060008201518160000160006101000a81548173ffffffffffffffffffffffffffffffffffffffff021916908373ffffffffffffffffffffffffffffffffffffffff16021790555060208201518160010155604082015181600201556060820151816003015560808201518160040190805190602001906120b792919061299a565b5060a08201518160050160006101000a81548160ff02191690831515021790555060c08201518160050160016101000a81548173ffffffffffffffffffffffffffffffffffffffff021916908373ffffffffffffffffffffffffffffffffffffffff160217905550905050846037600089815260200190815260200160002081600019169055507fd8e4b577675e009f1c05048e1cea5806ec323b89cb67cb2b0caa4b3b9e7a87c0858b60405180836000191660001916815260200180602001828103825283818151815260200191508051906020019080838360005b838110156121af578082015181840152602081019050612194565b50505050905090810190601f1680156121dc5780820380516001836020036101000a031916815260200191505b50935050505060405180910390a18495505050505050949350505050565b60008090509392505050565b61220e612438565b151561221957600080fd5b600073ffffffffffffffffffffffffffffffffffffffff166000809054906101000a900473ffffffffffffffffffffffffffffffffffffffff1673ffffffffffffffffffffffffffffffffffffffff167f8be0079c531659141344cd1fd0a4f28419497f9722a3daafe3b4186f6b6457e060405160405180910390a360008060006101000a81548173ffffffffffffffffffffffffffffffffffffffff021916908373ffffffffffffffffffffffffffffffffffffffff160217905550565b60008060159054906101000a900460ff16806122f857506122f7612728565b5b806123105750600060149054906101000a900460ff16155b15156123aa576040517f08c379a000000000000000000000000000000000000000000000000000000000815260040180806020018281038252602e8152602001807f436f6e747261637420696e7374616e63652068617320616c726561647920626581526020017f656e20696e697469616c697a656400000000000000000000000000000000000081525060400191505060405180910390fd5b600060159054906101000a900460ff1690506001600060156101000a81548160ff0219169083151502179055506001600060146101000a81548160ff02191690831515021790555080600060156101000a81548160ff02191690831515021790555050565b60008060009054906101000a900473ffffffffffffffffffffffffffffffffffffffff16905090565b60008060009054906101000a900473ffffffffffffffffffffffffffffffffffffffff1673ffffffffffffffffffffffffffffffffffffffff163373ffffffffffffffffffffffffffffffffffffffff1614905090565b6036602052816000526040600020602052806000526040600020600091509150505481565b60356020528060005260406000206000915054906101000a900460ff1681565b5050565b60006124e685858585611ba3565b90506124f1816114c8565b5050505050565b600061250686868686611ba3565b905061251281836108f1565b505050505050565b50565b612525612438565b151561253057600080fd5b61253981612739565b50565b60006126be61265073__BytesUtils____________________________639201de55856001026040518263ffffffff167c010000000000000000000000000000000000000000000000000000000002815260040180826000191660001916815260200191505060006040518083038186803b1580156125ba57600080fd5b505af41580156125ce573d6000803e3d6000fd5b505050506040513d6000823e3d601f19601f8201168201806040525060208110156125f857600080fd5b81019080805164010000000081111561261057600080fd5b8281019050602081018481111561262657600080fd5b815185600182028301116401000000008211171561264357600080fd5b5050929190505050612833565b6126b06126ab6126946040805190810160405280600181526020017f2c00000000000000000000000000000000000000000000000000000000000000815250612833565b61269d88612833565b61286190919063ffffffff16565b612833565b61286190919063ffffffff16565b6040518082805190602001908083835b6020831015156126f357805182526020820191506020810190506020830392506126ce565b6001836020036101000a0380198251168184511680821785525050505050509050019150506040518091039020905092915050565b600080303b90506000811491505090565b600073ffffffffffffffffffffffffffffffffffffffff168173ffffffffffffffffffffffffffffffffffffffff161415151561277557600080fd5b8073ffffffffffffffffffffffffffffffffffffffff166000809054906101000a900473ffffffffffffffffffffffffffffffffffffffff1673ffffffffffffffffffffffffffffffffffffffff167f8be0079c531659141344cd1fd0a4f28419497f9722a3daafe3b4186f6b6457e060405160405180910390a3806000806101000a81548173ffffffffffffffffffffffffffffffffffffffff021916908373ffffffffffffffffffffffffffffffffffffffff16021790555050565b61283b612a1a565b600060208301905060408051908101604052808451815260200182815250915050919050565b606080600083600001518560000151016040519080825280601f01601f1916602001820160405280156128a35781602001602082028038833980820191505090505b5091506020820190506128bf81866020015187600001516128e3565b6128d885600001518201856020015186600001516128e3565b819250505092915050565b60005b60208210151561290b57825184526020840193506020830192506020820391506128e6565b6001826020036101000a0390508019835116818551168181178652505050505050565b60e060405190810160405280600073ffffffffffffffffffffffffffffffffffffffff16815260200160008152602001600081526020016000815260200160608152602001600015158152602001600073ffffffffffffffffffffffffffffffffffffffff1681525090565b828054600181600116156101000203166002900490600052602060002090601f016020900481019282601f106129db57805160ff1916838001178555612a09565b82800160010185558215612a09579182015b82811115612a085782518255916020019190600101906129ed565b5b509050612a169190612a34565b5090565b604080519081016040528060008152602001600081525090565b612a5691905b80821115612a52576000816000905550600101612a3a565b5090565b905600a165627a7a72305820aa0e2e39a8678364b151c8c7942069f14a0ed7f89d18f95ff749b038f41551830029",
  "source": "pragma solidity ^0.4.24;\n\nimport \"openzeppelin-solidity/contracts/ownership/Ownable.sol\";\nimport \"openzeppelin-solidity/contracts/token/ERC20/IERC20.sol\";\nimport \"zos-lib/contracts/Initializable.sol\";\nimport \"./libraries/ShastaTypes.sol\";\nimport \"./libraries/strings.sol\";\nimport \"./libraries/MerkleUtils.sol\";\nimport \"./libraries/BytesUtils.sol\";\nimport \"./Rounds.sol\";\n/**\n * @title BillSystem\n */\ncontract BillSystem is Ownable, Initializable {\n  using strings for *;\n  Rounds roundsRegistry;\n\n  mapping(bytes32 => ShastaTypes.Bill) bills;\n  mapping(bytes32 => bool) public isBillPaid;\n  // mapping of round number to round balances\n  mapping (uint => mapping(address => uint)) public roundBalances; \n  mapping (uint => bytes32) public roundBills;\n\n  event NewBill(bytes32 billId, string ipfsMetadata);\n  event BillPaid(bytes32 billId, string ipfsMetadata);\n\n  // Upgradeable contract pattern with initializer using zeppelinOS way.\n  function initialize() public initializer {\n  }\n\n  /**\n    * @dev Set the rounds registry smart contract address\n    * @param roundsRegistryAddress The round registry address to set\n    */\n  function setRoundsRegistry(address roundsRegistryAddress) public {\n    roundsRegistry = Rounds(roundsRegistryAddress);\n  }\n\n  /**\n    * @dev Get the bill data\n    * @param billId The bill id\n    * @return whConsumed The watts/hour consumed in the bill\n    * @return tokenAddress The ERC20 currency address that is used to pay the bill \n    * @return seller The seller/producer address\n    * @return consumer The consumer address\n    * @return price The unit price of one watt/hour\n    * @return amount The amount of watt/hour consumed\n    * @return ipfsMetadata Extra metadata that is appended to the bill, via IPFS hash\n    */\n  function getBill(bytes32 billId) public view returns(\n    address tokenAddress,\n    uint256 price,\n    uint256 amount,\n    string ipfsMetadata,\n    uint round,\n    address payer\n  ) {\n    ShastaTypes.Bill storage bill = bills[billId];\n    tokenAddress = bill.tokenAddress;\n    price = bill.price;\n    amount = bill.amount;\n    ipfsMetadata = bill.ipfsMetadata;\n    round = bill.round;\n    payer = bill.payer;\n  }\n\n\n  /**\n    * @dev Get the ERC20/ETH balance from an address\n    * @param tokenAddress The ERC20 smart contract address. If address is 0x it return the ETH balance. \n    * @param round The round index\n    * @param userAddress The ethereum address\n    * @return balance The token/eth balance\n    */\n  function getBalance(address tokenAddress, uint round, address userAddress) public view returns(uint256 balance) {\n    return 0; // TODO: producers withdrawal docs\n  }\n\n  /**\n    * @dev Generates a new bill and pays it (Only ERC20) \n    * @param ipfsBillMetadata The IPFS hash that stores the bill metadata\n    * @param tokenAmount The amount of tokens of the bill\n    * @param proofs An array of merkle proofs in bytes32\n    * @param round The round index to generate the bill\n    */\n  function generateAndPayBillERC20(\n    string ipfsBillMetadata,\n    uint tokenAmount,\n    bytes32[] proofs,\n    uint round,\n    address payer\n  ) public {\n    bytes32 billHash = generateBill(ipfsBillMetadata, tokenAmount, proofs, round);\n    payBillERC20(billHash, payer);\n  }\n\n\n   /**\n    * @dev Generates a new bill and pays it (Only ETH)\n    * @param ipfsBillMetadata The IPFS hash that stores the bill metadata\n    * @param tokenAmount The amount of tokens of the bill\n    * @param proofs An array of merkle proofs in bytes32\n    * @param round The round index to generate the bill\n    */\n  function generateAndPayBillETH(\n    string ipfsBillMetadata,\n    uint tokenAmount,\n    bytes32[] proofs,\n    uint round\n  ) public {\n    bytes32 billHash = generateBill(ipfsBillMetadata, tokenAmount, proofs, round);\n    payBillETH(billHash);\n  }\n\n  /**\n    * @dev Generates a keccak256 concatenating ipfs_bill_hash + \",\" + consumed\n    * @param ipfsBillMetadata The ipfs hash string of a bill\n    * @param tokenAmount The amount of watts consumed\n    * @return bytes32  The resulting keccak256 hash\n    */\n  function generateBillHash(string memory ipfsBillMetadata, uint tokenAmount) internal pure returns (bytes32) {\n    return keccak256(\n      bytes(\n        ipfsBillMetadata.toSlice()\n        .concat(\",\".toSlice()).toSlice()\n        .concat(\n          BytesUtils.bytes32ToString(\n            bytes32(tokenAmount)\n          )\n          .toSlice()\n        )\n      )\n    );\n  }\n\n  /**\n    * @dev Generates a new energy bill\n    * @param ipfsBillMetadata The ipfs hash\n    * @param tokenAmount The token amount\n    * @param proofs The proofs in array bytes32 format\n    * @param round The round to verify the bill and inherit his state\n    * @return bytes32 Returns the bill\n    */\n  function generateBill(string ipfsBillMetadata, uint tokenAmount, bytes32[] proofs, uint round) public returns(bytes32) {\n    require(address(roundsRegistry) != address(0), \"Rounds registry instance is not set\");\n    bytes32 billHash = generateBillHash(ipfsBillMetadata, tokenAmount);\n    (\n      uint stage,\n      uint energyPrice,\n      address tokenAddress,\n      bytes32 billingRoot\n    ) = roundsRegistry.getRoundForBilling(round);\n    require(stage == 1, \"Round must be activated\");\n    require(MerkleUtils.verifyMerkle(proofs, billingRoot, billHash) == true, \"Bill is not included in the Merkle tree.\");\n    bills[billHash] = ShastaTypes.Bill(\n      tokenAddress, // If tokenAddress 0x00 == ETHER as payment\n      energyPrice,\n      tokenAmount,\n      round,\n      ipfsBillMetadata,\n      true,\n      address(0)\n    );\n    roundBills[round] = billHash;\n    emit NewBill(billHash, ipfsBillMetadata);\n    return billHash;\n  }\n\n  /**\n    * @dev Withdraw all the current ETH balance from the caller account\n    */\n  function withdrawETH(uint round) public {\n    return; // TODO: Do producers withdrawal documentation\n  }\n\n   /**\n    * @dev Withdraw all the current ERC20 token balance from the caller account\n    * @param tokenAddress The ERC20 smart contract address to transfer funds to the caller account \n    * @param round The number of the round to withdraw\n    */\n  function withdrawERC20(address tokenAddress, uint round) public {\n    return; // TODO: Do producers withdrawal documentation\n  }\n\n  /**\n    * @dev Pay a Shasta bill with ETH \n    * @param billHash  The bill hash\n    */\n  function payBillETH(bytes32 billHash) public payable {\n    require(address(roundsRegistry) != address(0), \"Rounds registry instance is not set\");\n    ShastaTypes.Bill memory bill = bills[billHash];\n    require(bill.tokenAddress == address(0), \"The ERC20 token is not the same as defined in the contract.\");\n    require(bill.amount > 0, \"Bill can not be zero amount\");\n    require(bill.amount == msg.value, \"Bill amount is not the same as the amount argument.\");\n    require(isBillPaid[billHash] == false, \"Bill is already paid.\");\n    roundBalances[bill.round][address(0)] += msg.value;\n    isBillPaid[billHash] = true;\n    bills[billHash].payer = msg.sender;\n    emit BillPaid(billHash, bill.ipfsMetadata);\n  }\n\n  /**\n    * @dev Pay a Shasta bill with ERC20. The ERC20 token to pay is determined in the contract between consumer and producer.\n    * @param billHash  The bill hash\n    */\n  function payBillERC20(bytes32 billHash, address payer) public {\n    require(payer != address(0), \"0x address is banned to pay with ERC20\");\n    require(address(roundsRegistry) != address(0), \"Rounds registry instance is not set\");\n    ShastaTypes.Bill memory bill = bills[billHash];\n    require(bill.amount > 0, \"Bill does not exists\");\n    require(bill.tokenAddress != address(0), \"The ERC20 token address must not be 0x00.\");\n    require(isBillPaid[billHash] == false, \"Bill is already paid.\");\n    IERC20 tokenInstance = IERC20(bill.tokenAddress);\n    // Make the approved transfer and be sure that this smart contract have the correct balance after transfer\n    uint256 currentBalance = IERC20(bill.tokenAddress).balanceOf(address(this));\n    tokenInstance.transferFrom(payer, address(this), bill.amount);\n    require(\n      (currentBalance + bill.amount) == IERC20(bill.tokenAddress).balanceOf(address(this)),\n      \"Contract balance did not change correctly\"\n    );\n    // After transfer, point the new balance and make the bill as paid\n    roundBalances[bill.round][bill.tokenAddress] += bill.amount;\n    isBillPaid[billHash] = true;\n    bills[billHash].payer = payer;\n    emit BillPaid(billHash, bill.ipfsMetadata);\n  }\n\n  function getRoundBillsLength(uint round) public view returns(uint) {\n    return roundBills[round].length;\n  }\n}",
  "sourcePath": "/home/davidracero/repos/ShastaOS/contracts/BillSystem.sol",
  "compiler": {
    "name": "solc",
    "version": "0.4.24+commit.e67f0147.Emscripten.clang"
  },
  "schemaVersion": "3.0.0-beta.0",
  "updatedAt": "2018-11-19T10:28:03.624Z"
}