{
  "contractName": "BillSystem",
  "abi": [
    {
      "constant": true,
      "inputs": [
        {
          "name": "",
          "type": "uint256"
        }
      ],
      "name": "bills",
      "outputs": [
        {
          "name": "whConsumed",
          "type": "uint256"
        },
        {
          "name": "tokenAddress",
          "type": "address"
        },
        {
          "name": "seller",
          "type": "address"
        },
        {
          "name": "consumer",
          "type": "address"
        },
        {
          "name": "price",
          "type": "uint256"
        },
        {
          "name": "amount",
          "type": "uint256"
        },
        {
          "name": "ipfsMetadata",
          "type": "string"
        }
      ],
      "payable": false,
      "stateMutability": "view",
      "type": "function"
    },
    {
      "constant": true,
      "inputs": [],
      "name": "contractRegistryAddress",
      "outputs": [
        {
          "name": "",
          "type": "address"
        }
      ],
      "payable": false,
      "stateMutability": "view",
      "type": "function"
    },
    {
      "constant": false,
      "inputs": [],
      "name": "renounceOwnership",
      "outputs": [],
      "payable": false,
      "stateMutability": "nonpayable",
      "type": "function"
    },
    {
      "constant": true,
      "inputs": [],
      "name": "owner",
      "outputs": [
        {
          "name": "",
          "type": "address"
        }
      ],
      "payable": false,
      "stateMutability": "view",
      "type": "function"
    },
    {
      "constant": true,
      "inputs": [],
      "name": "isOwner",
      "outputs": [
        {
          "name": "",
          "type": "bool"
        }
      ],
      "payable": false,
      "stateMutability": "view",
      "type": "function"
    },
    {
      "constant": true,
      "inputs": [
        {
          "name": "",
          "type": "address"
        },
        {
          "name": "",
          "type": "address"
        }
      ],
      "name": "balances",
      "outputs": [
        {
          "name": "",
          "type": "uint256"
        }
      ],
      "payable": false,
      "stateMutability": "view",
      "type": "function"
    },
    {
      "constant": false,
      "inputs": [
        {
          "name": "newOwner",
          "type": "address"
        }
      ],
      "name": "transferOwnership",
      "outputs": [],
      "payable": false,
      "stateMutability": "nonpayable",
      "type": "function"
    },
    {
      "anonymous": false,
      "inputs": [
        {
          "indexed": false,
          "name": "consumer",
          "type": "address"
        },
        {
          "indexed": false,
          "name": "seller",
          "type": "address"
        },
        {
          "indexed": false,
          "name": "index",
          "type": "uint256"
        }
      ],
      "name": "NewBill",
      "type": "event"
    },
    {
      "anonymous": false,
      "inputs": [
        {
          "indexed": false,
          "name": "seller",
          "type": "address"
        }
      ],
      "name": "Newseller",
      "type": "event"
    },
    {
      "anonymous": false,
      "inputs": [
        {
          "indexed": false,
          "name": "index",
          "type": "uint256"
        },
        {
          "indexed": false,
          "name": "consumer",
          "type": "address"
        },
        {
          "indexed": false,
          "name": "seller",
          "type": "address"
        }
      ],
      "name": "BillPaid",
      "type": "event"
    },
    {
      "anonymous": false,
      "inputs": [
        {
          "indexed": true,
          "name": "previousOwner",
          "type": "address"
        },
        {
          "indexed": true,
          "name": "newOwner",
          "type": "address"
        }
      ],
      "name": "OwnershipTransferred",
      "type": "event"
    },
    {
      "constant": false,
      "inputs": [],
      "name": "initialize",
      "outputs": [],
      "payable": false,
      "stateMutability": "nonpayable",
      "type": "function"
    },
    {
      "constant": false,
      "inputs": [
        {
          "name": "_contractRegistryAddress",
          "type": "address"
        }
      ],
      "name": "setContractRegistry",
      "outputs": [],
      "payable": false,
      "stateMutability": "nonpayable",
      "type": "function"
    },
    {
      "constant": true,
      "inputs": [
        {
          "name": "index",
          "type": "uint256"
        }
      ],
      "name": "getBill",
      "outputs": [
        {
          "name": "whConsumed",
          "type": "uint256"
        },
        {
          "name": "tokenAddress",
          "type": "address"
        },
        {
          "name": "seller",
          "type": "address"
        },
        {
          "name": "consumer",
          "type": "address"
        },
        {
          "name": "price",
          "type": "uint256"
        },
        {
          "name": "amount",
          "type": "uint256"
        },
        {
          "name": "ipfsMetadata",
          "type": "string"
        }
      ],
      "payable": false,
      "stateMutability": "view",
      "type": "function"
    },
    {
      "constant": true,
      "inputs": [],
      "name": "getBillsLength",
      "outputs": [
        {
          "name": "length",
          "type": "uint256"
        }
      ],
      "payable": false,
      "stateMutability": "view",
      "type": "function"
    },
    {
      "constant": true,
      "inputs": [
        {
          "name": "_address",
          "type": "address"
        }
      ],
      "name": "getConsumerBillsLength",
      "outputs": [
        {
          "name": "length",
          "type": "uint256"
        }
      ],
      "payable": false,
      "stateMutability": "view",
      "type": "function"
    },
    {
      "constant": true,
      "inputs": [
        {
          "name": "_address",
          "type": "address"
        }
      ],
      "name": "getSellerBillsLength",
      "outputs": [
        {
          "name": "length",
          "type": "uint256"
        }
      ],
      "payable": false,
      "stateMutability": "view",
      "type": "function"
    },
    {
      "constant": true,
      "inputs": [
        {
          "name": "tokenAddress",
          "type": "address"
        },
        {
          "name": "userAddress",
          "type": "address"
        }
      ],
      "name": "getBalance",
      "outputs": [
        {
          "name": "balance",
          "type": "uint256"
        }
      ],
      "payable": false,
      "stateMutability": "view",
      "type": "function"
    },
    {
      "constant": false,
      "inputs": [
        {
          "name": "tokenAddress",
          "type": "address"
        },
        {
          "name": "seller",
          "type": "address"
        },
        {
          "name": "consumer",
          "type": "address"
        },
        {
          "name": "price",
          "type": "uint256"
        },
        {
          "name": "monthlyWh",
          "type": "uint256"
        },
        {
          "name": "enabled",
          "type": "bool"
        },
        {
          "name": "ipfsContractMetadata",
          "type": "string"
        },
        {
          "name": "ipfsBillMetadata",
          "type": "string"
        }
      ],
      "name": "newPrepaidContract",
      "outputs": [],
      "payable": false,
      "stateMutability": "nonpayable",
      "type": "function"
    },
    {
      "constant": false,
      "inputs": [
        {
          "name": "wh",
          "type": "uint256"
        },
        {
          "name": "contractId",
          "type": "uint256"
        },
        {
          "name": "ipfsMetadata",
          "type": "string"
        }
      ],
      "name": "generateBill",
      "outputs": [
        {
          "name": "newIndex",
          "type": "uint256"
        }
      ],
      "payable": false,
      "stateMutability": "nonpayable",
      "type": "function"
    },
    {
      "constant": false,
      "inputs": [],
      "name": "withdrawETH",
      "outputs": [],
      "payable": false,
      "stateMutability": "nonpayable",
      "type": "function"
    },
    {
      "constant": false,
      "inputs": [
        {
          "name": "tokenAddress",
          "type": "address"
        }
      ],
      "name": "withdrawERC20",
      "outputs": [],
      "payable": false,
      "stateMutability": "nonpayable",
      "type": "function"
    },
    {
      "constant": false,
      "inputs": [
        {
          "name": "billIndex",
          "type": "uint256"
        }
      ],
      "name": "payBillETH",
      "outputs": [],
      "payable": true,
      "stateMutability": "payable",
      "type": "function"
    },
    {
      "constant": false,
      "inputs": [
        {
          "name": "billIndex",
          "type": "uint256"
        }
      ],
      "name": "payBillERC20",
      "outputs": [],
      "payable": false,
      "stateMutability": "nonpayable",
      "type": "function"
    }
  ],
  "bytecode": "0x6080604052336000806101000a81548173ffffffffffffffffffffffffffffffffffffffff021916908373ffffffffffffffffffffffffffffffffffffffff1602179055506000809054906101000a900473ffffffffffffffffffffffffffffffffffffffff1673ffffffffffffffffffffffffffffffffffffffff16600073ffffffffffffffffffffffffffffffffffffffff167f8be0079c531659141344cd1fd0a4f28419497f9722a3daafe3b4186f6b6457e060405160405180910390a3612bc9806100cf6000396000f300608060405260043610610112576000357c0100000000000000000000000000000000000000000000000000000000900463ffffffff1680630610e5de14610117578063233490401461024657806328bdcde81461029d57806346af6070146103f1578063715018a6146104485780638129fc1c1461045f5780638da5cb5b146104765780638f32d59b146104cd578063b0c96c0b146104fc578063b1cd06e614610527578063c23f001f1461067b578063c424433b146106f2578063c4f6708a1461071f578063c5df06591461073f578063d4fac45d146107d0578063e086e5ec14610847578063f2fde38b1461085e578063f4f3b200146108a1578063f64018c4146108e4578063fcd13d651461093b575b600080fd5b34801561012357600080fd5b50610244600480360381019080803573ffffffffffffffffffffffffffffffffffffffff169060200190929190803573ffffffffffffffffffffffffffffffffffffffff169060200190929190803573ffffffffffffffffffffffffffffffffffffffff1690602001909291908035906020019092919080359060200190929190803515159060200190929190803590602001908201803590602001908080601f0160208091040260200160405190810160405280939291908181526020018383808284378201915050505050509192919290803590602001908201803590602001908080601f016020809104026020016040519081016040528093929190818152602001838380828437820191505050505050919291929050505061097e565b005b34801561025257600080fd5b50610287600480360381019080803573ffffffffffffffffffffffffffffffffffffffff169060200190929190505050610b8e565b6040518082815260200191505060405180910390f35b3480156102a957600080fd5b506102c860048036038101908080359060200190929190505050610bda565b604051808881526020018773ffffffffffffffffffffffffffffffffffffffff1673ffffffffffffffffffffffffffffffffffffffff1681526020018673ffffffffffffffffffffffffffffffffffffffff1673ffffffffffffffffffffffffffffffffffffffff1681526020018573ffffffffffffffffffffffffffffffffffffffff1673ffffffffffffffffffffffffffffffffffffffff16815260200184815260200183815260200180602001828103825283818151815260200191508051906020019080838360005b838110156103b0578082015181840152602081019050610395565b50505050905090810190601f1680156103dd5780820380516001836020036101000a031916815260200191505b509850505050505050505060405180910390f35b3480156103fd57600080fd5b50610406610d23565b604051808273ffffffffffffffffffffffffffffffffffffffff1673ffffffffffffffffffffffffffffffffffffffff16815260200191505060405180910390f35b34801561045457600080fd5b5061045d610d49565b005b34801561046b57600080fd5b50610474610e1b565b005b34801561048257600080fd5b5061048b610f52565b604051808273ffffffffffffffffffffffffffffffffffffffff1673ffffffffffffffffffffffffffffffffffffffff16815260200191505060405180910390f35b3480156104d957600080fd5b506104e2610f7b565b604051808215151515815260200191505060405180910390f35b34801561050857600080fd5b50610511610fd2565b6040518082815260200191505060405180910390f35b34801561053357600080fd5b5061055260048036038101908080359060200190929190505050610fdf565b604051808881526020018773ffffffffffffffffffffffffffffffffffffffff1673ffffffffffffffffffffffffffffffffffffffff1681526020018673ffffffffffffffffffffffffffffffffffffffff1673ffffffffffffffffffffffffffffffffffffffff1681526020018573ffffffffffffffffffffffffffffffffffffffff1673ffffffffffffffffffffffffffffffffffffffff16815260200184815260200183815260200180602001828103825283818151815260200191508051906020019080838360005b8381101561063a57808201518184015260208101905061061f565b50505050905090810190601f1680156106675780820380516001836020036101000a031916815260200191505b509850505050505050505060405180910390f35b34801561068757600080fd5b506106dc600480360381019080803573ffffffffffffffffffffffffffffffffffffffff169060200190929190803573ffffffffffffffffffffffffffffffffffffffff169060200190929190505050611140565b6040518082815260200191505060405180910390f35b3480156106fe57600080fd5b5061071d60048036038101908080359060200190929190505050611165565b005b61073d600480360381019080803590602001909291905050506117d3565b005b34801561074b57600080fd5b506107ba6004803603810190808035906020019092919080359060200190929190803590602001908201803590602001908080601f0160208091040260200160405190810160405280939291908181526020018383808284378201915050505050509192919290505050611db4565b6040518082815260200191505060405180910390f35b3480156107dc57600080fd5b50610831600480360381019080803573ffffffffffffffffffffffffffffffffffffffff169060200190929190803573ffffffffffffffffffffffffffffffffffffffff169060200190929190505050612270565b6040518082815260200191505060405180910390f35b34801561085357600080fd5b5061085c6122f7565b005b34801561086a57600080fd5b5061089f600480360381019080803573ffffffffffffffffffffffffffffffffffffffff1690602001909291905050506124bc565b005b3480156108ad57600080fd5b506108e2600480360381019080803573ffffffffffffffffffffffffffffffffffffffff1690602001909291905050506124db565b005b3480156108f057600080fd5b50610925600480360381019080803573ffffffffffffffffffffffffffffffffffffffff16906020019092919050505061289c565b6040518082815260200191505060405180910390f35b34801561094757600080fd5b5061097c600480360381019080803573ffffffffffffffffffffffffffffffffffffffff1690602001909291905050506128e8565b005b600080603460009054906101000a900473ffffffffffffffffffffffffffffffffffffffff1673ffffffffffffffffffffffffffffffffffffffff1663df4710b68b8b8b8b8b8b8b6040518863ffffffff167c0100000000000000000000000000000000000000000000000000000000028152600401808873ffffffffffffffffffffffffffffffffffffffff1673ffffffffffffffffffffffffffffffffffffffff1681526020018773ffffffffffffffffffffffffffffffffffffffff1673ffffffffffffffffffffffffffffffffffffffff1681526020018673ffffffffffffffffffffffffffffffffffffffff1673ffffffffffffffffffffffffffffffffffffffff1681526020018581526020018481526020018315151515815260200180602001828103825283818151815260200191508051906020019080838360005b83811015610add578082015181840152602081019050610ac2565b50505050905090810190601f168015610b0a5780820380516001836020036101000a031916815260200191505b5098505050505050505050602060405180830381600087803b158015610b2f57600080fd5b505af1158015610b43573d6000803e3d6000fd5b505050506040513d6020811015610b5957600080fd5b81019080805190602001909291905050509150610b77868385611db4565b9050610b8281611165565b50505050505050505050565b6000603760008373ffffffffffffffffffffffffffffffffffffffff1673ffffffffffffffffffffffffffffffffffffffff168152602001908152602001600020805490509050919050565b603581815481101515610be957fe5b90600052602060002090600702016000915090508060000154908060010160009054906101000a900473ffffffffffffffffffffffffffffffffffffffff16908060020160009054906101000a900473ffffffffffffffffffffffffffffffffffffffff16908060030160009054906101000a900473ffffffffffffffffffffffffffffffffffffffff1690806004015490806005015490806006018054600181600116156101000203166002900480601f016020809104026020016040519081016040528092919081815260200182805460018160011615610100020316600290048015610d195780601f10610cee57610100808354040283529160200191610d19565b820191906000526020600020905b815481529060010190602001808311610cfc57829003601f168201915b5050505050905087565b603360009054906101000a900473ffffffffffffffffffffffffffffffffffffffff1681565b610d51610f7b565b1515610d5c57600080fd5b600073ffffffffffffffffffffffffffffffffffffffff166000809054906101000a900473ffffffffffffffffffffffffffffffffffffffff1673ffffffffffffffffffffffffffffffffffffffff167f8be0079c531659141344cd1fd0a4f28419497f9722a3daafe3b4186f6b6457e060405160405180910390a360008060006101000a81548173ffffffffffffffffffffffffffffffffffffffff021916908373ffffffffffffffffffffffffffffffffffffffff160217905550565b60008060159054906101000a900460ff1680610e3b5750610e3a61296d565b5b80610e535750600060149054906101000a900460ff16155b1515610eed576040517f08c379a000000000000000000000000000000000000000000000000000000000815260040180806020018281038252602e8152602001807f436f6e747261637420696e7374616e63652068617320616c726561647920626581526020017f656e20696e697469616c697a656400000000000000000000000000000000000081525060400191505060405180910390fd5b600060159054906101000a900460ff1690506001600060156101000a81548160ff0219169083151502179055506001600060146101000a81548160ff02191690831515021790555080600060156101000a81548160ff02191690831515021790555050565b60008060009054906101000a900473ffffffffffffffffffffffffffffffffffffffff16905090565b60008060009054906101000a900473ffffffffffffffffffffffffffffffffffffffff1673ffffffffffffffffffffffffffffffffffffffff163373ffffffffffffffffffffffffffffffffffffffff1614905090565b6000603580549050905090565b60008060008060008060606000603589815481101515610ffb57fe5b90600052602060002090600702019050806000015497508060010160009054906101000a900473ffffffffffffffffffffffffffffffffffffffff1696508060020160009054906101000a900473ffffffffffffffffffffffffffffffffffffffff1695508060030160009054906101000a900473ffffffffffffffffffffffffffffffffffffffff1694508060040154935080600501549250806006018054600181600116156101000203166002900480601f01602080910402602001604051908101604052809291908181526020018280546001816001161561010002031660029004801561112d5780601f106111025761010080835404028352916020019161112d565b820191906000526020600020905b81548152906001019060200180831161111057829003601f168201915b5050505050915050919395979092949650565b603a602052816000526040600020602052806000526040600020600091509150505481565b61116d612a78565b600060358381548110151561117e57fe5b906000526020600020906007020160e06040519081016040529081600082015481526020016001820160009054906101000a900473ffffffffffffffffffffffffffffffffffffffff1673ffffffffffffffffffffffffffffffffffffffff1673ffffffffffffffffffffffffffffffffffffffff1681526020016002820160009054906101000a900473ffffffffffffffffffffffffffffffffffffffff1673ffffffffffffffffffffffffffffffffffffffff1673ffffffffffffffffffffffffffffffffffffffff1681526020016003820160009054906101000a900473ffffffffffffffffffffffffffffffffffffffff1673ffffffffffffffffffffffffffffffffffffffff1673ffffffffffffffffffffffffffffffffffffffff1681526020016004820154815260200160058201548152602001600682018054600181600116156101000203166002900480601f0160208091040260200160405190810160405280929190818152602001828054600181600116156101000203166002900480156113515780601f1061132657610100808354040283529160200191611351565b820191906000526020600020905b81548152906001019060200180831161133457829003601f168201915b505050505081525050915060008260a001511115156113d8576040517f08c379a00000000000000000000000000000000000000000000000000000000081526004018080602001828103825260148152602001807f42696c6c20646f6573206e6f742065786973747300000000000000000000000081525060200191505060405180910390fd5b600073ffffffffffffffffffffffffffffffffffffffff16826020015173ffffffffffffffffffffffffffffffffffffffff16141515156114a7576040517f08c379a00000000000000000000000000000000000000000000000000000000081526004018080602001828103825260298152602001807f54686520455243323020746f6b656e2061646472657373206d757374206e6f7481526020017f20626520307830302e000000000000000000000000000000000000000000000081525060400191505060405180910390fd5b600015156039600085815260200190815260200160002060009054906101000a900460ff161515141515611543576040517f08c379a00000000000000000000000000000000000000000000000000000000081526004018080602001828103825260158152602001807f42696c6c20697320616c726561647920706169642e000000000000000000000081525060200191505060405180910390fd5b816020015190508073ffffffffffffffffffffffffffffffffffffffff166323b872dd8360600151308560a001516040518463ffffffff167c0100000000000000000000000000000000000000000000000000000000028152600401808473ffffffffffffffffffffffffffffffffffffffff1673ffffffffffffffffffffffffffffffffffffffff1681526020018373ffffffffffffffffffffffffffffffffffffffff1673ffffffffffffffffffffffffffffffffffffffff1681526020018281526020019350505050602060405180830381600087803b15801561162957600080fd5b505af115801561163d573d6000803e3d6000fd5b505050506040513d602081101561165357600080fd5b81019080805190602001909291905050505060016039600085815260200190815260200160002060006101000a81548160ff0219169083151502179055508160a00151603a6000846020015173ffffffffffffffffffffffffffffffffffffffff1673ffffffffffffffffffffffffffffffffffffffff1681526020019081526020016000206000846040015173ffffffffffffffffffffffffffffffffffffffff1673ffffffffffffffffffffffffffffffffffffffff168152602001908152602001600020600082825401925050819055507fa32f88b36d46469b0030e2de2ee1ac8416c96afcec241b18937434dc492ba7768383606001518460400151604051808481526020018373ffffffffffffffffffffffffffffffffffffffff1673ffffffffffffffffffffffffffffffffffffffff1681526020018273ffffffffffffffffffffffffffffffffffffffff1673ffffffffffffffffffffffffffffffffffffffff168152602001935050505060405180910390a1505050565b6117db612a78565b6035828154811015156117ea57fe5b906000526020600020906007020160e06040519081016040529081600082015481526020016001820160009054906101000a900473ffffffffffffffffffffffffffffffffffffffff1673ffffffffffffffffffffffffffffffffffffffff1673ffffffffffffffffffffffffffffffffffffffff1681526020016002820160009054906101000a900473ffffffffffffffffffffffffffffffffffffffff1673ffffffffffffffffffffffffffffffffffffffff1673ffffffffffffffffffffffffffffffffffffffff1681526020016003820160009054906101000a900473ffffffffffffffffffffffffffffffffffffffff1673ffffffffffffffffffffffffffffffffffffffff1673ffffffffffffffffffffffffffffffffffffffff1681526020016004820154815260200160058201548152602001600682018054600181600116156101000203166002900480601f0160208091040260200160405190810160405280929190818152602001828054600181600116156101000203166002900480156119bd5780601f10611992576101008083540402835291602001916119bd565b820191906000526020600020905b8154815290600101906020018083116119a057829003601f168201915b5050505050815250509050600073ffffffffffffffffffffffffffffffffffffffff16816020015173ffffffffffffffffffffffffffffffffffffffff16141515611a96576040517f08c379a000000000000000000000000000000000000000000000000000000000815260040180806020018281038252603b8152602001807f54686520455243323020746f6b656e206973206e6f74207468652073616d652081526020017f617320646566696e656420696e2074686520636f6e74726163742e000000000081525060400191505060405180910390fd5b3373ffffffffffffffffffffffffffffffffffffffff16816060015173ffffffffffffffffffffffffffffffffffffffff16141515611b3d576040517f08c379a00000000000000000000000000000000000000000000000000000000081526004018080602001828103825260158152602001807f42696c6c2069732066726f6d20636f6e73756d6572000000000000000000000081525060200191505060405180910390fd5b60008160a00151111515611bb9576040517f08c379a00000000000000000000000000000000000000000000000000000000081526004018080602001828103825260148152602001807f42696c6c20646f6573206e6f742065786973747300000000000000000000000081525060200191505060405180910390fd5b348160a00151141515611c5a576040517f08c379a00000000000000000000000000000000000000000000000000000000081526004018080602001828103825260338152602001807f42696c6c20616d6f756e74206973206e6f74207468652073616d65206173207481526020017f686520616d6f756e7420617267756d656e742e0000000000000000000000000081525060400191505060405180910390fd5b600015156039600084815260200190815260200160002060009054906101000a900460ff161515141515611cf6576040517f08c379a00000000000000000000000000000000000000000000000000000000081526004018080602001828103825260158152602001807f42696c6c20697320616c726561647920706169642e000000000000000000000081525060200191505060405180910390fd5b60016039600084815260200190815260200160002060006101000a81548160ff02191690831515021790555034603a60008073ffffffffffffffffffffffffffffffffffffffff1673ffffffffffffffffffffffffffffffffffffffff1681526020019081526020016000206000836040015173ffffffffffffffffffffffffffffffffffffffff1673ffffffffffffffffffffffffffffffffffffffff168152602001908152602001600020600082825401925050819055505050565b600080600080600080603360009054906101000a900473ffffffffffffffffffffffffffffffffffffffff1673ffffffffffffffffffffffffffffffffffffffff1663ef1f3757896040518263ffffffff167c01000000000000000000000000000000000000000000000000000000000281526004018082815260200191505060a060405180830381600087803b158015611e4e57600080fd5b505af1158015611e62573d6000803e3d6000fd5b505050506040513d60a0811015611e7857600080fd5b8101908080519060200190929190805190602001909291908051906020019092919080519060200190929190805190602001909291905050509450945094509450945060011515811515141515611f37576040517f08c379a00000000000000000000000000000000000000000000000000000000081526004018080602001828103825260188152602001807f436f6e7472616374206973206e6f7420656e61626c65642e000000000000000081525060200191505060405180910390fd5b6001603560e0604051908101604052808c81526020018873ffffffffffffffffffffffffffffffffffffffff1681526020018773ffffffffffffffffffffffffffffffffffffffff1681526020018673ffffffffffffffffffffffffffffffffffffffff168152602001858152602001858d0281526020018a815250908060018154018082558091505090600182039060005260206000209060070201600090919290919091506000820151816000015560208201518160010160006101000a81548173ffffffffffffffffffffffffffffffffffffffff021916908373ffffffffffffffffffffffffffffffffffffffff16021790555060408201518160020160006101000a81548173ffffffffffffffffffffffffffffffffffffffff021916908373ffffffffffffffffffffffffffffffffffffffff16021790555060608201518160030160006101000a81548173ffffffffffffffffffffffffffffffffffffffff021916908373ffffffffffffffffffffffffffffffffffffffff1602179055506080820151816004015560a0820151816005015560c08201518160060190805190602001906120ed929190612af8565b505050039550603760008473ffffffffffffffffffffffffffffffffffffffff1673ffffffffffffffffffffffffffffffffffffffff168152602001908152602001600020869080600181540180825580915050906001820390600052602060002001600090919290919091505550603660008573ffffffffffffffffffffffffffffffffffffffff1673ffffffffffffffffffffffffffffffffffffffff1681526020019081526020016000208690806001815401808255809150509060018203906000526020600020016000909192909190915055507f73abbcfa5fdf574b07a7e3276022461d884823328c6af79c79043ae80479f859838588604051808473ffffffffffffffffffffffffffffffffffffffff1673ffffffffffffffffffffffffffffffffffffffff1681526020018373ffffffffffffffffffffffffffffffffffffffff1673ffffffffffffffffffffffffffffffffffffffff168152602001828152602001935050505060405180910390a150505050509392505050565b6000603a60008473ffffffffffffffffffffffffffffffffffffffff1673ffffffffffffffffffffffffffffffffffffffff16815260200190815260200160002060008373ffffffffffffffffffffffffffffffffffffffff1673ffffffffffffffffffffffffffffffffffffffff16815260200190815260200160002054905092915050565b6000603a60008073ffffffffffffffffffffffffffffffffffffffff1673ffffffffffffffffffffffffffffffffffffffff16815260200190815260200160002060003373ffffffffffffffffffffffffffffffffffffffff1673ffffffffffffffffffffffffffffffffffffffff1681526020019081526020016000205490506000811115156123f0576040517f08c379a00000000000000000000000000000000000000000000000000000000081526004018080602001828103825260108152602001807f4e6f2062616c616e6365206c6566742e0000000000000000000000000000000081525060200191505060405180910390fd5b6000603a60008073ffffffffffffffffffffffffffffffffffffffff1673ffffffffffffffffffffffffffffffffffffffff16815260200190815260200160002060003373ffffffffffffffffffffffffffffffffffffffff1673ffffffffffffffffffffffffffffffffffffffff168152602001908152602001600020819055503373ffffffffffffffffffffffffffffffffffffffff166108fc829081150290604051600060405180830381858888f193505050501580156124b8573d6000803e3d6000fd5b5050565b6124c4610f7b565b15156124cf57600080fd5b6124d88161297e565b50565b60008073ffffffffffffffffffffffffffffffffffffffff168273ffffffffffffffffffffffffffffffffffffffff16141515156125a7576040517f08c379a00000000000000000000000000000000000000000000000000000000081526004018080602001828103825260398152602001807f546f6b656e20616464726573732063616e206e6f74206265207a65726f2e205281526020017f6573657276656420666f7220455448207061796d656e74732e0000000000000081525060400191505060405180910390fd5b603a60008373ffffffffffffffffffffffffffffffffffffffff1673ffffffffffffffffffffffffffffffffffffffff16815260200190815260200160002060003373ffffffffffffffffffffffffffffffffffffffff1673ffffffffffffffffffffffffffffffffffffffff16815260200190815260200160002054905060008111151561269e576040517f08c379a00000000000000000000000000000000000000000000000000000000081526004018080602001828103825260108152602001807f4e6f2062616c616e6365206c6566742e0000000000000000000000000000000081525060200191505060405180910390fd5b6000603a60008473ffffffffffffffffffffffffffffffffffffffff1673ffffffffffffffffffffffffffffffffffffffff16815260200190815260200160002060003373ffffffffffffffffffffffffffffffffffffffff1673ffffffffffffffffffffffffffffffffffffffff168152602001908152602001600020819055508173ffffffffffffffffffffffffffffffffffffffff1663a9059cbb33836040518363ffffffff167c0100000000000000000000000000000000000000000000000000000000028152600401808373ffffffffffffffffffffffffffffffffffffffff1673ffffffffffffffffffffffffffffffffffffffff16815260200182815260200192505050602060405180830381600087803b1580156127c357600080fd5b505af11580156127d7573d6000803e3d6000fd5b505050506040513d60208110156127ed57600080fd5b81019080805190602001909291905050501515612898576040517f08c379a00000000000000000000000000000000000000000000000000000000081526004018080602001828103825260218152602001807f4572726f72207768696c65206d616b696e67204552433230207472616e73666581526020017f720000000000000000000000000000000000000000000000000000000000000081525060400191505060405180910390fd5b5050565b6000603660008373ffffffffffffffffffffffffffffffffffffffff1673ffffffffffffffffffffffffffffffffffffffff168152602001908152602001600020805490509050919050565b80603360006101000a81548173ffffffffffffffffffffffffffffffffffffffff021916908373ffffffffffffffffffffffffffffffffffffffff16021790555080603460006101000a81548173ffffffffffffffffffffffffffffffffffffffff021916908373ffffffffffffffffffffffffffffffffffffffff16021790555050565b600080303b90506000811491505090565b600073ffffffffffffffffffffffffffffffffffffffff168173ffffffffffffffffffffffffffffffffffffffff16141515156129ba57600080fd5b8073ffffffffffffffffffffffffffffffffffffffff166000809054906101000a900473ffffffffffffffffffffffffffffffffffffffff1673ffffffffffffffffffffffffffffffffffffffff167f8be0079c531659141344cd1fd0a4f28419497f9722a3daafe3b4186f6b6457e060405160405180910390a3806000806101000a81548173ffffffffffffffffffffffffffffffffffffffff021916908373ffffffffffffffffffffffffffffffffffffffff16021790555050565b60e06040519081016040528060008152602001600073ffffffffffffffffffffffffffffffffffffffff168152602001600073ffffffffffffffffffffffffffffffffffffffff168152602001600073ffffffffffffffffffffffffffffffffffffffff1681526020016000815260200160008152602001606081525090565b828054600181600116156101000203166002900490600052602060002090601f016020900481019282601f10612b3957805160ff1916838001178555612b67565b82800160010185558215612b67579182015b82811115612b66578251825591602001919060010190612b4b565b5b509050612b749190612b78565b5090565b612b9a91905b80821115612b96576000816000905550600101612b7e565b5090565b905600a165627a7a7230582043843b765d5129b16bc8a7ac35b45527978bb0cc3da1651edbdfdc77f76cf63b0029",
  "source": "pragma solidity ^0.4.24;\n\nimport \"openzeppelin-solidity/contracts/ownership/Ownable.sol\";\nimport \"openzeppelin-solidity/contracts/token/ERC20/IERC20.sol\";\nimport \"zos-lib/contracts/Initializable.sol\";\nimport \"./libraries/ShastaTypes.sol\";\nimport \"./ContractRegistry.sol\";\n\n/**\n * @title BillSystem\n */\ncontract BillSystem is Ownable, Initializable {\n\n  address public contractRegistryAddress;\n  ContractRegistry contractRegistry;\n\n  ShastaTypes.Bill[] public bills;\n  \n  mapping(address => uint256[]) sellerBillIndex;\n  mapping(address => uint256[]) consumerBillIndex;\n  mapping(address => string) consumerMetadataIpfs;\n  mapping(uint => bool) isBillPaid;\n  // mapping of token addresses to mapping of account balances (token=0 means Ether)\n  mapping (address => mapping (address => uint)) public balances; \n\n  event NewBill(address consumer, address seller, uint index);\n  event Newseller(address seller);\n  event BillPaid(uint index, address consumer, address seller);\n\n  // Upgradeable contract pattern with initializer using zeppelinOS way.\n  function initialize() public initializer {\n  }\n\n  /**\n    * @dev Set the contract registry smart contract address\n    * @param _contractRegistryAddress The contract registry address to set\n    */\n  function setContractRegistry(address _contractRegistryAddress) public {\n    contractRegistryAddress = _contractRegistryAddress;\n    contractRegistry = ContractRegistry(_contractRegistryAddress);\n  }\n\n  /**\n    * @dev Get the bill data\n    * @param index The bill index\n    * @return whConsumed The watts/hour consumed in the bill\n    * @return tokenAddress The ERC20 currency address that is used to pay the bill \n    * @return seller The seller/producer address\n    * @return consumer The consumer address\n    * @return price The unit price of one watt/hour\n    * @return amount The amount of watt/hour consumed\n    * @return ipfsMetadata Extra metadata that is appended to the bill, via IPFS hash\n    */\n  function getBill(uint index) public view returns(\n    uint256 whConsumed,\n    address tokenAddress,\n    address seller,\n    address consumer,\n    uint256 price,\n    uint256 amount,\n    string ipfsMetadata\n  ) {\n    ShastaTypes.Bill storage bill = bills[index];\n\n    whConsumed = bill.whConsumed;\n    tokenAddress = bill.tokenAddress;\n    seller = bill.seller;\n    consumer = bill.consumer;\n    price = bill.price;\n    amount = bill.amount;\n    ipfsMetadata = bill.ipfsMetadata;\n  }\n\n\n  /**\n    * @dev Get bills length\n    * @return length The bills list length\n    */\n  function getBillsLength() public view returns (uint length) {\n    length = bills.length;\n  }\n\n  /**\n    * @dev Get consumer bill length\n    * @param _address The consumer address\n    * @return length The bills list length\n    */\n  function getConsumerBillsLength(address _address) public view returns (uint length) {\n    length = consumerBillIndex[_address].length;\n  }\n\n  /**\n    * @dev Get seller/producer bill length\n    * @param _address The seller/producer address\n    * @return length The bills list length\n    */\n  function getSellerBillsLength(address _address) public view returns (uint length) {\n    length = sellerBillIndex[_address].length;\n  }\n\n  /**\n    * @dev Get the ERC20/ETH balance from an address\n    * @param tokenAddress The ERC20 smart contract address. If address is 0x it return the ETH balance. \n    * @param userAddress The ethereum address\n    * @return balance The token/eth balance\n    */\n  function getBalance(address tokenAddress, address userAddress) public view returns(uint256 balance) {\n    balance = balances[tokenAddress][userAddress];\n  }\n\n  /**\n    * @dev Generates a new prepaid contract between a consumer and a producer\n    * @param tokenAddress The ERC20 currency address that is used to pay the bill \n    * @param seller The seller/producer address\n    * @param consumer The consumer address\n    * @param price The unit price of one watt/hour\n    * @param monthlyWh The watts/h of monthly consumption, estimated by the consumer\n    * @param enabled The state of the contract\n    * @param ipfsContractMetadata Extra metadata that is appended to the contract, via IPFS hash\n    * @param ipfsBillMetadata Extra metadata that is appended to the bill, via IPFS hash\n    */\n  function newPrepaidContract(\n    address tokenAddress,\n    address seller,\n    address consumer,\n    uint price,\n    uint monthlyWh,\n    bool enabled,\n    string ipfsContractMetadata,\n    string ipfsBillMetadata\n  ) public {\n    uint newIndex = contractRegistry.newContract(tokenAddress, seller, consumer, price, monthlyWh, enabled, ipfsContractMetadata);\n    uint newBillIndex = generateBill(monthlyWh, newIndex, ipfsBillMetadata);\n    payBillERC20(newBillIndex);\n  }\n\n  /**\n    * @dev Generates a new energy bill\n    * @param wh The amount of watts/hour consumed during a timeframe \n    * @param contractId The contract index in the registry \n    * @param ipfsMetadata Extra metadata that is appended to the bill, via IPFS hash\n    */\n  function generateBill(uint wh, uint contractId, string ipfsMetadata) public returns(uint newIndex) {\n    (address tokenAddress, address seller, address consumer, uint price, bool enabled) = ContractRegistry(contractRegistryAddress).getContractData(contractId);\n    require(enabled == true, \"Contract is not enabled.\");\n    newIndex = bills.push(\n      ShastaTypes.Bill(\n        wh,\n        tokenAddress,\n        seller,\n        consumer,\n        price,\n        wh * price, // price must be Token/wattHour\n        ipfsMetadata\n      )\n    ) - 1; // Array.push returns the new array length, so (new length - 1) == latest index.\n    consumerBillIndex[consumer].push(newIndex);\n    sellerBillIndex[seller].push(newIndex);\n    emit NewBill(consumer, seller, newIndex);\n  }\n\n  /**\n    * @dev Withdraw all the current ETH balance from the caller account\n    */\n  function withdrawETH() public {\n    uint256 allBalance = balances[address(0)][msg.sender];\n    require(allBalance > 0,  \"No balance left.\");\n    balances[address(0)][msg.sender] = 0;\n    msg.sender.transfer(allBalance);\n  }\n\n   /**\n    * @dev Withdraw all the current ERC20 token balance from the caller account\n    * @param tokenAddress The ERC20 smart contract address to transfer funds to the caller account \n    */\n  function withdrawERC20(address tokenAddress) public {\n    require(tokenAddress != address(0), \"Token address can not be zero. Reserved for ETH payments.\");\n    uint256 allBalance = balances[tokenAddress][msg.sender];\n    require(allBalance > 0,  \"No balance left.\");\n    balances[tokenAddress][msg.sender] = 0;\n    require(IERC20(tokenAddress).transfer(msg.sender, allBalance), \"Error while making ERC20 transfer\");\n  }\n\n  /**\n    * @dev Pay a Shasta bill with ETH \n    * @param billIndex  The bill index\n    */\n  function payBillETH(uint256 billIndex) public payable {\n    ShastaTypes.Bill memory bill = bills[billIndex];\n    require(bill.tokenAddress == address(0), \"The ERC20 token is not the same as defined in the contract.\");\n    require(bill.consumer == msg.sender, \"Bill is from consumer\");\n    require(bill.amount > 0, \"Bill does not exists\");\n    require(bill.amount == msg.value, \"Bill amount is not the same as the amount argument.\");\n    require(isBillPaid[billIndex] == false, \"Bill is already paid.\");\n    isBillPaid[billIndex] = true;\n    balances[address(0)][bill.seller] += msg.value;\n  }\n\n  /**\n    * @dev Pay a Shasta bill with ERC20. The ERC20 token to pay is determined in the contract between consumer and producer.\n    * @param billIndex  The bill index\n    */\n  function payBillERC20(uint256 billIndex) public {\n    ShastaTypes.Bill memory bill = bills[billIndex];\n    require(bill.amount > 0, \"Bill does not exists\");\n    require(bill.tokenAddress != address(0), \"The ERC20 token address must not be 0x00.\");\n    require(isBillPaid[billIndex] == false, \"Bill is already paid.\");\n    IERC20 tokenInstance = IERC20(bill.tokenAddress);\n    // Add allowance requirement, for better error handling HERE\n    tokenInstance.transferFrom(bill.consumer, address(this), bill.amount);\n    isBillPaid[billIndex] = true;\n    balances[bill.tokenAddress][bill.seller] += bill.amount;\n    emit BillPaid(billIndex, bill.consumer, bill.seller);\n  }\n}",
  "sourcePath": "/home/davidracero/repos/ShastaOS/contracts/BillSystem.sol",
  "compiler": {
    "name": "solc",
    "version": "0.4.24+commit.e67f0147.Emscripten.clang"
  },
  "schemaVersion": "3.0.0-beta.1",
  "updatedAt": "2018-11-14T13:09:55.733Z"
}