{
  "contractName": "BillSystem",
  "abi": [
    {
      "constant": true,
      "inputs": [
        {
          "name": "",
          "type": "uint256"
        }
      ],
      "name": "bills",
      "outputs": [
        {
          "name": "whConsumed",
          "type": "uint256"
        },
        {
          "name": "tokenAddress",
          "type": "address"
        },
        {
          "name": "seller",
          "type": "address"
        },
        {
          "name": "consumer",
          "type": "address"
        },
        {
          "name": "price",
          "type": "uint256"
        },
        {
          "name": "amount",
          "type": "uint256"
        },
        {
          "name": "ipfsMetadata",
          "type": "string"
        }
      ],
      "payable": false,
      "stateMutability": "view",
      "type": "function",
      "signature": "0x28bdcde8"
    },
    {
      "constant": true,
      "inputs": [],
      "name": "contractRegistryAddress",
      "outputs": [
        {
          "name": "",
          "type": "address"
        }
      ],
      "payable": false,
      "stateMutability": "view",
      "type": "function",
      "signature": "0x46af6070"
    },
    {
      "constant": false,
      "inputs": [],
      "name": "renounceOwnership",
      "outputs": [],
      "payable": false,
      "stateMutability": "nonpayable",
      "type": "function",
      "signature": "0x715018a6"
    },
    {
      "constant": true,
      "inputs": [],
      "name": "owner",
      "outputs": [
        {
          "name": "",
          "type": "address"
        }
      ],
      "payable": false,
      "stateMutability": "view",
      "type": "function",
      "signature": "0x8da5cb5b"
    },
    {
      "constant": true,
      "inputs": [],
      "name": "isOwner",
      "outputs": [
        {
          "name": "",
          "type": "bool"
        }
      ],
      "payable": false,
      "stateMutability": "view",
      "type": "function",
      "signature": "0x8f32d59b"
    },
    {
      "constant": true,
      "inputs": [
        {
          "name": "contractName",
          "type": "string"
        },
        {
          "name": "migrationId",
          "type": "string"
        }
      ],
      "name": "isMigrated",
      "outputs": [
        {
          "name": "",
          "type": "bool"
        }
      ],
      "payable": false,
      "stateMutability": "view",
      "type": "function",
      "signature": "0xc0bac1a8"
    },
    {
      "constant": true,
      "inputs": [
        {
          "name": "",
          "type": "address"
        },
        {
          "name": "",
          "type": "address"
        }
      ],
      "name": "balances",
      "outputs": [
        {
          "name": "",
          "type": "uint256"
        }
      ],
      "payable": false,
      "stateMutability": "view",
      "type": "function",
      "signature": "0xc23f001f"
    },
    {
      "constant": false,
      "inputs": [
        {
          "name": "newOwner",
          "type": "address"
        }
      ],
      "name": "transferOwnership",
      "outputs": [],
      "payable": false,
      "stateMutability": "nonpayable",
      "type": "function",
      "signature": "0xf2fde38b"
    },
    {
      "anonymous": false,
      "inputs": [
        {
          "indexed": false,
          "name": "consumer",
          "type": "address"
        },
        {
          "indexed": false,
          "name": "seller",
          "type": "address"
        },
        {
          "indexed": false,
          "name": "index",
          "type": "uint256"
        }
      ],
      "name": "NewBill",
      "type": "event",
      "signature": "0x73abbcfa5fdf574b07a7e3276022461d884823328c6af79c79043ae80479f859"
    },
    {
      "anonymous": false,
      "inputs": [
        {
          "indexed": false,
          "name": "seller",
          "type": "address"
        }
      ],
      "name": "Newseller",
      "type": "event",
      "signature": "0x6457be7c65f4078330808dd5598c8292d09a9293a147646e5ac0810bd2e58672"
    },
    {
      "anonymous": false,
      "inputs": [
        {
          "indexed": false,
          "name": "index",
          "type": "uint256"
        },
        {
          "indexed": false,
          "name": "consumer",
          "type": "address"
        },
        {
          "indexed": false,
          "name": "seller",
          "type": "address"
        }
      ],
      "name": "BillPaid",
      "type": "event",
      "signature": "0xa32f88b36d46469b0030e2de2ee1ac8416c96afcec241b18937434dc492ba776"
    },
    {
      "anonymous": false,
      "inputs": [
        {
          "indexed": false,
          "name": "contractName",
          "type": "string"
        },
        {
          "indexed": false,
          "name": "migrationId",
          "type": "string"
        }
      ],
      "name": "Migrated",
      "type": "event",
      "signature": "0xdd117a11c22118c9dee4b5a67ce578bc44529dce21ee0ccc439588fbb9fb4ea3"
    },
    {
      "anonymous": false,
      "inputs": [
        {
          "indexed": true,
          "name": "previousOwner",
          "type": "address"
        }
      ],
      "name": "OwnershipRenounced",
      "type": "event",
      "signature": "0xf8df31144d9c2f0f6b59d69b8b98abd5459d07f2742c4df920b25aae33c64820"
    },
    {
      "anonymous": false,
      "inputs": [
        {
          "indexed": true,
          "name": "previousOwner",
          "type": "address"
        },
        {
          "indexed": true,
          "name": "newOwner",
          "type": "address"
        }
      ],
      "name": "OwnershipTransferred",
      "type": "event",
      "signature": "0x8be0079c531659141344cd1fd0a4f28419497f9722a3daafe3b4186f6b6457e0"
    },
    {
      "constant": false,
      "inputs": [],
      "name": "initialize",
      "outputs": [],
      "payable": false,
      "stateMutability": "nonpayable",
      "type": "function",
      "signature": "0x8129fc1c"
    },
    {
      "constant": false,
      "inputs": [
        {
          "name": "_contractRegistryAddress",
          "type": "address"
        }
      ],
      "name": "setContractRegistry",
      "outputs": [],
      "payable": false,
      "stateMutability": "nonpayable",
      "type": "function",
      "signature": "0xfcd13d65"
    },
    {
      "constant": true,
      "inputs": [
        {
          "name": "index",
          "type": "uint256"
        }
      ],
      "name": "getBill",
      "outputs": [
        {
          "name": "whConsumed",
          "type": "uint256"
        },
        {
          "name": "tokenAddress",
          "type": "address"
        },
        {
          "name": "seller",
          "type": "address"
        },
        {
          "name": "consumer",
          "type": "address"
        },
        {
          "name": "price",
          "type": "uint256"
        },
        {
          "name": "amount",
          "type": "uint256"
        },
        {
          "name": "ipfsMetadata",
          "type": "string"
        }
      ],
      "payable": false,
      "stateMutability": "view",
      "type": "function",
      "signature": "0xb1cd06e6"
    },
    {
      "constant": true,
      "inputs": [],
      "name": "getBillsLength",
      "outputs": [
        {
          "name": "length",
          "type": "uint256"
        }
      ],
      "payable": false,
      "stateMutability": "view",
      "type": "function",
      "signature": "0xb0c96c0b"
    },
    {
      "constant": true,
      "inputs": [
        {
          "name": "_address",
          "type": "address"
        }
      ],
      "name": "getConsumerBillsLength",
      "outputs": [
        {
          "name": "length",
          "type": "uint256"
        }
      ],
      "payable": false,
      "stateMutability": "view",
      "type": "function",
      "signature": "0x23349040"
    },
    {
      "constant": true,
      "inputs": [
        {
          "name": "_address",
          "type": "address"
        }
      ],
      "name": "getSellerBillsLength",
      "outputs": [
        {
          "name": "length",
          "type": "uint256"
        }
      ],
      "payable": false,
      "stateMutability": "view",
      "type": "function",
      "signature": "0xf64018c4"
    },
    {
      "constant": true,
      "inputs": [
        {
          "name": "tokenAddress",
          "type": "address"
        },
        {
          "name": "userAddress",
          "type": "address"
        }
      ],
      "name": "getBalance",
      "outputs": [
        {
          "name": "balance",
          "type": "uint256"
        }
      ],
      "payable": false,
      "stateMutability": "view",
      "type": "function",
      "signature": "0xd4fac45d"
    },
    {
      "constant": false,
      "inputs": [
        {
          "name": "tokenAddress",
          "type": "address"
        },
        {
          "name": "seller",
          "type": "address"
        },
        {
          "name": "consumer",
          "type": "address"
        },
        {
          "name": "price",
          "type": "uint256"
        },
        {
          "name": "monthlyWh",
          "type": "uint256"
        },
        {
          "name": "enabled",
          "type": "bool"
        },
        {
          "name": "ipfsContractMetadata",
          "type": "string"
        },
        {
          "name": "ipfsBillMetadata",
          "type": "string"
        }
      ],
      "name": "newPrepaidContract",
      "outputs": [],
      "payable": false,
      "stateMutability": "nonpayable",
      "type": "function",
      "signature": "0x0610e5de"
    },
    {
      "constant": false,
      "inputs": [
        {
          "name": "wh",
          "type": "uint256"
        },
        {
          "name": "contractId",
          "type": "uint256"
        },
        {
          "name": "ipfsMetadata",
          "type": "string"
        }
      ],
      "name": "generateBill",
      "outputs": [
        {
          "name": "newIndex",
          "type": "uint256"
        }
      ],
      "payable": false,
      "stateMutability": "nonpayable",
      "type": "function",
      "signature": "0xc5df0659"
    },
    {
      "constant": false,
      "inputs": [],
      "name": "withdrawETH",
      "outputs": [],
      "payable": false,
      "stateMutability": "nonpayable",
      "type": "function",
      "signature": "0xe086e5ec"
    },
    {
      "constant": false,
      "inputs": [
        {
          "name": "tokenAddress",
          "type": "address"
        }
      ],
      "name": "withdrawERC20",
      "outputs": [],
      "payable": false,
      "stateMutability": "nonpayable",
      "type": "function",
      "signature": "0xf4f3b200"
    },
    {
      "constant": false,
      "inputs": [
        {
          "name": "billIndex",
          "type": "uint256"
        }
      ],
      "name": "payBillETH",
      "outputs": [],
      "payable": true,
      "stateMutability": "payable",
      "type": "function",
      "signature": "0xc4f6708a"
    },
    {
      "constant": false,
      "inputs": [
        {
          "name": "billIndex",
          "type": "uint256"
        }
      ],
      "name": "payBillERC20",
      "outputs": [],
      "payable": false,
      "stateMutability": "nonpayable",
      "type": "function",
      "signature": "0xc424433b"
    }
  ],
  "bytecode": "0x6080604052336000806101000a81548173ffffffffffffffffffffffffffffffffffffffff021916908373ffffffffffffffffffffffffffffffffffffffff160217905550612ea2806100536000396000f30060806040526004361061011d576000357c0100000000000000000000000000000000000000000000000000000000900463ffffffff1680630610e5de14610122578063233490401461025157806328bdcde8146102a857806346af6070146103fc578063715018a6146104535780638129fc1c1461046a5780638da5cb5b146104815780638f32d59b146104d8578063b0c96c0b14610507578063b1cd06e614610532578063c0bac1a814610686578063c23f001f1461074d578063c424433b146107c4578063c4f6708a146107f1578063c5df065914610811578063d4fac45d146108a2578063e086e5ec14610919578063f2fde38b14610930578063f4f3b20014610973578063f64018c4146109b6578063fcd13d6514610a0d575b600080fd5b34801561012e57600080fd5b5061024f600480360381019080803573ffffffffffffffffffffffffffffffffffffffff169060200190929190803573ffffffffffffffffffffffffffffffffffffffff169060200190929190803573ffffffffffffffffffffffffffffffffffffffff1690602001909291908035906020019092919080359060200190929190803515159060200190929190803590602001908201803590602001908080601f0160208091040260200160405190810160405280939291908181526020018383808284378201915050505050509192919290803590602001908201803590602001908080601f0160208091040260200160405190810160405280939291908181526020018383808284378201915050505050509192919290505050610a50565b005b34801561025d57600080fd5b50610292600480360381019080803573ffffffffffffffffffffffffffffffffffffffff169060200190929190505050610c60565b6040518082815260200191505060405180910390f35b3480156102b457600080fd5b506102d360048036038101908080359060200190929190505050610cac565b604051808881526020018773ffffffffffffffffffffffffffffffffffffffff1673ffffffffffffffffffffffffffffffffffffffff1681526020018673ffffffffffffffffffffffffffffffffffffffff1673ffffffffffffffffffffffffffffffffffffffff1681526020018573ffffffffffffffffffffffffffffffffffffffff1673ffffffffffffffffffffffffffffffffffffffff16815260200184815260200183815260200180602001828103825283818151815260200191508051906020019080838360005b838110156103bb5780820151818401526020810190506103a0565b50505050905090810190601f1680156103e85780820380516001836020036101000a031916815260200191505b509850505050505050505060405180910390f35b34801561040857600080fd5b50610411610df5565b604051808273ffffffffffffffffffffffffffffffffffffffff1673ffffffffffffffffffffffffffffffffffffffff16815260200191505060405180910390f35b34801561045f57600080fd5b50610468610e1b565b005b34801561047657600080fd5b5061047f610ed5565b005b34801561048d57600080fd5b50610496611150565b604051808273ffffffffffffffffffffffffffffffffffffffff1673ffffffffffffffffffffffffffffffffffffffff16815260200191505060405180910390f35b3480156104e457600080fd5b506104ed611179565b604051808215151515815260200191505060405180910390f35b34801561051357600080fd5b5061051c6111d0565b6040518082815260200191505060405180910390f35b34801561053e57600080fd5b5061055d600480360381019080803590602001909291905050506111dd565b604051808881526020018773ffffffffffffffffffffffffffffffffffffffff1673ffffffffffffffffffffffffffffffffffffffff1681526020018673ffffffffffffffffffffffffffffffffffffffff1673ffffffffffffffffffffffffffffffffffffffff1681526020018573ffffffffffffffffffffffffffffffffffffffff1673ffffffffffffffffffffffffffffffffffffffff16815260200184815260200183815260200180602001828103825283818151815260200191508051906020019080838360005b8381101561064557808201518184015260208101905061062a565b50505050905090810190601f1680156106725780820380516001836020036101000a031916815260200191505b509850505050505050505060405180910390f35b34801561069257600080fd5b50610733600480360381019080803590602001908201803590602001908080601f0160208091040260200160405190810160405280939291908181526020018383808284378201915050505050509192919290803590602001908201803590602001908080601f016020809104026020016040519081016040528093929190818152602001838380828437820191505050505050919291929050505061133e565b604051808215151515815260200191505060405180910390f35b34801561075957600080fd5b506107ae600480360381019080803573ffffffffffffffffffffffffffffffffffffffff169060200190929190803573ffffffffffffffffffffffffffffffffffffffff16906020019092919050505061142a565b6040518082815260200191505060405180910390f35b3480156107d057600080fd5b506107ef6004803603810190808035906020019092919050505061144f565b005b61080f60048036038101908080359060200190929190505050611abd565b005b34801561081d57600080fd5b5061088c6004803603810190808035906020019092919080359060200190929190803590602001908201803590602001908080601f016020809104026020016040519081016040528093929190818152602001838380828437820191505050505050919291929050505061209e565b6040518082815260200191505060405180910390f35b3480156108ae57600080fd5b50610903600480360381019080803573ffffffffffffffffffffffffffffffffffffffff169060200190929190803573ffffffffffffffffffffffffffffffffffffffff16906020019092919050505061255a565b6040518082815260200191505060405180910390f35b34801561092557600080fd5b5061092e6125e1565b005b34801561093c57600080fd5b50610971600480360381019080803573ffffffffffffffffffffffffffffffffffffffff1690602001909291905050506127a6565b005b34801561097f57600080fd5b506109b4600480360381019080803573ffffffffffffffffffffffffffffffffffffffff1690602001909291905050506127c5565b005b3480156109c257600080fd5b506109f7600480360381019080803573ffffffffffffffffffffffffffffffffffffffff169060200190929190505050612b86565b6040518082815260200191505060405180910390f35b348015610a1957600080fd5b50610a4e600480360381019080803573ffffffffffffffffffffffffffffffffffffffff169060200190929190505050612bd2565b005b600080600360009054906101000a900473ffffffffffffffffffffffffffffffffffffffff1673ffffffffffffffffffffffffffffffffffffffff1663df4710b68b8b8b8b8b8b8b6040518863ffffffff167c0100000000000000000000000000000000000000000000000000000000028152600401808873ffffffffffffffffffffffffffffffffffffffff1673ffffffffffffffffffffffffffffffffffffffff1681526020018773ffffffffffffffffffffffffffffffffffffffff1673ffffffffffffffffffffffffffffffffffffffff1681526020018673ffffffffffffffffffffffffffffffffffffffff1673ffffffffffffffffffffffffffffffffffffffff1681526020018581526020018481526020018315151515815260200180602001828103825283818151815260200191508051906020019080838360005b83811015610baf578082015181840152602081019050610b94565b50505050905090810190601f168015610bdc5780820380516001836020036101000a031916815260200191505b5098505050505050505050602060405180830381600087803b158015610c0157600080fd5b505af1158015610c15573d6000803e3d6000fd5b505050506040513d6020811015610c2b57600080fd5b81019080805190602001909291905050509150610c4986838561209e565b9050610c548161144f565b50505050505050505050565b6000600660008373ffffffffffffffffffffffffffffffffffffffff1673ffffffffffffffffffffffffffffffffffffffff168152602001908152602001600020805490509050919050565b600481815481101515610cbb57fe5b90600052602060002090600702016000915090508060000154908060010160009054906101000a900473ffffffffffffffffffffffffffffffffffffffff16908060020160009054906101000a900473ffffffffffffffffffffffffffffffffffffffff16908060030160009054906101000a900473ffffffffffffffffffffffffffffffffffffffff1690806004015490806005015490806006018054600181600116156101000203166002900480601f016020809104026020016040519081016040528092919081815260200182805460018160011615610100020316600290048015610deb5780601f10610dc057610100808354040283529160200191610deb565b820191906000526020600020905b815481529060010190602001808311610dce57829003601f168201915b5050505050905087565b600260009054906101000a900473ffffffffffffffffffffffffffffffffffffffff1681565b610e23611179565b1515610e2e57600080fd5b6000809054906101000a900473ffffffffffffffffffffffffffffffffffffffff1673ffffffffffffffffffffffffffffffffffffffff167ff8df31144d9c2f0f6b59d69b8b98abd5459d07f2742c4df920b25aae33c6482060405160405180910390a260008060006101000a81548173ffffffffffffffffffffffffffffffffffffffff021916908373ffffffffffffffffffffffffffffffffffffffff160217905550565b6040805190810160405280600a81526020017f42696c6c53797374656d000000000000000000000000000000000000000000008152506040805190810160405280600181526020017f3000000000000000000000000000000000000000000000000000000000000000815250610f4b828261133e565b151515610f5757600080fd5b7fdd117a11c22118c9dee4b5a67ce578bc44529dce21ee0ccc439588fbb9fb4ea38282604051808060200180602001838103835285818151815260200191508051906020019080838360005b83811015610fbe578082015181840152602081019050610fa3565b50505050905090810190601f168015610feb5780820380516001836020036101000a031916815260200191505b50838103825284818151815260200191508051906020019080838360005b83811015611024578082015181840152602081019050611009565b50505050905090810190601f1680156110515780820380516001836020036101000a031916815260200191505b5094505050505060405180910390a1600180836040518082805190602001908083835b6020831015156110995780518252602082019150602081019050602083039250611074565b6001836020036101000a0380198251168184511680821785525050505050509050019150509081526020016040518091039020826040518082805190602001908083835b60208310151561110257805182526020820191506020810190506020830392506110dd565b6001836020036101000a038019825116818451168082178552505050505050905001915050908152602001604051809103902060006101000a81548160ff0219169083151502179055505050565b60008060009054906101000a900473ffffffffffffffffffffffffffffffffffffffff16905090565b60008060009054906101000a900473ffffffffffffffffffffffffffffffffffffffff1673ffffffffffffffffffffffffffffffffffffffff163373ffffffffffffffffffffffffffffffffffffffff1614905090565b6000600480549050905090565b600080600080600080606060006004898154811015156111f957fe5b90600052602060002090600702019050806000015497508060010160009054906101000a900473ffffffffffffffffffffffffffffffffffffffff1696508060020160009054906101000a900473ffffffffffffffffffffffffffffffffffffffff1695508060030160009054906101000a900473ffffffffffffffffffffffffffffffffffffffff1694508060040154935080600501549250806006018054600181600116156101000203166002900480601f01602080910402602001604051908101604052809291908181526020018280546001816001161561010002031660029004801561132b5780601f106113005761010080835404028352916020019161132b565b820191906000526020600020905b81548152906001019060200180831161130e57829003601f168201915b5050505050915050919395979092949650565b60006001836040518082805190602001908083835b6020831015156113785780518252602082019150602081019050602083039250611353565b6001836020036101000a0380198251168184511680821785525050505050509050019150509081526020016040518091039020826040518082805190602001908083835b6020831015156113e157805182526020820191506020810190506020830392506113bc565b6001836020036101000a038019825116818451168082178552505050505050905001915050908152602001604051809103902060009054906101000a900460ff16905092915050565b6009602052816000526040600020602052806000526040600020600091509150505481565b611457612d51565b600060048381548110151561146857fe5b906000526020600020906007020160e06040519081016040529081600082015481526020016001820160009054906101000a900473ffffffffffffffffffffffffffffffffffffffff1673ffffffffffffffffffffffffffffffffffffffff1673ffffffffffffffffffffffffffffffffffffffff1681526020016002820160009054906101000a900473ffffffffffffffffffffffffffffffffffffffff1673ffffffffffffffffffffffffffffffffffffffff1673ffffffffffffffffffffffffffffffffffffffff1681526020016003820160009054906101000a900473ffffffffffffffffffffffffffffffffffffffff1673ffffffffffffffffffffffffffffffffffffffff1673ffffffffffffffffffffffffffffffffffffffff1681526020016004820154815260200160058201548152602001600682018054600181600116156101000203166002900480601f01602080910402602001604051908101604052809291908181526020018280546001816001161561010002031660029004801561163b5780601f106116105761010080835404028352916020019161163b565b820191906000526020600020905b81548152906001019060200180831161161e57829003601f168201915b505050505081525050915060008260a001511115156116c2576040517f08c379a00000000000000000000000000000000000000000000000000000000081526004018080602001828103825260148152602001807f42696c6c20646f6573206e6f742065786973747300000000000000000000000081525060200191505060405180910390fd5b600073ffffffffffffffffffffffffffffffffffffffff16826020015173ffffffffffffffffffffffffffffffffffffffff1614151515611791576040517f08c379a00000000000000000000000000000000000000000000000000000000081526004018080602001828103825260298152602001807f54686520455243323020746f6b656e2061646472657373206d757374206e6f7481526020017f20626520307830302e000000000000000000000000000000000000000000000081525060400191505060405180910390fd5b600015156008600085815260200190815260200160002060009054906101000a900460ff16151514151561182d576040517f08c379a00000000000000000000000000000000000000000000000000000000081526004018080602001828103825260158152602001807f42696c6c20697320616c726561647920706169642e000000000000000000000081525060200191505060405180910390fd5b816020015190508073ffffffffffffffffffffffffffffffffffffffff166323b872dd8360600151308560a001516040518463ffffffff167c0100000000000000000000000000000000000000000000000000000000028152600401808473ffffffffffffffffffffffffffffffffffffffff1673ffffffffffffffffffffffffffffffffffffffff1681526020018373ffffffffffffffffffffffffffffffffffffffff1673ffffffffffffffffffffffffffffffffffffffff1681526020018281526020019350505050602060405180830381600087803b15801561191357600080fd5b505af1158015611927573d6000803e3d6000fd5b505050506040513d602081101561193d57600080fd5b81019080805190602001909291905050505060016008600085815260200190815260200160002060006101000a81548160ff0219169083151502179055508160a0015160096000846020015173ffffffffffffffffffffffffffffffffffffffff1673ffffffffffffffffffffffffffffffffffffffff1681526020019081526020016000206000846040015173ffffffffffffffffffffffffffffffffffffffff1673ffffffffffffffffffffffffffffffffffffffff168152602001908152602001600020600082825401925050819055507fa32f88b36d46469b0030e2de2ee1ac8416c96afcec241b18937434dc492ba7768383606001518460400151604051808481526020018373ffffffffffffffffffffffffffffffffffffffff1673ffffffffffffffffffffffffffffffffffffffff1681526020018273ffffffffffffffffffffffffffffffffffffffff1673ffffffffffffffffffffffffffffffffffffffff168152602001935050505060405180910390a1505050565b611ac5612d51565b600482815481101515611ad457fe5b906000526020600020906007020160e06040519081016040529081600082015481526020016001820160009054906101000a900473ffffffffffffffffffffffffffffffffffffffff1673ffffffffffffffffffffffffffffffffffffffff1673ffffffffffffffffffffffffffffffffffffffff1681526020016002820160009054906101000a900473ffffffffffffffffffffffffffffffffffffffff1673ffffffffffffffffffffffffffffffffffffffff1673ffffffffffffffffffffffffffffffffffffffff1681526020016003820160009054906101000a900473ffffffffffffffffffffffffffffffffffffffff1673ffffffffffffffffffffffffffffffffffffffff1673ffffffffffffffffffffffffffffffffffffffff1681526020016004820154815260200160058201548152602001600682018054600181600116156101000203166002900480601f016020809104026020016040519081016040528092919081815260200182805460018160011615610100020316600290048015611ca75780601f10611c7c57610100808354040283529160200191611ca7565b820191906000526020600020905b815481529060010190602001808311611c8a57829003601f168201915b5050505050815250509050600073ffffffffffffffffffffffffffffffffffffffff16816020015173ffffffffffffffffffffffffffffffffffffffff16141515611d80576040517f08c379a000000000000000000000000000000000000000000000000000000000815260040180806020018281038252603b8152602001807f54686520455243323020746f6b656e206973206e6f74207468652073616d652081526020017f617320646566696e656420696e2074686520636f6e74726163742e000000000081525060400191505060405180910390fd5b3373ffffffffffffffffffffffffffffffffffffffff16816060015173ffffffffffffffffffffffffffffffffffffffff16141515611e27576040517f08c379a00000000000000000000000000000000000000000000000000000000081526004018080602001828103825260158152602001807f42696c6c2069732066726f6d20636f6e73756d6572000000000000000000000081525060200191505060405180910390fd5b60008160a00151111515611ea3576040517f08c379a00000000000000000000000000000000000000000000000000000000081526004018080602001828103825260148152602001807f42696c6c20646f6573206e6f742065786973747300000000000000000000000081525060200191505060405180910390fd5b348160a00151141515611f44576040517f08c379a00000000000000000000000000000000000000000000000000000000081526004018080602001828103825260338152602001807f42696c6c20616d6f756e74206973206e6f74207468652073616d65206173207481526020017f686520616d6f756e7420617267756d656e742e0000000000000000000000000081525060400191505060405180910390fd5b600015156008600084815260200190815260200160002060009054906101000a900460ff161515141515611fe0576040517f08c379a00000000000000000000000000000000000000000000000000000000081526004018080602001828103825260158152602001807f42696c6c20697320616c726561647920706169642e000000000000000000000081525060200191505060405180910390fd5b60016008600084815260200190815260200160002060006101000a81548160ff02191690831515021790555034600960008073ffffffffffffffffffffffffffffffffffffffff1673ffffffffffffffffffffffffffffffffffffffff1681526020019081526020016000206000836040015173ffffffffffffffffffffffffffffffffffffffff1673ffffffffffffffffffffffffffffffffffffffff168152602001908152602001600020600082825401925050819055505050565b600080600080600080600260009054906101000a900473ffffffffffffffffffffffffffffffffffffffff1673ffffffffffffffffffffffffffffffffffffffff1663ef1f3757896040518263ffffffff167c01000000000000000000000000000000000000000000000000000000000281526004018082815260200191505060a060405180830381600087803b15801561213857600080fd5b505af115801561214c573d6000803e3d6000fd5b505050506040513d60a081101561216257600080fd5b8101908080519060200190929190805190602001909291908051906020019092919080519060200190929190805190602001909291905050509450945094509450945060011515811515141515612221576040517f08c379a00000000000000000000000000000000000000000000000000000000081526004018080602001828103825260188152602001807f436f6e7472616374206973206e6f7420656e61626c65642e000000000000000081525060200191505060405180910390fd5b6001600460e0604051908101604052808c81526020018873ffffffffffffffffffffffffffffffffffffffff1681526020018773ffffffffffffffffffffffffffffffffffffffff1681526020018673ffffffffffffffffffffffffffffffffffffffff168152602001858152602001858d0281526020018a815250908060018154018082558091505090600182039060005260206000209060070201600090919290919091506000820151816000015560208201518160010160006101000a81548173ffffffffffffffffffffffffffffffffffffffff021916908373ffffffffffffffffffffffffffffffffffffffff16021790555060408201518160020160006101000a81548173ffffffffffffffffffffffffffffffffffffffff021916908373ffffffffffffffffffffffffffffffffffffffff16021790555060608201518160030160006101000a81548173ffffffffffffffffffffffffffffffffffffffff021916908373ffffffffffffffffffffffffffffffffffffffff1602179055506080820151816004015560a0820151816005015560c08201518160060190805190602001906123d7929190612dd1565b505050039550600660008473ffffffffffffffffffffffffffffffffffffffff1673ffffffffffffffffffffffffffffffffffffffff168152602001908152602001600020869080600181540180825580915050906001820390600052602060002001600090919290919091505550600560008573ffffffffffffffffffffffffffffffffffffffff1673ffffffffffffffffffffffffffffffffffffffff1681526020019081526020016000208690806001815401808255809150509060018203906000526020600020016000909192909190915055507f73abbcfa5fdf574b07a7e3276022461d884823328c6af79c79043ae80479f859838588604051808473ffffffffffffffffffffffffffffffffffffffff1673ffffffffffffffffffffffffffffffffffffffff1681526020018373ffffffffffffffffffffffffffffffffffffffff1673ffffffffffffffffffffffffffffffffffffffff168152602001828152602001935050505060405180910390a150505050509392505050565b6000600960008473ffffffffffffffffffffffffffffffffffffffff1673ffffffffffffffffffffffffffffffffffffffff16815260200190815260200160002060008373ffffffffffffffffffffffffffffffffffffffff1673ffffffffffffffffffffffffffffffffffffffff16815260200190815260200160002054905092915050565b6000600960008073ffffffffffffffffffffffffffffffffffffffff1673ffffffffffffffffffffffffffffffffffffffff16815260200190815260200160002060003373ffffffffffffffffffffffffffffffffffffffff1673ffffffffffffffffffffffffffffffffffffffff1681526020019081526020016000205490506000811115156126da576040517f08c379a00000000000000000000000000000000000000000000000000000000081526004018080602001828103825260108152602001807f4e6f2062616c616e6365206c6566742e0000000000000000000000000000000081525060200191505060405180910390fd5b6000600960008073ffffffffffffffffffffffffffffffffffffffff1673ffffffffffffffffffffffffffffffffffffffff16815260200190815260200160002060003373ffffffffffffffffffffffffffffffffffffffff1673ffffffffffffffffffffffffffffffffffffffff168152602001908152602001600020819055503373ffffffffffffffffffffffffffffffffffffffff166108fc829081150290604051600060405180830381858888f193505050501580156127a2573d6000803e3d6000fd5b5050565b6127ae611179565b15156127b957600080fd5b6127c281612c57565b50565b60008073ffffffffffffffffffffffffffffffffffffffff168273ffffffffffffffffffffffffffffffffffffffff1614151515612891576040517f08c379a00000000000000000000000000000000000000000000000000000000081526004018080602001828103825260398152602001807f546f6b656e20616464726573732063616e206e6f74206265207a65726f2e205281526020017f6573657276656420666f7220455448207061796d656e74732e0000000000000081525060400191505060405180910390fd5b600960008373ffffffffffffffffffffffffffffffffffffffff1673ffffffffffffffffffffffffffffffffffffffff16815260200190815260200160002060003373ffffffffffffffffffffffffffffffffffffffff1673ffffffffffffffffffffffffffffffffffffffff168152602001908152602001600020549050600081111515612988576040517f08c379a00000000000000000000000000000000000000000000000000000000081526004018080602001828103825260108152602001807f4e6f2062616c616e6365206c6566742e0000000000000000000000000000000081525060200191505060405180910390fd5b6000600960008473ffffffffffffffffffffffffffffffffffffffff1673ffffffffffffffffffffffffffffffffffffffff16815260200190815260200160002060003373ffffffffffffffffffffffffffffffffffffffff1673ffffffffffffffffffffffffffffffffffffffff168152602001908152602001600020819055508173ffffffffffffffffffffffffffffffffffffffff1663a9059cbb33836040518363ffffffff167c0100000000000000000000000000000000000000000000000000000000028152600401808373ffffffffffffffffffffffffffffffffffffffff1673ffffffffffffffffffffffffffffffffffffffff16815260200182815260200192505050602060405180830381600087803b158015612aad57600080fd5b505af1158015612ac1573d6000803e3d6000fd5b505050506040513d6020811015612ad757600080fd5b81019080805190602001909291905050501515612b82576040517f08c379a00000000000000000000000000000000000000000000000000000000081526004018080602001828103825260218152602001807f4572726f72207768696c65206d616b696e67204552433230207472616e73666581526020017f720000000000000000000000000000000000000000000000000000000000000081525060400191505060405180910390fd5b5050565b6000600560008373ffffffffffffffffffffffffffffffffffffffff1673ffffffffffffffffffffffffffffffffffffffff168152602001908152602001600020805490509050919050565b80600260006101000a81548173ffffffffffffffffffffffffffffffffffffffff021916908373ffffffffffffffffffffffffffffffffffffffff16021790555080600360006101000a81548173ffffffffffffffffffffffffffffffffffffffff021916908373ffffffffffffffffffffffffffffffffffffffff16021790555050565b600073ffffffffffffffffffffffffffffffffffffffff168173ffffffffffffffffffffffffffffffffffffffff1614151515612c9357600080fd5b8073ffffffffffffffffffffffffffffffffffffffff166000809054906101000a900473ffffffffffffffffffffffffffffffffffffffff1673ffffffffffffffffffffffffffffffffffffffff167f8be0079c531659141344cd1fd0a4f28419497f9722a3daafe3b4186f6b6457e060405160405180910390a3806000806101000a81548173ffffffffffffffffffffffffffffffffffffffff021916908373ffffffffffffffffffffffffffffffffffffffff16021790555050565b60e06040519081016040528060008152602001600073ffffffffffffffffffffffffffffffffffffffff168152602001600073ffffffffffffffffffffffffffffffffffffffff168152602001600073ffffffffffffffffffffffffffffffffffffffff1681526020016000815260200160008152602001606081525090565b828054600181600116156101000203166002900490600052602060002090601f016020900481019282601f10612e1257805160ff1916838001178555612e40565b82800160010185558215612e40579182015b82811115612e3f578251825591602001919060010190612e24565b5b509050612e4d9190612e51565b5090565b612e7391905b80821115612e6f576000816000905550600101612e57565b5090565b905600a165627a7a723058209729ed0855a79599391b33924ff180062602e91d3f9c9d1b343b20d0209629ee0029",
  "source": "pragma solidity ^0.4.24;\n\nimport \"openzeppelin-solidity/contracts/ownership/Ownable.sol\";\nimport \"openzeppelin-solidity/contracts/token/ERC20/IERC20.sol\";\nimport \"zos-lib/contracts/migrations/Migratable.sol\";\nimport \"./libraries/ShastaTypes.sol\";\nimport \"./ContractRegistry.sol\";\n\n/**\n * @title BillSystem\n */\ncontract BillSystem is Ownable, Migratable {\n\n  address public contractRegistryAddress;\n  ContractRegistry contractRegistry;\n\n  ShastaTypes.Bill[] public bills;\n  \n  mapping(address => uint256[]) sellerBillIndex;\n  mapping(address => uint256[]) consumerBillIndex;\n  mapping(address => string) consumerMetadataIpfs;\n  mapping(uint => bool) isBillPaid;\n  // mapping of token addresses to mapping of account balances (token=0 means Ether)\n  mapping (address => mapping (address => uint)) public balances; \n\n  event NewBill(address consumer, address seller, uint index);\n  event Newseller(address seller);\n  event BillPaid(uint index, address consumer, address seller);\n\n  // Upgradeable contract pattern with initializer using zeppelinOS way.\n  function initialize() public isInitializer(\"BillSystem\", \"0\") {\n  }\n\n  /**\n    * @dev Set the contract registry smart contract address\n    * @param _contractRegistryAddress The contract registry address to set\n    */\n  function setContractRegistry(address _contractRegistryAddress) public {\n    contractRegistryAddress = _contractRegistryAddress;\n    contractRegistry = ContractRegistry(_contractRegistryAddress);\n  }\n\n  /**\n    * @dev Get the bill data\n    * @param index The bill index\n    * @return whConsumed The watts/hour consumed in the bill\n    * @return tokenAddress The ERC20 currency address that is used to pay the bill \n    * @return seller The seller/producer address\n    * @return consumer The consumer address\n    * @return price The unit price of one watt/hour\n    * @return amount The amount of watt/hour consumed\n    * @return ipfsMetadata Extra metadata that is appended to the bill, via IPFS hash\n    */\n  function getBill(uint index) public view returns(\n    uint256 whConsumed,\n    address tokenAddress,\n    address seller,\n    address consumer,\n    uint256 price,\n    uint256 amount,\n    string ipfsMetadata\n  ) {\n    ShastaTypes.Bill storage bill = bills[index];\n\n    whConsumed = bill.whConsumed;\n    tokenAddress = bill.tokenAddress;\n    seller = bill.seller;\n    consumer = bill.consumer;\n    price = bill.price;\n    amount = bill.amount;\n    ipfsMetadata = bill.ipfsMetadata;\n  }\n\n\n  /**\n    * @dev Get bills length\n    * @return length The bills list length\n    */\n  function getBillsLength() public view returns (uint length) {\n    length = bills.length;\n  }\n\n  /**\n    * @dev Get consumer bill length\n    * @param _address The consumer address\n    * @return length The bills list length\n    */\n  function getConsumerBillsLength(address _address) public view returns (uint length) {\n    length = consumerBillIndex[_address].length;\n  }\n\n  /**\n    * @dev Get seller/producer bill length\n    * @param _address The seller/producer address\n    * @return length The bills list length\n    */\n  function getSellerBillsLength(address _address) public view returns (uint length) {\n    length = sellerBillIndex[_address].length;\n  }\n\n  /**\n    * @dev Get the ERC20/ETH balance from an address\n    * @param tokenAddress The ERC20 smart contract address. If address is 0x it return the ETH balance. \n    * @param userAddress The ethereum address\n    * @return balance The token/eth balance\n    */\n  function getBalance(address tokenAddress, address userAddress) public view returns(uint256 balance) {\n    balance = balances[tokenAddress][userAddress];\n  }\n\n  /**\n    * @dev Generates a new prepaid contract between a consumer and a producer\n    * @param tokenAddress The ERC20 currency address that is used to pay the bill \n    * @param seller The seller/producer address\n    * @param consumer The consumer address\n    * @param price The unit price of one watt/hour\n    * @param monthlyWh The watts/h of monthly consumption, estimated by the consumer\n    * @param enabled The state of the contract\n    * @param ipfsContractMetadata Extra metadata that is appended to the contract, via IPFS hash\n    * @param ipfsBillMetadata Extra metadata that is appended to the bill, via IPFS hash\n    */\n  function newPrepaidContract(\n    address tokenAddress,\n    address seller,\n    address consumer,\n    uint price,\n    uint monthlyWh,\n    bool enabled,\n    string ipfsContractMetadata,\n    string ipfsBillMetadata\n  ) public {\n    uint newIndex = contractRegistry.newContract(tokenAddress, seller, consumer, price, monthlyWh, enabled, ipfsContractMetadata);\n    uint newBillIndex = generateBill(monthlyWh, newIndex, ipfsBillMetadata);\n    payBillERC20(newBillIndex);\n  }\n\n  /**\n    * @dev Generates a new energy bill\n    * @param wh The amount of watts/hour consumed during a timeframe \n    * @param contractId The contract index in the registry \n    * @param ipfsMetadata Extra metadata that is appended to the bill, via IPFS hash\n    */\n  function generateBill(uint wh, uint contractId, string ipfsMetadata) public returns(uint newIndex) {\n    (address tokenAddress, address seller, address consumer, uint price, bool enabled) = ContractRegistry(contractRegistryAddress).getContractData(contractId);\n    require(enabled == true, \"Contract is not enabled.\");\n    newIndex = bills.push(\n      ShastaTypes.Bill(\n        wh,\n        tokenAddress,\n        seller,\n        consumer,\n        price,\n        wh * price, // price must be Token/wattHour\n        ipfsMetadata\n      )\n    ) - 1; // Array.push returns the new array length, so (new length - 1) == latest index.\n    consumerBillIndex[consumer].push(newIndex);\n    sellerBillIndex[seller].push(newIndex);\n    emit NewBill(consumer, seller, newIndex);\n  }\n\n  /**\n    * @dev Withdraw all the current ETH balance from the caller account\n    */\n  function withdrawETH() public {\n    uint256 allBalance = balances[address(0)][msg.sender];\n    require(allBalance > 0,  \"No balance left.\");\n    balances[address(0)][msg.sender] = 0;\n    msg.sender.transfer(allBalance);\n  }\n\n   /**\n    * @dev Withdraw all the current ERC20 token balance from the caller account\n    * @param tokenAddress The ERC20 smart contract address to transfer funds to the caller account \n    */\n  function withdrawERC20(address tokenAddress) public {\n    require(tokenAddress != address(0), \"Token address can not be zero. Reserved for ETH payments.\");\n    uint256 allBalance = balances[tokenAddress][msg.sender];\n    require(allBalance > 0,  \"No balance left.\");\n    balances[tokenAddress][msg.sender] = 0;\n    require(IERC20(tokenAddress).transfer(msg.sender, allBalance), \"Error while making ERC20 transfer\");\n  }\n\n  /**\n    * @dev Pay a Shasta bill with ETH \n    * @param billIndex  The bill index\n    */\n  function payBillETH(uint256 billIndex) public payable {\n    ShastaTypes.Bill memory bill = bills[billIndex];\n    require(bill.tokenAddress == address(0), \"The ERC20 token is not the same as defined in the contract.\");\n    require(bill.consumer == msg.sender, \"Bill is from consumer\");\n    require(bill.amount > 0, \"Bill does not exists\");\n    require(bill.amount == msg.value, \"Bill amount is not the same as the amount argument.\");\n    require(isBillPaid[billIndex] == false, \"Bill is already paid.\");\n    isBillPaid[billIndex] = true;\n    balances[address(0)][bill.seller] += msg.value;\n  }\n\n  /**\n    * @dev Pay a Shasta bill with ERC20. The ERC20 token to pay is determined in the contract between consumer and producer.\n    * @param billIndex  The bill index\n    */\n  function payBillERC20(uint256 billIndex) public {\n    ShastaTypes.Bill memory bill = bills[billIndex];\n    require(bill.amount > 0, \"Bill does not exists\");\n    require(bill.tokenAddress != address(0), \"The ERC20 token address must not be 0x00.\");\n    require(isBillPaid[billIndex] == false, \"Bill is already paid.\");\n    IERC20 tokenInstance = IERC20(bill.tokenAddress);\n    // Add allowance requirement, for better error handling HERE\n    tokenInstance.transferFrom(bill.consumer, address(this), bill.amount);\n    isBillPaid[billIndex] = true;\n    balances[bill.tokenAddress][bill.seller] += bill.amount;\n    emit BillPaid(billIndex, bill.consumer, bill.seller);\n  }\n}",
  "sourcePath": "/home/ignasi/Documents/projects/ShastaOS/contracts/BillSystem.sol",
  "compiler": {
    "name": "solc",
    "version": "0.4.24+commit.e67f0147.Emscripten.clang"
  },
  "schemaVersion": "3.0.0-beta.0",
  "updatedAt": "2018-10-24T11:26:57.562Z"
}