{
  "contractName": "BillSystem",
  "abi": [
    {
      "constant": true,
      "inputs": [
        {
          "name": "",
          "type": "uint256"
        }
      ],
      "name": "bills",
      "outputs": [
        {
          "name": "whConsumed",
          "type": "uint256"
        },
        {
          "name": "tokenAddress",
          "type": "address"
        },
        {
          "name": "seller",
          "type": "address"
        },
        {
          "name": "consumer",
          "type": "address"
        },
        {
          "name": "price",
          "type": "uint256"
        },
        {
          "name": "amount",
          "type": "uint256"
        },
        {
          "name": "ipfsMetadata",
          "type": "string"
        }
      ],
      "payable": false,
      "stateMutability": "view",
      "type": "function"
    },
    {
      "constant": true,
      "inputs": [],
      "name": "contractRegistryAddress",
      "outputs": [
        {
          "name": "",
          "type": "address"
        }
      ],
      "payable": false,
      "stateMutability": "view",
      "type": "function"
    },
    {
      "constant": false,
      "inputs": [],
      "name": "renounceOwnership",
      "outputs": [],
      "payable": false,
      "stateMutability": "nonpayable",
      "type": "function"
    },
    {
      "constant": true,
      "inputs": [],
      "name": "owner",
      "outputs": [
        {
          "name": "",
          "type": "address"
        }
      ],
      "payable": false,
      "stateMutability": "view",
      "type": "function"
    },
    {
      "constant": true,
      "inputs": [],
      "name": "isOwner",
      "outputs": [
        {
          "name": "",
          "type": "bool"
        }
      ],
      "payable": false,
      "stateMutability": "view",
      "type": "function"
    },
    {
      "constant": true,
      "inputs": [
        {
          "name": "contractName",
          "type": "string"
        },
        {
          "name": "migrationId",
          "type": "string"
        }
      ],
      "name": "isMigrated",
      "outputs": [
        {
          "name": "",
          "type": "bool"
        }
      ],
      "payable": false,
      "stateMutability": "view",
      "type": "function"
    },
    {
      "constant": true,
      "inputs": [
        {
          "name": "",
          "type": "address"
        },
        {
          "name": "",
          "type": "address"
        }
      ],
      "name": "balances",
      "outputs": [
        {
          "name": "",
          "type": "uint256"
        }
      ],
      "payable": false,
      "stateMutability": "view",
      "type": "function"
    },
    {
      "constant": false,
      "inputs": [
        {
          "name": "newOwner",
          "type": "address"
        }
      ],
      "name": "transferOwnership",
      "outputs": [],
      "payable": false,
      "stateMutability": "nonpayable",
      "type": "function"
    },
    {
      "anonymous": false,
      "inputs": [
        {
          "indexed": false,
          "name": "consumer",
          "type": "address"
        },
        {
          "indexed": false,
          "name": "seller",
          "type": "address"
        },
        {
          "indexed": false,
          "name": "index",
          "type": "uint256"
        }
      ],
      "name": "NewBill",
      "type": "event"
    },
    {
      "anonymous": false,
      "inputs": [
        {
          "indexed": false,
          "name": "seller",
          "type": "address"
        }
      ],
      "name": "Newseller",
      "type": "event"
    },
    {
      "anonymous": false,
      "inputs": [
        {
          "indexed": false,
          "name": "contractName",
          "type": "string"
        },
        {
          "indexed": false,
          "name": "migrationId",
          "type": "string"
        }
      ],
      "name": "Migrated",
      "type": "event"
    },
    {
      "anonymous": false,
      "inputs": [
        {
          "indexed": true,
          "name": "previousOwner",
          "type": "address"
        }
      ],
      "name": "OwnershipRenounced",
      "type": "event"
    },
    {
      "anonymous": false,
      "inputs": [
        {
          "indexed": true,
          "name": "previousOwner",
          "type": "address"
        },
        {
          "indexed": true,
          "name": "newOwner",
          "type": "address"
        }
      ],
      "name": "OwnershipTransferred",
      "type": "event"
    },
    {
      "constant": false,
      "inputs": [],
      "name": "initialize",
      "outputs": [],
      "payable": false,
      "stateMutability": "nonpayable",
      "type": "function"
    },
    {
      "constant": false,
      "inputs": [
        {
          "name": "_contractRegistryAddress",
          "type": "address"
        }
      ],
      "name": "setContractRegistry",
      "outputs": [],
      "payable": false,
      "stateMutability": "nonpayable",
      "type": "function"
    },
    {
      "constant": true,
      "inputs": [
        {
          "name": "index",
          "type": "uint256"
        }
      ],
      "name": "getBill",
      "outputs": [
        {
          "name": "whConsumed",
          "type": "uint256"
        },
        {
          "name": "tokenAddress",
          "type": "address"
        },
        {
          "name": "seller",
          "type": "address"
        },
        {
          "name": "consumer",
          "type": "address"
        },
        {
          "name": "price",
          "type": "uint256"
        },
        {
          "name": "amount",
          "type": "uint256"
        },
        {
          "name": "ipfsMetadata",
          "type": "string"
        }
      ],
      "payable": false,
      "stateMutability": "view",
      "type": "function"
    },
    {
      "constant": true,
      "inputs": [],
      "name": "getBillsLength",
      "outputs": [
        {
          "name": "length",
          "type": "uint256"
        }
      ],
      "payable": false,
      "stateMutability": "view",
      "type": "function"
    },
    {
      "constant": true,
      "inputs": [
        {
          "name": "_address",
          "type": "address"
        }
      ],
      "name": "getConsumerBillsLength",
      "outputs": [
        {
          "name": "length",
          "type": "uint256"
        }
      ],
      "payable": false,
      "stateMutability": "view",
      "type": "function"
    },
    {
      "constant": true,
      "inputs": [
        {
          "name": "_address",
          "type": "address"
        }
      ],
      "name": "getSellerBillsLength",
      "outputs": [
        {
          "name": "length",
          "type": "uint256"
        }
      ],
      "payable": false,
      "stateMutability": "view",
      "type": "function"
    },
    {
      "constant": true,
      "inputs": [
        {
          "name": "tokenAddress",
          "type": "address"
        },
        {
          "name": "userAddress",
          "type": "address"
        }
      ],
      "name": "getBalance",
      "outputs": [
        {
          "name": "balance",
          "type": "uint256"
        }
      ],
      "payable": false,
      "stateMutability": "view",
      "type": "function"
    },
    {
      "constant": false,
      "inputs": [
        {
          "name": "wh",
          "type": "uint256"
        },
        {
          "name": "contractId",
          "type": "uint256"
        },
        {
          "name": "ipfsMetadata",
          "type": "string"
        }
      ],
      "name": "generateBill",
      "outputs": [
        {
          "name": "newIndex",
          "type": "uint256"
        }
      ],
      "payable": false,
      "stateMutability": "nonpayable",
      "type": "function"
    },
    {
      "constant": false,
      "inputs": [],
      "name": "withdrawETH",
      "outputs": [],
      "payable": false,
      "stateMutability": "nonpayable",
      "type": "function"
    },
    {
      "constant": false,
      "inputs": [
        {
          "name": "tokenAddress",
          "type": "address"
        }
      ],
      "name": "withdrawERC20",
      "outputs": [],
      "payable": false,
      "stateMutability": "nonpayable",
      "type": "function"
    },
    {
      "constant": false,
      "inputs": [
        {
          "name": "billIndex",
          "type": "uint256"
        }
      ],
      "name": "payBillETH",
      "outputs": [],
      "payable": true,
      "stateMutability": "payable",
      "type": "function"
    },
    {
      "constant": false,
      "inputs": [
        {
          "name": "tokenAddress",
          "type": "address"
        },
        {
          "name": "consumer",
          "type": "address"
        },
        {
          "name": "amount",
          "type": "uint256"
        },
        {
          "name": "billIndex",
          "type": "uint256"
        }
      ],
      "name": "payBillERC20",
      "outputs": [],
      "payable": false,
      "stateMutability": "nonpayable",
      "type": "function"
    }
  ],
  "bytecode": "0x6080604052336000806101000a81548173ffffffffffffffffffffffffffffffffffffffff021916908373ffffffffffffffffffffffffffffffffffffffff160217905550612c30806100536000396000f300608060405260043610610112576000357c0100000000000000000000000000000000000000000000000000000000900463ffffffff168063233490401461011757806328bdcde81461016e57806346af6070146102c2578063715018a6146103195780638129fc1c146103305780638da5cb5b146103475780638f32d59b1461039e578063a747e1b0146103cd578063b0c96c0b14610444578063b1cd06e61461046f578063c0bac1a8146105c3578063c23f001f1461068a578063c4f6708a14610701578063c5df065914610721578063d4fac45d146107b2578063e086e5ec14610829578063f2fde38b14610840578063f4f3b20014610883578063f64018c4146108c6578063fcd13d651461091d575b600080fd5b34801561012357600080fd5b50610158600480360381019080803573ffffffffffffffffffffffffffffffffffffffff169060200190929190505050610960565b6040518082815260200191505060405180910390f35b34801561017a57600080fd5b50610199600480360381019080803590602001909291905050506109ac565b604051808881526020018773ffffffffffffffffffffffffffffffffffffffff1673ffffffffffffffffffffffffffffffffffffffff1681526020018673ffffffffffffffffffffffffffffffffffffffff1673ffffffffffffffffffffffffffffffffffffffff1681526020018573ffffffffffffffffffffffffffffffffffffffff1673ffffffffffffffffffffffffffffffffffffffff16815260200184815260200183815260200180602001828103825283818151815260200191508051906020019080838360005b83811015610281578082015181840152602081019050610266565b50505050905090810190601f1680156102ae5780820380516001836020036101000a031916815260200191505b509850505050505050505060405180910390f35b3480156102ce57600080fd5b506102d7610af5565b604051808273ffffffffffffffffffffffffffffffffffffffff1673ffffffffffffffffffffffffffffffffffffffff16815260200191505060405180910390f35b34801561032557600080fd5b5061032e610b1b565b005b34801561033c57600080fd5b50610345610bd5565b005b34801561035357600080fd5b5061035c610e50565b604051808273ffffffffffffffffffffffffffffffffffffffff1673ffffffffffffffffffffffffffffffffffffffff16815260200191505060405180910390f35b3480156103aa57600080fd5b506103b3610e79565b604051808215151515815260200191505060405180910390f35b3480156103d957600080fd5b50610442600480360381019080803573ffffffffffffffffffffffffffffffffffffffff169060200190929190803573ffffffffffffffffffffffffffffffffffffffff1690602001909291908035906020019092919080359060200190929190505050610ed0565b005b34801561045057600080fd5b506104596115cc565b6040518082815260200191505060405180910390f35b34801561047b57600080fd5b5061049a600480360381019080803590602001909291905050506115d9565b604051808881526020018773ffffffffffffffffffffffffffffffffffffffff1673ffffffffffffffffffffffffffffffffffffffff1681526020018673ffffffffffffffffffffffffffffffffffffffff1673ffffffffffffffffffffffffffffffffffffffff1681526020018573ffffffffffffffffffffffffffffffffffffffff1673ffffffffffffffffffffffffffffffffffffffff16815260200184815260200183815260200180602001828103825283818151815260200191508051906020019080838360005b83811015610582578082015181840152602081019050610567565b50505050905090810190601f1680156105af5780820380516001836020036101000a031916815260200191505b509850505050505050505060405180910390f35b3480156105cf57600080fd5b50610670600480360381019080803590602001908201803590602001908080601f0160208091040260200160405190810160405280939291908181526020018383808284378201915050505050509192919290803590602001908201803590602001908080601f016020809104026020016040519081016040528093929190818152602001838380828437820191505050505050919291929050505061173a565b604051808215151515815260200191505060405180910390f35b34801561069657600080fd5b506106eb600480360381019080803573ffffffffffffffffffffffffffffffffffffffff169060200190929190803573ffffffffffffffffffffffffffffffffffffffff169060200190929190505050611826565b6040518082815260200191505060405180910390f35b61071f6004803603810190808035906020019092919050505061184b565b005b34801561072d57600080fd5b5061079c6004803603810190808035906020019092919080359060200190929190803590602001908201803590602001908080601f0160208091040260200160405190810160405280939291908181526020018383808284378201915050505050509192919290505050611e2c565b6040518082815260200191505060405180910390f35b3480156107be57600080fd5b50610813600480360381019080803573ffffffffffffffffffffffffffffffffffffffff169060200190929190803573ffffffffffffffffffffffffffffffffffffffff1690602001909291905050506122e8565b6040518082815260200191505060405180910390f35b34801561083557600080fd5b5061083e61236f565b005b34801561084c57600080fd5b50610881600480360381019080803573ffffffffffffffffffffffffffffffffffffffff169060200190929190505050612534565b005b34801561088f57600080fd5b506108c4600480360381019080803573ffffffffffffffffffffffffffffffffffffffff169060200190929190505050612553565b005b3480156108d257600080fd5b50610907600480360381019080803573ffffffffffffffffffffffffffffffffffffffff169060200190929190505050612914565b6040518082815260200191505060405180910390f35b34801561092957600080fd5b5061095e600480360381019080803573ffffffffffffffffffffffffffffffffffffffff169060200190929190505050612960565b005b6000600660008373ffffffffffffffffffffffffffffffffffffffff1673ffffffffffffffffffffffffffffffffffffffff168152602001908152602001600020805490509050919050565b6004818154811015156109bb57fe5b90600052602060002090600702016000915090508060000154908060010160009054906101000a900473ffffffffffffffffffffffffffffffffffffffff16908060020160009054906101000a900473ffffffffffffffffffffffffffffffffffffffff16908060030160009054906101000a900473ffffffffffffffffffffffffffffffffffffffff1690806004015490806005015490806006018054600181600116156101000203166002900480601f016020809104026020016040519081016040528092919081815260200182805460018160011615610100020316600290048015610aeb5780601f10610ac057610100808354040283529160200191610aeb565b820191906000526020600020905b815481529060010190602001808311610ace57829003601f168201915b5050505050905087565b600260009054906101000a900473ffffffffffffffffffffffffffffffffffffffff1681565b610b23610e79565b1515610b2e57600080fd5b6000809054906101000a900473ffffffffffffffffffffffffffffffffffffffff1673ffffffffffffffffffffffffffffffffffffffff167ff8df31144d9c2f0f6b59d69b8b98abd5459d07f2742c4df920b25aae33c6482060405160405180910390a260008060006101000a81548173ffffffffffffffffffffffffffffffffffffffff021916908373ffffffffffffffffffffffffffffffffffffffff160217905550565b6040805190810160405280600a81526020017f42696c6c53797374656d000000000000000000000000000000000000000000008152506040805190810160405280600181526020017f3000000000000000000000000000000000000000000000000000000000000000815250610c4b828261173a565b151515610c5757600080fd5b7fdd117a11c22118c9dee4b5a67ce578bc44529dce21ee0ccc439588fbb9fb4ea38282604051808060200180602001838103835285818151815260200191508051906020019080838360005b83811015610cbe578082015181840152602081019050610ca3565b50505050905090810190601f168015610ceb5780820380516001836020036101000a031916815260200191505b50838103825284818151815260200191508051906020019080838360005b83811015610d24578082015181840152602081019050610d09565b50505050905090810190601f168015610d515780820380516001836020036101000a031916815260200191505b5094505050505060405180910390a1600180836040518082805190602001908083835b602083101515610d995780518252602082019150602081019050602083039250610d74565b6001836020036101000a0380198251168184511680821785525050505050509050019150509081526020016040518091039020826040518082805190602001908083835b602083101515610e025780518252602082019150602081019050602083039250610ddd565b6001836020036101000a038019825116818451168082178552505050505050905001915050908152602001604051809103902060006101000a81548160ff0219169083151502179055505050565b60008060009054906101000a900473ffffffffffffffffffffffffffffffffffffffff16905090565b60008060009054906101000a900473ffffffffffffffffffffffffffffffffffffffff1673ffffffffffffffffffffffffffffffffffffffff163373ffffffffffffffffffffffffffffffffffffffff1614905090565b6000610eda612adf565b859150600483815481101515610eec57fe5b906000526020600020906007020160e06040519081016040529081600082015481526020016001820160009054906101000a900473ffffffffffffffffffffffffffffffffffffffff1673ffffffffffffffffffffffffffffffffffffffff1673ffffffffffffffffffffffffffffffffffffffff1681526020016002820160009054906101000a900473ffffffffffffffffffffffffffffffffffffffff1673ffffffffffffffffffffffffffffffffffffffff1673ffffffffffffffffffffffffffffffffffffffff1681526020016003820160009054906101000a900473ffffffffffffffffffffffffffffffffffffffff1673ffffffffffffffffffffffffffffffffffffffff1673ffffffffffffffffffffffffffffffffffffffff1681526020016004820154815260200160058201548152602001600682018054600181600116156101000203166002900480601f0160208091040260200160405190810160405280929190818152602001828054600181600116156101000203166002900480156110bf5780601f10611094576101008083540402835291602001916110bf565b820191906000526020600020905b8154815290600101906020018083116110a257829003601f168201915b50505050508152505090508573ffffffffffffffffffffffffffffffffffffffff16816020015173ffffffffffffffffffffffffffffffffffffffff16141515611197576040517f08c379a000000000000000000000000000000000000000000000000000000000815260040180806020018281038252603b8152602001807f54686520455243323020746f6b656e206973206e6f74207468652073616d652081526020017f617320646566696e656420696e2074686520636f6e74726163742e000000000081525060400191505060405180910390fd5b8473ffffffffffffffffffffffffffffffffffffffff16816060015173ffffffffffffffffffffffffffffffffffffffff1614151561123e576040517f08c379a00000000000000000000000000000000000000000000000000000000081526004018080602001828103825260158152602001807f42696c6c2069732066726f6d20636f6e73756d6572000000000000000000000081525060200191505060405180910390fd5b60008160a001511115156112ba576040517f08c379a00000000000000000000000000000000000000000000000000000000081526004018080602001828103825260148152602001807f42696c6c20646f6573206e6f742065786973747300000000000000000000000081525060200191505060405180910390fd5b838160a0015114151561135b576040517f08c379a00000000000000000000000000000000000000000000000000000000081526004018080602001828103825260338152602001807f42696c6c20616d6f756e74206973206e6f74207468652073616d65206173207481526020017f686520616d6f756e7420617267756d656e742e0000000000000000000000000081525060400191505060405180910390fd5b600015156008600085815260200190815260200160002060009054906101000a900460ff1615151415156113f7576040517f08c379a00000000000000000000000000000000000000000000000000000000081526004018080602001828103825260158152602001807f42696c6c20697320616c726561647920706169642e000000000000000000000081525060200191505060405180910390fd5b8173ffffffffffffffffffffffffffffffffffffffff166323b872dd8630876040518463ffffffff167c0100000000000000000000000000000000000000000000000000000000028152600401808473ffffffffffffffffffffffffffffffffffffffff1673ffffffffffffffffffffffffffffffffffffffff1681526020018373ffffffffffffffffffffffffffffffffffffffff1673ffffffffffffffffffffffffffffffffffffffff1681526020018281526020019350505050602060405180830381600087803b1580156114ce57600080fd5b505af11580156114e2573d6000803e3d6000fd5b505050506040513d60208110156114f857600080fd5b81019080805190602001909291905050505060016008600085815260200190815260200160002060006101000a81548160ff02191690831515021790555083600960008873ffffffffffffffffffffffffffffffffffffffff1673ffffffffffffffffffffffffffffffffffffffff1681526020019081526020016000206000836040015173ffffffffffffffffffffffffffffffffffffffff1673ffffffffffffffffffffffffffffffffffffffff16815260200190815260200160002060008282540192505081905550505050505050565b6000600480549050905090565b600080600080600080606060006004898154811015156115f557fe5b90600052602060002090600702019050806000015497508060010160009054906101000a900473ffffffffffffffffffffffffffffffffffffffff1696508060020160009054906101000a900473ffffffffffffffffffffffffffffffffffffffff1695508060030160009054906101000a900473ffffffffffffffffffffffffffffffffffffffff1694508060040154935080600501549250806006018054600181600116156101000203166002900480601f0160208091040260200160405190810160405280929190818152602001828054600181600116156101000203166002900480156117275780601f106116fc57610100808354040283529160200191611727565b820191906000526020600020905b81548152906001019060200180831161170a57829003601f168201915b5050505050915050919395979092949650565b60006001836040518082805190602001908083835b602083101515611774578051825260208201915060208101905060208303925061174f565b6001836020036101000a0380198251168184511680821785525050505050509050019150509081526020016040518091039020826040518082805190602001908083835b6020831015156117dd57805182526020820191506020810190506020830392506117b8565b6001836020036101000a038019825116818451168082178552505050505050905001915050908152602001604051809103902060009054906101000a900460ff16905092915050565b6009602052816000526040600020602052806000526040600020600091509150505481565b611853612adf565b60048281548110151561186257fe5b906000526020600020906007020160e06040519081016040529081600082015481526020016001820160009054906101000a900473ffffffffffffffffffffffffffffffffffffffff1673ffffffffffffffffffffffffffffffffffffffff1673ffffffffffffffffffffffffffffffffffffffff1681526020016002820160009054906101000a900473ffffffffffffffffffffffffffffffffffffffff1673ffffffffffffffffffffffffffffffffffffffff1673ffffffffffffffffffffffffffffffffffffffff1681526020016003820160009054906101000a900473ffffffffffffffffffffffffffffffffffffffff1673ffffffffffffffffffffffffffffffffffffffff1673ffffffffffffffffffffffffffffffffffffffff1681526020016004820154815260200160058201548152602001600682018054600181600116156101000203166002900480601f016020809104026020016040519081016040528092919081815260200182805460018160011615610100020316600290048015611a355780601f10611a0a57610100808354040283529160200191611a35565b820191906000526020600020905b815481529060010190602001808311611a1857829003601f168201915b5050505050815250509050600073ffffffffffffffffffffffffffffffffffffffff16816020015173ffffffffffffffffffffffffffffffffffffffff16141515611b0e576040517f08c379a000000000000000000000000000000000000000000000000000000000815260040180806020018281038252603b8152602001807f54686520455243323020746f6b656e206973206e6f74207468652073616d652081526020017f617320646566696e656420696e2074686520636f6e74726163742e000000000081525060400191505060405180910390fd5b3373ffffffffffffffffffffffffffffffffffffffff16816060015173ffffffffffffffffffffffffffffffffffffffff16141515611bb5576040517f08c379a00000000000000000000000000000000000000000000000000000000081526004018080602001828103825260158152602001807f42696c6c2069732066726f6d20636f6e73756d6572000000000000000000000081525060200191505060405180910390fd5b60008160a00151111515611c31576040517f08c379a00000000000000000000000000000000000000000000000000000000081526004018080602001828103825260148152602001807f42696c6c20646f6573206e6f742065786973747300000000000000000000000081525060200191505060405180910390fd5b348160a00151141515611cd2576040517f08c379a00000000000000000000000000000000000000000000000000000000081526004018080602001828103825260338152602001807f42696c6c20616d6f756e74206973206e6f74207468652073616d65206173207481526020017f686520616d6f756e7420617267756d656e742e0000000000000000000000000081525060400191505060405180910390fd5b600015156008600084815260200190815260200160002060009054906101000a900460ff161515141515611d6e576040517f08c379a00000000000000000000000000000000000000000000000000000000081526004018080602001828103825260158152602001807f42696c6c20697320616c726561647920706169642e000000000000000000000081525060200191505060405180910390fd5b60016008600084815260200190815260200160002060006101000a81548160ff02191690831515021790555034600960008073ffffffffffffffffffffffffffffffffffffffff1673ffffffffffffffffffffffffffffffffffffffff1681526020019081526020016000206000836040015173ffffffffffffffffffffffffffffffffffffffff1673ffffffffffffffffffffffffffffffffffffffff168152602001908152602001600020600082825401925050819055505050565b600080600080600080600260009054906101000a900473ffffffffffffffffffffffffffffffffffffffff1673ffffffffffffffffffffffffffffffffffffffff1663ef1f3757896040518263ffffffff167c01000000000000000000000000000000000000000000000000000000000281526004018082815260200191505060a060405180830381600087803b158015611ec657600080fd5b505af1158015611eda573d6000803e3d6000fd5b505050506040513d60a0811015611ef057600080fd5b8101908080519060200190929190805190602001909291908051906020019092919080519060200190929190805190602001909291905050509450945094509450945060011515811515141515611faf576040517f08c379a00000000000000000000000000000000000000000000000000000000081526004018080602001828103825260188152602001807f436f6e7472616374206973206e6f7420656e61626c65642e000000000000000081525060200191505060405180910390fd5b6001600460e0604051908101604052808c81526020018873ffffffffffffffffffffffffffffffffffffffff1681526020018773ffffffffffffffffffffffffffffffffffffffff1681526020018673ffffffffffffffffffffffffffffffffffffffff168152602001858152602001858d0281526020018a815250908060018154018082558091505090600182039060005260206000209060070201600090919290919091506000820151816000015560208201518160010160006101000a81548173ffffffffffffffffffffffffffffffffffffffff021916908373ffffffffffffffffffffffffffffffffffffffff16021790555060408201518160020160006101000a81548173ffffffffffffffffffffffffffffffffffffffff021916908373ffffffffffffffffffffffffffffffffffffffff16021790555060608201518160030160006101000a81548173ffffffffffffffffffffffffffffffffffffffff021916908373ffffffffffffffffffffffffffffffffffffffff1602179055506080820151816004015560a0820151816005015560c0820151816006019080519060200190612165929190612b5f565b505050039550600660008473ffffffffffffffffffffffffffffffffffffffff1673ffffffffffffffffffffffffffffffffffffffff168152602001908152602001600020869080600181540180825580915050906001820390600052602060002001600090919290919091505550600560008573ffffffffffffffffffffffffffffffffffffffff1673ffffffffffffffffffffffffffffffffffffffff1681526020019081526020016000208690806001815401808255809150509060018203906000526020600020016000909192909190915055507f73abbcfa5fdf574b07a7e3276022461d884823328c6af79c79043ae80479f859838588604051808473ffffffffffffffffffffffffffffffffffffffff1673ffffffffffffffffffffffffffffffffffffffff1681526020018373ffffffffffffffffffffffffffffffffffffffff1673ffffffffffffffffffffffffffffffffffffffff168152602001828152602001935050505060405180910390a150505050509392505050565b6000600960008473ffffffffffffffffffffffffffffffffffffffff1673ffffffffffffffffffffffffffffffffffffffff16815260200190815260200160002060008373ffffffffffffffffffffffffffffffffffffffff1673ffffffffffffffffffffffffffffffffffffffff16815260200190815260200160002054905092915050565b6000600960008073ffffffffffffffffffffffffffffffffffffffff1673ffffffffffffffffffffffffffffffffffffffff16815260200190815260200160002060003373ffffffffffffffffffffffffffffffffffffffff1673ffffffffffffffffffffffffffffffffffffffff168152602001908152602001600020549050600081111515612468576040517f08c379a00000000000000000000000000000000000000000000000000000000081526004018080602001828103825260108152602001807f4e6f2062616c616e6365206c6566742e0000000000000000000000000000000081525060200191505060405180910390fd5b6000600960008073ffffffffffffffffffffffffffffffffffffffff1673ffffffffffffffffffffffffffffffffffffffff16815260200190815260200160002060003373ffffffffffffffffffffffffffffffffffffffff1673ffffffffffffffffffffffffffffffffffffffff168152602001908152602001600020819055503373ffffffffffffffffffffffffffffffffffffffff166108fc829081150290604051600060405180830381858888f19350505050158015612530573d6000803e3d6000fd5b5050565b61253c610e79565b151561254757600080fd5b612550816129e5565b50565b60008073ffffffffffffffffffffffffffffffffffffffff168273ffffffffffffffffffffffffffffffffffffffff161415151561261f576040517f08c379a00000000000000000000000000000000000000000000000000000000081526004018080602001828103825260398152602001807f546f6b656e20616464726573732063616e206e6f74206265207a65726f2e205281526020017f6573657276656420666f7220455448207061796d656e74732e0000000000000081525060400191505060405180910390fd5b600960008373ffffffffffffffffffffffffffffffffffffffff1673ffffffffffffffffffffffffffffffffffffffff16815260200190815260200160002060003373ffffffffffffffffffffffffffffffffffffffff1673ffffffffffffffffffffffffffffffffffffffff168152602001908152602001600020549050600081111515612716576040517f08c379a00000000000000000000000000000000000000000000000000000000081526004018080602001828103825260108152602001807f4e6f2062616c616e6365206c6566742e0000000000000000000000000000000081525060200191505060405180910390fd5b6000600960008473ffffffffffffffffffffffffffffffffffffffff1673ffffffffffffffffffffffffffffffffffffffff16815260200190815260200160002060003373ffffffffffffffffffffffffffffffffffffffff1673ffffffffffffffffffffffffffffffffffffffff168152602001908152602001600020819055508173ffffffffffffffffffffffffffffffffffffffff1663a9059cbb33836040518363ffffffff167c0100000000000000000000000000000000000000000000000000000000028152600401808373ffffffffffffffffffffffffffffffffffffffff1673ffffffffffffffffffffffffffffffffffffffff16815260200182815260200192505050602060405180830381600087803b15801561283b57600080fd5b505af115801561284f573d6000803e3d6000fd5b505050506040513d602081101561286557600080fd5b81019080805190602001909291905050501515612910576040517f08c379a00000000000000000000000000000000000000000000000000000000081526004018080602001828103825260218152602001807f4572726f72207768696c65206d616b696e67204552433230207472616e73666581526020017f720000000000000000000000000000000000000000000000000000000000000081525060400191505060405180910390fd5b5050565b6000600560008373ffffffffffffffffffffffffffffffffffffffff1673ffffffffffffffffffffffffffffffffffffffff168152602001908152602001600020805490509050919050565b80600260006101000a81548173ffffffffffffffffffffffffffffffffffffffff021916908373ffffffffffffffffffffffffffffffffffffffff16021790555080600360006101000a81548173ffffffffffffffffffffffffffffffffffffffff021916908373ffffffffffffffffffffffffffffffffffffffff16021790555050565b600073ffffffffffffffffffffffffffffffffffffffff168173ffffffffffffffffffffffffffffffffffffffff1614151515612a2157600080fd5b8073ffffffffffffffffffffffffffffffffffffffff166000809054906101000a900473ffffffffffffffffffffffffffffffffffffffff1673ffffffffffffffffffffffffffffffffffffffff167f8be0079c531659141344cd1fd0a4f28419497f9722a3daafe3b4186f6b6457e060405160405180910390a3806000806101000a81548173ffffffffffffffffffffffffffffffffffffffff021916908373ffffffffffffffffffffffffffffffffffffffff16021790555050565b60e06040519081016040528060008152602001600073ffffffffffffffffffffffffffffffffffffffff168152602001600073ffffffffffffffffffffffffffffffffffffffff168152602001600073ffffffffffffffffffffffffffffffffffffffff1681526020016000815260200160008152602001606081525090565b828054600181600116156101000203166002900490600052602060002090601f016020900481019282601f10612ba057805160ff1916838001178555612bce565b82800160010185558215612bce579182015b82811115612bcd578251825591602001919060010190612bb2565b5b509050612bdb9190612bdf565b5090565b612c0191905b80821115612bfd576000816000905550600101612be5565b5090565b905600a165627a7a72305820b810baff1b548a7dcbc6adb1c30bf6bfc180833d49e41af7419362a2752b8b5d0029",
  "source": "pragma solidity ^0.4.24;\n\nimport \"openzeppelin-solidity/contracts/ownership/Ownable.sol\";\nimport \"openzeppelin-solidity/contracts/token/ERC20/IERC20.sol\";\nimport \"zos-lib/contracts/migrations/Migratable.sol\";\nimport \"./libraries/ShastaTypes.sol\";\nimport \"./ContractRegistry.sol\";\n/**\n * @title BillSystem\n */\n\ncontract BillSystem is Ownable, Migratable {\n\n  address public contractRegistryAddress;\n  ContractRegistry contractRegistry;\n\n  ShastaTypes.Bill[] public bills;\n  \n  mapping(address => uint256[]) sellerBillIndex;\n  mapping(address => uint256[]) consumerBillIndex;\n  mapping(address => string) consumerMetadataIpfs;\n  mapping(uint => bool) isBillPaid;\n  // mapping of token addresses to mapping of account balances (token=0 means Ether)\n  mapping (address => mapping (address => uint)) public balances; \n\n  event NewBill(address consumer, address seller, uint index);\n  event Newseller(address seller);\n\n// Upgradeable contract pattern with initializer using zeppelinOS way.\n  function initialize() public isInitializer(\"BillSystem\", \"0\") {\n  }\n\n  function setContractRegistry(address _contractRegistryAddress) public {\n    contractRegistryAddress = _contractRegistryAddress;\n    contractRegistry = ContractRegistry(_contractRegistryAddress);\n  }\n\n  function getBill(uint index) public view returns(\n    uint256 whConsumed,\n    address tokenAddress,\n    address seller,\n    address consumer,\n    uint256 price,\n    uint256 amount,\n    string ipfsMetadata\n  ) {\n    ShastaTypes.Bill storage bill = bills[index];\n\n    whConsumed = bill.whConsumed;\n    tokenAddress = bill.tokenAddress;\n    seller = bill.seller;\n    consumer = bill.consumer;\n    price = bill.price;\n    amount = bill.amount;\n    ipfsMetadata = bill.ipfsMetadata;\n  }\n\n  function getBillsLength() public view returns (uint length) {\n    length = bills.length;\n  }\n\n  function getConsumerBillsLength(address _address) public view returns (uint length) {\n    length = consumerBillIndex[_address].length;\n  }\n\n  function getSellerBillsLength(address _address) public view returns (uint length) {\n    length = sellerBillIndex[_address].length;\n  }\n\n  function getBalance(address tokenAddress, address userAddress) public view returns(uint256 balance) {\n    balance = balances[tokenAddress][userAddress];\n  }\n\n  function generateBill(uint wh, uint contractId, string ipfsMetadata) public returns(uint newIndex) {\n    (address tokenAddress, address seller, address consumer, uint price, bool enabled) = ContractRegistry(contractRegistryAddress).getContractData(contractId);\n    require(enabled == true, \"Contract is not enabled.\");\n    newIndex = bills.push(\n      ShastaTypes.Bill(\n        wh,\n        tokenAddress,\n        seller,\n        consumer,\n        price,\n        wh * price, // price must be Token/wattHour\n        ipfsMetadata\n      )\n    ) - 1; // Array.push returns the new array length, so (new length - 1) == latest index.\n    consumerBillIndex[consumer].push(newIndex);\n    sellerBillIndex[seller].push(newIndex);\n    emit NewBill(consumer, seller, newIndex);\n  }\n\n  function withdrawETH() public {\n    uint256 allBalance = balances[address(0)][msg.sender];\n    require(allBalance > 0,  \"No balance left.\");\n    balances[address(0)][msg.sender] = 0;\n    msg.sender.transfer(allBalance);\n  }\n\n  function withdrawERC20(address tokenAddress) public {\n    require(tokenAddress != address(0), \"Token address can not be zero. Reserved for ETH payments.\");\n    uint256 allBalance = balances[tokenAddress][msg.sender];\n    require(allBalance > 0,  \"No balance left.\");\n    balances[tokenAddress][msg.sender] = 0;\n    require(IERC20(tokenAddress).transfer(msg.sender, allBalance), \"Error while making ERC20 transfer\");\n  }\n\n  function payBillETH(uint256 billIndex) public payable {\n    ShastaTypes.Bill memory bill = bills[billIndex];\n    require(bill.tokenAddress == address(0), \"The ERC20 token is not the same as defined in the contract.\");\n    require(bill.consumer == msg.sender, \"Bill is from consumer\");\n    require(bill.amount > 0, \"Bill does not exists\");\n    require(bill.amount == msg.value, \"Bill amount is not the same as the amount argument.\");\n    require(isBillPaid[billIndex] == false, \"Bill is already paid.\");\n    isBillPaid[billIndex] = true;\n    balances[address(0)][bill.seller] += msg.value;\n  }\n\n  function payBillERC20(address tokenAddress, address consumer, uint256 amount, uint256 billIndex) public {\n    IERC20 tokenInstance = IERC20(tokenAddress);\n    ShastaTypes.Bill memory bill = bills[billIndex];\n    require(bill.tokenAddress == tokenAddress, \"The ERC20 token is not the same as defined in the contract.\");\n    require(bill.consumer == consumer, \"Bill is from consumer\");\n    require(bill.amount > 0, \"Bill does not exists\");\n    require(bill.amount == amount, \"Bill amount is not the same as the amount argument.\");\n    require(isBillPaid[billIndex] == false, \"Bill is already paid.\");\n    // Add allowance requirement, for better error handling HERE\n    tokenInstance.transferFrom(consumer, address(this), amount);\n    isBillPaid[billIndex] = true;\n    balances[tokenAddress][bill.seller] += amount;\n  }\n}",
  "sourcePath": "/home/kartojal/repos/ShastaOS/contracts/BillSystem.sol",
  "compiler": {
    "name": "solc",
    "version": "0.4.24+commit.e67f0147.Emscripten.clang"
  },
  "schemaVersion": "3.0.0-beta.0",
  "updatedAt": "2018-09-16T01:47:29.767Z"
}