{
  "contractName": "BytesUtils",
  "abi": [
    {
      "constant": true,
      "inputs": [
        {
          "name": "_bytes32",
          "type": "bytes32"
        }
      ],
      "name": "bytes32ToBytes",
      "outputs": [
        {
          "name": "",
          "type": "bytes"
        }
      ],
      "payable": false,
      "stateMutability": "pure",
      "type": "function"
    },
    {
      "constant": true,
      "inputs": [
        {
          "name": "_bytes32",
          "type": "bytes32"
        }
      ],
      "name": "bytes32ToString",
      "outputs": [
        {
          "name": "",
          "type": "string"
        }
      ],
      "payable": false,
      "stateMutability": "pure",
      "type": "function"
    }
  ],
  "bytecode": "0x6102b1610030600b82828239805160001a6073146000811461002057610022565bfe5b5030600052607381538281f3007300000000000000000000000000000000000000003014608060405260043610610063576000357c0100000000000000000000000000000000000000000000000000000000900463ffffffff1680634c0999c7146100685780639201de5514610105575b600080fd5b61008a60048036038101908080356000191690602001909291905050506101a2565b6040518080602001828103825283818151815260200191508051906020019080838360005b838110156100ca5780820151818401526020810190506100af565b50505050905090810190601f1680156100f75780820380516001836020036101000a031916815260200191505b509250505060405180910390f35b610127600480360381019080803560001916906020019092919050505061026e565b6040518080602001828103825283818151815260200191508051906020019080838360005b8381101561016757808201518184015260208101905061014c565b50505050905090810190601f1680156101945780820380516001836020036101000a031916815260200191505b509250505060405180910390f35b606080600060206040519080825280601f01601f1916602001820160405280156101db5781602001602082028038833980820191505090505b5091505b60208110156102645783816020811015156101f657fe5b1a7f010000000000000000000000000000000000000000000000000000000000000002828281518110151561022757fe5b9060200101907effffffffffffffffffffffffffffffffffffffffffffffffffffffffffffff1916908160001a90535080806001019150506101df565b8192505050919050565b60608061027a836101a2565b9050809150509190505600a165627a7a723058201bcf0093d7c18db8b52d71a8048587313a9c87f3029f91a35227ff1c14b55dbe0029",
  "source": "pragma solidity ^0.4.23;\n\nlibrary BytesUtils {\n  function bytes32ToBytes(bytes32 _bytes32) public pure returns (bytes){\n    // string memory str = string(_bytes32);\n    // TypeError: Explicit type conversion not allowed from \"bytes32\" to \"string storage pointer\"\n    bytes memory bytesArray = new bytes(32);\n    for (uint256 i; i < 32; i++) {\n      bytesArray[i] = _bytes32[i];\n    }\n    return bytesArray;\n  }\n\n  function bytes32ToString(bytes32 _bytes32) public pure returns (string){\n    bytes memory bytesArray = bytes32ToBytes(_bytes32);\n    return string(bytesArray);\n  }\n}",
  "sourcePath": "/home/davidracero/repos/ShastaOS/contracts/libraries/BytesUtils.sol",
  "compiler": {
    "name": "solc",
    "version": "0.4.24+commit.e67f0147.Emscripten.clang"
  },
  "schemaVersion": "3.0.0-beta.0",
  "updatedAt": "2018-11-19T10:28:03.601Z"
}