{
  "contractName": "ContractRegistry",
  "abi": [
    {
      "constant": true,
      "inputs": [
        {
          "name": "",
          "type": "uint256"
        }
      ],
      "name": "contracts",
      "outputs": [
        {
          "name": "tokenAddress",
          "type": "address"
        },
        {
          "name": "seller",
          "type": "address"
        },
        {
          "name": "consumer",
          "type": "address"
        },
        {
          "name": "price",
          "type": "uint256"
        },
        {
          "name": "monthlyWh",
          "type": "uint256"
        },
        {
          "name": "enabled",
          "type": "bool"
        },
        {
          "name": "ipfsContractMetadata",
          "type": "string"
        }
      ],
      "payable": false,
      "stateMutability": "view",
      "type": "function",
      "signature": "0x474da79a"
    },
    {
      "constant": false,
      "inputs": [],
      "name": "renounceOwnership",
      "outputs": [],
      "payable": false,
      "stateMutability": "nonpayable",
      "type": "function",
      "signature": "0x715018a6"
    },
    {
      "constant": true,
      "inputs": [],
      "name": "owner",
      "outputs": [
        {
          "name": "",
          "type": "address"
        }
      ],
      "payable": false,
      "stateMutability": "view",
      "type": "function",
      "signature": "0x8da5cb5b"
    },
    {
      "constant": true,
      "inputs": [],
      "name": "isOwner",
      "outputs": [
        {
          "name": "",
          "type": "bool"
        }
      ],
      "payable": false,
      "stateMutability": "view",
      "type": "function",
      "signature": "0x8f32d59b"
    },
    {
      "constant": true,
      "inputs": [
        {
          "name": "contractName",
          "type": "string"
        },
        {
          "name": "migrationId",
          "type": "string"
        }
      ],
      "name": "isMigrated",
      "outputs": [
        {
          "name": "",
          "type": "bool"
        }
      ],
      "payable": false,
      "stateMutability": "view",
      "type": "function",
      "signature": "0xc0bac1a8"
    },
    {
      "constant": false,
      "inputs": [
        {
          "name": "newOwner",
          "type": "address"
        }
      ],
      "name": "transferOwnership",
      "outputs": [],
      "payable": false,
      "stateMutability": "nonpayable",
      "type": "function",
      "signature": "0xf2fde38b"
    },
    {
      "anonymous": false,
      "inputs": [
        {
          "indexed": false,
          "name": "seller",
          "type": "address"
        },
        {
          "indexed": false,
          "name": "consumer",
          "type": "address"
        },
        {
          "indexed": false,
          "name": "index",
          "type": "uint256"
        }
      ],
      "name": "NewContract",
      "type": "event",
      "signature": "0xdfe0cf1413ec0c3906692b73b0bd957fe4dd59ba02e2b66879622fc3378dd5df"
    },
    {
      "anonymous": false,
      "inputs": [
        {
          "indexed": false,
          "name": "contractName",
          "type": "string"
        },
        {
          "indexed": false,
          "name": "migrationId",
          "type": "string"
        }
      ],
      "name": "Migrated",
      "type": "event",
      "signature": "0xdd117a11c22118c9dee4b5a67ce578bc44529dce21ee0ccc439588fbb9fb4ea3"
    },
    {
      "anonymous": false,
      "inputs": [
        {
          "indexed": true,
          "name": "previousOwner",
          "type": "address"
        }
      ],
      "name": "OwnershipRenounced",
      "type": "event",
      "signature": "0xf8df31144d9c2f0f6b59d69b8b98abd5459d07f2742c4df920b25aae33c64820"
    },
    {
      "anonymous": false,
      "inputs": [
        {
          "indexed": true,
          "name": "previousOwner",
          "type": "address"
        },
        {
          "indexed": true,
          "name": "newOwner",
          "type": "address"
        }
      ],
      "name": "OwnershipTransferred",
      "type": "event",
      "signature": "0x8be0079c531659141344cd1fd0a4f28419497f9722a3daafe3b4186f6b6457e0"
    },
    {
      "constant": false,
      "inputs": [],
      "name": "initialize",
      "outputs": [],
      "payable": false,
      "stateMutability": "nonpayable",
      "type": "function",
      "signature": "0x8129fc1c"
    },
    {
      "constant": false,
      "inputs": [
        {
          "name": "tokenAddress",
          "type": "address"
        },
        {
          "name": "seller",
          "type": "address"
        },
        {
          "name": "consumer",
          "type": "address"
        },
        {
          "name": "price",
          "type": "uint256"
        },
        {
          "name": "monthlyWh",
          "type": "uint256"
        },
        {
          "name": "enabled",
          "type": "bool"
        },
        {
          "name": "ipfsContractMetadata",
          "type": "string"
        }
      ],
      "name": "newContract",
      "outputs": [
        {
          "name": "newIndex",
          "type": "uint256"
        }
      ],
      "payable": false,
      "stateMutability": "nonpayable",
      "type": "function",
      "signature": "0xdf4710b6"
    },
    {
      "constant": false,
      "inputs": [
        {
          "name": "index",
          "type": "uint256"
        },
        {
          "name": "status",
          "type": "bool"
        }
      ],
      "name": "setContractStatus",
      "outputs": [],
      "payable": false,
      "stateMutability": "nonpayable",
      "type": "function",
      "signature": "0xe6c1fd76"
    },
    {
      "constant": true,
      "inputs": [],
      "name": "getContractsLength",
      "outputs": [
        {
          "name": "length",
          "type": "uint256"
        }
      ],
      "payable": false,
      "stateMutability": "view",
      "type": "function",
      "signature": "0xfccc134f"
    },
    {
      "constant": true,
      "inputs": [
        {
          "name": "index",
          "type": "uint256"
        }
      ],
      "name": "isEnabled",
      "outputs": [
        {
          "name": "enabled",
          "type": "bool"
        }
      ],
      "payable": false,
      "stateMutability": "view",
      "type": "function",
      "signature": "0xc783034c"
    },
    {
      "constant": true,
      "inputs": [
        {
          "name": "index",
          "type": "uint256"
        }
      ],
      "name": "getContract",
      "outputs": [
        {
          "name": "tokenAddress",
          "type": "address"
        },
        {
          "name": "seller",
          "type": "address"
        },
        {
          "name": "consumer",
          "type": "address"
        },
        {
          "name": "price",
          "type": "uint256"
        },
        {
          "name": "enabled",
          "type": "bool"
        },
        {
          "name": "ipfsContractMetadata",
          "type": "string"
        }
      ],
      "payable": false,
      "stateMutability": "view",
      "type": "function",
      "signature": "0x6ebc8c86"
    },
    {
      "constant": true,
      "inputs": [
        {
          "name": "index",
          "type": "uint256"
        }
      ],
      "name": "getContractData",
      "outputs": [
        {
          "name": "",
          "type": "address"
        },
        {
          "name": "",
          "type": "address"
        },
        {
          "name": "",
          "type": "address"
        },
        {
          "name": "",
          "type": "uint256"
        },
        {
          "name": "",
          "type": "bool"
        }
      ],
      "payable": false,
      "stateMutability": "view",
      "type": "function",
      "signature": "0xef1f3757"
    }
  ],
  "bytecode": "0x6080604052336000806101000a81548173ffffffffffffffffffffffffffffffffffffffff021916908373ffffffffffffffffffffffffffffffffffffffff160217905550611807806100536000396000f3006080604052600436106100c5576000357c0100000000000000000000000000000000000000000000000000000000900463ffffffff168063474da79a146100ca5780636ebc8c8614610222578063715018a6146103735780638129fc1c1461038a5780638da5cb5b146103a15780638f32d59b146103f8578063c0bac1a814610427578063c783034c146104ee578063df4710b614610533578063e6c1fd7614610630578063ef1f375714610669578063f2fde38b1461074e578063fccc134f14610791575b600080fd5b3480156100d657600080fd5b506100f5600480360381019080803590602001909291905050506107bc565b604051808873ffffffffffffffffffffffffffffffffffffffff1673ffffffffffffffffffffffffffffffffffffffff1681526020018773ffffffffffffffffffffffffffffffffffffffff1673ffffffffffffffffffffffffffffffffffffffff1681526020018673ffffffffffffffffffffffffffffffffffffffff1673ffffffffffffffffffffffffffffffffffffffff1681526020018581526020018481526020018315151515815260200180602001828103825283818151815260200191508051906020019080838360005b838110156101e15780820151818401526020810190506101c6565b50505050905090810190601f16801561020e5780820380516001836020036101000a031916815260200191505b509850505050505050505060405180910390f35b34801561022e57600080fd5b5061024d60048036038101908080359060200190929190505050610912565b604051808773ffffffffffffffffffffffffffffffffffffffff1673ffffffffffffffffffffffffffffffffffffffff1681526020018673ffffffffffffffffffffffffffffffffffffffff1673ffffffffffffffffffffffffffffffffffffffff1681526020018573ffffffffffffffffffffffffffffffffffffffff1673ffffffffffffffffffffffffffffffffffffffff1681526020018481526020018315151515815260200180602001828103825283818151815260200191508051906020019080838360005b83811015610333578082015181840152602081019050610318565b50505050905090810190601f1680156103605780820380516001836020036101000a031916815260200191505b5097505050505050505060405180910390f35b34801561037f57600080fd5b50610388610b56565b005b34801561039657600080fd5b5061039f610c10565b005b3480156103ad57600080fd5b506103b6610e8b565b604051808273ffffffffffffffffffffffffffffffffffffffff1673ffffffffffffffffffffffffffffffffffffffff16815260200191505060405180910390f35b34801561040457600080fd5b5061040d610eb4565b604051808215151515815260200191505060405180910390f35b34801561043357600080fd5b506104d4600480360381019080803590602001908201803590602001908080601f0160208091040260200160405190810160405280939291908181526020018383808284378201915050505050509192919290803590602001908201803590602001908080601f0160208091040260200160405190810160405280939291908181526020018383808284378201915050505050509192919290505050610f0b565b604051808215151515815260200191505060405180910390f35b3480156104fa57600080fd5b5061051960048036038101908080359060200190929190505050610ff7565b604051808215151515815260200191505060405180910390f35b34801561053f57600080fd5b5061061a600480360381019080803573ffffffffffffffffffffffffffffffffffffffff169060200190929190803573ffffffffffffffffffffffffffffffffffffffff169060200190929190803573ffffffffffffffffffffffffffffffffffffffff1690602001909291908035906020019092919080359060200190929190803515159060200190929190803590602001908201803590602001908080601f016020809104026020016040519081016040528093929190818152602001838380828437820191505050505050919291929050505061120c565b6040518082815260200191505060405180910390f35b34801561063c57600080fd5b506106676004803603810190808035906020019092919080351515906020019092919050505061148a565b005b34801561067557600080fd5b50610694600480360381019080803590602001909291905050506114cc565b604051808673ffffffffffffffffffffffffffffffffffffffff1673ffffffffffffffffffffffffffffffffffffffff1681526020018573ffffffffffffffffffffffffffffffffffffffff1673ffffffffffffffffffffffffffffffffffffffff1681526020018473ffffffffffffffffffffffffffffffffffffffff1673ffffffffffffffffffffffffffffffffffffffff168152602001838152602001821515151581526020019550505050505060405180910390f35b34801561075a57600080fd5b5061078f600480360381019080803573ffffffffffffffffffffffffffffffffffffffff16906020019092919050505061158e565b005b34801561079d57600080fd5b506107a66115ad565b6040518082815260200191505060405180910390f35b6002818154811015156107cb57fe5b90600052602060002090600702016000915090508060000160009054906101000a900473ffffffffffffffffffffffffffffffffffffffff16908060010160009054906101000a900473ffffffffffffffffffffffffffffffffffffffff16908060020160009054906101000a900473ffffffffffffffffffffffffffffffffffffffff16908060030154908060040154908060050160009054906101000a900460ff1690806006018054600181600116156101000203166002900480601f0160208091040260200160405190810160405280929190818152602001828054600181600116156101000203166002900480156109085780601f106108dd57610100808354040283529160200191610908565b820191906000526020600020905b8154815290600101906020018083116108eb57829003601f168201915b5050505050905087565b600080600080600060606109246116b4565b60028881548110151561093357fe5b906000526020600020906007020160e060405190810160405290816000820160009054906101000a900473ffffffffffffffffffffffffffffffffffffffff1673ffffffffffffffffffffffffffffffffffffffff1673ffffffffffffffffffffffffffffffffffffffff1681526020016001820160009054906101000a900473ffffffffffffffffffffffffffffffffffffffff1673ffffffffffffffffffffffffffffffffffffffff1673ffffffffffffffffffffffffffffffffffffffff1681526020016002820160009054906101000a900473ffffffffffffffffffffffffffffffffffffffff1673ffffffffffffffffffffffffffffffffffffffff1673ffffffffffffffffffffffffffffffffffffffff16815260200160038201548152602001600482015481526020016005820160009054906101000a900460ff16151515158152602001600682018054600181600116156101000203166002900480601f016020809104026020016040519081016040528092919081815260200182805460018160011615610100020316600290048015610b175780601f10610aec57610100808354040283529160200191610b17565b820191906000526020600020905b815481529060010190602001808311610afa57829003601f168201915b5050505050815250509050806000015196508060200151955080604001519450806060015193508060a0015192508060c0015191505091939550919395565b610b5e610eb4565b1515610b6957600080fd5b6000809054906101000a900473ffffffffffffffffffffffffffffffffffffffff1673ffffffffffffffffffffffffffffffffffffffff167ff8df31144d9c2f0f6b59d69b8b98abd5459d07f2742c4df920b25aae33c6482060405160405180910390a260008060006101000a81548173ffffffffffffffffffffffffffffffffffffffff021916908373ffffffffffffffffffffffffffffffffffffffff160217905550565b6040805190810160405280601081526020017f436f6e74726163745265676973747279000000000000000000000000000000008152506040805190810160405280600181526020017f3000000000000000000000000000000000000000000000000000000000000000815250610c868282610f0b565b151515610c9257600080fd5b7fdd117a11c22118c9dee4b5a67ce578bc44529dce21ee0ccc439588fbb9fb4ea38282604051808060200180602001838103835285818151815260200191508051906020019080838360005b83811015610cf9578082015181840152602081019050610cde565b50505050905090810190601f168015610d265780820380516001836020036101000a031916815260200191505b50838103825284818151815260200191508051906020019080838360005b83811015610d5f578082015181840152602081019050610d44565b50505050905090810190601f168015610d8c5780820380516001836020036101000a031916815260200191505b5094505050505060405180910390a1600180836040518082805190602001908083835b602083101515610dd45780518252602082019150602081019050602083039250610daf565b6001836020036101000a0380198251168184511680821785525050505050509050019150509081526020016040518091039020826040518082805190602001908083835b602083101515610e3d5780518252602082019150602081019050602083039250610e18565b6001836020036101000a038019825116818451168082178552505050505050905001915050908152602001604051809103902060006101000a81548160ff0219169083151502179055505050565b60008060009054906101000a900473ffffffffffffffffffffffffffffffffffffffff16905090565b60008060009054906101000a900473ffffffffffffffffffffffffffffffffffffffff1673ffffffffffffffffffffffffffffffffffffffff163373ffffffffffffffffffffffffffffffffffffffff1614905090565b60006001836040518082805190602001908083835b602083101515610f455780518252602082019150602081019050602083039250610f20565b6001836020036101000a0380198251168184511680821785525050505050509050019150509081526020016040518091039020826040518082805190602001908083835b602083101515610fae5780518252602082019150602081019050602083039250610f89565b6001836020036101000a038019825116818451168082178552505050505050905001915050908152602001604051809103902060009054906101000a900460ff16905092915050565b60006110016116b4565b60028381548110151561101057fe5b906000526020600020906007020160e060405190810160405290816000820160009054906101000a900473ffffffffffffffffffffffffffffffffffffffff1673ffffffffffffffffffffffffffffffffffffffff1673ffffffffffffffffffffffffffffffffffffffff1681526020016001820160009054906101000a900473ffffffffffffffffffffffffffffffffffffffff1673ffffffffffffffffffffffffffffffffffffffff1673ffffffffffffffffffffffffffffffffffffffff1681526020016002820160009054906101000a900473ffffffffffffffffffffffffffffffffffffffff1673ffffffffffffffffffffffffffffffffffffffff1673ffffffffffffffffffffffffffffffffffffffff16815260200160038201548152602001600482015481526020016005820160009054906101000a900460ff16151515158152602001600682018054600181600116156101000203166002900480601f0160208091040260200160405190810160405280929190818152602001828054600181600116156101000203166002900480156111f45780601f106111c9576101008083540402835291602001916111f4565b820191906000526020600020905b8154815290600101906020018083116111d757829003601f168201915b50505050508152505090508060a00151915050919050565b60006001600260e0604051908101604052808b73ffffffffffffffffffffffffffffffffffffffff1681526020018a73ffffffffffffffffffffffffffffffffffffffff1681526020018973ffffffffffffffffffffffffffffffffffffffff1681526020018881526020018781526020018615158152602001858152509080600181540180825580915050906001820390600052602060002090600702016000909192909190915060008201518160000160006101000a81548173ffffffffffffffffffffffffffffffffffffffff021916908373ffffffffffffffffffffffffffffffffffffffff16021790555060208201518160010160006101000a81548173ffffffffffffffffffffffffffffffffffffffff021916908373ffffffffffffffffffffffffffffffffffffffff16021790555060408201518160020160006101000a81548173ffffffffffffffffffffffffffffffffffffffff021916908373ffffffffffffffffffffffffffffffffffffffff160217905550606082015181600301556080820151816004015560a08201518160050160006101000a81548160ff02191690831515021790555060c08201518160060190805190602001906113da929190611736565b5050500390507fdfe0cf1413ec0c3906692b73b0bd957fe4dd59ba02e2b66879622fc3378dd5df878783604051808473ffffffffffffffffffffffffffffffffffffffff1673ffffffffffffffffffffffffffffffffffffffff1681526020018373ffffffffffffffffffffffffffffffffffffffff1673ffffffffffffffffffffffffffffffffffffffff168152602001828152602001935050505060405180910390a1979650505050505050565b600060028381548110151561149b57fe5b90600052602060002090600702019050818160050160006101000a81548160ff021916908315150217905550505050565b6000806000806000806002878154811015156114e457fe5b906000526020600020906007020190508060000160009054906101000a900473ffffffffffffffffffffffffffffffffffffffff168160010160009054906101000a900473ffffffffffffffffffffffffffffffffffffffff168260020160009054906101000a900473ffffffffffffffffffffffffffffffffffffffff1683600301548460050160009054906101000a900460ff16955095509550955095505091939590929450565b611596610eb4565b15156115a157600080fd5b6115aa816115ba565b50565b6000600280549050905090565b600073ffffffffffffffffffffffffffffffffffffffff168173ffffffffffffffffffffffffffffffffffffffff16141515156115f657600080fd5b8073ffffffffffffffffffffffffffffffffffffffff166000809054906101000a900473ffffffffffffffffffffffffffffffffffffffff1673ffffffffffffffffffffffffffffffffffffffff167f8be0079c531659141344cd1fd0a4f28419497f9722a3daafe3b4186f6b6457e060405160405180910390a3806000806101000a81548173ffffffffffffffffffffffffffffffffffffffff021916908373ffffffffffffffffffffffffffffffffffffffff16021790555050565b60e060405190810160405280600073ffffffffffffffffffffffffffffffffffffffff168152602001600073ffffffffffffffffffffffffffffffffffffffff168152602001600073ffffffffffffffffffffffffffffffffffffffff1681526020016000815260200160008152602001600015158152602001606081525090565b828054600181600116156101000203166002900490600052602060002090601f016020900481019282601f1061177757805160ff19168380011785556117a5565b828001600101855582156117a5579182015b828111156117a4578251825591602001919060010190611789565b5b5090506117b291906117b6565b5090565b6117d891905b808211156117d45760008160009055506001016117bc565b5090565b905600a165627a7a72305820131f41ed02c873a6a047e1e28a83e87b0425680095932f8bf0af1a03a79590640029",
  "source": "pragma solidity ^0.4.24;\n\nimport \"openzeppelin-solidity/contracts/ownership/Ownable.sol\";\nimport \"zos-lib/contracts/migrations/Migratable.sol\";\nimport \"./libraries/ShastaTypes.sol\";\n\n/**\n * @title ContractRegistry\n */\n\ncontract ContractRegistry is Ownable, Migratable {\n\n  ShastaTypes.EnergyContract[] public contracts;\n\n  event NewContract(address seller, address consumer, uint index);\n\n\n  // Upgradeable contract pattern with initializer using zeppelinOS way.\n  function initialize() public isInitializer(\"ContractRegistry\", \"0\") {\n  }\n\n  /** TODO:\n    * Make it only accesible via RBAC, so only the Shasta contract that manages contracts can call this function\n    * OR ownable that accepts an Offer marketer id and grabs the info from the Shasta offer registry. \n    */\n  function newContract(\n    address tokenAddress,\n    address seller,\n    address consumer,\n    uint price,\n    uint monthlyWh,\n    bool enabled,\n    string ipfsContractMetadata\n  ) public returns (uint newIndex) {\n    newIndex = contracts.push(\n      ShastaTypes.EnergyContract(tokenAddress, seller, consumer, price, monthlyWh, enabled, ipfsContractMetadata)\n    ) - 1;\n    emit NewContract(seller, consumer, newIndex);\n  }\n  \n  function setContractStatus(uint index, bool status) public {\n    ShastaTypes.EnergyContract storage currentContract = contracts[index];\n    currentContract.enabled = status;\n  }\n\n  function getContractsLength() public view  returns (uint length) {\n    length = contracts.length;\n  }\n\n  function isEnabled(uint index) public view returns (bool enabled) {\n    ShastaTypes.EnergyContract memory currentContract = contracts[index];\n    enabled = currentContract.enabled;\n  }\n\n  function getContract(uint index) public view returns (\n    address tokenAddress,\n    address seller,\n    address consumer,\n    uint price,\n    bool enabled,\n    string ipfsContractMetadata\n  ) {\n    ShastaTypes.EnergyContract memory currentContract = contracts[index];\n    tokenAddress = currentContract.tokenAddress;\n    seller = currentContract.seller;\n    consumer = currentContract.consumer;\n    price = currentContract.price;\n    enabled = currentContract.enabled;\n    ipfsContractMetadata = currentContract.ipfsContractMetadata;\n  }\n\n  function getContractData(uint index) public view returns (\n    address,\n    address,\n    address,\n    uint,\n\n    bool\n  ) {\n    ShastaTypes.EnergyContract storage currentContract = contracts[index];\n    return (currentContract.tokenAddress, currentContract.seller, currentContract.consumer, currentContract.price, currentContract.enabled);\n  }\n}",
  "sourcePath": "/home/kartojal/repos/ShastaOS/contracts/ContractRegistry.sol",
  "compiler": {
    "name": "solc",
    "version": "0.4.24+commit.e67f0147.Emscripten.clang"
  },
  "schemaVersion": "3.0.0-beta.0",
  "updatedAt": "2018-09-28T10:27:19.451Z"
}