{
  "contractName": "ContractRegistry",
  "abi": [
    {
      "constant": true,
      "inputs": [
        {
          "name": "",
          "type": "uint256"
        }
      ],
      "name": "contracts",
      "outputs": [
        {
          "name": "tokenAddress",
          "type": "address"
        },
        {
          "name": "seller",
          "type": "address"
        },
        {
          "name": "consumer",
          "type": "address"
        },
        {
          "name": "price",
          "type": "uint256"
        },
        {
          "name": "monthlyWh",
          "type": "uint256"
        },
        {
          "name": "enabled",
          "type": "bool"
        },
        {
          "name": "ipfsContractMetadata",
          "type": "string"
        }
      ],
      "payable": false,
      "stateMutability": "view",
      "type": "function"
    },
    {
      "constant": false,
      "inputs": [],
      "name": "renounceOwnership",
      "outputs": [],
      "payable": false,
      "stateMutability": "nonpayable",
      "type": "function"
    },
    {
      "constant": true,
      "inputs": [],
      "name": "owner",
      "outputs": [
        {
          "name": "",
          "type": "address"
        }
      ],
      "payable": false,
      "stateMutability": "view",
      "type": "function"
    },
    {
      "constant": true,
      "inputs": [],
      "name": "isOwner",
      "outputs": [
        {
          "name": "",
          "type": "bool"
        }
      ],
      "payable": false,
      "stateMutability": "view",
      "type": "function"
    },
    {
      "constant": false,
      "inputs": [
        {
          "name": "newOwner",
          "type": "address"
        }
      ],
      "name": "transferOwnership",
      "outputs": [],
      "payable": false,
      "stateMutability": "nonpayable",
      "type": "function"
    },
    {
      "anonymous": false,
      "inputs": [
        {
          "indexed": false,
          "name": "seller",
          "type": "address"
        },
        {
          "indexed": false,
          "name": "consumer",
          "type": "address"
        },
        {
          "indexed": false,
          "name": "index",
          "type": "uint256"
        }
      ],
      "name": "NewContract",
      "type": "event"
    },
    {
      "anonymous": false,
      "inputs": [
        {
          "indexed": true,
          "name": "previousOwner",
          "type": "address"
        },
        {
          "indexed": true,
          "name": "newOwner",
          "type": "address"
        }
      ],
      "name": "OwnershipTransferred",
      "type": "event"
    },
    {
      "constant": false,
      "inputs": [],
      "name": "initialize",
      "outputs": [],
      "payable": false,
      "stateMutability": "nonpayable",
      "type": "function"
    },
    {
      "constant": false,
      "inputs": [
        {
          "name": "tokenAddress",
          "type": "address"
        },
        {
          "name": "seller",
          "type": "address"
        },
        {
          "name": "consumer",
          "type": "address"
        },
        {
          "name": "price",
          "type": "uint256"
        },
        {
          "name": "monthlyWh",
          "type": "uint256"
        },
        {
          "name": "enabled",
          "type": "bool"
        },
        {
          "name": "ipfsContractMetadata",
          "type": "string"
        }
      ],
      "name": "newContract",
      "outputs": [
        {
          "name": "newIndex",
          "type": "uint256"
        }
      ],
      "payable": false,
      "stateMutability": "nonpayable",
      "type": "function"
    },
    {
      "constant": false,
      "inputs": [
        {
          "name": "index",
          "type": "uint256"
        },
        {
          "name": "status",
          "type": "bool"
        }
      ],
      "name": "setContractStatus",
      "outputs": [],
      "payable": false,
      "stateMutability": "nonpayable",
      "type": "function"
    },
    {
      "constant": true,
      "inputs": [],
      "name": "getContractsLength",
      "outputs": [
        {
          "name": "length",
          "type": "uint256"
        }
      ],
      "payable": false,
      "stateMutability": "view",
      "type": "function"
    },
    {
      "constant": true,
      "inputs": [
        {
          "name": "index",
          "type": "uint256"
        }
      ],
      "name": "isEnabled",
      "outputs": [
        {
          "name": "enabled",
          "type": "bool"
        }
      ],
      "payable": false,
      "stateMutability": "view",
      "type": "function"
    },
    {
      "constant": true,
      "inputs": [
        {
          "name": "index",
          "type": "uint256"
        }
      ],
      "name": "getContract",
      "outputs": [
        {
          "name": "tokenAddress",
          "type": "address"
        },
        {
          "name": "seller",
          "type": "address"
        },
        {
          "name": "consumer",
          "type": "address"
        },
        {
          "name": "price",
          "type": "uint256"
        },
        {
          "name": "enabled",
          "type": "bool"
        },
        {
          "name": "ipfsContractMetadata",
          "type": "string"
        }
      ],
      "payable": false,
      "stateMutability": "view",
      "type": "function"
    },
    {
      "constant": true,
      "inputs": [
        {
          "name": "index",
          "type": "uint256"
        }
      ],
      "name": "getContractData",
      "outputs": [
        {
          "name": "",
          "type": "address"
        },
        {
          "name": "",
          "type": "address"
        },
        {
          "name": "",
          "type": "address"
        },
        {
          "name": "",
          "type": "uint256"
        },
        {
          "name": "",
          "type": "bool"
        }
      ],
      "payable": false,
      "stateMutability": "view",
      "type": "function"
    }
  ],
  "bytecode": "0x6080604052336000806101000a81548173ffffffffffffffffffffffffffffffffffffffff021916908373ffffffffffffffffffffffffffffffffffffffff1602179055506000809054906101000a900473ffffffffffffffffffffffffffffffffffffffff1673ffffffffffffffffffffffffffffffffffffffff16600073ffffffffffffffffffffffffffffffffffffffff167f8be0079c531659141344cd1fd0a4f28419497f9722a3daafe3b4186f6b6457e060405160405180910390a3611675806100cf6000396000f3006080604052600436106100ba576000357c0100000000000000000000000000000000000000000000000000000000900463ffffffff168063474da79a146100bf5780636ebc8c8614610217578063715018a6146103685780638129fc1c1461037f5780638da5cb5b146103965780638f32d59b146103ed578063c783034c1461041c578063df4710b614610461578063e6c1fd761461055e578063ef1f375714610597578063f2fde38b1461067c578063fccc134f146106bf575b600080fd5b3480156100cb57600080fd5b506100ea600480360381019080803590602001909291905050506106ea565b604051808873ffffffffffffffffffffffffffffffffffffffff1673ffffffffffffffffffffffffffffffffffffffff1681526020018773ffffffffffffffffffffffffffffffffffffffff1673ffffffffffffffffffffffffffffffffffffffff1681526020018673ffffffffffffffffffffffffffffffffffffffff1673ffffffffffffffffffffffffffffffffffffffff1681526020018581526020018481526020018315151515815260200180602001828103825283818151815260200191508051906020019080838360005b838110156101d65780820151818401526020810190506101bb565b50505050905090810190601f1680156102035780820380516001836020036101000a031916815260200191505b509850505050505050505060405180910390f35b34801561022357600080fd5b5061024260048036038101908080359060200190929190505050610840565b604051808773ffffffffffffffffffffffffffffffffffffffff1673ffffffffffffffffffffffffffffffffffffffff1681526020018673ffffffffffffffffffffffffffffffffffffffff1673ffffffffffffffffffffffffffffffffffffffff1681526020018573ffffffffffffffffffffffffffffffffffffffff1673ffffffffffffffffffffffffffffffffffffffff1681526020018481526020018315151515815260200180602001828103825283818151815260200191508051906020019080838360005b8381101561032857808201518184015260208101905061030d565b50505050905090810190601f1680156103555780820380516001836020036101000a031916815260200191505b5097505050505050505060405180910390f35b34801561037457600080fd5b5061037d610a84565b005b34801561038b57600080fd5b50610394610b56565b005b3480156103a257600080fd5b506103ab610c8d565b604051808273ffffffffffffffffffffffffffffffffffffffff1673ffffffffffffffffffffffffffffffffffffffff16815260200191505060405180910390f35b3480156103f957600080fd5b50610402610cb6565b604051808215151515815260200191505060405180910390f35b34801561042857600080fd5b5061044760048036038101908080359060200190929190505050610d0d565b604051808215151515815260200191505060405180910390f35b34801561046d57600080fd5b50610548600480360381019080803573ffffffffffffffffffffffffffffffffffffffff169060200190929190803573ffffffffffffffffffffffffffffffffffffffff169060200190929190803573ffffffffffffffffffffffffffffffffffffffff1690602001909291908035906020019092919080359060200190929190803515159060200190929190803590602001908201803590602001908080601f0160208091040260200160405190810160405280939291908181526020018383808284378201915050505050509192919290505050610f22565b6040518082815260200191505060405180910390f35b34801561056a57600080fd5b50610595600480360381019080803590602001909291908035151590602001909291905050506111a0565b005b3480156105a357600080fd5b506105c260048036038101908080359060200190929190505050611329565b604051808673ffffffffffffffffffffffffffffffffffffffff1673ffffffffffffffffffffffffffffffffffffffff1681526020018573ffffffffffffffffffffffffffffffffffffffff1673ffffffffffffffffffffffffffffffffffffffff1681526020018473ffffffffffffffffffffffffffffffffffffffff1673ffffffffffffffffffffffffffffffffffffffff168152602001838152602001821515151581526020019550505050505060405180910390f35b34801561068857600080fd5b506106bd600480360381019080803573ffffffffffffffffffffffffffffffffffffffff1690602001909291905050506113eb565b005b3480156106cb57600080fd5b506106d461140a565b6040518082815260200191505060405180910390f35b6033818154811015156106f957fe5b90600052602060002090600702016000915090508060000160009054906101000a900473ffffffffffffffffffffffffffffffffffffffff16908060010160009054906101000a900473ffffffffffffffffffffffffffffffffffffffff16908060020160009054906101000a900473ffffffffffffffffffffffffffffffffffffffff16908060030154908060040154908060050160009054906101000a900460ff1690806006018054600181600116156101000203166002900480601f0160208091040260200160405190810160405280929190818152602001828054600181600116156101000203166002900480156108365780601f1061080b57610100808354040283529160200191610836565b820191906000526020600020905b81548152906001019060200180831161081957829003601f168201915b5050505050905087565b60008060008060006060610852611522565b60338881548110151561086157fe5b906000526020600020906007020160e060405190810160405290816000820160009054906101000a900473ffffffffffffffffffffffffffffffffffffffff1673ffffffffffffffffffffffffffffffffffffffff1673ffffffffffffffffffffffffffffffffffffffff1681526020016001820160009054906101000a900473ffffffffffffffffffffffffffffffffffffffff1673ffffffffffffffffffffffffffffffffffffffff1673ffffffffffffffffffffffffffffffffffffffff1681526020016002820160009054906101000a900473ffffffffffffffffffffffffffffffffffffffff1673ffffffffffffffffffffffffffffffffffffffff1673ffffffffffffffffffffffffffffffffffffffff16815260200160038201548152602001600482015481526020016005820160009054906101000a900460ff16151515158152602001600682018054600181600116156101000203166002900480601f016020809104026020016040519081016040528092919081815260200182805460018160011615610100020316600290048015610a455780601f10610a1a57610100808354040283529160200191610a45565b820191906000526020600020905b815481529060010190602001808311610a2857829003601f168201915b5050505050815250509050806000015196508060200151955080604001519450806060015193508060a0015192508060c0015191505091939550919395565b610a8c610cb6565b1515610a9757600080fd5b600073ffffffffffffffffffffffffffffffffffffffff166000809054906101000a900473ffffffffffffffffffffffffffffffffffffffff1673ffffffffffffffffffffffffffffffffffffffff167f8be0079c531659141344cd1fd0a4f28419497f9722a3daafe3b4186f6b6457e060405160405180910390a360008060006101000a81548173ffffffffffffffffffffffffffffffffffffffff021916908373ffffffffffffffffffffffffffffffffffffffff160217905550565b60008060159054906101000a900460ff1680610b765750610b75611417565b5b80610b8e5750600060149054906101000a900460ff16155b1515610c28576040517f08c379a000000000000000000000000000000000000000000000000000000000815260040180806020018281038252602e8152602001807f436f6e747261637420696e7374616e63652068617320616c726561647920626581526020017f656e20696e697469616c697a656400000000000000000000000000000000000081525060400191505060405180910390fd5b600060159054906101000a900460ff1690506001600060156101000a81548160ff0219169083151502179055506001600060146101000a81548160ff02191690831515021790555080600060156101000a81548160ff02191690831515021790555050565b60008060009054906101000a900473ffffffffffffffffffffffffffffffffffffffff16905090565b60008060009054906101000a900473ffffffffffffffffffffffffffffffffffffffff1673ffffffffffffffffffffffffffffffffffffffff163373ffffffffffffffffffffffffffffffffffffffff1614905090565b6000610d17611522565b603383815481101515610d2657fe5b906000526020600020906007020160e060405190810160405290816000820160009054906101000a900473ffffffffffffffffffffffffffffffffffffffff1673ffffffffffffffffffffffffffffffffffffffff1673ffffffffffffffffffffffffffffffffffffffff1681526020016001820160009054906101000a900473ffffffffffffffffffffffffffffffffffffffff1673ffffffffffffffffffffffffffffffffffffffff1673ffffffffffffffffffffffffffffffffffffffff1681526020016002820160009054906101000a900473ffffffffffffffffffffffffffffffffffffffff1673ffffffffffffffffffffffffffffffffffffffff1673ffffffffffffffffffffffffffffffffffffffff16815260200160038201548152602001600482015481526020016005820160009054906101000a900460ff16151515158152602001600682018054600181600116156101000203166002900480601f016020809104026020016040519081016040528092919081815260200182805460018160011615610100020316600290048015610f0a5780601f10610edf57610100808354040283529160200191610f0a565b820191906000526020600020905b815481529060010190602001808311610eed57829003601f168201915b50505050508152505090508060a00151915050919050565b60006001603360e0604051908101604052808b73ffffffffffffffffffffffffffffffffffffffff1681526020018a73ffffffffffffffffffffffffffffffffffffffff1681526020018973ffffffffffffffffffffffffffffffffffffffff1681526020018881526020018781526020018615158152602001858152509080600181540180825580915050906001820390600052602060002090600702016000909192909190915060008201518160000160006101000a81548173ffffffffffffffffffffffffffffffffffffffff021916908373ffffffffffffffffffffffffffffffffffffffff16021790555060208201518160010160006101000a81548173ffffffffffffffffffffffffffffffffffffffff021916908373ffffffffffffffffffffffffffffffffffffffff16021790555060408201518160020160006101000a81548173ffffffffffffffffffffffffffffffffffffffff021916908373ffffffffffffffffffffffffffffffffffffffff160217905550606082015181600301556080820151816004015560a08201518160050160006101000a81548160ff02191690831515021790555060c08201518160060190805190602001906110f09291906115a4565b5050500390507fdfe0cf1413ec0c3906692b73b0bd957fe4dd59ba02e2b66879622fc3378dd5df878783604051808473ffffffffffffffffffffffffffffffffffffffff1673ffffffffffffffffffffffffffffffffffffffff1681526020018373ffffffffffffffffffffffffffffffffffffffff1673ffffffffffffffffffffffffffffffffffffffff168152602001828152602001935050505060405180910390a1979650505050505050565b60006033838154811015156111b157fe5b906000526020600020906007020190503373ffffffffffffffffffffffffffffffffffffffff168160010160009054906101000a900473ffffffffffffffffffffffffffffffffffffffff1673ffffffffffffffffffffffffffffffffffffffff16148061126e57503373ffffffffffffffffffffffffffffffffffffffff168160020160009054906101000a900473ffffffffffffffffffffffffffffffffffffffff1673ffffffffffffffffffffffffffffffffffffffff16145b1515611308576040517f08c379a00000000000000000000000000000000000000000000000000000000081526004018080602001828103825260308152602001807f596f75206d7573742062652074686520636f6e73756d6572206f72207468652081526020017f70726f647563657220616464726573730000000000000000000000000000000081525060400191505060405180910390fd5b818160050160006101000a81548160ff021916908315150217905550505050565b60008060008060008060338781548110151561134157fe5b906000526020600020906007020190508060000160009054906101000a900473ffffffffffffffffffffffffffffffffffffffff168160010160009054906101000a900473ffffffffffffffffffffffffffffffffffffffff168260020160009054906101000a900473ffffffffffffffffffffffffffffffffffffffff1683600301548460050160009054906101000a900460ff16955095509550955095505091939590929450565b6113f3610cb6565b15156113fe57600080fd5b61140781611428565b50565b6000603380549050905090565b600080303b90506000811491505090565b600073ffffffffffffffffffffffffffffffffffffffff168173ffffffffffffffffffffffffffffffffffffffff161415151561146457600080fd5b8073ffffffffffffffffffffffffffffffffffffffff166000809054906101000a900473ffffffffffffffffffffffffffffffffffffffff1673ffffffffffffffffffffffffffffffffffffffff167f8be0079c531659141344cd1fd0a4f28419497f9722a3daafe3b4186f6b6457e060405160405180910390a3806000806101000a81548173ffffffffffffffffffffffffffffffffffffffff021916908373ffffffffffffffffffffffffffffffffffffffff16021790555050565b60e060405190810160405280600073ffffffffffffffffffffffffffffffffffffffff168152602001600073ffffffffffffffffffffffffffffffffffffffff168152602001600073ffffffffffffffffffffffffffffffffffffffff1681526020016000815260200160008152602001600015158152602001606081525090565b828054600181600116156101000203166002900490600052602060002090601f016020900481019282601f106115e557805160ff1916838001178555611613565b82800160010185558215611613579182015b828111156116125782518255916020019190600101906115f7565b5b5090506116209190611624565b5090565b61164691905b8082111561164257600081600090555060010161162a565b5090565b905600a165627a7a723058205d7caf5d5723a6c0de7ee54a0f94b3c96872b0b93e9193b58e26ec0fdc641d530029",
  "source": "pragma solidity ^0.4.24;\n\nimport \"openzeppelin-solidity/contracts/ownership/Ownable.sol\";\nimport \"zos-lib/contracts/Initializable.sol\";\nimport \"./libraries/ShastaTypes.sol\";\n\n/**\n  * @title ContractRegistry\n  */\ncontract ContractRegistry is Ownable, Initializable {\n\n  ShastaTypes.EnergyContract[] public contracts;\n\n  event NewContract(address seller, address consumer, uint index);\n\n\n  // Upgradeable contract pattern with initializer using zeppelinOS way.\n  function initialize() initializer public {\n  }\n\n  /** \n    * @dev Stores a new contract between consumer and producer\n    * @param tokenAddress The ERC20 contract address. 0x00 == ETH\n    * @param seller The seller/producer address\n    * @param consumer The consumer address\n    * @param price The unit price of energy per hour\n    * @param monthlyWh The estimated monthly watt hour\n    * @param enabled Set the state of the contract\n    * @param ipfsContractMetadata IFPS hash string that points to extra contract metadata\n    */\n  function newContract(\n    address tokenAddress,\n    address seller,\n    address consumer,\n    uint price,\n    uint monthlyWh,\n    bool enabled,\n    string ipfsContractMetadata\n  ) public returns (uint newIndex) {\n    newIndex = contracts.push(\n      ShastaTypes.EnergyContract(tokenAddress, seller, consumer, price, monthlyWh, enabled, ipfsContractMetadata)\n    ) - 1;\n    emit NewContract(seller, consumer, newIndex);\n  }\n  \n  /** \n    * @dev Set the contract status by id\n    * @param index The index of the contract\n    * @param status The new boolean state\n    */\n  function setContractStatus(uint index, bool status) public {\n    ShastaTypes.EnergyContract storage currentContract = contracts[index];\n    require(currentContract.seller == msg.sender || currentContract.consumer == msg.sender, \"You must be the consumer or the producer address\");\n    currentContract.enabled = status;\n  }\n\n  /** \n    * @dev Get the contracts length\n    * @return The length of the contracts list\n    */\n  function getContractsLength() public view  returns (uint length) {\n    length = contracts.length;\n  }\n\n  /** \n    * @dev Get the current contract status\n    * @param index The contract index\n    * @return bool The current contract status\n    */\n  function isEnabled(uint index) public view returns (bool enabled) {\n    ShastaTypes.EnergyContract memory currentContract = contracts[index];\n    enabled = currentContract.enabled;\n  }\n\n  /** \n    * @dev Get the current contract data by index\n    * @param index The contract index\n    * @return tokenAddress The ERC20 contract address. 0x00 == ETH\n    * @return seller The seller/producer address\n    * @return consumer The consumer address\n    * @return price The unit price of energy per hour\n    * @return enabled Set the state of the contract\n    * @return ipfsContractMetadata IFPS hash string that points to extra contract metadata\n    */\n  function getContract(uint index) public view returns (\n    address tokenAddress,\n    address seller,\n    address consumer,\n    uint price,\n    bool enabled,\n    string ipfsContractMetadata\n  ) {\n    ShastaTypes.EnergyContract memory currentContract = contracts[index];\n    tokenAddress = currentContract.tokenAddress;\n    seller = currentContract.seller;\n    consumer = currentContract.consumer;\n    price = currentContract.price;\n    enabled = currentContract.enabled;\n    ipfsContractMetadata = currentContract.ipfsContractMetadata;\n  }\n\n  /** \n    * @dev Get the current contract data by index\n    * @param index The contract index\n    * @return tokenAddress The ERC20 contract address. 0x00 == ETH\n    * @return seller The seller/producer address\n    * @return consumer The consumer address\n    * @return price The unit price of energy per hour\n    * @return enabled Set the state of the contract\n    */\n  function getContractData(uint index) public view returns (\n    address,\n    address,\n    address,\n    uint,\n    bool\n  ) {\n    ShastaTypes.EnergyContract storage currentContract = contracts[index];\n    return (currentContract.tokenAddress, currentContract.seller, currentContract.consumer, currentContract.price, currentContract.enabled);\n  }\n}",
  "sourcePath": "/home/davidracero/repos/ShastaOS/contracts/ContractRegistry.sol",
  "compiler": {
    "name": "solc",
    "version": "0.4.24+commit.e67f0147.Emscripten.clang"
  },
  "schemaVersion": "3.0.0-beta.0",
  "updatedAt": "2018-11-19T10:28:03.617Z"
}