{
  "contractName": "GridState",
  "abi": [
    {
      "constant": false,
      "inputs": [],
      "name": "renounceOwnership",
      "outputs": [],
      "payable": false,
      "stateMutability": "nonpayable",
      "type": "function"
    },
    {
      "constant": true,
      "inputs": [
        {
          "name": "",
          "type": "bytes32"
        }
      ],
      "name": "addressRules",
      "outputs": [
        {
          "name": "",
          "type": "address"
        }
      ],
      "payable": false,
      "stateMutability": "view",
      "type": "function"
    },
    {
      "constant": true,
      "inputs": [],
      "name": "owner",
      "outputs": [
        {
          "name": "",
          "type": "address"
        }
      ],
      "payable": false,
      "stateMutability": "view",
      "type": "function"
    },
    {
      "constant": true,
      "inputs": [],
      "name": "isOwner",
      "outputs": [
        {
          "name": "",
          "type": "bool"
        }
      ],
      "payable": false,
      "stateMutability": "view",
      "type": "function"
    },
    {
      "constant": true,
      "inputs": [
        {
          "name": "",
          "type": "bytes32"
        }
      ],
      "name": "uintRules",
      "outputs": [
        {
          "name": "",
          "type": "uint256"
        }
      ],
      "payable": false,
      "stateMutability": "view",
      "type": "function"
    },
    {
      "constant": false,
      "inputs": [
        {
          "name": "newOwner",
          "type": "address"
        }
      ],
      "name": "transferOwnership",
      "outputs": [],
      "payable": false,
      "stateMutability": "nonpayable",
      "type": "function"
    },
    {
      "anonymous": false,
      "inputs": [
        {
          "indexed": true,
          "name": "previousOwner",
          "type": "address"
        },
        {
          "indexed": true,
          "name": "newOwner",
          "type": "address"
        }
      ],
      "name": "OwnershipTransferred",
      "type": "event"
    },
    {
      "constant": false,
      "inputs": [],
      "name": "initialize",
      "outputs": [],
      "payable": false,
      "stateMutability": "nonpayable",
      "type": "function"
    },
    {
      "constant": false,
      "inputs": [
        {
          "name": "key",
          "type": "string"
        },
        {
          "name": "value",
          "type": "uint256"
        }
      ],
      "name": "setUintRule",
      "outputs": [],
      "payable": false,
      "stateMutability": "nonpayable",
      "type": "function"
    },
    {
      "constant": false,
      "inputs": [
        {
          "name": "key",
          "type": "string"
        },
        {
          "name": "value",
          "type": "address"
        }
      ],
      "name": "setAddressRule",
      "outputs": [],
      "payable": false,
      "stateMutability": "nonpayable",
      "type": "function"
    },
    {
      "constant": true,
      "inputs": [
        {
          "name": "key",
          "type": "string"
        }
      ],
      "name": "getUintRule",
      "outputs": [
        {
          "name": "",
          "type": "uint256"
        }
      ],
      "payable": false,
      "stateMutability": "view",
      "type": "function"
    },
    {
      "constant": true,
      "inputs": [
        {
          "name": "key",
          "type": "string"
        }
      ],
      "name": "getAddressRule",
      "outputs": [
        {
          "name": "",
          "type": "address"
        }
      ],
      "payable": false,
      "stateMutability": "view",
      "type": "function"
    }
  ],
  "bytecode": "0x6080604052336000806101000a81548173ffffffffffffffffffffffffffffffffffffffff021916908373ffffffffffffffffffffffffffffffffffffffff1602179055506000809054906101000a900473ffffffffffffffffffffffffffffffffffffffff1673ffffffffffffffffffffffffffffffffffffffff16600073ffffffffffffffffffffffffffffffffffffffff167f8be0079c531659141344cd1fd0a4f28419497f9722a3daafe3b4186f6b6457e060405160405180910390a3610bd8806100cf6000396000f3006080604052600436106100af576000357c0100000000000000000000000000000000000000000000000000000000900463ffffffff1680630b8e1bd2146100b4578063311b0f3914610127578063715018a6146101a45780637d1b8e49146101bb5780638129fc1c1461022c5780638c87bc52146102435780638da5cb5b146102ec5780638f32d59b14610343578063cdb0526614610372578063de20fd46146103fb578063f2fde38b14610440575b600080fd5b3480156100c057600080fd5b50610125600480360381019080803590602001908201803590602001908080601f016020809104026020016040519081016040528093929190818152602001838380828437820191505050505050919291929080359060200190929190505050610483565b005b34801561013357600080fd5b5061018e600480360381019080803590602001908201803590602001908080601f0160208091040260200160405190810160405280939291908181526020018383808284378201915050505050509192919290505050610522565b6040518082815260200191505060405180910390f35b3480156101b057600080fd5b506101b96105a9565b005b3480156101c757600080fd5b506101ea600480360381019080803560001916906020019092919050505061067b565b604051808273ffffffffffffffffffffffffffffffffffffffff1673ffffffffffffffffffffffffffffffffffffffff16815260200191505060405180910390f35b34801561023857600080fd5b506102416106ae565b005b34801561024f57600080fd5b506102aa600480360381019080803590602001908201803590602001908080601f016020809104026020016040519081016040528093929190818152602001838380828437820191505050505050919291929050505061086a565b604051808273ffffffffffffffffffffffffffffffffffffffff1673ffffffffffffffffffffffffffffffffffffffff16815260200191505060405180910390f35b3480156102f857600080fd5b50610301610911565b604051808273ffffffffffffffffffffffffffffffffffffffff1673ffffffffffffffffffffffffffffffffffffffff16815260200191505060405180910390f35b34801561034f57600080fd5b5061035861093a565b604051808215151515815260200191505060405180910390f35b34801561037e57600080fd5b506103f9600480360381019080803590602001908201803590602001908080601f0160208091040260200160405190810160405280939291908181526020018383808284378201915050505050509192919290803573ffffffffffffffffffffffffffffffffffffffff169060200190929190505050610991565b005b34801561040757600080fd5b5061042a6004803603810190808035600019169060200190929190505050610a6a565b6040518082815260200191505060405180910390f35b34801561044c57600080fd5b50610481600480360381019080803573ffffffffffffffffffffffffffffffffffffffff169060200190929190505050610a82565b005b600061048d61093a565b151561049857600080fd5b826040518082805190602001908083835b6020831015156104ce57805182526020820191506020810190506020830392506104a9565b6001836020036101000a038019825116818451168082178552505050505050905001915050604051809103902090508160336000836000191660001916815260200190815260200160002081905550505050565b600060336000836040518082805190602001908083835b60208310151561055e5780518252602082019150602081019050602083039250610539565b6001836020036101000a038019825116818451168082178552505050505050905001915050604051809103902060001916600019168152602001908152602001600020549050919050565b6105b161093a565b15156105bc57600080fd5b600073ffffffffffffffffffffffffffffffffffffffff166000809054906101000a900473ffffffffffffffffffffffffffffffffffffffff1673ffffffffffffffffffffffffffffffffffffffff167f8be0079c531659141344cd1fd0a4f28419497f9722a3daafe3b4186f6b6457e060405160405180910390a360008060006101000a81548173ffffffffffffffffffffffffffffffffffffffff021916908373ffffffffffffffffffffffffffffffffffffffff160217905550565b60346020528060005260406000206000915054906101000a900473ffffffffffffffffffffffffffffffffffffffff1681565b60008060159054906101000a900460ff16806106ce57506106cd610aa1565b5b806106e65750600060149054906101000a900460ff16155b1515610780576040517f08c379a000000000000000000000000000000000000000000000000000000000815260040180806020018281038252602e8152602001807f436f6e747261637420696e7374616e63652068617320616c726561647920626581526020017f656e20696e697469616c697a656400000000000000000000000000000000000081525060400191505060405180910390fd5b600060159054906101000a900460ff1690506001600060156101000a81548160ff0219169083151502179055506001600060146101000a81548160ff02191690831515021790555061080d6040805190810160405280600f81526020017f574154545f484f55525f50524943450000000000000000000000000000000000815250655af3107a4000610483565b61084d6040805190810160405280600d81526020017f544f4b454e5f41444452455353000000000000000000000000000000000000008152506000610991565b80600060156101000a81548160ff02191690831515021790555050565b600060346000836040518082805190602001908083835b6020831015156108a65780518252602082019150602081019050602083039250610881565b6001836020036101000a03801982511681845116808217855250505050505090500191505060405180910390206000191660001916815260200190815260200160002060009054906101000a900473ffffffffffffffffffffffffffffffffffffffff169050919050565b60008060009054906101000a900473ffffffffffffffffffffffffffffffffffffffff16905090565b60008060009054906101000a900473ffffffffffffffffffffffffffffffffffffffff1673ffffffffffffffffffffffffffffffffffffffff163373ffffffffffffffffffffffffffffffffffffffff1614905090565b600061099b61093a565b15156109a657600080fd5b826040518082805190602001908083835b6020831015156109dc57805182526020820191506020810190506020830392506109b7565b6001836020036101000a038019825116818451168082178552505050505050905001915050604051809103902090508160346000836000191660001916815260200190815260200160002060006101000a81548173ffffffffffffffffffffffffffffffffffffffff021916908373ffffffffffffffffffffffffffffffffffffffff160217905550505050565b60336020528060005260406000206000915090505481565b610a8a61093a565b1515610a9557600080fd5b610a9e81610ab2565b50565b600080303b90506000811491505090565b600073ffffffffffffffffffffffffffffffffffffffff168173ffffffffffffffffffffffffffffffffffffffff1614151515610aee57600080fd5b8073ffffffffffffffffffffffffffffffffffffffff166000809054906101000a900473ffffffffffffffffffffffffffffffffffffffff1673ffffffffffffffffffffffffffffffffffffffff167f8be0079c531659141344cd1fd0a4f28419497f9722a3daafe3b4186f6b6457e060405160405180910390a3806000806101000a81548173ffffffffffffffffffffffffffffffffffffffff021916908373ffffffffffffffffffffffffffffffffffffffff160217905550505600a165627a7a72305820604d790025e0477a14779841a255e50c0946b047156688b944b7c1aa3678ea0d0029",
  "source": "pragma solidity ^0.4.24;\n\nimport \"openzeppelin-solidity/contracts/ownership/Ownable.sol\";\nimport \"zos-lib/contracts/Initializable.sol\";\nimport \"./libraries/ShastaTypes.sol\";\n/**\n * @title GridState\n */\ncontract GridState is Ownable, Initializable {\n  mapping(bytes32 => uint) public uintRules;\n  mapping(bytes32 => address) public addressRules;\n\n  // Upgradeable contract pattern with initializer using zeppelinOS way.\n  function initialize() public initializer {\n    // Set watts/hour/usd_token to 0.0001, equivalent to 0.10 per kW/hour\n    setUintRule(\"WATT_HOUR_PRICE\", 100000000000000);\n\n    // Set token address to 0x0, so it uses Ether\n    setAddressRule(\"TOKEN_ADDRESS\", address(0));\n  }\n\n  function setUintRule(string key, uint value) public onlyOwner {\n    bytes32 hashed_key = keccak256(bytes(key));\n    uintRules[hashed_key] = value;\n  }\n\n  function setAddressRule(string key, address value) public onlyOwner {\n    bytes32 hashed_key = keccak256(bytes(key));\n    addressRules[hashed_key] = value;\n  }\n\n  function getUintRule(string key) public view returns (uint) {\n    return uintRules[keccak256(bytes(key))];\n  }\n\n  function getAddressRule(string key) public view returns (address) {\n    return addressRules[keccak256(bytes(key))];\n  }\n}",
  "sourcePath": "/home/davidracero/repos/ShastaOS/contracts/GridState.sol",
  "compiler": {
    "name": "solc",
    "version": "0.4.24+commit.e67f0147.Emscripten.clang"
  },
  "schemaVersion": "3.0.0-beta.0",
  "updatedAt": "2018-11-19T10:28:03.616Z"
}