{
  "contractName": "HardwareData",
  "abi": [
    {
      "constant": true,
      "inputs": [
        {
          "name": "",
          "type": "uint256"
        }
      ],
      "name": "ipfsHashes",
      "outputs": [
        {
          "name": "",
          "type": "bytes"
        }
      ],
      "payable": false,
      "stateMutability": "view",
      "type": "function",
      "signature": "0xa4de2f5c"
    },
    {
      "constant": true,
      "inputs": [
        {
          "name": "",
          "type": "address"
        }
      ],
      "name": "addressToHardwareId",
      "outputs": [
        {
          "name": "",
          "type": "bytes"
        }
      ],
      "payable": false,
      "stateMutability": "view",
      "type": "function",
      "signature": "0xbbc5cd9a"
    },
    {
      "anonymous": false,
      "inputs": [
        {
          "indexed": false,
          "name": "ipfsHash",
          "type": "bytes"
        }
      ],
      "name": "newHash",
      "type": "event",
      "signature": "0x683ecab1e14964f414e1a8e7f0c88764ee4a45d76402bd0239e3c0ba2b5b359b"
    },
    {
      "constant": false,
      "inputs": [
        {
          "name": "ipfsHash",
          "type": "bytes"
        }
      ],
      "name": "addHash",
      "outputs": [],
      "payable": false,
      "stateMutability": "nonpayable",
      "type": "function",
      "signature": "0x54ed7b6e"
    },
    {
      "constant": true,
      "inputs": [],
      "name": "getHashesCount",
      "outputs": [
        {
          "name": "count",
          "type": "uint256"
        }
      ],
      "payable": false,
      "stateMutability": "view",
      "type": "function",
      "signature": "0xd53bdf05"
    },
    {
      "constant": false,
      "inputs": [
        {
          "name": "hardware_id",
          "type": "bytes"
        }
      ],
      "name": "addNewHardwareId",
      "outputs": [],
      "payable": false,
      "stateMutability": "nonpayable",
      "type": "function",
      "signature": "0x7bb26c86"
    },
    {
      "constant": true,
      "inputs": [],
      "name": "getHardwareIdFromSender",
      "outputs": [
        {
          "name": "hardwareId",
          "type": "bytes"
        }
      ],
      "payable": false,
      "stateMutability": "view",
      "type": "function",
      "signature": "0xfe56fa30"
    }
  ],
  "bytecode": "0x608060405234801561001057600080fd5b506107c9806100206000396000f300608060405260043610610078576000357c0100000000000000000000000000000000000000000000000000000000900463ffffffff16806354ed7b6e1461007d5780637bb26c86146100e6578063a4de2f5c1461014f578063bbc5cd9a146101f5578063d53bdf05146102b1578063fe56fa30146102dc575b600080fd5b34801561008957600080fd5b506100e4600480360381019080803590602001908201803590602001908080601f016020809104026020016040519081016040528093929190818152602001838380828437820191505050505050919291929050505061036c565b005b3480156100f257600080fd5b5061014d600480360381019080803590602001908201803590602001908080601f016020809104026020016040519081016040528093929190818152602001838380828437820191505050505050919291929050505061044a565b005b34801561015b57600080fd5b5061017a600480360381019080803590602001909291905050506104a1565b6040518080602001828103825283818151815260200191508051906020019080838360005b838110156101ba57808201518184015260208101905061019f565b50505050905090810190601f1680156101e75780820380516001836020036101000a031916815260200191505b509250505060405180910390f35b34801561020157600080fd5b50610236600480360381019080803573ffffffffffffffffffffffffffffffffffffffff16906020019092919050505061055c565b6040518080602001828103825283818151815260200191508051906020019080838360005b8381101561027657808201518184015260208101905061025b565b50505050905090810190601f1680156102a35780820380516001836020036101000a031916815260200191505b509250505060405180910390f35b3480156102bd57600080fd5b506102c661060c565b6040518082815260200191505060405180910390f35b3480156102e857600080fd5b506102f1610619565b6040518080602001828103825283818151815260200191508051906020019080838360005b83811015610331578082015181840152602081019050610316565b50505050905090810190601f16801561035e5780820380516001836020036101000a031916815260200191505b509250505060405180910390f35b60018190806001815401808255809150509060018203906000526020600020016000909192909190915090805190602001906103a99291906106f8565b50507f683ecab1e14964f414e1a8e7f0c88764ee4a45d76402bd0239e3c0ba2b5b359b816040518080602001828103825283818151815260200191508051906020019080838360005b8381101561040d5780820151818401526020810190506103f2565b50505050905090810190601f16801561043a5780820380516001836020036101000a031916815260200191505b509250505060405180910390a150565b80600260003373ffffffffffffffffffffffffffffffffffffffff1673ffffffffffffffffffffffffffffffffffffffff168152602001908152602001600020908051906020019061049d9291906106f8565b5050565b6001818154811015156104b057fe5b906000526020600020016000915090508054600181600116156101000203166002900480601f0160208091040260200160405190810160405280929190818152602001828054600181600116156101000203166002900480156105545780601f1061052957610100808354040283529160200191610554565b820191906000526020600020905b81548152906001019060200180831161053757829003601f168201915b505050505081565b60026020528060005260406000206000915090508054600181600116156101000203166002900480601f0160208091040260200160405190810160405280929190818152602001828054600181600116156101000203166002900480156106045780601f106105d957610100808354040283529160200191610604565b820191906000526020600020905b8154815290600101906020018083116105e757829003601f168201915b505050505081565b6000600180549050905090565b6060600260003373ffffffffffffffffffffffffffffffffffffffff1673ffffffffffffffffffffffffffffffffffffffff1681526020019081526020016000208054600181600116156101000203166002900480601f0160208091040260200160405190810160405280929190818152602001828054600181600116156101000203166002900480156106ee5780601f106106c3576101008083540402835291602001916106ee565b820191906000526020600020905b8154815290600101906020018083116106d157829003601f168201915b5050505050905090565b828054600181600116156101000203166002900490600052602060002090601f016020900481019282601f1061073957805160ff1916838001178555610767565b82800160010185558215610767579182015b8281111561076657825182559160200191906001019061074b565b5b5090506107749190610778565b5090565b61079a91905b8082111561079657600081600090555060010161077e565b5090565b905600a165627a7a72305820601f9a434a1cf1380b69c102ae194b8bdda6355199572a7793fb03c4b1f443e50029",
  "source": "pragma solidity ^0.4.24;\n\n/** @title HardwareData */\n\nimport \"./User.sol\";\n\ncontract HardwareData {\n\n    User private user;\n    bytes[] public ipfsHashes;\n    event newHash(bytes ipfsHash);\n    mapping(address => bytes) public addressToHardwareId;\n\n   /**\n    * @dev Throws if non-user is trying to interact with the contract method.\n    */\n    modifier onlyUser() {\n        require(user.hasUser(msg.sender), \"You need to have a user for calling this function\");\n        _;\n    }\n    \n\n    /**\n    * @dev Add a new hash from ipfs to ethereum\n    * @param ipfsHash The IPFS hash string\n    */\n    function addHash(bytes ipfsHash) public {\n\n        ipfsHashes.push(ipfsHash);\n        emit newHash(ipfsHash);\n    }\n\n    function getHashesCount() public view returns (uint count) {\n        return ipfsHashes.length;\n    }\n\n    function addNewHardwareId(bytes hardware_id) public {\n        addressToHardwareId[msg.sender] = hardware_id;\n    }\n\n    function getHardwareIdFromSender() public view returns (bytes hardwareId){\n        return addressToHardwareId[msg.sender];\n    }\n}",
  "sourcePath": "/home/ignasi/Documents/projects/ShastaOS/contracts/HardwareData.sol",
  "compiler": {
    "name": "solc",
    "version": "0.4.24+commit.e67f0147.Emscripten.clang"
  },
  "schemaVersion": "3.0.0-beta.0",
  "updatedAt": "2018-10-24T11:13:52.794Z"
}