{
  "contractName": "HardwareData",
  "abi": [
    {
      "constant": true,
      "inputs": [],
      "name": "user",
      "outputs": [
        {
          "name": "",
          "type": "address"
        }
      ],
      "payable": false,
      "stateMutability": "view",
      "type": "function",
      "signature": "0x4f8632ba"
    },
    {
      "constant": true,
      "inputs": [
        {
          "name": "",
          "type": "uint256"
        }
      ],
      "name": "ipfsHashes",
      "outputs": [
        {
          "name": "",
          "type": "bytes"
        }
      ],
      "payable": false,
      "stateMutability": "view",
      "type": "function",
      "signature": "0xa4de2f5c"
    },
    {
      "constant": true,
      "inputs": [
        {
          "name": "",
          "type": "address"
        }
      ],
      "name": "addressToHardwareId",
      "outputs": [
        {
          "name": "",
          "type": "bytes"
        }
      ],
      "payable": false,
      "stateMutability": "view",
      "type": "function",
      "signature": "0xbbc5cd9a"
    },
    {
      "inputs": [
        {
          "name": "_userAddress",
          "type": "address"
        }
      ],
      "payable": false,
      "stateMutability": "nonpayable",
      "type": "constructor",
      "signature": "constructor"
    },
    {
      "anonymous": false,
      "inputs": [
        {
          "indexed": false,
          "name": "ipfsHash",
          "type": "bytes"
        }
      ],
      "name": "newHash",
      "type": "event",
      "signature": "0x683ecab1e14964f414e1a8e7f0c88764ee4a45d76402bd0239e3c0ba2b5b359b"
    },
    {
      "constant": false,
      "inputs": [
        {
          "name": "ipfsHash",
          "type": "bytes"
        }
      ],
      "name": "addHash",
      "outputs": [],
      "payable": false,
      "stateMutability": "nonpayable",
      "type": "function",
      "signature": "0x54ed7b6e"
    },
    {
      "constant": true,
      "inputs": [],
      "name": "getHashesCount",
      "outputs": [
        {
          "name": "count",
          "type": "uint256"
        }
      ],
      "payable": false,
      "stateMutability": "view",
      "type": "function",
      "signature": "0xd53bdf05"
    },
    {
      "constant": false,
      "inputs": [
        {
          "name": "hardware_id",
          "type": "bytes"
        }
      ],
      "name": "addNewHardwareId",
      "outputs": [],
      "payable": false,
      "stateMutability": "nonpayable",
      "type": "function",
      "signature": "0x7bb26c86"
    },
    {
      "constant": true,
      "inputs": [],
      "name": "getHardwareIdFromSender",
      "outputs": [
        {
          "name": "hardwareId",
          "type": "bytes"
        }
      ],
      "payable": false,
      "stateMutability": "view",
      "type": "function",
      "signature": "0xfe56fa30"
    }
  ],
  "bytecode": "0x608060405234801561001057600080fd5b506040516020806108d383398101806040528101908080519060200190929190505050806000806101000a81548173ffffffffffffffffffffffffffffffffffffffff021916908373ffffffffffffffffffffffffffffffffffffffff16021790555050610850806100836000396000f300608060405260043610610083576000357c0100000000000000000000000000000000000000000000000000000000900463ffffffff1680634f8632ba1461008857806354ed7b6e146100df5780637bb26c8614610148578063a4de2f5c146101b1578063bbc5cd9a14610257578063d53bdf0514610313578063fe56fa301461033e575b600080fd5b34801561009457600080fd5b5061009d6103ce565b604051808273ffffffffffffffffffffffffffffffffffffffff1673ffffffffffffffffffffffffffffffffffffffff16815260200191505060405180910390f35b3480156100eb57600080fd5b50610146600480360381019080803590602001908201803590602001908080601f01602080910402602001604051908101604052809392919081815260200183838082843782019150505050505091929192905050506103f3565b005b34801561015457600080fd5b506101af600480360381019080803590602001908201803590602001908080601f01602080910402602001604051908101604052809392919081815260200183838082843782019150505050505091929192905050506104d1565b005b3480156101bd57600080fd5b506101dc60048036038101908080359060200190929190505050610528565b6040518080602001828103825283818151815260200191508051906020019080838360005b8381101561021c578082015181840152602081019050610201565b50505050905090810190601f1680156102495780820380516001836020036101000a031916815260200191505b509250505060405180910390f35b34801561026357600080fd5b50610298600480360381019080803573ffffffffffffffffffffffffffffffffffffffff1690602001909291905050506105e3565b6040518080602001828103825283818151815260200191508051906020019080838360005b838110156102d85780820151818401526020810190506102bd565b50505050905090810190601f1680156103055780820380516001836020036101000a031916815260200191505b509250505060405180910390f35b34801561031f57600080fd5b50610328610693565b6040518082815260200191505060405180910390f35b34801561034a57600080fd5b506103536106a0565b6040518080602001828103825283818151815260200191508051906020019080838360005b83811015610393578082015181840152602081019050610378565b50505050905090810190601f1680156103c05780820380516001836020036101000a031916815260200191505b509250505060405180910390f35b6000809054906101000a900473ffffffffffffffffffffffffffffffffffffffff1681565b600181908060018154018082558091505090600182039060005260206000200160009091929091909150908051906020019061043092919061077f565b50507f683ecab1e14964f414e1a8e7f0c88764ee4a45d76402bd0239e3c0ba2b5b359b816040518080602001828103825283818151815260200191508051906020019080838360005b83811015610494578082015181840152602081019050610479565b50505050905090810190601f1680156104c15780820380516001836020036101000a031916815260200191505b509250505060405180910390a150565b80600260003373ffffffffffffffffffffffffffffffffffffffff1673ffffffffffffffffffffffffffffffffffffffff168152602001908152602001600020908051906020019061052492919061077f565b5050565b60018181548110151561053757fe5b906000526020600020016000915090508054600181600116156101000203166002900480601f0160208091040260200160405190810160405280929190818152602001828054600181600116156101000203166002900480156105db5780601f106105b0576101008083540402835291602001916105db565b820191906000526020600020905b8154815290600101906020018083116105be57829003601f168201915b505050505081565b60026020528060005260406000206000915090508054600181600116156101000203166002900480601f01602080910402602001604051908101604052809291908181526020018280546001816001161561010002031660029004801561068b5780601f106106605761010080835404028352916020019161068b565b820191906000526020600020905b81548152906001019060200180831161066e57829003601f168201915b505050505081565b6000600180549050905090565b6060600260003373ffffffffffffffffffffffffffffffffffffffff1673ffffffffffffffffffffffffffffffffffffffff1681526020019081526020016000208054600181600116156101000203166002900480601f0160208091040260200160405190810160405280929190818152602001828054600181600116156101000203166002900480156107755780601f1061074a57610100808354040283529160200191610775565b820191906000526020600020905b81548152906001019060200180831161075857829003601f168201915b5050505050905090565b828054600181600116156101000203166002900490600052602060002090601f016020900481019282601f106107c057805160ff19168380011785556107ee565b828001600101855582156107ee579182015b828111156107ed5782518255916020019190600101906107d2565b5b5090506107fb91906107ff565b5090565b61082191905b8082111561081d576000816000905550600101610805565b5090565b905600a165627a7a72305820ae16f40f260423837c8d71e571beb4f0f3179a10f197fa2709a100b25063ce6b0029",
  "source": "pragma solidity ^0.4.24;\n\n/** @title HardwareData */\n\nimport \"./User.sol\";\n\ncontract HardwareData {\n\n    User public user;\n    bytes[] public ipfsHashes;\n    event newHash(bytes ipfsHash);\n    mapping(address => bytes) public addressToHardwareId;\n\n    constructor(address _userAddress) public {\n\n        user = User(_userAddress);        \n\n    }\n\n   /**\n    * @dev Throws if non-user is trying to interact with the contract method.\n    */\n    modifier onlyUser() {\n        require(user.hasUser(msg.sender), \"You need to have a user for calling this function\");\n        _;\n    }\n    \n\n    /**\n    * @dev Add a new hash from ipfs to ethereum\n    * @param ipfsHash The IPFS hash string\n    */\n    function addHash(bytes ipfsHash) public {\n\n        ipfsHashes.push(ipfsHash);\n        emit newHash(ipfsHash);\n    }\n\n    function getHashesCount() public view returns (uint count) {\n        return ipfsHashes.length;\n    }\n\n    function addNewHardwareId(bytes hardware_id) public {\n        addressToHardwareId[msg.sender] = hardware_id;\n    }\n\n    function getHardwareIdFromSender() public view returns (bytes hardwareId){\n        return addressToHardwareId[msg.sender];\n    }\n}",
  "sourcePath": "/home/ignasi/Documents/projects/ShastaOS/contracts/HardwareData.sol",
  "compiler": {
    "name": "solc",
    "version": "0.4.24+commit.e67f0147.Emscripten.clang"
  },
  "schemaVersion": "3.0.0-beta.0",
  "updatedAt": "2018-10-25T11:25:13.895Z"
}