{
  "contractName": "HardwareData",
  "abi": [
    {
      "constant": true,
      "inputs": [
        {
          "name": "",
          "type": "uint256"
        }
      ],
      "name": "ipfsHashes",
      "outputs": [
        {
          "name": "",
          "type": "bytes"
        }
      ],
      "payable": false,
      "stateMutability": "view",
      "type": "function",
      "signature": "0xa4de2f5c"
    },
    {
      "anonymous": false,
      "inputs": [
        {
          "indexed": false,
          "name": "ipfsHash",
          "type": "bytes"
        }
      ],
      "name": "newHash",
      "type": "event",
      "signature": "0x683ecab1e14964f414e1a8e7f0c88764ee4a45d76402bd0239e3c0ba2b5b359b"
    },
    {
      "constant": false,
      "inputs": [
        {
          "name": "ipfsHash",
          "type": "bytes"
        }
      ],
      "name": "addHash",
      "outputs": [],
      "payable": false,
      "stateMutability": "nonpayable",
      "type": "function",
      "signature": "0x54ed7b6e"
    },
    {
      "constant": true,
      "inputs": [],
      "name": "getHashesCount",
      "outputs": [
        {
          "name": "count",
          "type": "uint256"
        }
      ],
      "payable": false,
      "stateMutability": "view",
      "type": "function",
      "signature": "0xd53bdf05"
    }
  ],
  "bytecode": "0x608060405234801561001057600080fd5b5061040c806100206000396000f300608060405260043610610057576000357c0100000000000000000000000000000000000000000000000000000000900463ffffffff16806354ed7b6e1461005c578063a4de2f5c146100c5578063d53bdf051461016b575b600080fd5b34801561006857600080fd5b506100c3600480360381019080803590602001908201803590602001908080601f0160208091040260200160405190810160405280939291908181526020018383808284378201915050505050509192919290505050610196565b005b3480156100d157600080fd5b506100f060048036038101908080359060200190929190505050610274565b6040518080602001828103825283818151815260200191508051906020019080838360005b83811015610130578082015181840152602081019050610115565b50505050905090810190601f16801561015d5780820380516001836020036101000a031916815260200191505b509250505060405180910390f35b34801561017757600080fd5b5061018061032f565b6040518082815260200191505060405180910390f35b60008190806001815401808255809150509060018203906000526020600020016000909192909190915090805190602001906101d392919061033b565b50507f683ecab1e14964f414e1a8e7f0c88764ee4a45d76402bd0239e3c0ba2b5b359b816040518080602001828103825283818151815260200191508051906020019080838360005b8381101561023757808201518184015260208101905061021c565b50505050905090810190601f1680156102645780820380516001836020036101000a031916815260200191505b509250505060405180910390a150565b60008181548110151561028357fe5b906000526020600020016000915090508054600181600116156101000203166002900480601f0160208091040260200160405190810160405280929190818152602001828054600181600116156101000203166002900480156103275780601f106102fc57610100808354040283529160200191610327565b820191906000526020600020905b81548152906001019060200180831161030a57829003601f168201915b505050505081565b60008080549050905090565b828054600181600116156101000203166002900490600052602060002090601f016020900481019282601f1061037c57805160ff19168380011785556103aa565b828001600101855582156103aa579182015b828111156103a957825182559160200191906001019061038e565b5b5090506103b791906103bb565b5090565b6103dd91905b808211156103d95760008160009055506001016103c1565b5090565b905600a165627a7a723058203b35b16c7a0527c9621e7c76bfd3e2a141c9fe00d1aadaf133a53cbbe0f1e58c0029",
  "source": "pragma solidity ^0.4.24;\n\n/** @title HardwareData */\n\ncontract HardwareData {\n\n    bytes[] public ipfsHashes;\n    event newHash(bytes ipfsHash);\n\n    /**\n    * @dev Add a new hash from ipfs to ethereum\n    * @param ipfsHash The IPFS hash string\n    */\n    function addHash(bytes ipfsHash) public {\n\n        ipfsHashes.push(ipfsHash);\n        emit newHash(ipfsHash);\n    }\n\n    function getHashesCount() public view returns (uint count) {\n        return ipfsHashes.length;\n    }\n\n}",
  "sourcePath": "/home/ignasi/Documents/projects/ShastaOS/contracts/HardwareData.sol",
  "compiler": {
    "name": "solc",
    "version": "0.4.24+commit.e67f0147.Emscripten.clang"
  },
  "schemaVersion": "3.0.0-beta.0",
  "updatedAt": "2018-10-22T08:32:18.744Z"
}