{
  "contractName": "HardwareData",
  "abi": [
    {
      "constant": true,
      "inputs": [
        {
          "name": "",
          "type": "uint256"
        }
      ],
      "name": "ipfsHashes",
      "outputs": [
        {
          "name": "",
          "type": "bytes"
        }
      ],
      "payable": false,
      "stateMutability": "view",
      "type": "function"
    },
    {
      "anonymous": false,
      "inputs": [
        {
          "indexed": false,
          "name": "ipfsHash",
          "type": "bytes"
        }
      ],
      "name": "newHash",
      "type": "event"
    },
    {
      "constant": false,
      "inputs": [
        {
          "name": "ipfsHash",
          "type": "bytes"
        }
      ],
      "name": "addHash",
      "outputs": [],
      "payable": false,
      "stateMutability": "nonpayable",
      "type": "function"
    }
  ],
  "bytecode": "0x608060405234801561001057600080fd5b506103ca806100206000396000f30060806040526004361061004c576000357c0100000000000000000000000000000000000000000000000000000000900463ffffffff16806354ed7b6e14610051578063a4de2f5c146100ba575b600080fd5b34801561005d57600080fd5b506100b8600480360381019080803590602001908201803590602001908080601f0160208091040260200160405190810160405280939291908181526020018383808284378201915050505050509192919290505050610160565b005b3480156100c657600080fd5b506100e56004803603810190808035906020019092919050505061023e565b6040518080602001828103825283818151815260200191508051906020019080838360005b8381101561012557808201518184015260208101905061010a565b50505050905090810190601f1680156101525780820380516001836020036101000a031916815260200191505b509250505060405180910390f35b600081908060018154018082558091505090600182039060005260206000200160009091929091909150908051906020019061019d9291906102f9565b50507f683ecab1e14964f414e1a8e7f0c88764ee4a45d76402bd0239e3c0ba2b5b359b816040518080602001828103825283818151815260200191508051906020019080838360005b838110156102015780820151818401526020810190506101e6565b50505050905090810190601f16801561022e5780820380516001836020036101000a031916815260200191505b509250505060405180910390a150565b60008181548110151561024d57fe5b906000526020600020016000915090508054600181600116156101000203166002900480601f0160208091040260200160405190810160405280929190818152602001828054600181600116156101000203166002900480156102f15780601f106102c6576101008083540402835291602001916102f1565b820191906000526020600020905b8154815290600101906020018083116102d457829003601f168201915b505050505081565b828054600181600116156101000203166002900490600052602060002090601f016020900481019282601f1061033a57805160ff1916838001178555610368565b82800160010185558215610368579182015b8281111561036757825182559160200191906001019061034c565b5b5090506103759190610379565b5090565b61039b91905b8082111561039757600081600090555060010161037f565b5090565b905600a165627a7a7230582090db3ff3e6b55c25a35eec380599146859a1654397e24015ef3fb886fa2b31b10029",
  "source": "pragma solidity ^0.4.24;\n\n/** @title HardwareData */\n\ncontract HardwareData {\n\n    bytes[] public ipfsHashes;\n    event newHash(bytes ipfsHash);\n\n    /**\n    * @dev Add a new hash from ipfs to ethereum\n    * @param ipfsHash The IPFS hash string\n    */\n    function addHash(bytes ipfsHash) public {\n\n        ipfsHashes.push(ipfsHash);\n        emit newHash(ipfsHash);\n    }\n\n}",
  "sourcePath": "/home/ignasi/Documents/projects/ShastaOS/contracts/HardwareData.sol",
  "compiler": {
    "name": "solc",
    "version": "0.4.24+commit.e67f0147.Emscripten.clang"
  },
  "schemaVersion": "2.0.1",
  "updatedAt": "2018-10-22T07:47:29.913Z"
}