{
  "contractName": "MerkleUtils",
  "abi": [
    {
      "constant": true,
      "inputs": [
        {
          "name": "proof",
          "type": "bytes32[]"
        },
        {
          "name": "root",
          "type": "bytes32"
        },
        {
          "name": "leaf",
          "type": "bytes32"
        }
      ],
      "name": "verifyMerkle",
      "outputs": [
        {
          "name": "",
          "type": "bool"
        }
      ],
      "payable": false,
      "stateMutability": "pure",
      "type": "function"
    }
  ],
  "bytecode": "0x6102b9610030600b82828239805160001a6073146000811461002057610022565bfe5b5030600052607381538281f3007300000000000000000000000000000000000000003014608060405260043610610058576000357c0100000000000000000000000000000000000000000000000000000000900463ffffffff1680635e12939c1461005d575b600080fd5b6100d060048036038101908080359060200190820180359060200190808060200260200160405190810160405280939291908181526020018383602002808284378201915050505050509192919290803560001916906020019092919080356000191690602001909291905050506100ea565b604051808215151515815260200191505060405180910390f35b600080600080849250600091505b865182101561027657868281518110151561010f57fe5b9060200190602002015190508060001916836000191610156101cc5782816040516020018083600019166000191681526020018260001916600019168152602001925050506040516020818303038152906040526040518082805190602001908083835b6020831015156101985780518252602082019150602081019050602083039250610173565b6001836020036101000a03801982511681845116808217855250505050505090500191505060405180910390209250610269565b80836040516020018083600019166000191681526020018260001916600019168152602001925050506040516020818303038152906040526040518082805190602001908083835b6020831015156102395780518252602082019150602081019050602083039250610214565b6001836020036101000a038019825116818451168082178552505050505050905001915050604051809103902092505b81806001019250506100f8565b8560001916836000191614935050505093925050505600a165627a7a723058206c393471fbee20e2ddfc6b47b593fa7556d3dc2722d2dd5b9b1262d2b45c2ef90029",
  "source": "pragma solidity ^0.4.23;\n\nlibrary MerkleUtils {\n  // @author miguelmota\n  // Github repo: https://github.com/miguelmota/merkletreejs-solidity\n\n  /// note: requires proof to be sorted\n  function verifyMerkle(\n    bytes32[] proof,\n    bytes32 root,\n    bytes32 leaf\n  )\n    public\n    pure\n    returns (bool)\n  {\n    bytes32 computedHash = leaf;\n\n    for (uint256 i = 0; i < proof.length; i++) {\n      bytes32 proofElement = proof[i];\n\n      if (computedHash < proofElement) {\n        // Hash(current computed hash + current element of the proof)\n        computedHash = keccak256(abi.encodePacked(computedHash, proofElement));\n      } else {\n        // Hash(current element of the proof + current computed hash)\n        computedHash = keccak256(abi.encodePacked(proofElement, computedHash));\n      }\n    }\n\n    // Check if the computed hash (root) is equal to the provided root\n    return computedHash == root;\n  }\n}",
  "sourcePath": "/home/davidracero/repos/ShastaOS/contracts/libraries/MerkleUtils.sol",
  "compiler": {
    "name": "solc",
    "version": "0.4.24+commit.e67f0147.Emscripten.clang"
  },
  "schemaVersion": "3.0.0-beta.0",
  "updatedAt": "2018-11-19T10:28:03.601Z"
}