{
  "contractName": "Rounds",
  "abi": [
    {
      "constant": false,
      "inputs": [],
      "name": "renounceOwnership",
      "outputs": [],
      "payable": false,
      "stateMutability": "nonpayable",
      "type": "function"
    },
    {
      "constant": true,
      "inputs": [],
      "name": "currentRound",
      "outputs": [
        {
          "name": "",
          "type": "uint256"
        }
      ],
      "payable": false,
      "stateMutability": "view",
      "type": "function"
    },
    {
      "constant": true,
      "inputs": [
        {
          "name": "",
          "type": "uint256"
        }
      ],
      "name": "rounds",
      "outputs": [
        {
          "name": "stage",
          "type": "uint8"
        },
        {
          "name": "energyPrice",
          "type": "uint256"
        },
        {
          "name": "inactiveUntilBlock",
          "type": "uint256"
        },
        {
          "name": "activatedBlock",
          "type": "uint256"
        },
        {
          "name": "tokenAddress",
          "type": "address"
        },
        {
          "name": "consumersRoot",
          "type": "bytes32"
        },
        {
          "name": "producersRoot",
          "type": "bytes32"
        },
        {
          "name": "billingRoot",
          "type": "bytes32"
        }
      ],
      "payable": false,
      "stateMutability": "view",
      "type": "function"
    },
    {
      "constant": true,
      "inputs": [],
      "name": "owner",
      "outputs": [
        {
          "name": "",
          "type": "address"
        }
      ],
      "payable": false,
      "stateMutability": "view",
      "type": "function"
    },
    {
      "constant": true,
      "inputs": [],
      "name": "isOwner",
      "outputs": [
        {
          "name": "",
          "type": "bool"
        }
      ],
      "payable": false,
      "stateMutability": "view",
      "type": "function"
    },
    {
      "constant": true,
      "inputs": [
        {
          "name": "",
          "type": "address"
        }
      ],
      "name": "trustedRelayers",
      "outputs": [
        {
          "name": "",
          "type": "bool"
        }
      ],
      "payable": false,
      "stateMutability": "view",
      "type": "function"
    },
    {
      "constant": false,
      "inputs": [
        {
          "name": "newOwner",
          "type": "address"
        }
      ],
      "name": "transferOwnership",
      "outputs": [],
      "payable": false,
      "stateMutability": "nonpayable",
      "type": "function"
    },
    {
      "anonymous": false,
      "inputs": [
        {
          "indexed": true,
          "name": "previousOwner",
          "type": "address"
        },
        {
          "indexed": true,
          "name": "newOwner",
          "type": "address"
        }
      ],
      "name": "OwnershipTransferred",
      "type": "event"
    },
    {
      "constant": false,
      "inputs": [
        {
          "name": "gridAddress",
          "type": "address"
        }
      ],
      "name": "initialize",
      "outputs": [],
      "payable": false,
      "stateMutability": "nonpayable",
      "type": "function"
    },
    {
      "constant": false,
      "inputs": [
        {
          "name": "trustedAddress",
          "type": "address"
        }
      ],
      "name": "enableRelayerAddress",
      "outputs": [],
      "payable": false,
      "stateMutability": "nonpayable",
      "type": "function"
    },
    {
      "constant": false,
      "inputs": [
        {
          "name": "trustedAddress",
          "type": "address"
        }
      ],
      "name": "disableRelayerAddress",
      "outputs": [],
      "payable": false,
      "stateMutability": "nonpayable",
      "type": "function"
    },
    {
      "constant": false,
      "inputs": [
        {
          "name": "consumersRoot",
          "type": "bytes32"
        },
        {
          "name": "producersRoot",
          "type": "bytes32"
        },
        {
          "name": "billingRoot",
          "type": "bytes32"
        }
      ],
      "name": "setRoundRoots",
      "outputs": [
        {
          "name": "",
          "type": "bool"
        }
      ],
      "payable": false,
      "stateMutability": "nonpayable",
      "type": "function"
    },
    {
      "constant": true,
      "inputs": [
        {
          "name": "index",
          "type": "uint256"
        }
      ],
      "name": "getRound",
      "outputs": [
        {
          "name": "stage",
          "type": "uint256"
        },
        {
          "name": "energyPrice",
          "type": "uint256"
        },
        {
          "name": "inactiveUntilBlock",
          "type": "uint256"
        },
        {
          "name": "activatedBlock",
          "type": "uint256"
        },
        {
          "name": "tokenAddress",
          "type": "address"
        },
        {
          "name": "consumersRoot",
          "type": "bytes32"
        },
        {
          "name": "producersRoot",
          "type": "bytes32"
        },
        {
          "name": "billingRoot",
          "type": "bytes32"
        }
      ],
      "payable": false,
      "stateMutability": "view",
      "type": "function"
    },
    {
      "constant": true,
      "inputs": [
        {
          "name": "index",
          "type": "uint256"
        }
      ],
      "name": "getRoundForBilling",
      "outputs": [
        {
          "name": "stage",
          "type": "uint256"
        },
        {
          "name": "energyPrice",
          "type": "uint256"
        },
        {
          "name": "tokenAddress",
          "type": "address"
        },
        {
          "name": "billingRoot",
          "type": "bytes32"
        }
      ],
      "payable": false,
      "stateMutability": "view",
      "type": "function"
    }
  ],
  "bytecode": "0x6080604052336000806101000a81548173ffffffffffffffffffffffffffffffffffffffff021916908373ffffffffffffffffffffffffffffffffffffffff1602179055506000809054906101000a900473ffffffffffffffffffffffffffffffffffffffff1673ffffffffffffffffffffffffffffffffffffffff16600073ffffffffffffffffffffffffffffffffffffffff167f8be0079c531659141344cd1fd0a4f28419497f9722a3daafe3b4186f6b6457e060405160405180910390a36112d4806100cf6000396000f3006080604052600436106100c5576000357c0100000000000000000000000000000000000000000000000000000000900463ffffffff1680634633ee7f146100ca578063715018a61461010d57806387a8ab5c146101245780638a19c8bc146101ae5780638c65c81f146101d95780638da5cb5b1461029d5780638f1327c0146102f45780638f32d59b146103aa578063b9b48f50146103d9578063c4d66de814610434578063cad8af0e14610477578063e677685c146104ba578063f2fde38b1461051f575b600080fd5b3480156100d657600080fd5b5061010b600480360381019080803573ffffffffffffffffffffffffffffffffffffffff169060200190929190505050610562565b005b34801561011957600080fd5b506101226105d0565b005b34801561013057600080fd5b5061014f600480360381019080803590602001909291905050506106a2565b604051808581526020018481526020018373ffffffffffffffffffffffffffffffffffffffff1673ffffffffffffffffffffffffffffffffffffffff168152602001826000191660001916815260200194505050505060405180910390f35b3480156101ba57600080fd5b506101c361074b565b6040518082815260200191505060405180910390f35b3480156101e557600080fd5b5061020460048036038101908080359060200190929190505050610751565b6040518089600181111561021457fe5b60ff1681526020018881526020018781526020018681526020018573ffffffffffffffffffffffffffffffffffffffff1673ffffffffffffffffffffffffffffffffffffffff1681526020018460001916600019168152602001836000191660001916815260200182600019166000191681526020019850505050505050505060405180910390f35b3480156102a957600080fd5b506102b26107c6565b604051808273ffffffffffffffffffffffffffffffffffffffff1673ffffffffffffffffffffffffffffffffffffffff16815260200191505060405180910390f35b34801561030057600080fd5b5061031f600480360381019080803590602001909291905050506107ef565b604051808981526020018881526020018781526020018681526020018573ffffffffffffffffffffffffffffffffffffffff1673ffffffffffffffffffffffffffffffffffffffff1681526020018460001916600019168152602001836000191660001916815260200182600019166000191681526020019850505050505050505060405180910390f35b3480156103b657600080fd5b506103bf610906565b604051808215151515815260200191505060405180910390f35b3480156103e557600080fd5b5061041a600480360381019080803573ffffffffffffffffffffffffffffffffffffffff16906020019092919050505061095d565b604051808215151515815260200191505060405180910390f35b34801561044057600080fd5b50610475600480360381019080803573ffffffffffffffffffffffffffffffffffffffff16906020019092919050505061097d565b005b34801561048357600080fd5b506104b8600480360381019080803573ffffffffffffffffffffffffffffffffffffffff169060200190929190505050610b06565b005b3480156104c657600080fd5b50610505600480360381019080803560001916906020019092919080356000191690602001909291908035600019169060200190929190505050610b74565b604051808215151515815260200191505060405180910390f35b34801561052b57600080fd5b50610560600480360381019080803573ffffffffffffffffffffffffffffffffffffffff169060200190929190505050610def565b005b61056a610906565b151561057557600080fd5b6001603460008373ffffffffffffffffffffffffffffffffffffffff1673ffffffffffffffffffffffffffffffffffffffff16815260200190815260200160002060006101000a81548160ff02191690831515021790555050565b6105d8610906565b15156105e357600080fd5b600073ffffffffffffffffffffffffffffffffffffffff166000809054906101000a900473ffffffffffffffffffffffffffffffffffffffff1673ffffffffffffffffffffffffffffffffffffffff167f8be0079c531659141344cd1fd0a4f28419497f9722a3daafe3b4186f6b6457e060405160405180910390a360008060006101000a81548173ffffffffffffffffffffffffffffffffffffffff021916908373ffffffffffffffffffffffffffffffffffffffff160217905550565b6000806000806035600086815260200190815260200160002060000160009054906101000a900460ff1660018111156106d757fe5b9350603560008681526020019081526020016000206001015492506035600086815260200190815260200160002060040160009054906101000a900473ffffffffffffffffffffffffffffffffffffffff169150603560008681526020019081526020016000206007015490509193509193565b60365481565b60356020528060005260406000206000915090508060000160009054906101000a900460ff16908060010154908060020154908060030154908060040160009054906101000a900473ffffffffffffffffffffffffffffffffffffffff16908060050154908060060154908060070154905088565b60008060009054906101000a900473ffffffffffffffffffffffffffffffffffffffff16905090565b600080600080600080600080603560008a815260200190815260200160002060000160009054906101000a900460ff16600181111561082a57fe5b9750603560008a8152602001908152602001600020600101549650603560008a8152602001908152602001600020600201549550603560008a8152602001908152602001600020600301549450603560008a815260200190815260200160002060040160009054906101000a900473ffffffffffffffffffffffffffffffffffffffff169350603560008a8152602001908152602001600020600501549250603560008a8152602001908152602001600020600601549150603560008a8152602001908152602001600020600701549050919395975091939597565b60008060009054906101000a900473ffffffffffffffffffffffffffffffffffffffff1673ffffffffffffffffffffffffffffffffffffffff163373ffffffffffffffffffffffffffffffffffffffff1614905090565b60346020528060005260406000206000915054906101000a900460ff1681565b60008060159054906101000a900460ff168061099d575061099c610e0e565b5b806109b55750600060149054906101000a900460ff16155b1515610a4f576040517f08c379a000000000000000000000000000000000000000000000000000000000815260040180806020018281038252602e8152602001807f436f6e747261637420696e7374616e63652068617320616c726561647920626581526020017f656e20696e697469616c697a656400000000000000000000000000000000000081525060400191505060405180910390fd5b600060159054906101000a900460ff1690506001600060156101000a81548160ff0219169083151502179055506001600060146101000a81548160ff021916908315150217905550600060368190555081603360006101000a81548173ffffffffffffffffffffffffffffffffffffffff021916908373ffffffffffffffffffffffffffffffffffffffff160217905550610ae8610e1f565b80600060156101000a81548160ff0219169083151502179055505050565b610b0e610906565b1515610b1957600080fd5b6000603460008373ffffffffffffffffffffffffffffffffffffffff1673ffffffffffffffffffffffffffffffffffffffff16815260200190815260200160002060006101000a81548160ff02191690831515021790555050565b600060011515603460003373ffffffffffffffffffffffffffffffffffffffff1673ffffffffffffffffffffffffffffffffffffffff16815260200190815260200160002060009054906101000a900460ff161515141515610c3e576040517f08c379a000000000000000000000000000000000000000000000000000000000815260040180806020018281038252601a8152602001807f5468652061646472657373206973206e6f74207472757374656400000000000081525060200191505060405180910390fd5b60006001811115610c4b57fe5b6001811115610c5657fe5b60356000603654815260200190815260200160002060000160009054906101000a900460ff166001811115610c8757fe5b141515610d22576040517f08c379a000000000000000000000000000000000000000000000000000000000815260040180806020018281038252602b8152602001807f54686520726f756e642069732066696e697368656420616e642063616e27742081526020017f626520757064617465642e00000000000000000000000000000000000000000081525060400191505060405180910390fd5b8360356000603654815260200190815260200160002060050181600019169055508260356000603654815260200190815260200160002060060181600019169055508160356000603654815260200190815260200160002060070181600019169055504360356000603654815260200190815260200160002060030181905550600160356000603654815260200190815260200160002060000160006101000a81548160ff02191690836001811115610dd757fe5b0217905550610de4611171565b600190509392505050565b610df7610906565b1515610e0257600080fd5b610e0b816111ae565b50565b600080303b90506000811491505090565b60006001811115610e2c57fe5b6001811115610e3757fe5b60356000603654815260200190815260200160002060000160009054906101000a900460ff166001811115610e6857fe5b141515610f03576040517f08c379a000000000000000000000000000000000000000000000000000000000815260040180806020018281038252602b8152602001807f54686520726f756e642069732066696e697368656420616e642063616e27742081526020017f626520757064617465642e00000000000000000000000000000000000000000081525060400191505060405180910390fd5b603360009054906101000a900473ffffffffffffffffffffffffffffffffffffffff1673ffffffffffffffffffffffffffffffffffffffff16638c87bc526040518163ffffffff167c010000000000000000000000000000000000000000000000000000000002815260040180806020018281038252600d8152602001807f544f4b454e5f4144445245535300000000000000000000000000000000000000815250602001915050602060405180830381600087803b158015610fc557600080fd5b505af1158015610fd9573d6000803e3d6000fd5b505050506040513d6020811015610fef57600080fd5b810190808051906020019092919050505060356000603654815260200190815260200160002060040160006101000a81548173ffffffffffffffffffffffffffffffffffffffff021916908373ffffffffffffffffffffffffffffffffffffffff160217905550603360009054906101000a900473ffffffffffffffffffffffffffffffffffffffff1673ffffffffffffffffffffffffffffffffffffffff1663311b0f396040518163ffffffff167c010000000000000000000000000000000000000000000000000000000002815260040180806020018281038252600b8152602001807f57415454535f5052494345000000000000000000000000000000000000000000815250602001915050602060405180830381600087803b15801561111857600080fd5b505af115801561112c573d6000803e3d6000fd5b505050506040513d602081101561114257600080fd5b810190808051906020019092919050505060356000603654815260200190815260200160002060010181905550565b60016036600082825401925050819055506202cad84301603560006036548152602001908152602001600020600201819055506111ac610e1f565b565b600073ffffffffffffffffffffffffffffffffffffffff168173ffffffffffffffffffffffffffffffffffffffff16141515156111ea57600080fd5b8073ffffffffffffffffffffffffffffffffffffffff166000809054906101000a900473ffffffffffffffffffffffffffffffffffffffff1673ffffffffffffffffffffffffffffffffffffffff167f8be0079c531659141344cd1fd0a4f28419497f9722a3daafe3b4186f6b6457e060405160405180910390a3806000806101000a81548173ffffffffffffffffffffffffffffffffffffffff021916908373ffffffffffffffffffffffffffffffffffffffff160217905550505600a165627a7a7230582025348e38f03757c74ca07f5ac187da50fab2b6722b890425781a473936eada5b0029",
  "source": "pragma solidity ^0.4.24;\n\nimport \"openzeppelin-solidity/contracts/ownership/Ownable.sol\";\nimport \"zos-lib/contracts/Initializable.sol\";\nimport \"./libraries/ShastaTypes.sol\";\nimport \"./libraries/RoundTypes.sol\";\nimport \"./GridState.sol\";\n/**\n * @title Rounds\n */\ncontract Rounds is Ownable, Initializable {\n  GridState gridState;\n\n  mapping(address => bool) public trustedRelayers;\n  mapping(uint => RoundTypes.Round) public rounds;\n\n  uint public currentRound;\n\n  modifier afterGracePeriod() {\n    require(rounds[currentRound].inactiveUntilBlock >= block.number, \"The current block must be equal or higher than the grace period.\");\n    _;\n  }\n\n  modifier onlyTrustedRelayer() {\n    require(trustedRelayers[msg.sender] == true, \"The address is not trusted\");\n    _;\n  }\n\n  // Upgradeable contract pattern with initializer using zeppelinOS way.\n  function initialize(address gridAddress) public initializer {\n    currentRound = 0;\n    gridState = GridState(gridAddress);\n    inheritGridState();\n  }\n\n  function enableRelayerAddress(address trustedAddress) public onlyOwner {\n    trustedRelayers[trustedAddress] = true;\n  }\n\n  function disableRelayerAddress(address trustedAddress) public onlyOwner {\n    trustedRelayers[trustedAddress] = false;\n  }\n\n  function setRoundRoots(\n    bytes32 consumersRoot,\n    bytes32 producersRoot,\n    bytes32 billingRoot\n  )\n  public\n  onlyTrustedRelayer()\n  returns (bool)\n  {\n    require(rounds[currentRound].stage == RoundTypes.RoundStage(0), \"The round is finished and can't be updated.\");\n    rounds[currentRound].consumersRoot = consumersRoot;\n    rounds[currentRound].producersRoot = producersRoot;\n    rounds[currentRound].billingRoot = billingRoot;\n    rounds[currentRound].activatedBlock = block.number;\n    // Set the stage to active\n    rounds[currentRound].stage = RoundTypes.RoundStage.ACTIVATED;\n\n    // Generate the next round\n    generateNextRound();\n    \n    return true;\n  }\n\n  function inheritGridState() internal {\n    require(rounds[currentRound].stage == RoundTypes.RoundStage(0), \"The round is finished and can't be updated.\");\n    rounds[currentRound].tokenAddress = gridState.getAddressRule(\"TOKEN_ADDRESS\");\n    rounds[currentRound].energyPrice = gridState.getUintRule(\"WATTS_PRICE\");\n  }\n\n  function generateNextRound() internal {\n    currentRound += 1;\n    // Wait until current block + 183000 blocks (around 1 month) to let relayers post the result\n    rounds[currentRound].inactiveUntilBlock = block.number + 183000;\n    inheritGridState();\n  }\n\n  function getRound(uint index) public view returns (\n    uint stage,\n    uint energyPrice,\n    uint inactiveUntilBlock,\n    uint activatedBlock,\n    address tokenAddress,\n    bytes32 consumersRoot,\n    bytes32 producersRoot,\n    bytes32 billingRoot\n  ) {\n    stage = uint(rounds[index].stage);\n    energyPrice = rounds[index].energyPrice;\n    inactiveUntilBlock = rounds[index].inactiveUntilBlock;\n    activatedBlock = rounds[index].activatedBlock;\n    tokenAddress = rounds[index].tokenAddress;\n    consumersRoot = rounds[index].consumersRoot;\n    producersRoot = rounds[index].producersRoot;\n    billingRoot = rounds[index].billingRoot;\n  }\n\n  function getRoundForBilling(uint index) public view returns (\n    uint stage,\n    uint energyPrice,\n    address tokenAddress,\n    bytes32 billingRoot\n  ) {\n    stage = uint(rounds[index].stage);\n    energyPrice = rounds[index].energyPrice;\n    tokenAddress = rounds[index].tokenAddress;\n    billingRoot = rounds[index].billingRoot;\n  }\n}",
  "sourcePath": "/home/davidracero/repos/ShastaOS/contracts/Rounds.sol",
  "compiler": {
    "name": "solc",
    "version": "0.4.24+commit.e67f0147.Emscripten.clang"
  },
  "schemaVersion": "3.0.0-beta.0",
  "updatedAt": "2018-11-19T10:28:03.620Z"
}