{
  "contractName": "SharedMapPrice",
  "abi": [
    {
      "constant": true,
      "inputs": [],
      "name": "shastaMarketAddress",
      "outputs": [
        {
          "name": "",
          "type": "address"
        }
      ],
      "payable": false,
      "stateMutability": "view",
      "type": "function"
    },
    {
      "constant": false,
      "inputs": [],
      "name": "unpause",
      "outputs": [],
      "payable": false,
      "stateMutability": "nonpayable",
      "type": "function"
    },
    {
      "constant": true,
      "inputs": [
        {
          "name": "account",
          "type": "address"
        }
      ],
      "name": "isPauser",
      "outputs": [
        {
          "name": "",
          "type": "bool"
        }
      ],
      "payable": false,
      "stateMutability": "view",
      "type": "function"
    },
    {
      "constant": true,
      "inputs": [],
      "name": "paused",
      "outputs": [
        {
          "name": "",
          "type": "bool"
        }
      ],
      "payable": false,
      "stateMutability": "view",
      "type": "function"
    },
    {
      "constant": false,
      "inputs": [],
      "name": "renouncePauser",
      "outputs": [],
      "payable": false,
      "stateMutability": "nonpayable",
      "type": "function"
    },
    {
      "constant": false,
      "inputs": [],
      "name": "renounceOwnership",
      "outputs": [],
      "payable": false,
      "stateMutability": "nonpayable",
      "type": "function"
    },
    {
      "constant": true,
      "inputs": [],
      "name": "userStorage",
      "outputs": [
        {
          "name": "",
          "type": "address"
        }
      ],
      "payable": false,
      "stateMutability": "view",
      "type": "function"
    },
    {
      "constant": true,
      "inputs": [
        {
          "name": "",
          "type": "uint256"
        }
      ],
      "name": "locationIndexByAddress",
      "outputs": [
        {
          "name": "",
          "type": "address"
        }
      ],
      "payable": false,
      "stateMutability": "view",
      "type": "function"
    },
    {
      "constant": false,
      "inputs": [
        {
          "name": "account",
          "type": "address"
        }
      ],
      "name": "addPauser",
      "outputs": [],
      "payable": false,
      "stateMutability": "nonpayable",
      "type": "function"
    },
    {
      "constant": false,
      "inputs": [],
      "name": "pause",
      "outputs": [],
      "payable": false,
      "stateMutability": "nonpayable",
      "type": "function"
    },
    {
      "constant": true,
      "inputs": [],
      "name": "owner",
      "outputs": [
        {
          "name": "",
          "type": "address"
        }
      ],
      "payable": false,
      "stateMutability": "view",
      "type": "function"
    },
    {
      "constant": true,
      "inputs": [],
      "name": "isOwner",
      "outputs": [
        {
          "name": "",
          "type": "bool"
        }
      ],
      "payable": false,
      "stateMutability": "view",
      "type": "function"
    },
    {
      "constant": true,
      "inputs": [],
      "name": "userContractAddress",
      "outputs": [
        {
          "name": "",
          "type": "address"
        }
      ],
      "payable": false,
      "stateMutability": "view",
      "type": "function"
    },
    {
      "constant": true,
      "inputs": [
        {
          "name": "",
          "type": "uint256"
        }
      ],
      "name": "locationsIpfsHashes",
      "outputs": [
        {
          "name": "",
          "type": "string"
        }
      ],
      "payable": false,
      "stateMutability": "view",
      "type": "function"
    },
    {
      "constant": false,
      "inputs": [
        {
          "name": "newOwner",
          "type": "address"
        }
      ],
      "name": "transferOwnership",
      "outputs": [],
      "payable": false,
      "stateMutability": "nonpayable",
      "type": "function"
    },
    {
      "inputs": [
        {
          "name": "contractAddress",
          "type": "address"
        },
        {
          "name": "_shastaMarketAddress",
          "type": "address"
        }
      ],
      "payable": false,
      "stateMutability": "nonpayable",
      "type": "constructor"
    },
    {
      "anonymous": false,
      "inputs": [
        {
          "indexed": false,
          "name": "ipfsHash",
          "type": "string"
        },
        {
          "indexed": false,
          "name": "index",
          "type": "uint256"
        }
      ],
      "name": "NewLocation",
      "type": "event"
    },
    {
      "anonymous": false,
      "inputs": [
        {
          "indexed": false,
          "name": "ipfsHash",
          "type": "string"
        },
        {
          "indexed": false,
          "name": "index",
          "type": "uint256"
        }
      ],
      "name": "LocationUpdate",
      "type": "event"
    },
    {
      "anonymous": false,
      "inputs": [],
      "name": "Paused",
      "type": "event"
    },
    {
      "anonymous": false,
      "inputs": [],
      "name": "Unpaused",
      "type": "event"
    },
    {
      "anonymous": false,
      "inputs": [
        {
          "indexed": true,
          "name": "account",
          "type": "address"
        }
      ],
      "name": "PauserAdded",
      "type": "event"
    },
    {
      "anonymous": false,
      "inputs": [
        {
          "indexed": true,
          "name": "account",
          "type": "address"
        }
      ],
      "name": "PauserRemoved",
      "type": "event"
    },
    {
      "anonymous": false,
      "inputs": [
        {
          "indexed": true,
          "name": "previousOwner",
          "type": "address"
        }
      ],
      "name": "OwnershipRenounced",
      "type": "event"
    },
    {
      "anonymous": false,
      "inputs": [
        {
          "indexed": true,
          "name": "previousOwner",
          "type": "address"
        },
        {
          "indexed": true,
          "name": "newOwner",
          "type": "address"
        }
      ],
      "name": "OwnershipTransferred",
      "type": "event"
    },
    {
      "constant": false,
      "inputs": [
        {
          "name": "contractAddress",
          "type": "address"
        }
      ],
      "name": "setUserContractAddress",
      "outputs": [],
      "payable": false,
      "stateMutability": "nonpayable",
      "type": "function"
    },
    {
      "constant": true,
      "inputs": [
        {
          "name": "locationIndex",
          "type": "uint256"
        }
      ],
      "name": "isLocationIndexFromUser",
      "outputs": [
        {
          "name": "",
          "type": "bool"
        }
      ],
      "payable": false,
      "stateMutability": "view",
      "type": "function"
    },
    {
      "constant": true,
      "inputs": [],
      "name": "getLocationsLength",
      "outputs": [
        {
          "name": "length",
          "type": "uint256"
        }
      ],
      "payable": false,
      "stateMutability": "view",
      "type": "function"
    },
    {
      "constant": false,
      "inputs": [
        {
          "name": "locationIpfsHash",
          "type": "string"
        },
        {
          "name": "index",
          "type": "uint256"
        }
      ],
      "name": "updateLocation",
      "outputs": [
        {
          "name": "",
          "type": "bool"
        }
      ],
      "payable": false,
      "stateMutability": "nonpayable",
      "type": "function"
    },
    {
      "constant": false,
      "inputs": [
        {
          "name": "locationIpfsHash",
          "type": "string"
        },
        {
          "name": "index",
          "type": "uint256"
        }
      ],
      "name": "ownerUpdateLocation",
      "outputs": [
        {
          "name": "",
          "type": "bool"
        }
      ],
      "payable": false,
      "stateMutability": "nonpayable",
      "type": "function"
    }
  ],
  "bytecode": "0x60806040526000600260006101000a81548160ff02191690831515021790555034801561002b57600080fd5b5060405160408061174c8339810180604052810190808051906020019092919080519060200190929190505050336000806101000a81548173ffffffffffffffffffffffffffffffffffffffff021916908373ffffffffffffffffffffffffffffffffffffffff1602179055506100b9336001610249640100000000026111f5179091906401000000009004565b33600260016101000a81548173ffffffffffffffffffffffffffffffffffffffff021916908373ffffffffffffffffffffffffffffffffffffffff16021790555081600360006101000a81548173ffffffffffffffffffffffffffffffffffffffff021916908373ffffffffffffffffffffffffffffffffffffffff160217905550600360009054906101000a900473ffffffffffffffffffffffffffffffffffffffff16600660006101000a81548173ffffffffffffffffffffffffffffffffffffffff021916908373ffffffffffffffffffffffffffffffffffffffff16021790555080600460006101000a81548173ffffffffffffffffffffffffffffffffffffffff021916908373ffffffffffffffffffffffffffffffffffffffff160217905550600460009054906101000a900473ffffffffffffffffffffffffffffffffffffffff16600560006101000a81548173ffffffffffffffffffffffffffffffffffffffff021916908373ffffffffffffffffffffffffffffffffffffffff16021790555050506102e3565b600073ffffffffffffffffffffffffffffffffffffffff168173ffffffffffffffffffffffffffffffffffffffff161415151561028557600080fd5b60018260000160008373ffffffffffffffffffffffffffffffffffffffff1673ffffffffffffffffffffffffffffffffffffffff16815260200190815260200160002060006101000a81548160ff0219169083151502179055505050565b61145a806102f26000396000f300608060405260043610610112576000357c0100000000000000000000000000000000000000000000000000000000900463ffffffff16806315aad572146101175780631d7e37ad146101a25780631e7c5a90146101e55780633f4ba83a1461023c57806346fbf68e146102535780635c975abb146102ae5780636ef8d66d146102dd578063715018a6146102f457806375e580791461030b5780637bdf57961461036257806382dc1ec4146103cf5780638456cb59146104125780638c9d9776146104295780638da5cb5b146104b45780638f32d59b1461050b578063a85b27f41461053a578063d92aabfc1461057f578063e060e118146105d6578063e7f178a41461067c578063f2fde38b146106a7575b600080fd5b34801561012357600080fd5b50610188600480360381019080803590602001908201803590602001908080601f0160208091040260200160405190810160405280939291908181526020018383808284378201915050505050509192919290803590602001909291905050506106ea565b604051808215151515815260200191505060405180910390f35b3480156101ae57600080fd5b506101e3600480360381019080803573ffffffffffffffffffffffffffffffffffffffff1690602001909291905050506108e3565b005b3480156101f157600080fd5b506101fa61099d565b604051808273ffffffffffffffffffffffffffffffffffffffff1673ffffffffffffffffffffffffffffffffffffffff16815260200191505060405180910390f35b34801561024857600080fd5b506102516109c3565b005b34801561025f57600080fd5b50610294600480360381019080803573ffffffffffffffffffffffffffffffffffffffff169060200190929190505050610a3b565b604051808215151515815260200191505060405180910390f35b3480156102ba57600080fd5b506102c3610a58565b604051808215151515815260200191505060405180910390f35b3480156102e957600080fd5b506102f2610a6f565b005b34801561030057600080fd5b50610309610a85565b005b34801561031757600080fd5b50610320610b3f565b604051808273ffffffffffffffffffffffffffffffffffffffff1673ffffffffffffffffffffffffffffffffffffffff16815260200191505060405180910390f35b34801561036e57600080fd5b5061038d60048036038101908080359060200190929190505050610b65565b604051808273ffffffffffffffffffffffffffffffffffffffff1673ffffffffffffffffffffffffffffffffffffffff16815260200191505060405180910390f35b3480156103db57600080fd5b50610410600480360381019080803573ffffffffffffffffffffffffffffffffffffffff169060200190929190505050610b98565b005b34801561041e57600080fd5b50610427610c06565b005b34801561043557600080fd5b5061049a600480360381019080803590602001908201803590602001908080601f016020809104026020016040519081016040528093929190818152602001838380828437820191505050505050919291929080359060200190929190505050610c7f565b604051808215151515815260200191505060405180910390f35b3480156104c057600080fd5b506104c9610eb9565b604051808273ffffffffffffffffffffffffffffffffffffffff1673ffffffffffffffffffffffffffffffffffffffff16815260200191505060405180910390f35b34801561051757600080fd5b50610520610edf565b604051808215151515815260200191505060405180910390f35b34801561054657600080fd5b5061056560048036038101908080359060200190929190505050610f36565b604051808215151515815260200191505060405180910390f35b34801561058b57600080fd5b50610594610fba565b604051808273ffffffffffffffffffffffffffffffffffffffff1673ffffffffffffffffffffffffffffffffffffffff16815260200191505060405180910390f35b3480156105e257600080fd5b5061060160048036038101908080359060200190929190505050610fe0565b6040518080602001828103825283818151815260200191508051906020019080838360005b83811015610641578082015181840152602081019050610626565b50505050905090810190601f16801561066e5780820380516001836020036101000a031916815260200191505b509250505060405180910390f35b34801561068857600080fd5b5061069161109b565b6040518082815260200191505060405180910390f35b3480156106b357600080fd5b506106e8600480360381019080803573ffffffffffffffffffffffffffffffffffffffff1690602001909291905050506110a8565b005b6000600260009054906101000a900460ff1615151561070857600080fd5b600660009054906101000a900473ffffffffffffffffffffffffffffffffffffffff1673ffffffffffffffffffffffffffffffffffffffff1663a6c4ec0e336040518263ffffffff167c0100000000000000000000000000000000000000000000000000000000028152600401808273ffffffffffffffffffffffffffffffffffffffff1673ffffffffffffffffffffffffffffffffffffffff168152602001915050602060405180830381600087803b1580156107c557600080fd5b505af11580156107d9573d6000803e3d6000fd5b505050506040513d60208110156107ef57600080fd5b8101908080519060200190929190505050151561080b57600080fd5b8260088381548110151561081b57fe5b906000526020600020019080519060200190610838929190611389565b507f5ff6b62a50b216f6a168a3c9ef546f852061593cd1c70b08982c99b83658053883836040518080602001838152602001828103825284818151815260200191508051906020019080838360005b838110156108a2578082015181840152602081019050610887565b50505050905090810190601f1680156108cf5780820380516001836020036101000a031916815260200191505b50935050505060405180910390a192915050565b6108eb610edf565b15156108f657600080fd5b80600360006101000a81548173ffffffffffffffffffffffffffffffffffffffff021916908373ffffffffffffffffffffffffffffffffffffffff160217905550600360009054906101000a900473ffffffffffffffffffffffffffffffffffffffff16600660006101000a81548173ffffffffffffffffffffffffffffffffffffffff021916908373ffffffffffffffffffffffffffffffffffffffff16021790555050565b600460009054906101000a900473ffffffffffffffffffffffffffffffffffffffff1681565b6109cc33610a3b565b15156109d757600080fd5b600260009054906101000a900460ff1615156109f257600080fd5b6000600260006101000a81548160ff0219169083151502179055507fa45f47fdea8a1efdd9029a5691c7f759c32b7c698632b563573e155625d1693360405160405180910390a1565b6000610a518260016110c790919063ffffffff16565b9050919050565b6000600260009054906101000a900460ff16905090565b610a8333600161115b90919063ffffffff16565b565b610a8d610edf565b1515610a9857600080fd5b6000809054906101000a900473ffffffffffffffffffffffffffffffffffffffff1673ffffffffffffffffffffffffffffffffffffffff167ff8df31144d9c2f0f6b59d69b8b98abd5459d07f2742c4df920b25aae33c6482060405160405180910390a260008060006101000a81548173ffffffffffffffffffffffffffffffffffffffff021916908373ffffffffffffffffffffffffffffffffffffffff160217905550565b600660009054906101000a900473ffffffffffffffffffffffffffffffffffffffff1681565b60076020528060005260406000206000915054906101000a900473ffffffffffffffffffffffffffffffffffffffff1681565b610ba133610a3b565b1515610bac57600080fd5b610bc08160016111f590919063ffffffff16565b8073ffffffffffffffffffffffffffffffffffffffff167f6719d08c1888103bea251a4ed56406bd0c3e69723c8a1686e017e7bbe159b6f860405160405180910390a250565b610c0f33610a3b565b1515610c1a57600080fd5b600260009054906101000a900460ff16151515610c3657600080fd5b6001600260006101000a81548160ff0219169083151502179055507f9e87fac88ff661f02d44f95383c817fece4bce600a3dab7a54406878b965e75260405160405180910390a1565b6000600260009054906101000a900460ff16151515610c9d57600080fd5b600660009054906101000a900473ffffffffffffffffffffffffffffffffffffffff1673ffffffffffffffffffffffffffffffffffffffff1663a6c4ec0e336040518263ffffffff167c0100000000000000000000000000000000000000000000000000000000028152600401808273ffffffffffffffffffffffffffffffffffffffff1673ffffffffffffffffffffffffffffffffffffffff168152602001915050602060405180830381600087803b158015610d5a57600080fd5b505af1158015610d6e573d6000803e3d6000fd5b505050506040513d6020811015610d8457600080fd5b81019080805190602001909291905050501515610da057600080fd5b60008351118015610dbb57506001610db661109b565b038211155b1515610dc657600080fd5b60011515610dd383610f36565b1515141515610de157600080fd5b82600883815481101515610df157fe5b906000526020600020019080519060200190610e0e929190611389565b507f5ff6b62a50b216f6a168a3c9ef546f852061593cd1c70b08982c99b83658053883836040518080602001838152602001828103825284818151815260200191508051906020019080838360005b83811015610e78578082015181840152602081019050610e5d565b50505050905090810190601f168015610ea55780820380516001836020036101000a031916815260200191505b50935050505060405180910390a192915050565b600260019054906101000a900473ffffffffffffffffffffffffffffffffffffffff1681565b60008060009054906101000a900473ffffffffffffffffffffffffffffffffffffffff1673ffffffffffffffffffffffffffffffffffffffff163373ffffffffffffffffffffffffffffffffffffffff1614905090565b60006001610f4261109b565b038211151515610f5157600080fd5b3373ffffffffffffffffffffffffffffffffffffffff166007600084815260200190815260200160002060009054906101000a900473ffffffffffffffffffffffffffffffffffffffff1673ffffffffffffffffffffffffffffffffffffffff16149050919050565b600360009054906101000a900473ffffffffffffffffffffffffffffffffffffffff1681565b600881815481101515610fef57fe5b906000526020600020016000915090508054600181600116156101000203166002900480601f0160208091040260200160405190810160405280929190818152602001828054600181600116156101000203166002900480156110935780601f1061106857610100808354040283529160200191611093565b820191906000526020600020905b81548152906001019060200180831161107657829003601f168201915b505050505081565b6000600880549050905090565b6110b0610edf565b15156110bb57600080fd5b6110c48161128f565b50565b60008073ffffffffffffffffffffffffffffffffffffffff168273ffffffffffffffffffffffffffffffffffffffff161415151561110457600080fd5b8260000160008373ffffffffffffffffffffffffffffffffffffffff1673ffffffffffffffffffffffffffffffffffffffff16815260200190815260200160002060009054906101000a900460ff16905092915050565b600073ffffffffffffffffffffffffffffffffffffffff168173ffffffffffffffffffffffffffffffffffffffff161415151561119757600080fd5b60008260000160008373ffffffffffffffffffffffffffffffffffffffff1673ffffffffffffffffffffffffffffffffffffffff16815260200190815260200160002060006101000a81548160ff0219169083151502179055505050565b600073ffffffffffffffffffffffffffffffffffffffff168173ffffffffffffffffffffffffffffffffffffffff161415151561123157600080fd5b60018260000160008373ffffffffffffffffffffffffffffffffffffffff1673ffffffffffffffffffffffffffffffffffffffff16815260200190815260200160002060006101000a81548160ff0219169083151502179055505050565b600073ffffffffffffffffffffffffffffffffffffffff168173ffffffffffffffffffffffffffffffffffffffff16141515156112cb57600080fd5b8073ffffffffffffffffffffffffffffffffffffffff166000809054906101000a900473ffffffffffffffffffffffffffffffffffffffff1673ffffffffffffffffffffffffffffffffffffffff167f8be0079c531659141344cd1fd0a4f28419497f9722a3daafe3b4186f6b6457e060405160405180910390a3806000806101000a81548173ffffffffffffffffffffffffffffffffffffffff021916908373ffffffffffffffffffffffffffffffffffffffff16021790555050565b828054600181600116156101000203166002900490600052602060002090601f016020900481019282601f106113ca57805160ff19168380011785556113f8565b828001600101855582156113f8579182015b828111156113f75782518255916020019190600101906113dc565b5b5090506114059190611409565b5090565b61142b91905b8082111561142757600081600090555060010161140f565b5090565b905600a165627a7a72305820e8a0b40e04a676f100819668b4d850e9cc2930d01c5a34b29f76168c748cdce60029",
  "source": "pragma solidity ^0.4.24;\n\nimport \"openzeppelin-solidity/contracts/ownership/Ownable.sol\";\nimport \"openzeppelin-solidity/contracts/lifecycle/Pausable.sol\";\nimport \"./User.sol\";\nimport \"./ShastaMarket.sol\";\n\n /**\n  * @title SharedMapPrice\n  * This contracts attempts to allow registered users to add locations into a shared map,\n  * where each location is stored in IPFS. Users can add new locations and update their own\n  * locations.\n  *\n  * There is a Circuit Breaker contract in case an attack happens,\n  * that pauses the update and the addition of new locations.\n  * \n  * In this way if there is a security breach there is time to\n  * apply a patch and deploy a new contract with the desired version.\n  *\n  *  NOTES:\n  *  Current fields that Location JSON data could have:\n   * - latitude, longitude, chargerStatus, chargerName, userAddress, locationIndex\n  */\ncontract SharedMapPrice is Ownable, Pausable {\n  address public owner;\n  address public userContractAddress; \n  address public shastaMarketAddress;\n\n  ShastaMarket shastaMarket;\n\n  User public userStorage;\n\n  event NewLocation(string ipfsHash, uint index);\n  event LocationUpdate(string ipfsHash, uint index);\n\n  /**\n   * @dev Link user address to location indexes.\n   */\n  mapping(uint => address) public locationIndexByAddress;\n\n  /**\n   * @dev Store each location IPFS hash into an array.\n   */\n  string[] public locationsIpfsHashes;\n\n  /**\n   * @dev Throws if non-user is trying to interact with the contract method.\n   */\n  modifier onlyUser() {\n    require(userStorage.hasUser(msg.sender));\n    _;\n  }\n\n  /**\n    * @dev Constructor, initiate contract and sets the User contract address to be able to interact with it.\n    * @param contractAddress The deployed User contract address.\n    */\n  constructor(address contractAddress, address _shastaMarketAddress) public {\n    owner = msg.sender;\n\n    // Set the User contract instance\n    userContractAddress = contractAddress;\n    userStorage = User(userContractAddress);\n\n    // Set ShastaMarket contract instance\n    shastaMarketAddress = _shastaMarketAddress;\n    shastaMarket = ShastaMarket(shastaMarketAddress);\n  }\n\n  /**\n    * @dev Sets a new User contract address. Only callable by owner.\n    * @param contractAddress The new contract address.\n    */\n  function setUserContractAddress(address contractAddress) public onlyOwner {\n    userContractAddress = contractAddress;\n    userStorage = User(userContractAddress);\n  }\n\n  /**\n    * @dev Checks if location index belongs to user. Only for reflecting in UI. Ex: to show edit button in locations if location belongs to user.\n    */\n  function isLocationIndexFromUser(uint locationIndex) public view returns (bool){\n    require(locationIndex <= getLocationsLength() - 1);\n    return locationIndexByAddress[locationIndex] == msg.sender;\n  }\n\n  /**\n    * @dev Getter for getting the length of the locations. Used to know the length and be able to loop the locations outside Solidity.\n    * @return length The length of the current location array.\n    */\n  function getLocationsLength() public view returns(uint length) {\n    length = locationsIpfsHashes.length;\n  }\n\n  /**\n    * @dev Update a location. Users can only update their own locations if the contract is not paused.\n    * @param locationIpfsHash The IPFS hash that points to the new location data.\n    * @param index The index of the location data hash in locationsIpfsHashes.\n    * @return added Should return true if location is updated.\n    */\n  function updateLocation(string locationIpfsHash, uint index) public whenNotPaused onlyUser returns(bool) {\n    require(bytes(locationIpfsHash).length > 0 && index <= getLocationsLength() - 1);\n    require(isLocationIndexFromUser(index) == true);\n\n    locationsIpfsHashes[index] = locationIpfsHash;\n    emit LocationUpdate(locationIpfsHash, index);\n  }\n\n  /**\n    * @dev Update a location by the admin, in case a fake location is added. (Optional, for sanitize data until a review/score system is developed)\n    * @param locationIpfsHash The IPFS hash that points to the new location data.\n    * @param index The index of the location index in locationsIpfsHashes.\n    * @return added Should return true if location is updated.\n    */\n  function ownerUpdateLocation(string locationIpfsHash, uint index) public whenNotPaused onlyUser returns(bool) {\n    locationsIpfsHashes[index] = locationIpfsHash;\n    emit LocationUpdate(locationIpfsHash, index);\n  }\n}",
  "sourcePath": "/Users/ignasi/Documents/GitHub/ShastaOS/contracts/SharedMapPrice.sol",
  "compiler": {
    "name": "solc",
    "version": "0.4.24+commit.e67f0147.Emscripten.clang"
  },
  "schemaVersion": "2.0.0",
  "updatedAt": "2018-09-25T18:31:55.910Z"
}