{
  "contractName": "SharedMap",
  "abi": [
    {
      "constant": false,
      "inputs": [],
      "name": "unpause",
      "outputs": [],
      "payable": false,
      "stateMutability": "nonpayable",
      "type": "function"
    },
    {
      "constant": true,
      "inputs": [],
      "name": "paused",
      "outputs": [
        {
          "name": "",
          "type": "bool"
        }
      ],
      "payable": false,
      "stateMutability": "view",
      "type": "function"
    },
    {
      "constant": false,
      "inputs": [],
      "name": "renounceOwnership",
      "outputs": [],
      "payable": false,
      "stateMutability": "nonpayable",
      "type": "function"
    },
    {
      "constant": true,
      "inputs": [],
      "name": "userStorage",
      "outputs": [
        {
          "name": "",
          "type": "address"
        }
      ],
      "payable": false,
      "stateMutability": "view",
      "type": "function"
    },
    {
      "constant": true,
      "inputs": [
        {
          "name": "",
          "type": "uint256"
        }
      ],
      "name": "locationIndexByAddress",
      "outputs": [
        {
          "name": "",
          "type": "address"
        }
      ],
      "payable": false,
      "stateMutability": "view",
      "type": "function"
    },
    {
      "constant": false,
      "inputs": [],
      "name": "pause",
      "outputs": [],
      "payable": false,
      "stateMutability": "nonpayable",
      "type": "function"
    },
    {
      "constant": true,
      "inputs": [],
      "name": "owner",
      "outputs": [
        {
          "name": "",
          "type": "address"
        }
      ],
      "payable": false,
      "stateMutability": "view",
      "type": "function"
    },
    {
      "constant": true,
      "inputs": [],
      "name": "userContractAddress",
      "outputs": [
        {
          "name": "",
          "type": "address"
        }
      ],
      "payable": false,
      "stateMutability": "view",
      "type": "function"
    },
    {
      "constant": true,
      "inputs": [
        {
          "name": "",
          "type": "uint256"
        }
      ],
      "name": "locationsIpfsHashes",
      "outputs": [
        {
          "name": "",
          "type": "string"
        }
      ],
      "payable": false,
      "stateMutability": "view",
      "type": "function"
    },
    {
      "constant": false,
      "inputs": [
        {
          "name": "_newOwner",
          "type": "address"
        }
      ],
      "name": "transferOwnership",
      "outputs": [],
      "payable": false,
      "stateMutability": "nonpayable",
      "type": "function"
    },
    {
      "inputs": [
        {
          "name": "contractAddress",
          "type": "address"
        }
      ],
      "payable": false,
      "stateMutability": "nonpayable",
      "type": "constructor"
    },
    {
      "anonymous": false,
      "inputs": [
        {
          "indexed": false,
          "name": "ipfsHash",
          "type": "string"
        },
        {
          "indexed": false,
          "name": "index",
          "type": "uint256"
        }
      ],
      "name": "NewLocation",
      "type": "event"
    },
    {
      "anonymous": false,
      "inputs": [
        {
          "indexed": false,
          "name": "ipfsHash",
          "type": "string"
        },
        {
          "indexed": false,
          "name": "index",
          "type": "uint256"
        }
      ],
      "name": "LocationUpdate",
      "type": "event"
    },
    {
      "anonymous": false,
      "inputs": [],
      "name": "Paused",
      "type": "event"
    },
    {
      "anonymous": false,
      "inputs": [],
      "name": "Unpaused",
      "type": "event"
    },
    {
      "anonymous": false,
      "inputs": [
        {
          "indexed": true,
          "name": "previousOwner",
          "type": "address"
        }
      ],
      "name": "OwnershipRenounced",
      "type": "event"
    },
    {
      "anonymous": false,
      "inputs": [
        {
          "indexed": true,
          "name": "previousOwner",
          "type": "address"
        },
        {
          "indexed": true,
          "name": "newOwner",
          "type": "address"
        }
      ],
      "name": "OwnershipTransferred",
      "type": "event"
    },
    {
      "constant": false,
      "inputs": [
        {
          "name": "contractAddress",
          "type": "address"
        }
      ],
      "name": "setUserContractAddress",
      "outputs": [],
      "payable": false,
      "stateMutability": "nonpayable",
      "type": "function"
    },
    {
      "constant": true,
      "inputs": [
        {
          "name": "locationIndex",
          "type": "uint256"
        }
      ],
      "name": "isLocationIndexFromUser",
      "outputs": [
        {
          "name": "",
          "type": "bool"
        }
      ],
      "payable": false,
      "stateMutability": "view",
      "type": "function"
    },
    {
      "constant": true,
      "inputs": [],
      "name": "getLocationsLength",
      "outputs": [
        {
          "name": "length",
          "type": "uint256"
        }
      ],
      "payable": false,
      "stateMutability": "view",
      "type": "function"
    },
    {
      "constant": false,
      "inputs": [
        {
          "name": "locationIpfsHash",
          "type": "string"
        }
      ],
      "name": "addLocation",
      "outputs": [],
      "payable": false,
      "stateMutability": "nonpayable",
      "type": "function"
    },
    {
      "constant": false,
      "inputs": [
        {
          "name": "locationIpfsHash",
          "type": "string"
        },
        {
          "name": "index",
          "type": "uint256"
        }
      ],
      "name": "updateLocation",
      "outputs": [
        {
          "name": "",
          "type": "bool"
        }
      ],
      "payable": false,
      "stateMutability": "nonpayable",
      "type": "function"
    },
    {
      "constant": false,
      "inputs": [
        {
          "name": "locationIpfsHash",
          "type": "string"
        },
        {
          "name": "index",
          "type": "uint256"
        }
      ],
      "name": "ownerUpdateLocation",
      "outputs": [
        {
          "name": "",
          "type": "bool"
        }
      ],
      "payable": false,
      "stateMutability": "nonpayable",
      "type": "function"
    }
  ],
  "bytecode": "0x608060405260008060146101000a81548160ff02191690831515021790555034801561002a57600080fd5b506040516020806115ca83398101806040528101908080519060200190929190505050336000806101000a81548173ffffffffffffffffffffffffffffffffffffffff021916908373ffffffffffffffffffffffffffffffffffffffff16021790555033600160006101000a81548173ffffffffffffffffffffffffffffffffffffffff021916908373ffffffffffffffffffffffffffffffffffffffff16021790555080600260006101000a81548173ffffffffffffffffffffffffffffffffffffffff021916908373ffffffffffffffffffffffffffffffffffffffff160217905550600260009054906101000a900473ffffffffffffffffffffffffffffffffffffffff16600360006101000a81548173ffffffffffffffffffffffffffffffffffffffff021916908373ffffffffffffffffffffffffffffffffffffffff16021790555050611448806101826000396000f3006080604052600436106100e6576000357c0100000000000000000000000000000000000000000000000000000000900463ffffffff16806315aad572146100eb5780631d7e37ad146101765780633f4ba83a146101b95780635c975abb146101d05780635fddb088146101ff578063715018a61461026857806375e580791461027f5780637bdf5796146102d65780638456cb59146103435780638c9d97761461035a5780638da5cb5b146103e5578063a85b27f41461043c578063d92aabfc14610481578063e060e118146104d8578063e7f178a41461057e578063f2fde38b146105a9575b600080fd5b3480156100f757600080fd5b5061015c600480360381019080803590602001908201803590602001908080601f0160208091040260200160405190810160405280939291908181526020018383808284378201915050505050509192919290803590602001909291905050506105ec565b604051808215151515815260200191505060405180910390f35b34801561018257600080fd5b506101b7600480360381019080803573ffffffffffffffffffffffffffffffffffffffff1690602001909291905050506107e4565b005b3480156101c557600080fd5b506101ce6108e6565b005b3480156101dc57600080fd5b506101e56109a4565b604051808215151515815260200191505060405180910390f35b34801561020b57600080fd5b50610266600480360381019080803590602001908201803590602001908080601f01602080910402602001604051908101604052809392919081815260200183838082843782019150505050505091929192905050506109b7565b005b34801561027457600080fd5b5061027d610c2a565b005b34801561028b57600080fd5b50610294610d2c565b604051808273ffffffffffffffffffffffffffffffffffffffff1673ffffffffffffffffffffffffffffffffffffffff16815260200191505060405180910390f35b3480156102e257600080fd5b5061030160048036038101908080359060200190929190505050610d52565b604051808273ffffffffffffffffffffffffffffffffffffffff1673ffffffffffffffffffffffffffffffffffffffff16815260200191505060405180910390f35b34801561034f57600080fd5b50610358610d85565b005b34801561036657600080fd5b506103cb600480360381019080803590602001908201803590602001908080601f016020809104026020016040519081016040528093929190818152602001838380828437820191505050505050919291929080359060200190929190505050610e45565b604051808215151515815260200191505060405180910390f35b3480156103f157600080fd5b506103fa61107e565b604051808273ffffffffffffffffffffffffffffffffffffffff1673ffffffffffffffffffffffffffffffffffffffff16815260200191505060405180910390f35b34801561044857600080fd5b50610467600480360381019080803590602001909291905050506110a4565b604051808215151515815260200191505060405180910390f35b34801561048d57600080fd5b50610496611128565b604051808273ffffffffffffffffffffffffffffffffffffffff1673ffffffffffffffffffffffffffffffffffffffff16815260200191505060405180910390f35b3480156104e457600080fd5b506105036004803603810190808035906020019092919050505061114e565b6040518080602001828103825283818151815260200191508051906020019080838360005b83811015610543578082015181840152602081019050610528565b50505050905090810190601f1680156105705780820380516001836020036101000a031916815260200191505b509250505060405180910390f35b34801561058a57600080fd5b50610593611209565b6040518082815260200191505060405180910390f35b3480156105b557600080fd5b506105ea600480360381019080803573ffffffffffffffffffffffffffffffffffffffff169060200190929190505050611216565b005b60008060149054906101000a900460ff1615151561060957600080fd5b600360009054906101000a900473ffffffffffffffffffffffffffffffffffffffff1673ffffffffffffffffffffffffffffffffffffffff1663a6c4ec0e336040518263ffffffff167c0100000000000000000000000000000000000000000000000000000000028152600401808273ffffffffffffffffffffffffffffffffffffffff1673ffffffffffffffffffffffffffffffffffffffff168152602001915050602060405180830381600087803b1580156106c657600080fd5b505af11580156106da573d6000803e3d6000fd5b505050506040513d60208110156106f057600080fd5b8101908080519060200190929190505050151561070c57600080fd5b8260058381548110151561071c57fe5b906000526020600020019080519060200190610739929190611377565b507f5ff6b62a50b216f6a168a3c9ef546f852061593cd1c70b08982c99b83658053883836040518080602001838152602001828103825284818151815260200191508051906020019080838360005b838110156107a3578082015181840152602081019050610788565b50505050905090810190601f1680156107d05780820380516001836020036101000a031916815260200191505b50935050505060405180910390a192915050565b6000809054906101000a900473ffffffffffffffffffffffffffffffffffffffff1673ffffffffffffffffffffffffffffffffffffffff163373ffffffffffffffffffffffffffffffffffffffff1614151561083f57600080fd5b80600260006101000a81548173ffffffffffffffffffffffffffffffffffffffff021916908373ffffffffffffffffffffffffffffffffffffffff160217905550600260009054906101000a900473ffffffffffffffffffffffffffffffffffffffff16600360006101000a81548173ffffffffffffffffffffffffffffffffffffffff021916908373ffffffffffffffffffffffffffffffffffffffff16021790555050565b6000809054906101000a900473ffffffffffffffffffffffffffffffffffffffff1673ffffffffffffffffffffffffffffffffffffffff163373ffffffffffffffffffffffffffffffffffffffff1614151561094157600080fd5b600060149054906101000a900460ff16151561095c57600080fd5b60008060146101000a81548160ff0219169083151502179055507fa45f47fdea8a1efdd9029a5691c7f759c32b7c698632b563573e155625d1693360405160405180910390a1565b600060149054906101000a900460ff1681565b600080600060149054906101000a900460ff161515156109d657600080fd5b600360009054906101000a900473ffffffffffffffffffffffffffffffffffffffff1673ffffffffffffffffffffffffffffffffffffffff1663a6c4ec0e336040518263ffffffff167c0100000000000000000000000000000000000000000000000000000000028152600401808273ffffffffffffffffffffffffffffffffffffffff1673ffffffffffffffffffffffffffffffffffffffff168152602001915050602060405180830381600087803b158015610a9357600080fd5b505af1158015610aa7573d6000803e3d6000fd5b505050506040513d6020811015610abd57600080fd5b81019080805190602001909291905050501515610ad957600080fd5b60008351111515610ae957600080fd5b6005839080600181540180825580915050906001820390600052602060002001600090919290919091509080519060200190610b26929190611377565b509150600182039050336004600083815260200190815260200160002060006101000a81548173ffffffffffffffffffffffffffffffffffffffff021916908373ffffffffffffffffffffffffffffffffffffffff1602179055507fede887e77d7974223ca0dc75ded00e51b4f68682ab1fae302b7a5f6ebcd1c05f83826040518080602001838152602001828103825284818151815260200191508051906020019080838360005b83811015610bea578082015181840152602081019050610bcf565b50505050905090810190601f168015610c175780820380516001836020036101000a031916815260200191505b50935050505060405180910390a1505050565b6000809054906101000a900473ffffffffffffffffffffffffffffffffffffffff1673ffffffffffffffffffffffffffffffffffffffff163373ffffffffffffffffffffffffffffffffffffffff16141515610c8557600080fd5b6000809054906101000a900473ffffffffffffffffffffffffffffffffffffffff1673ffffffffffffffffffffffffffffffffffffffff167ff8df31144d9c2f0f6b59d69b8b98abd5459d07f2742c4df920b25aae33c6482060405160405180910390a260008060006101000a81548173ffffffffffffffffffffffffffffffffffffffff021916908373ffffffffffffffffffffffffffffffffffffffff160217905550565b600360009054906101000a900473ffffffffffffffffffffffffffffffffffffffff1681565b60046020528060005260406000206000915054906101000a900473ffffffffffffffffffffffffffffffffffffffff1681565b6000809054906101000a900473ffffffffffffffffffffffffffffffffffffffff1673ffffffffffffffffffffffffffffffffffffffff163373ffffffffffffffffffffffffffffffffffffffff16141515610de057600080fd5b600060149054906101000a900460ff16151515610dfc57600080fd5b6001600060146101000a81548160ff0219169083151502179055507f9e87fac88ff661f02d44f95383c817fece4bce600a3dab7a54406878b965e75260405160405180910390a1565b60008060149054906101000a900460ff16151515610e6257600080fd5b600360009054906101000a900473ffffffffffffffffffffffffffffffffffffffff1673ffffffffffffffffffffffffffffffffffffffff1663a6c4ec0e336040518263ffffffff167c0100000000000000000000000000000000000000000000000000000000028152600401808273ffffffffffffffffffffffffffffffffffffffff1673ffffffffffffffffffffffffffffffffffffffff168152602001915050602060405180830381600087803b158015610f1f57600080fd5b505af1158015610f33573d6000803e3d6000fd5b505050506040513d6020811015610f4957600080fd5b81019080805190602001909291905050501515610f6557600080fd5b60008351118015610f8057506001610f7b611209565b038211155b1515610f8b57600080fd5b60011515610f98836110a4565b1515141515610fa657600080fd5b82600583815481101515610fb657fe5b906000526020600020019080519060200190610fd3929190611377565b507f5ff6b62a50b216f6a168a3c9ef546f852061593cd1c70b08982c99b83658053883836040518080602001838152602001828103825284818151815260200191508051906020019080838360005b8381101561103d578082015181840152602081019050611022565b50505050905090810190601f16801561106a5780820380516001836020036101000a031916815260200191505b50935050505060405180910390a192915050565b600160009054906101000a900473ffffffffffffffffffffffffffffffffffffffff1681565b600060016110b0611209565b0382111515156110bf57600080fd5b3373ffffffffffffffffffffffffffffffffffffffff166004600084815260200190815260200160002060009054906101000a900473ffffffffffffffffffffffffffffffffffffffff1673ffffffffffffffffffffffffffffffffffffffff16149050919050565b600260009054906101000a900473ffffffffffffffffffffffffffffffffffffffff1681565b60058181548110151561115d57fe5b906000526020600020016000915090508054600181600116156101000203166002900480601f0160208091040260200160405190810160405280929190818152602001828054600181600116156101000203166002900480156112015780601f106111d657610100808354040283529160200191611201565b820191906000526020600020905b8154815290600101906020018083116111e457829003601f168201915b505050505081565b6000600580549050905090565b6000809054906101000a900473ffffffffffffffffffffffffffffffffffffffff1673ffffffffffffffffffffffffffffffffffffffff163373ffffffffffffffffffffffffffffffffffffffff1614151561127157600080fd5b61127a8161127d565b50565b600073ffffffffffffffffffffffffffffffffffffffff168173ffffffffffffffffffffffffffffffffffffffff16141515156112b957600080fd5b8073ffffffffffffffffffffffffffffffffffffffff166000809054906101000a900473ffffffffffffffffffffffffffffffffffffffff1673ffffffffffffffffffffffffffffffffffffffff167f8be0079c531659141344cd1fd0a4f28419497f9722a3daafe3b4186f6b6457e060405160405180910390a3806000806101000a81548173ffffffffffffffffffffffffffffffffffffffff021916908373ffffffffffffffffffffffffffffffffffffffff16021790555050565b828054600181600116156101000203166002900490600052602060002090601f016020900481019282601f106113b857805160ff19168380011785556113e6565b828001600101855582156113e6579182015b828111156113e55782518255916020019190600101906113ca565b5b5090506113f391906113f7565b5090565b61141991905b808211156114155760008160009055506001016113fd565b5090565b905600a165627a7a72305820ff14e2610b5257f065988c6f170ed377ef90800f6abed443e4f502afe6cb43bc0029",
  "source": "pragma solidity ^0.4.19;\n\nimport './OpenZeppelin/Ownable.sol';\nimport './OpenZeppelin/Pausable.sol';\nimport './User.sol';\n\n /**\n  * @title SharedMap\n  * This contracts attempts to allow registered users to add locations into a shared map,\n  * where each location is stored in IPFS. Users can add new locations and update their own\n  * locations.\n  *\n  * There is a Circuit Breaker contract in case an attack happens,\n  * that pauses the update and the addition of new locations.\n  * \n  * In this way if there is a security breach there is time to\n  * apply a patch and deploy a new contract with the desired version.\n  *\n  *  NOTES:\n  *  Current fields that Location JSON data could have:\n   * - latitude, longitude, chargerStatus, chargerName, userAddress, locationIndex\n  */\ncontract SharedMap is Ownable, Pausable {\n  address public owner;\n  address public userContractAddress; \n  User public userStorage;\n\n  event NewLocation(string ipfsHash, uint index);\n  event LocationUpdate(string ipfsHash, uint index);\n\n  /**\n   * @dev Link user address to location indexes.\n   */\n  mapping(uint => address) public locationIndexByAddress;\n\n  /**\n   * @dev Store each location IPFS hash into an array.\n   */\n  string[] public locationsIpfsHashes;\n\n  /**\n   * @dev Throws if non-user is trying to interact with the contract method.\n   */\n  modifier onlyUser() {\n    require(userStorage.hasUser(msg.sender));\n    _;\n  }\n\n  /**\n    * @dev Constructor, initiate contract and sets the User contract address to be able to interact with it.\n    * @param contractAddress The deployed User contract address.\n    */\n  constructor(address contractAddress) public {\n    owner = msg.sender;\n\n    // Set the User contract instance\n    userContractAddress = contractAddress;\n    userStorage = User(userContractAddress);\n  }\n\n  /**\n    * @dev Sets a new User contract address. Only callable by owner.\n    * @param contractAddress The new contract address.\n    */\n  function setUserContractAddress(address contractAddress) public onlyOwner {\n    userContractAddress = contractAddress;\n    userStorage = User(userContractAddress);\n  }\n\n  /**\n    * @dev Checks if location index belongs to user. Only for reflecting in UI. Ex: to show edit button in locations if location belongs to user.\n    */\n  function isLocationIndexFromUser(uint locationIndex) public view returns (bool){\n    require(locationIndex <= getLocationsLength() - 1);\n    return locationIndexByAddress[locationIndex] == msg.sender;\n  }\n\n  /**\n    * @dev Getter for getting the length of the locations. Used to know the length and be able to loop the locations outside Solidity.\n    * @return length The length of the current location array.\n    */\n  function getLocationsLength() public view returns(uint length) {\n    length = locationsIpfsHashes.length;\n  }\n\n  /**\n    * @dev Add a new location. Only registered users can add locations if the contract is not paused.\n    * @param locationIpfsHash The IPFS hash that points to the location data.\n    * @return added Should return true if location is added.\n    */\n  function addLocation(string locationIpfsHash) public whenNotPaused onlyUser {\n    require(bytes(locationIpfsHash).length > 0);\n    // Add relation between location index and msg.sender.\n    uint newLength = locationsIpfsHashes.push(locationIpfsHash);\n    uint newIndex = newLength - 1;\n    locationIndexByAddress[newIndex] = msg.sender;\n    emit NewLocation(locationIpfsHash, newIndex);\n  }\n\n  /**\n    * @dev Update a location. Users can only update their own locations if the contract is not paused.\n    * @param locationIpfsHash The IPFS hash that points to the new location data.\n    * @param index The index of the location data hash in locationsIpfsHashes.\n    * @return added Should return true if location is updated.\n    */\n  function updateLocation(string locationIpfsHash, uint index) public whenNotPaused onlyUser returns(bool) {\n    require(bytes(locationIpfsHash).length > 0 && index <= getLocationsLength() - 1);\n    require(isLocationIndexFromUser(index) == true);\n\n    locationsIpfsHashes[index] = locationIpfsHash;\n    emit LocationUpdate(locationIpfsHash, index);\n  }\n\n  /**\n    * @dev Update a location by the admin, in case a fake location is added. (Optional, for sanitize data until a review/score system is developed)\n    * @param locationIpfsHash The IPFS hash that points to the new location data.\n    * @param index The index of the location index in locationsIpfsHashes.\n    * @return added Should return true if location is updated.\n    */\n  function ownerUpdateLocation(string locationIpfsHash, uint index) public whenNotPaused onlyUser returns(bool) {\n    locationsIpfsHashes[index] = locationIpfsHash;\n    emit LocationUpdate(locationIpfsHash, index);\n  }\n}",
  "sourcePath": "/home/kartojal/repos/ShastaOS/contracts/SharedMap.sol",
  "compiler": {
    "name": "solc",
    "version": "0.4.24+commit.e67f0147.Emscripten.clang"
  },
  "schemaVersion": "2.0.1",
  "updatedAt": "2018-09-06T14:37:17.721Z"
}