{
  "contractName": "SharedMapPrice",
  "abi": [
    {
      "constant": true,
      "inputs": [],
      "name": "shastaMarketAddress",
      "outputs": [
        {
          "name": "",
          "type": "address"
        }
      ],
      "payable": false,
      "stateMutability": "view",
      "type": "function"
    },
    {
      "constant": false,
      "inputs": [],
      "name": "unpause",
      "outputs": [],
      "payable": false,
      "stateMutability": "nonpayable",
      "type": "function"
    },
    {
      "constant": true,
      "inputs": [
        {
          "name": "account",
          "type": "address"
        }
      ],
      "name": "isPauser",
      "outputs": [
        {
          "name": "",
          "type": "bool"
        }
      ],
      "payable": false,
      "stateMutability": "view",
      "type": "function"
    },
    {
      "constant": true,
      "inputs": [],
      "name": "paused",
      "outputs": [
        {
          "name": "",
          "type": "bool"
        }
      ],
      "payable": false,
      "stateMutability": "view",
      "type": "function"
    },
    {
      "constant": false,
      "inputs": [],
      "name": "renouncePauser",
      "outputs": [],
      "payable": false,
      "stateMutability": "nonpayable",
      "type": "function"
    },
    {
      "constant": false,
      "inputs": [],
      "name": "renounceOwnership",
      "outputs": [],
      "payable": false,
      "stateMutability": "nonpayable",
      "type": "function"
    },
    {
      "constant": true,
      "inputs": [],
      "name": "userStorage",
      "outputs": [
        {
          "name": "",
          "type": "address"
        }
      ],
      "payable": false,
      "stateMutability": "view",
      "type": "function"
    },
    {
      "constant": true,
      "inputs": [
        {
          "name": "",
          "type": "uint256"
        }
      ],
      "name": "locationIndexByAddress",
      "outputs": [
        {
          "name": "",
          "type": "address"
        }
      ],
      "payable": false,
      "stateMutability": "view",
      "type": "function"
    },
    {
      "constant": false,
      "inputs": [
        {
          "name": "account",
          "type": "address"
        }
      ],
      "name": "addPauser",
      "outputs": [],
      "payable": false,
      "stateMutability": "nonpayable",
      "type": "function"
    },
    {
      "constant": false,
      "inputs": [],
      "name": "pause",
      "outputs": [],
      "payable": false,
      "stateMutability": "nonpayable",
      "type": "function"
    },
    {
      "constant": true,
      "inputs": [],
      "name": "owner",
      "outputs": [
        {
          "name": "",
          "type": "address"
        }
      ],
      "payable": false,
      "stateMutability": "view",
      "type": "function"
    },
    {
      "constant": true,
      "inputs": [],
      "name": "isOwner",
      "outputs": [
        {
          "name": "",
          "type": "bool"
        }
      ],
      "payable": false,
      "stateMutability": "view",
      "type": "function"
    },
    {
      "constant": true,
      "inputs": [],
      "name": "userContractAddress",
      "outputs": [
        {
          "name": "",
          "type": "address"
        }
      ],
      "payable": false,
      "stateMutability": "view",
      "type": "function"
    },
    {
      "constant": true,
      "inputs": [
        {
          "name": "",
          "type": "uint256"
        }
      ],
      "name": "locationsIpfsHashes",
      "outputs": [
        {
          "name": "",
          "type": "string"
        }
      ],
      "payable": false,
      "stateMutability": "view",
      "type": "function"
    },
    {
      "constant": false,
      "inputs": [
        {
          "name": "newOwner",
          "type": "address"
        }
      ],
      "name": "transferOwnership",
      "outputs": [],
      "payable": false,
      "stateMutability": "nonpayable",
      "type": "function"
    },
    {
      "inputs": [
        {
          "name": "contractAddress",
          "type": "address"
        },
        {
          "name": "_shastaMarketAddress",
          "type": "address"
        }
      ],
      "payable": false,
      "stateMutability": "nonpayable",
      "type": "constructor"
    },
    {
      "anonymous": false,
      "inputs": [
        {
          "indexed": false,
          "name": "ipfsHash",
          "type": "string"
        },
        {
          "indexed": false,
          "name": "index",
          "type": "uint256"
        }
      ],
      "name": "NewLocation",
      "type": "event"
    },
    {
      "anonymous": false,
      "inputs": [
        {
          "indexed": false,
          "name": "ipfsHash",
          "type": "string"
        },
        {
          "indexed": false,
          "name": "index",
          "type": "uint256"
        }
      ],
      "name": "LocationUpdate",
      "type": "event"
    },
    {
      "anonymous": false,
      "inputs": [],
      "name": "Paused",
      "type": "event"
    },
    {
      "anonymous": false,
      "inputs": [],
      "name": "Unpaused",
      "type": "event"
    },
    {
      "anonymous": false,
      "inputs": [
        {
          "indexed": true,
          "name": "account",
          "type": "address"
        }
      ],
      "name": "PauserAdded",
      "type": "event"
    },
    {
      "anonymous": false,
      "inputs": [
        {
          "indexed": true,
          "name": "account",
          "type": "address"
        }
      ],
      "name": "PauserRemoved",
      "type": "event"
    },
    {
      "anonymous": false,
      "inputs": [
        {
          "indexed": true,
          "name": "previousOwner",
          "type": "address"
        }
      ],
      "name": "OwnershipRenounced",
      "type": "event"
    },
    {
      "anonymous": false,
      "inputs": [
        {
          "indexed": true,
          "name": "previousOwner",
          "type": "address"
        },
        {
          "indexed": true,
          "name": "newOwner",
          "type": "address"
        }
      ],
      "name": "OwnershipTransferred",
      "type": "event"
    },
    {
      "constant": false,
      "inputs": [
        {
          "name": "contractAddress",
          "type": "address"
        }
      ],
      "name": "setUserContractAddress",
      "outputs": [],
      "payable": false,
      "stateMutability": "nonpayable",
      "type": "function"
    },
    {
      "constant": true,
      "inputs": [
        {
          "name": "locationIndex",
          "type": "uint256"
        }
      ],
      "name": "isLocationIndexFromUser",
      "outputs": [
        {
          "name": "",
          "type": "bool"
        }
      ],
      "payable": false,
      "stateMutability": "view",
      "type": "function"
    },
    {
      "constant": true,
      "inputs": [],
      "name": "getLocationsLength",
      "outputs": [
        {
          "name": "length",
          "type": "uint256"
        }
      ],
      "payable": false,
      "stateMutability": "view",
      "type": "function"
    },
    {
      "constant": false,
      "inputs": [
        {
          "name": "price",
          "type": "uint256"
        },
        {
          "name": "locationIpfsHash",
          "type": "string"
        }
      ],
      "name": "addLocation",
      "outputs": [],
      "payable": false,
      "stateMutability": "nonpayable",
      "type": "function"
    },
    {
      "constant": false,
      "inputs": [
        {
          "name": "locationIpfsHash",
          "type": "string"
        },
        {
          "name": "index",
          "type": "uint256"
        }
      ],
      "name": "updateLocation",
      "outputs": [
        {
          "name": "",
          "type": "bool"
        }
      ],
      "payable": false,
      "stateMutability": "nonpayable",
      "type": "function"
    },
    {
      "constant": false,
      "inputs": [
        {
          "name": "locationIpfsHash",
          "type": "string"
        },
        {
          "name": "index",
          "type": "uint256"
        }
      ],
      "name": "ownerUpdateLocation",
      "outputs": [
        {
          "name": "",
          "type": "bool"
        }
      ],
      "payable": false,
      "stateMutability": "nonpayable",
      "type": "function"
    }
  ],
  "bytecode": "0x60806040526000600260006101000a81548160ff02191690831515021790555034801561002b57600080fd5b50604051604080611b238339810180604052810190808051906020019092919080519060200190929190505050336000806101000a81548173ffffffffffffffffffffffffffffffffffffffff021916908373ffffffffffffffffffffffffffffffffffffffff1602179055506100b9336001610249640100000000026115cc179091906401000000009004565b33600260016101000a81548173ffffffffffffffffffffffffffffffffffffffff021916908373ffffffffffffffffffffffffffffffffffffffff16021790555081600360006101000a81548173ffffffffffffffffffffffffffffffffffffffff021916908373ffffffffffffffffffffffffffffffffffffffff160217905550600360009054906101000a900473ffffffffffffffffffffffffffffffffffffffff16600660006101000a81548173ffffffffffffffffffffffffffffffffffffffff021916908373ffffffffffffffffffffffffffffffffffffffff16021790555080600460006101000a81548173ffffffffffffffffffffffffffffffffffffffff021916908373ffffffffffffffffffffffffffffffffffffffff160217905550600460009054906101000a900473ffffffffffffffffffffffffffffffffffffffff16600560006101000a81548173ffffffffffffffffffffffffffffffffffffffff021916908373ffffffffffffffffffffffffffffffffffffffff16021790555050506102e3565b600073ffffffffffffffffffffffffffffffffffffffff168173ffffffffffffffffffffffffffffffffffffffff161415151561028557600080fd5b60018260000160008373ffffffffffffffffffffffffffffffffffffffff1673ffffffffffffffffffffffffffffffffffffffff16815260200190815260200160002060006101000a81548160ff0219169083151502179055505050565b611831806102f26000396000f30060806040526004361061011d576000357c0100000000000000000000000000000000000000000000000000000000900463ffffffff16806315aad572146101225780631d7e37ad146101ad5780631e7c5a90146101f05780633f4ba83a1461024757806346fbf68e1461025e5780635c975abb146102b95780636ef8d66d146102e8578063715018a6146102ff57806375e5807914610316578063781a01be1461036d5780637bdf5796146103e057806382dc1ec41461044d5780638456cb59146104905780638c9d9776146104a75780638da5cb5b146105325780638f32d59b14610589578063a85b27f4146105b8578063d92aabfc146105fd578063e060e11814610654578063e7f178a4146106fa578063f2fde38b14610725575b600080fd5b34801561012e57600080fd5b50610193600480360381019080803590602001908201803590602001908080601f016020809104026020016040519081016040528093929190818152602001838380828437820191505050505050919291929080359060200190929190505050610768565b604051808215151515815260200191505060405180910390f35b3480156101b957600080fd5b506101ee600480360381019080803573ffffffffffffffffffffffffffffffffffffffff169060200190929190505050610961565b005b3480156101fc57600080fd5b50610205610a1b565b604051808273ffffffffffffffffffffffffffffffffffffffff1673ffffffffffffffffffffffffffffffffffffffff16815260200191505060405180910390f35b34801561025357600080fd5b5061025c610a41565b005b34801561026a57600080fd5b5061029f600480360381019080803573ffffffffffffffffffffffffffffffffffffffff169060200190929190505050610ab9565b604051808215151515815260200191505060405180910390f35b3480156102c557600080fd5b506102ce610ad6565b604051808215151515815260200191505060405180910390f35b3480156102f457600080fd5b506102fd610aed565b005b34801561030b57600080fd5b50610314610b03565b005b34801561032257600080fd5b5061032b610bbd565b604051808273ffffffffffffffffffffffffffffffffffffffff1673ffffffffffffffffffffffffffffffffffffffff16815260200191505060405180910390f35b34801561037957600080fd5b506103de60048036038101908080359060200190929190803590602001908201803590602001908080601f0160208091040260200160405190810160405280939291908181526020018383808284378201915050505050509192919290505050610be3565b005b3480156103ec57600080fd5b5061040b60048036038101908080359060200190929190505050610f3c565b604051808273ffffffffffffffffffffffffffffffffffffffff1673ffffffffffffffffffffffffffffffffffffffff16815260200191505060405180910390f35b34801561045957600080fd5b5061048e600480360381019080803573ffffffffffffffffffffffffffffffffffffffff169060200190929190505050610f6f565b005b34801561049c57600080fd5b506104a5610fdd565b005b3480156104b357600080fd5b50610518600480360381019080803590602001908201803590602001908080601f016020809104026020016040519081016040528093929190818152602001838380828437820191505050505050919291929080359060200190929190505050611056565b604051808215151515815260200191505060405180910390f35b34801561053e57600080fd5b50610547611290565b604051808273ffffffffffffffffffffffffffffffffffffffff1673ffffffffffffffffffffffffffffffffffffffff16815260200191505060405180910390f35b34801561059557600080fd5b5061059e6112b6565b604051808215151515815260200191505060405180910390f35b3480156105c457600080fd5b506105e36004803603810190808035906020019092919050505061130d565b604051808215151515815260200191505060405180910390f35b34801561060957600080fd5b50610612611391565b604051808273ffffffffffffffffffffffffffffffffffffffff1673ffffffffffffffffffffffffffffffffffffffff16815260200191505060405180910390f35b34801561066057600080fd5b5061067f600480360381019080803590602001909291905050506113b7565b6040518080602001828103825283818151815260200191508051906020019080838360005b838110156106bf5780820151818401526020810190506106a4565b50505050905090810190601f1680156106ec5780820380516001836020036101000a031916815260200191505b509250505060405180910390f35b34801561070657600080fd5b5061070f611472565b6040518082815260200191505060405180910390f35b34801561073157600080fd5b50610766600480360381019080803573ffffffffffffffffffffffffffffffffffffffff16906020019092919050505061147f565b005b6000600260009054906101000a900460ff1615151561078657600080fd5b600660009054906101000a900473ffffffffffffffffffffffffffffffffffffffff1673ffffffffffffffffffffffffffffffffffffffff1663a6c4ec0e336040518263ffffffff167c0100000000000000000000000000000000000000000000000000000000028152600401808273ffffffffffffffffffffffffffffffffffffffff1673ffffffffffffffffffffffffffffffffffffffff168152602001915050602060405180830381600087803b15801561084357600080fd5b505af1158015610857573d6000803e3d6000fd5b505050506040513d602081101561086d57600080fd5b8101908080519060200190929190505050151561088957600080fd5b8260088381548110151561089957fe5b9060005260206000200190805190602001906108b6929190611760565b507f5ff6b62a50b216f6a168a3c9ef546f852061593cd1c70b08982c99b83658053883836040518080602001838152602001828103825284818151815260200191508051906020019080838360005b83811015610920578082015181840152602081019050610905565b50505050905090810190601f16801561094d5780820380516001836020036101000a031916815260200191505b50935050505060405180910390a192915050565b6109696112b6565b151561097457600080fd5b80600360006101000a81548173ffffffffffffffffffffffffffffffffffffffff021916908373ffffffffffffffffffffffffffffffffffffffff160217905550600360009054906101000a900473ffffffffffffffffffffffffffffffffffffffff16600660006101000a81548173ffffffffffffffffffffffffffffffffffffffff021916908373ffffffffffffffffffffffffffffffffffffffff16021790555050565b600460009054906101000a900473ffffffffffffffffffffffffffffffffffffffff1681565b610a4a33610ab9565b1515610a5557600080fd5b600260009054906101000a900460ff161515610a7057600080fd5b6000600260006101000a81548160ff0219169083151502179055507fa45f47fdea8a1efdd9029a5691c7f759c32b7c698632b563573e155625d1693360405160405180910390a1565b6000610acf82600161149e90919063ffffffff16565b9050919050565b6000600260009054906101000a900460ff16905090565b610b0133600161153290919063ffffffff16565b565b610b0b6112b6565b1515610b1657600080fd5b6000809054906101000a900473ffffffffffffffffffffffffffffffffffffffff1673ffffffffffffffffffffffffffffffffffffffff167ff8df31144d9c2f0f6b59d69b8b98abd5459d07f2742c4df920b25aae33c6482060405160405180910390a260008060006101000a81548173ffffffffffffffffffffffffffffffffffffffff021916908373ffffffffffffffffffffffffffffffffffffffff160217905550565b600660009054906101000a900473ffffffffffffffffffffffffffffffffffffffff1681565b600080600260009054906101000a900460ff16151515610c0257600080fd5b600660009054906101000a900473ffffffffffffffffffffffffffffffffffffffff1673ffffffffffffffffffffffffffffffffffffffff1663a6c4ec0e336040518263ffffffff167c0100000000000000000000000000000000000000000000000000000000028152600401808273ffffffffffffffffffffffffffffffffffffffff1673ffffffffffffffffffffffffffffffffffffffff168152602001915050602060405180830381600087803b158015610cbf57600080fd5b505af1158015610cd3573d6000803e3d6000fd5b505050506040513d6020811015610ce957600080fd5b81019080805190602001909291905050501515610d0557600080fd5b60008351111515610d1557600080fd5b6008839080600181540180825580915050906001820390600052602060002001600090919290919091509080519060200190610d52929190611760565b509150600182039050336007600083815260200190815260200160002060006101000a81548173ffffffffffffffffffffffffffffffffffffffff021916908373ffffffffffffffffffffffffffffffffffffffff160217905550600560009054906101000a900473ffffffffffffffffffffffffffffffffffffffff1673ffffffffffffffffffffffffffffffffffffffff1663eaea2a853386846040518463ffffffff167c0100000000000000000000000000000000000000000000000000000000028152600401808473ffffffffffffffffffffffffffffffffffffffff1673ffffffffffffffffffffffffffffffffffffffff1681526020018381526020018281526020019350505050600060405180830381600087803b158015610e7a57600080fd5b505af1158015610e8e573d6000803e3d6000fd5b505050507fede887e77d7974223ca0dc75ded00e51b4f68682ab1fae302b7a5f6ebcd1c05f83826040518080602001838152602001828103825284818151815260200191508051906020019080838360005b83811015610efb578082015181840152602081019050610ee0565b50505050905090810190601f168015610f285780820380516001836020036101000a031916815260200191505b50935050505060405180910390a150505050565b60076020528060005260406000206000915054906101000a900473ffffffffffffffffffffffffffffffffffffffff1681565b610f7833610ab9565b1515610f8357600080fd5b610f978160016115cc90919063ffffffff16565b8073ffffffffffffffffffffffffffffffffffffffff167f6719d08c1888103bea251a4ed56406bd0c3e69723c8a1686e017e7bbe159b6f860405160405180910390a250565b610fe633610ab9565b1515610ff157600080fd5b600260009054906101000a900460ff1615151561100d57600080fd5b6001600260006101000a81548160ff0219169083151502179055507f9e87fac88ff661f02d44f95383c817fece4bce600a3dab7a54406878b965e75260405160405180910390a1565b6000600260009054906101000a900460ff1615151561107457600080fd5b600660009054906101000a900473ffffffffffffffffffffffffffffffffffffffff1673ffffffffffffffffffffffffffffffffffffffff1663a6c4ec0e336040518263ffffffff167c0100000000000000000000000000000000000000000000000000000000028152600401808273ffffffffffffffffffffffffffffffffffffffff1673ffffffffffffffffffffffffffffffffffffffff168152602001915050602060405180830381600087803b15801561113157600080fd5b505af1158015611145573d6000803e3d6000fd5b505050506040513d602081101561115b57600080fd5b8101908080519060200190929190505050151561117757600080fd5b600083511180156111925750600161118d611472565b038211155b151561119d57600080fd5b600115156111aa8361130d565b15151415156111b857600080fd5b826008838154811015156111c857fe5b9060005260206000200190805190602001906111e5929190611760565b507f5ff6b62a50b216f6a168a3c9ef546f852061593cd1c70b08982c99b83658053883836040518080602001838152602001828103825284818151815260200191508051906020019080838360005b8381101561124f578082015181840152602081019050611234565b50505050905090810190601f16801561127c5780820380516001836020036101000a031916815260200191505b50935050505060405180910390a192915050565b600260019054906101000a900473ffffffffffffffffffffffffffffffffffffffff1681565b60008060009054906101000a900473ffffffffffffffffffffffffffffffffffffffff1673ffffffffffffffffffffffffffffffffffffffff163373ffffffffffffffffffffffffffffffffffffffff1614905090565b60006001611319611472565b03821115151561132857600080fd5b3373ffffffffffffffffffffffffffffffffffffffff166007600084815260200190815260200160002060009054906101000a900473ffffffffffffffffffffffffffffffffffffffff1673ffffffffffffffffffffffffffffffffffffffff16149050919050565b600360009054906101000a900473ffffffffffffffffffffffffffffffffffffffff1681565b6008818154811015156113c657fe5b906000526020600020016000915090508054600181600116156101000203166002900480601f01602080910402602001604051908101604052809291908181526020018280546001816001161561010002031660029004801561146a5780601f1061143f5761010080835404028352916020019161146a565b820191906000526020600020905b81548152906001019060200180831161144d57829003601f168201915b505050505081565b6000600880549050905090565b6114876112b6565b151561149257600080fd5b61149b81611666565b50565b60008073ffffffffffffffffffffffffffffffffffffffff168273ffffffffffffffffffffffffffffffffffffffff16141515156114db57600080fd5b8260000160008373ffffffffffffffffffffffffffffffffffffffff1673ffffffffffffffffffffffffffffffffffffffff16815260200190815260200160002060009054906101000a900460ff16905092915050565b600073ffffffffffffffffffffffffffffffffffffffff168173ffffffffffffffffffffffffffffffffffffffff161415151561156e57600080fd5b60008260000160008373ffffffffffffffffffffffffffffffffffffffff1673ffffffffffffffffffffffffffffffffffffffff16815260200190815260200160002060006101000a81548160ff0219169083151502179055505050565b600073ffffffffffffffffffffffffffffffffffffffff168173ffffffffffffffffffffffffffffffffffffffff161415151561160857600080fd5b60018260000160008373ffffffffffffffffffffffffffffffffffffffff1673ffffffffffffffffffffffffffffffffffffffff16815260200190815260200160002060006101000a81548160ff0219169083151502179055505050565b600073ffffffffffffffffffffffffffffffffffffffff168173ffffffffffffffffffffffffffffffffffffffff16141515156116a257600080fd5b8073ffffffffffffffffffffffffffffffffffffffff166000809054906101000a900473ffffffffffffffffffffffffffffffffffffffff1673ffffffffffffffffffffffffffffffffffffffff167f8be0079c531659141344cd1fd0a4f28419497f9722a3daafe3b4186f6b6457e060405160405180910390a3806000806101000a81548173ffffffffffffffffffffffffffffffffffffffff021916908373ffffffffffffffffffffffffffffffffffffffff16021790555050565b828054600181600116156101000203166002900490600052602060002090601f016020900481019282601f106117a157805160ff19168380011785556117cf565b828001600101855582156117cf579182015b828111156117ce5782518255916020019190600101906117b3565b5b5090506117dc91906117e0565b5090565b61180291905b808211156117fe5760008160009055506001016117e6565b5090565b905600a165627a7a723058200aca9461986be93189d26a34dc9ccc7d0547658136fbaa2ba4b057bfc5107d570029",
  "source": "pragma solidity ^0.4.24;\n\nimport \"openzeppelin-solidity/contracts/ownership/Ownable.sol\";\nimport \"openzeppelin-solidity/contracts/lifecycle/Pausable.sol\";\nimport \"./User.sol\";\nimport \"./ShastaMarket.sol\";\n\n /**\n  * @title SharedMapPrice\n  * This contracts attempts to allow registered users to add locations into a shared map,\n  * where each location is stored in IPFS. Users can add new locations and update their own\n  * locations.\n  *\n  * There is a Circuit Breaker contract in case an attack happens,\n  * that pauses the update and the addition of new locations.\n  * \n  * In this way if there is a security breach there is time to\n  * apply a patch and deploy a new contract with the desired version.\n  *\n  *  NOTES:\n  *  Current fields that Location JSON data could have:\n   * - latitude, longitude, chargerStatus, chargerName, userAddress, locationIndex\n  */\ncontract SharedMapPrice is Ownable, Pausable {\n  address public owner;\n  address public userContractAddress; \n  address public shastaMarketAddress;\n\n  ShastaMarket shastaMarket;\n\n  User public userStorage;\n\n  event NewLocation(string ipfsHash, uint index);\n  event LocationUpdate(string ipfsHash, uint index);\n\n  /**\n   * @dev Link user address to location indexes.\n   */\n  mapping(uint => address) public locationIndexByAddress;\n\n  /**\n   * @dev Store each location IPFS hash into an array.\n   */\n  string[] public locationsIpfsHashes;\n\n  /**\n   * @dev Throws if non-user is trying to interact with the contract method.\n   */\n  modifier onlyUser() {\n    require(userStorage.hasUser(msg.sender));\n    _;\n  }\n\n  /**\n    * @dev Constructor, initiate contract and sets the User contract address to be able to interact with it.\n    * @param contractAddress The deployed User contract address.\n    */\n  constructor(address contractAddress, address _shastaMarketAddress) public {\n    owner = msg.sender;\n\n    // Set the User contract instance\n    userContractAddress = contractAddress;\n    userStorage = User(userContractAddress);\n\n    // Set ShastaMarket contract instance\n    shastaMarketAddress = _shastaMarketAddress;\n    shastaMarket = ShastaMarket(shastaMarketAddress);\n  }\n\n  /**\n    * @dev Sets a new User contract address. Only callable by owner.\n    * @param contractAddress The new contract address.\n    */\n  function setUserContractAddress(address contractAddress) public onlyOwner {\n    userContractAddress = contractAddress;\n    userStorage = User(userContractAddress);\n  }\n\n  /**\n    * @dev Checks if location index belongs to user. Only for reflecting in UI. Ex: to show edit button in locations if location belongs to user.\n    */\n  function isLocationIndexFromUser(uint locationIndex) public view returns (bool){\n    require(locationIndex <= getLocationsLength() - 1);\n    return locationIndexByAddress[locationIndex] == msg.sender;\n  }\n\n  /**\n    * @dev Getter for getting the length of the locations. Used to know the length and be able to loop the locations outside Solidity.\n    * @return length The length of the current location array.\n    */\n  function getLocationsLength() public view returns(uint length) {\n    length = locationsIpfsHashes.length;\n  }\n\n  /**\n    * @dev Add a new location. Only registered users can add locations if the contract is not paused.\n    * @param locationIpfsHash The IPFS hash that points to the location data.\n    * @return added Should return true if location is added.\n    */\n  function addLocation(uint price, string locationIpfsHash) public whenNotPaused onlyUser {\n    require(bytes(locationIpfsHash).length > 0);\n    // Add relation between location index and msg.sender.\n    uint newLength = locationsIpfsHashes.push(locationIpfsHash);\n    uint newIndex = newLength - 1;\n    locationIndexByAddress[newIndex] = msg.sender;\n    shastaMarket.createOfferFor(msg.sender, price, newIndex);\n    emit NewLocation(locationIpfsHash, newIndex);\n  }\n\n  /**\n    * @dev Update a location. Users can only update their own locations if the contract is not paused.\n    * @param locationIpfsHash The IPFS hash that points to the new location data.\n    * @param index The index of the location data hash in locationsIpfsHashes.\n    * @return added Should return true if location is updated.\n    */\n  function updateLocation(string locationIpfsHash, uint index) public whenNotPaused onlyUser returns(bool) {\n    require(bytes(locationIpfsHash).length > 0 && index <= getLocationsLength() - 1);\n    require(isLocationIndexFromUser(index) == true);\n\n    locationsIpfsHashes[index] = locationIpfsHash;\n    emit LocationUpdate(locationIpfsHash, index);\n  }\n\n  /**\n    * @dev Update a location by the admin, in case a fake location is added. (Optional, for sanitize data until a review/score system is developed)\n    * @param locationIpfsHash The IPFS hash that points to the new location data.\n    * @param index The index of the location index in locationsIpfsHashes.\n    * @return added Should return true if location is updated.\n    */\n  function ownerUpdateLocation(string locationIpfsHash, uint index) public whenNotPaused onlyUser returns(bool) {\n    locationsIpfsHashes[index] = locationIpfsHash;\n    emit LocationUpdate(locationIpfsHash, index);\n  }\n}",
  "sourcePath": "/home/kartojal/repos/ShastaOS/contracts/SharedMapPrice.sol",
  "compiler": {
    "name": "solc",
    "version": "0.4.24+commit.e67f0147.Emscripten.clang"
  },
  "schemaVersion": "3.0.0-beta.0",
  "updatedAt": "2018-09-15T23:51:32.568Z"
}