{
  "contractName": "SharedMap",
  "abi": [
    {
      "constant": false,
      "inputs": [],
      "name": "unpause",
      "outputs": [],
      "payable": false,
      "stateMutability": "nonpayable",
      "type": "function"
    },
    {
      "constant": true,
      "inputs": [
        {
          "name": "account",
          "type": "address"
        }
      ],
      "name": "isPauser",
      "outputs": [
        {
          "name": "",
          "type": "bool"
        }
      ],
      "payable": false,
      "stateMutability": "view",
      "type": "function"
    },
    {
      "constant": true,
      "inputs": [],
      "name": "paused",
      "outputs": [
        {
          "name": "",
          "type": "bool"
        }
      ],
      "payable": false,
      "stateMutability": "view",
      "type": "function"
    },
    {
      "constant": false,
      "inputs": [],
      "name": "renouncePauser",
      "outputs": [],
      "payable": false,
      "stateMutability": "nonpayable",
      "type": "function"
    },
    {
      "constant": false,
      "inputs": [],
      "name": "renounceOwnership",
      "outputs": [],
      "payable": false,
      "stateMutability": "nonpayable",
      "type": "function"
    },
    {
      "constant": true,
      "inputs": [],
      "name": "userStorage",
      "outputs": [
        {
          "name": "",
          "type": "address"
        }
      ],
      "payable": false,
      "stateMutability": "view",
      "type": "function"
    },
    {
      "constant": true,
      "inputs": [
        {
          "name": "",
          "type": "uint256"
        }
      ],
      "name": "locationIndexByAddress",
      "outputs": [
        {
          "name": "",
          "type": "address"
        }
      ],
      "payable": false,
      "stateMutability": "view",
      "type": "function"
    },
    {
      "constant": false,
      "inputs": [
        {
          "name": "account",
          "type": "address"
        }
      ],
      "name": "addPauser",
      "outputs": [],
      "payable": false,
      "stateMutability": "nonpayable",
      "type": "function"
    },
    {
      "constant": false,
      "inputs": [],
      "name": "pause",
      "outputs": [],
      "payable": false,
      "stateMutability": "nonpayable",
      "type": "function"
    },
    {
      "constant": true,
      "inputs": [],
      "name": "owner",
      "outputs": [
        {
          "name": "",
          "type": "address"
        }
      ],
      "payable": false,
      "stateMutability": "view",
      "type": "function"
    },
    {
      "constant": true,
      "inputs": [],
      "name": "isOwner",
      "outputs": [
        {
          "name": "",
          "type": "bool"
        }
      ],
      "payable": false,
      "stateMutability": "view",
      "type": "function"
    },
    {
      "constant": true,
      "inputs": [],
      "name": "userContractAddress",
      "outputs": [
        {
          "name": "",
          "type": "address"
        }
      ],
      "payable": false,
      "stateMutability": "view",
      "type": "function"
    },
    {
      "constant": true,
      "inputs": [
        {
          "name": "",
          "type": "uint256"
        }
      ],
      "name": "locationsIpfsHashes",
      "outputs": [
        {
          "name": "",
          "type": "string"
        }
      ],
      "payable": false,
      "stateMutability": "view",
      "type": "function"
    },
    {
      "constant": false,
      "inputs": [
        {
          "name": "newOwner",
          "type": "address"
        }
      ],
      "name": "transferOwnership",
      "outputs": [],
      "payable": false,
      "stateMutability": "nonpayable",
      "type": "function"
    },
    {
      "inputs": [
        {
          "name": "contractAddress",
          "type": "address"
        }
      ],
      "payable": false,
      "stateMutability": "nonpayable",
      "type": "constructor"
    },
    {
      "anonymous": false,
      "inputs": [
        {
          "indexed": false,
          "name": "ipfsHash",
          "type": "string"
        },
        {
          "indexed": false,
          "name": "index",
          "type": "uint256"
        }
      ],
      "name": "NewLocation",
      "type": "event"
    },
    {
      "anonymous": false,
      "inputs": [
        {
          "indexed": false,
          "name": "ipfsHash",
          "type": "string"
        },
        {
          "indexed": false,
          "name": "index",
          "type": "uint256"
        }
      ],
      "name": "LocationUpdate",
      "type": "event"
    },
    {
      "anonymous": false,
      "inputs": [],
      "name": "Paused",
      "type": "event"
    },
    {
      "anonymous": false,
      "inputs": [],
      "name": "Unpaused",
      "type": "event"
    },
    {
      "anonymous": false,
      "inputs": [
        {
          "indexed": true,
          "name": "account",
          "type": "address"
        }
      ],
      "name": "PauserAdded",
      "type": "event"
    },
    {
      "anonymous": false,
      "inputs": [
        {
          "indexed": true,
          "name": "account",
          "type": "address"
        }
      ],
      "name": "PauserRemoved",
      "type": "event"
    },
    {
      "anonymous": false,
      "inputs": [
        {
          "indexed": true,
          "name": "previousOwner",
          "type": "address"
        }
      ],
      "name": "OwnershipRenounced",
      "type": "event"
    },
    {
      "anonymous": false,
      "inputs": [
        {
          "indexed": true,
          "name": "previousOwner",
          "type": "address"
        },
        {
          "indexed": true,
          "name": "newOwner",
          "type": "address"
        }
      ],
      "name": "OwnershipTransferred",
      "type": "event"
    },
    {
      "constant": false,
      "inputs": [
        {
          "name": "contractAddress",
          "type": "address"
        }
      ],
      "name": "setUserContractAddress",
      "outputs": [],
      "payable": false,
      "stateMutability": "nonpayable",
      "type": "function"
    },
    {
      "constant": true,
      "inputs": [
        {
          "name": "locationIndex",
          "type": "uint256"
        }
      ],
      "name": "isLocationIndexFromUser",
      "outputs": [
        {
          "name": "",
          "type": "bool"
        }
      ],
      "payable": false,
      "stateMutability": "view",
      "type": "function"
    },
    {
      "constant": true,
      "inputs": [],
      "name": "getLocationsLength",
      "outputs": [
        {
          "name": "length",
          "type": "uint256"
        }
      ],
      "payable": false,
      "stateMutability": "view",
      "type": "function"
    },
    {
      "constant": false,
      "inputs": [
        {
          "name": "locationIpfsHash",
          "type": "string"
        }
      ],
      "name": "addLocation",
      "outputs": [],
      "payable": false,
      "stateMutability": "nonpayable",
      "type": "function"
    },
    {
      "constant": false,
      "inputs": [
        {
          "name": "locationIpfsHash",
          "type": "string"
        },
        {
          "name": "index",
          "type": "uint256"
        }
      ],
      "name": "updateLocation",
      "outputs": [
        {
          "name": "",
          "type": "bool"
        }
      ],
      "payable": false,
      "stateMutability": "nonpayable",
      "type": "function"
    },
    {
      "constant": false,
      "inputs": [
        {
          "name": "locationIpfsHash",
          "type": "string"
        },
        {
          "name": "index",
          "type": "uint256"
        }
      ],
      "name": "ownerUpdateLocation",
      "outputs": [
        {
          "name": "",
          "type": "bool"
        }
      ],
      "payable": false,
      "stateMutability": "nonpayable",
      "type": "function"
    }
  ],
  "bytecode": "0x60806040526000600260006101000a81548160ff02191690831515021790555034801561002b57600080fd5b506040516020806118fc83398101806040528101908080519060200190929190505050336000806101000a81548173ffffffffffffffffffffffffffffffffffffffff021916908373ffffffffffffffffffffffffffffffffffffffff1602179055506100af33600161019a64010000000002611454179091906401000000009004565b33600260016101000a81548173ffffffffffffffffffffffffffffffffffffffff021916908373ffffffffffffffffffffffffffffffffffffffff16021790555080600360006101000a81548173ffffffffffffffffffffffffffffffffffffffff021916908373ffffffffffffffffffffffffffffffffffffffff160217905550600360009054906101000a900473ffffffffffffffffffffffffffffffffffffffff16600460006101000a81548173ffffffffffffffffffffffffffffffffffffffff021916908373ffffffffffffffffffffffffffffffffffffffff16021790555050610234565b600073ffffffffffffffffffffffffffffffffffffffff168173ffffffffffffffffffffffffffffffffffffffff16141515156101d657600080fd5b60018260000160008373ffffffffffffffffffffffffffffffffffffffff1673ffffffffffffffffffffffffffffffffffffffff16815260200190815260200160002060006101000a81548160ff0219169083151502179055505050565b6116b9806102436000396000f300608060405260043610610112576000357c0100000000000000000000000000000000000000000000000000000000900463ffffffff16806315aad572146101175780631d7e37ad146101a25780633f4ba83a146101e557806346fbf68e146101fc5780635c975abb146102575780635fddb088146102865780636ef8d66d146102ef578063715018a61461030657806375e580791461031d5780637bdf57961461037457806382dc1ec4146103e15780638456cb59146104245780638c9d97761461043b5780638da5cb5b146104c65780638f32d59b1461051d578063a85b27f41461054c578063d92aabfc14610591578063e060e118146105e8578063e7f178a41461068e578063f2fde38b146106b9575b600080fd5b34801561012357600080fd5b50610188600480360381019080803590602001908201803590602001908080601f0160208091040260200160405190810160405280939291908181526020018383808284378201915050505050509192919290803590602001909291905050506106fc565b604051808215151515815260200191505060405180910390f35b3480156101ae57600080fd5b506101e3600480360381019080803573ffffffffffffffffffffffffffffffffffffffff1690602001909291905050506108f5565b005b3480156101f157600080fd5b506101fa6109af565b005b34801561020857600080fd5b5061023d600480360381019080803573ffffffffffffffffffffffffffffffffffffffff169060200190929190505050610a27565b604051808215151515815260200191505060405180910390f35b34801561026357600080fd5b5061026c610a44565b604051808215151515815260200191505060405180910390f35b34801561029257600080fd5b506102ed600480360381019080803590602001908201803590602001908080601f0160208091040260200160405190810160405280939291908181526020018383808284378201915050505050509192919290505050610a5b565b005b3480156102fb57600080fd5b50610304610cce565b005b34801561031257600080fd5b5061031b610ce4565b005b34801561032957600080fd5b50610332610d9e565b604051808273ffffffffffffffffffffffffffffffffffffffff1673ffffffffffffffffffffffffffffffffffffffff16815260200191505060405180910390f35b34801561038057600080fd5b5061039f60048036038101908080359060200190929190505050610dc4565b604051808273ffffffffffffffffffffffffffffffffffffffff1673ffffffffffffffffffffffffffffffffffffffff16815260200191505060405180910390f35b3480156103ed57600080fd5b50610422600480360381019080803573ffffffffffffffffffffffffffffffffffffffff169060200190929190505050610df7565b005b34801561043057600080fd5b50610439610e65565b005b34801561044757600080fd5b506104ac600480360381019080803590602001908201803590602001908080601f016020809104026020016040519081016040528093929190818152602001838380828437820191505050505050919291929080359060200190929190505050610ede565b604051808215151515815260200191505060405180910390f35b3480156104d257600080fd5b506104db611118565b604051808273ffffffffffffffffffffffffffffffffffffffff1673ffffffffffffffffffffffffffffffffffffffff16815260200191505060405180910390f35b34801561052957600080fd5b5061053261113e565b604051808215151515815260200191505060405180910390f35b34801561055857600080fd5b5061057760048036038101908080359060200190929190505050611195565b604051808215151515815260200191505060405180910390f35b34801561059d57600080fd5b506105a6611219565b604051808273ffffffffffffffffffffffffffffffffffffffff1673ffffffffffffffffffffffffffffffffffffffff16815260200191505060405180910390f35b3480156105f457600080fd5b506106136004803603810190808035906020019092919050505061123f565b6040518080602001828103825283818151815260200191508051906020019080838360005b83811015610653578082015181840152602081019050610638565b50505050905090810190601f1680156106805780820380516001836020036101000a031916815260200191505b509250505060405180910390f35b34801561069a57600080fd5b506106a36112fa565b6040518082815260200191505060405180910390f35b3480156106c557600080fd5b506106fa600480360381019080803573ffffffffffffffffffffffffffffffffffffffff169060200190929190505050611307565b005b6000600260009054906101000a900460ff1615151561071a57600080fd5b600460009054906101000a900473ffffffffffffffffffffffffffffffffffffffff1673ffffffffffffffffffffffffffffffffffffffff1663a6c4ec0e336040518263ffffffff167c0100000000000000000000000000000000000000000000000000000000028152600401808273ffffffffffffffffffffffffffffffffffffffff1673ffffffffffffffffffffffffffffffffffffffff168152602001915050602060405180830381600087803b1580156107d757600080fd5b505af11580156107eb573d6000803e3d6000fd5b505050506040513d602081101561080157600080fd5b8101908080519060200190929190505050151561081d57600080fd5b8260068381548110151561082d57fe5b90600052602060002001908051906020019061084a9291906115e8565b507f5ff6b62a50b216f6a168a3c9ef546f852061593cd1c70b08982c99b83658053883836040518080602001838152602001828103825284818151815260200191508051906020019080838360005b838110156108b4578082015181840152602081019050610899565b50505050905090810190601f1680156108e15780820380516001836020036101000a031916815260200191505b50935050505060405180910390a192915050565b6108fd61113e565b151561090857600080fd5b80600360006101000a81548173ffffffffffffffffffffffffffffffffffffffff021916908373ffffffffffffffffffffffffffffffffffffffff160217905550600360009054906101000a900473ffffffffffffffffffffffffffffffffffffffff16600460006101000a81548173ffffffffffffffffffffffffffffffffffffffff021916908373ffffffffffffffffffffffffffffffffffffffff16021790555050565b6109b833610a27565b15156109c357600080fd5b600260009054906101000a900460ff1615156109de57600080fd5b6000600260006101000a81548160ff0219169083151502179055507fa45f47fdea8a1efdd9029a5691c7f759c32b7c698632b563573e155625d1693360405160405180910390a1565b6000610a3d82600161132690919063ffffffff16565b9050919050565b6000600260009054906101000a900460ff16905090565b600080600260009054906101000a900460ff16151515610a7a57600080fd5b600460009054906101000a900473ffffffffffffffffffffffffffffffffffffffff1673ffffffffffffffffffffffffffffffffffffffff1663a6c4ec0e336040518263ffffffff167c0100000000000000000000000000000000000000000000000000000000028152600401808273ffffffffffffffffffffffffffffffffffffffff1673ffffffffffffffffffffffffffffffffffffffff168152602001915050602060405180830381600087803b158015610b3757600080fd5b505af1158015610b4b573d6000803e3d6000fd5b505050506040513d6020811015610b6157600080fd5b81019080805190602001909291905050501515610b7d57600080fd5b60008351111515610b8d57600080fd5b6006839080600181540180825580915050906001820390600052602060002001600090919290919091509080519060200190610bca9291906115e8565b509150600182039050336005600083815260200190815260200160002060006101000a81548173ffffffffffffffffffffffffffffffffffffffff021916908373ffffffffffffffffffffffffffffffffffffffff1602179055507fede887e77d7974223ca0dc75ded00e51b4f68682ab1fae302b7a5f6ebcd1c05f83826040518080602001838152602001828103825284818151815260200191508051906020019080838360005b83811015610c8e578082015181840152602081019050610c73565b50505050905090810190601f168015610cbb5780820380516001836020036101000a031916815260200191505b50935050505060405180910390a1505050565b610ce23360016113ba90919063ffffffff16565b565b610cec61113e565b1515610cf757600080fd5b6000809054906101000a900473ffffffffffffffffffffffffffffffffffffffff1673ffffffffffffffffffffffffffffffffffffffff167ff8df31144d9c2f0f6b59d69b8b98abd5459d07f2742c4df920b25aae33c6482060405160405180910390a260008060006101000a81548173ffffffffffffffffffffffffffffffffffffffff021916908373ffffffffffffffffffffffffffffffffffffffff160217905550565b600460009054906101000a900473ffffffffffffffffffffffffffffffffffffffff1681565b60056020528060005260406000206000915054906101000a900473ffffffffffffffffffffffffffffffffffffffff1681565b610e0033610a27565b1515610e0b57600080fd5b610e1f81600161145490919063ffffffff16565b8073ffffffffffffffffffffffffffffffffffffffff167f6719d08c1888103bea251a4ed56406bd0c3e69723c8a1686e017e7bbe159b6f860405160405180910390a250565b610e6e33610a27565b1515610e7957600080fd5b600260009054906101000a900460ff16151515610e9557600080fd5b6001600260006101000a81548160ff0219169083151502179055507f9e87fac88ff661f02d44f95383c817fece4bce600a3dab7a54406878b965e75260405160405180910390a1565b6000600260009054906101000a900460ff16151515610efc57600080fd5b600460009054906101000a900473ffffffffffffffffffffffffffffffffffffffff1673ffffffffffffffffffffffffffffffffffffffff1663a6c4ec0e336040518263ffffffff167c0100000000000000000000000000000000000000000000000000000000028152600401808273ffffffffffffffffffffffffffffffffffffffff1673ffffffffffffffffffffffffffffffffffffffff168152602001915050602060405180830381600087803b158015610fb957600080fd5b505af1158015610fcd573d6000803e3d6000fd5b505050506040513d6020811015610fe357600080fd5b81019080805190602001909291905050501515610fff57600080fd5b6000835111801561101a575060016110156112fa565b038211155b151561102557600080fd5b6001151561103283611195565b151514151561104057600080fd5b8260068381548110151561105057fe5b90600052602060002001908051906020019061106d9291906115e8565b507f5ff6b62a50b216f6a168a3c9ef546f852061593cd1c70b08982c99b83658053883836040518080602001838152602001828103825284818151815260200191508051906020019080838360005b838110156110d75780820151818401526020810190506110bc565b50505050905090810190601f1680156111045780820380516001836020036101000a031916815260200191505b50935050505060405180910390a192915050565b600260019054906101000a900473ffffffffffffffffffffffffffffffffffffffff1681565b60008060009054906101000a900473ffffffffffffffffffffffffffffffffffffffff1673ffffffffffffffffffffffffffffffffffffffff163373ffffffffffffffffffffffffffffffffffffffff1614905090565b600060016111a16112fa565b0382111515156111b057600080fd5b3373ffffffffffffffffffffffffffffffffffffffff166005600084815260200190815260200160002060009054906101000a900473ffffffffffffffffffffffffffffffffffffffff1673ffffffffffffffffffffffffffffffffffffffff16149050919050565b600360009054906101000a900473ffffffffffffffffffffffffffffffffffffffff1681565b60068181548110151561124e57fe5b906000526020600020016000915090508054600181600116156101000203166002900480601f0160208091040260200160405190810160405280929190818152602001828054600181600116156101000203166002900480156112f25780601f106112c7576101008083540402835291602001916112f2565b820191906000526020600020905b8154815290600101906020018083116112d557829003601f168201915b505050505081565b6000600680549050905090565b61130f61113e565b151561131a57600080fd5b611323816114ee565b50565b60008073ffffffffffffffffffffffffffffffffffffffff168273ffffffffffffffffffffffffffffffffffffffff161415151561136357600080fd5b8260000160008373ffffffffffffffffffffffffffffffffffffffff1673ffffffffffffffffffffffffffffffffffffffff16815260200190815260200160002060009054906101000a900460ff16905092915050565b600073ffffffffffffffffffffffffffffffffffffffff168173ffffffffffffffffffffffffffffffffffffffff16141515156113f657600080fd5b60008260000160008373ffffffffffffffffffffffffffffffffffffffff1673ffffffffffffffffffffffffffffffffffffffff16815260200190815260200160002060006101000a81548160ff0219169083151502179055505050565b600073ffffffffffffffffffffffffffffffffffffffff168173ffffffffffffffffffffffffffffffffffffffff161415151561149057600080fd5b60018260000160008373ffffffffffffffffffffffffffffffffffffffff1673ffffffffffffffffffffffffffffffffffffffff16815260200190815260200160002060006101000a81548160ff0219169083151502179055505050565b600073ffffffffffffffffffffffffffffffffffffffff168173ffffffffffffffffffffffffffffffffffffffff161415151561152a57600080fd5b8073ffffffffffffffffffffffffffffffffffffffff166000809054906101000a900473ffffffffffffffffffffffffffffffffffffffff1673ffffffffffffffffffffffffffffffffffffffff167f8be0079c531659141344cd1fd0a4f28419497f9722a3daafe3b4186f6b6457e060405160405180910390a3806000806101000a81548173ffffffffffffffffffffffffffffffffffffffff021916908373ffffffffffffffffffffffffffffffffffffffff16021790555050565b828054600181600116156101000203166002900490600052602060002090601f016020900481019282601f1061162957805160ff1916838001178555611657565b82800160010185558215611657579182015b8281111561165657825182559160200191906001019061163b565b5b5090506116649190611668565b5090565b61168a91905b8082111561168657600081600090555060010161166e565b5090565b905600a165627a7a723058205a1de40481a464c0fb94fbc10883b73e8454341c6aa2faf6a3c2f61986f11fa10029",
  "source": "pragma solidity ^0.4.24;\n\nimport \"openzeppelin-solidity/contracts/ownership/Ownable.sol\";\nimport \"openzeppelin-solidity/contracts/lifecycle/Pausable.sol\";\nimport \"./User.sol\";\n\n /**\n  * @title SharedMap\n  * This contracts attempts to allow registered users to add locations into a shared map,\n  * where each location is stored in IPFS. Users can add new locations and update their own\n  * locations.\n  *\n  * There is a Circuit Breaker contract in case an attack happens,\n  * that pauses the update and the addition of new locations.\n  * \n  * In this way if there is a security breach there is time to\n  * apply a patch and deploy a new contract with the desired version.\n  *\n  *  NOTES:\n  *  Current fields that Location JSON data could have:\n   * - latitude, longitude, chargerStatus, chargerName, userAddress, locationIndex\n  */\ncontract SharedMap is Ownable, Pausable {\n  address public owner;\n  address public userContractAddress; \n  User public userStorage;\n\n  event NewLocation(string ipfsHash, uint index);\n  event LocationUpdate(string ipfsHash, uint index);\n\n  /**\n   * @dev Link user address to location indexes.\n   */\n  mapping(uint => address) public locationIndexByAddress;\n\n  /**\n   * @dev Store each location IPFS hash into an array.\n   */\n  string[] public locationsIpfsHashes;\n\n  /**\n   * @dev Throws if non-user is trying to interact with the contract method.\n   */\n  modifier onlyUser() {\n    require(userStorage.hasUser(msg.sender));\n    _;\n  }\n\n  /**\n    * @dev Constructor, initiate contract and sets the User contract address to be able to interact with it.\n    * @param contractAddress The deployed User contract address.\n    */\n  constructor(address contractAddress) public {\n    owner = msg.sender;\n\n    // Set the User contract instance\n    userContractAddress = contractAddress;\n    userStorage = User(userContractAddress);\n  }\n\n  /**\n    * @dev Sets a new User contract address. Only callable by owner.\n    * @param contractAddress The new contract address.\n    */\n  function setUserContractAddress(address contractAddress) public onlyOwner {\n    userContractAddress = contractAddress;\n    userStorage = User(userContractAddress);\n  }\n\n  /**\n    * @dev Checks if location index belongs to user. Only for reflecting in UI. Ex: to show edit button in locations if location belongs to user.\n    */\n  function isLocationIndexFromUser(uint locationIndex) public view returns (bool){\n    require(locationIndex <= getLocationsLength() - 1);\n    return locationIndexByAddress[locationIndex] == msg.sender;\n  }\n\n  /**\n    * @dev Getter for getting the length of the locations. Used to know the length and be able to loop the locations outside Solidity.\n    * @return length The length of the current location array.\n    */\n  function getLocationsLength() public view returns(uint length) {\n    length = locationsIpfsHashes.length;\n  }\n\n  /**\n    * @dev Add a new location. Only registered users can add locations if the contract is not paused.\n    * @param locationIpfsHash The IPFS hash that points to the location data.\n    * @return added Should return true if location is added.\n    */\n  function addLocation(string locationIpfsHash) public whenNotPaused onlyUser {\n    require(bytes(locationIpfsHash).length > 0);\n    // Add relation between location index and msg.sender.\n    uint newLength = locationsIpfsHashes.push(locationIpfsHash);\n    uint newIndex = newLength - 1;\n    locationIndexByAddress[newIndex] = msg.sender;\n    emit NewLocation(locationIpfsHash, newIndex);\n  }\n\n  /**\n    * @dev Update a location. Users can only update their own locations if the contract is not paused.\n    * @param locationIpfsHash The IPFS hash that points to the new location data.\n    * @param index The index of the location data hash in locationsIpfsHashes.\n    * @return added Should return true if location is updated.\n    */\n  function updateLocation(string locationIpfsHash, uint index) public whenNotPaused onlyUser returns(bool) {\n    require(bytes(locationIpfsHash).length > 0 && index <= getLocationsLength() - 1);\n    require(isLocationIndexFromUser(index) == true);\n\n    locationsIpfsHashes[index] = locationIpfsHash;\n    emit LocationUpdate(locationIpfsHash, index);\n  }\n\n  /**\n    * @dev Update a location by the admin, in case a fake location is added. (Optional, for sanitize data until a review/score system is developed)\n    * @param locationIpfsHash The IPFS hash that points to the new location data.\n    * @param index The index of the location index in locationsIpfsHashes.\n    * @return added Should return true if location is updated.\n    */\n  function ownerUpdateLocation(string locationIpfsHash, uint index) public whenNotPaused onlyUser returns(bool) {\n    locationsIpfsHashes[index] = locationIpfsHash;\n    emit LocationUpdate(locationIpfsHash, index);\n  }\n}",
  "sourcePath": "/home/kartojal/repos/ShastaOS/contracts/SharedMap.sol",
  "compiler": {
    "name": "solc",
    "version": "0.4.24+commit.e67f0147.Emscripten.clang"
  },
  "schemaVersion": "3.0.0-beta.0",
  "updatedAt": "2018-09-16T12:40:06.038Z"
}