{
  "contractName": "SharedMapPrice",
  "abi": [
    {
      "constant": true,
      "inputs": [],
      "name": "shastaMarketAddress",
      "outputs": [
        {
          "name": "",
          "type": "address"
        }
      ],
      "payable": false,
      "stateMutability": "view",
      "type": "function"
    },
    {
      "constant": false,
      "inputs": [],
      "name": "unpause",
      "outputs": [],
      "payable": false,
      "stateMutability": "nonpayable",
      "type": "function"
    },
    {
      "constant": true,
      "inputs": [],
      "name": "paused",
      "outputs": [
        {
          "name": "",
          "type": "bool"
        }
      ],
      "payable": false,
      "stateMutability": "view",
      "type": "function"
    },
    {
      "constant": false,
      "inputs": [],
      "name": "renounceOwnership",
      "outputs": [],
      "payable": false,
      "stateMutability": "nonpayable",
      "type": "function"
    },
    {
      "constant": true,
      "inputs": [],
      "name": "userStorage",
      "outputs": [
        {
          "name": "",
          "type": "address"
        }
      ],
      "payable": false,
      "stateMutability": "view",
      "type": "function"
    },
    {
      "constant": true,
      "inputs": [
        {
          "name": "",
          "type": "uint256"
        }
      ],
      "name": "locationIndexByAddress",
      "outputs": [
        {
          "name": "",
          "type": "address"
        }
      ],
      "payable": false,
      "stateMutability": "view",
      "type": "function"
    },
    {
      "constant": false,
      "inputs": [],
      "name": "pause",
      "outputs": [],
      "payable": false,
      "stateMutability": "nonpayable",
      "type": "function"
    },
    {
      "constant": true,
      "inputs": [],
      "name": "owner",
      "outputs": [
        {
          "name": "",
          "type": "address"
        }
      ],
      "payable": false,
      "stateMutability": "view",
      "type": "function"
    },
    {
      "constant": true,
      "inputs": [],
      "name": "userContractAddress",
      "outputs": [
        {
          "name": "",
          "type": "address"
        }
      ],
      "payable": false,
      "stateMutability": "view",
      "type": "function"
    },
    {
      "constant": true,
      "inputs": [
        {
          "name": "",
          "type": "uint256"
        }
      ],
      "name": "locationsIpfsHashes",
      "outputs": [
        {
          "name": "",
          "type": "string"
        }
      ],
      "payable": false,
      "stateMutability": "view",
      "type": "function"
    },
    {
      "constant": false,
      "inputs": [
        {
          "name": "_newOwner",
          "type": "address"
        }
      ],
      "name": "transferOwnership",
      "outputs": [],
      "payable": false,
      "stateMutability": "nonpayable",
      "type": "function"
    },
    {
      "inputs": [
        {
          "name": "contractAddress",
          "type": "address"
        },
        {
          "name": "_shastaMarketAddress",
          "type": "address"
        }
      ],
      "payable": false,
      "stateMutability": "nonpayable",
      "type": "constructor"
    },
    {
      "anonymous": false,
      "inputs": [
        {
          "indexed": false,
          "name": "ipfsHash",
          "type": "string"
        },
        {
          "indexed": false,
          "name": "index",
          "type": "uint256"
        }
      ],
      "name": "NewLocation",
      "type": "event"
    },
    {
      "anonymous": false,
      "inputs": [
        {
          "indexed": false,
          "name": "ipfsHash",
          "type": "string"
        },
        {
          "indexed": false,
          "name": "index",
          "type": "uint256"
        }
      ],
      "name": "LocationUpdate",
      "type": "event"
    },
    {
      "anonymous": false,
      "inputs": [],
      "name": "Paused",
      "type": "event"
    },
    {
      "anonymous": false,
      "inputs": [],
      "name": "Unpaused",
      "type": "event"
    },
    {
      "anonymous": false,
      "inputs": [
        {
          "indexed": true,
          "name": "previousOwner",
          "type": "address"
        }
      ],
      "name": "OwnershipRenounced",
      "type": "event"
    },
    {
      "anonymous": false,
      "inputs": [
        {
          "indexed": true,
          "name": "previousOwner",
          "type": "address"
        },
        {
          "indexed": true,
          "name": "newOwner",
          "type": "address"
        }
      ],
      "name": "OwnershipTransferred",
      "type": "event"
    },
    {
      "constant": false,
      "inputs": [
        {
          "name": "contractAddress",
          "type": "address"
        }
      ],
      "name": "setUserContractAddress",
      "outputs": [],
      "payable": false,
      "stateMutability": "nonpayable",
      "type": "function"
    },
    {
      "constant": true,
      "inputs": [
        {
          "name": "locationIndex",
          "type": "uint256"
        }
      ],
      "name": "isLocationIndexFromUser",
      "outputs": [
        {
          "name": "",
          "type": "bool"
        }
      ],
      "payable": false,
      "stateMutability": "view",
      "type": "function"
    },
    {
      "constant": true,
      "inputs": [],
      "name": "getLocationsLength",
      "outputs": [
        {
          "name": "length",
          "type": "uint256"
        }
      ],
      "payable": false,
      "stateMutability": "view",
      "type": "function"
    },
    {
      "constant": false,
      "inputs": [
        {
          "name": "price",
          "type": "uint256"
        },
        {
          "name": "locationIpfsHash",
          "type": "string"
        }
      ],
      "name": "addLocation",
      "outputs": [],
      "payable": false,
      "stateMutability": "nonpayable",
      "type": "function"
    },
    {
      "constant": false,
      "inputs": [
        {
          "name": "locationIpfsHash",
          "type": "string"
        },
        {
          "name": "index",
          "type": "uint256"
        }
      ],
      "name": "updateLocation",
      "outputs": [
        {
          "name": "",
          "type": "bool"
        }
      ],
      "payable": false,
      "stateMutability": "nonpayable",
      "type": "function"
    },
    {
      "constant": false,
      "inputs": [
        {
          "name": "locationIpfsHash",
          "type": "string"
        },
        {
          "name": "index",
          "type": "uint256"
        }
      ],
      "name": "ownerUpdateLocation",
      "outputs": [
        {
          "name": "",
          "type": "bool"
        }
      ],
      "payable": false,
      "stateMutability": "nonpayable",
      "type": "function"
    }
  ],
  "bytecode": "0x608060405260008060146101000a81548160ff02191690831515021790555034801561002a57600080fd5b506040516040806117f18339810180604052810190808051906020019092919080519060200190929190505050336000806101000a81548173ffffffffffffffffffffffffffffffffffffffff021916908373ffffffffffffffffffffffffffffffffffffffff16021790555033600160006101000a81548173ffffffffffffffffffffffffffffffffffffffff021916908373ffffffffffffffffffffffffffffffffffffffff16021790555081600260006101000a81548173ffffffffffffffffffffffffffffffffffffffff021916908373ffffffffffffffffffffffffffffffffffffffff160217905550600260009054906101000a900473ffffffffffffffffffffffffffffffffffffffff16600560006101000a81548173ffffffffffffffffffffffffffffffffffffffff021916908373ffffffffffffffffffffffffffffffffffffffff16021790555080600360006101000a81548173ffffffffffffffffffffffffffffffffffffffff021916908373ffffffffffffffffffffffffffffffffffffffff160217905550600360009054906101000a900473ffffffffffffffffffffffffffffffffffffffff16600460006101000a81548173ffffffffffffffffffffffffffffffffffffffff021916908373ffffffffffffffffffffffffffffffffffffffff16021790555050506115c0806102316000396000f3006080604052600436106100f1576000357c0100000000000000000000000000000000000000000000000000000000900463ffffffff16806315aad572146100f65780631d7e37ad146101815780631e7c5a90146101c45780633f4ba83a1461021b5780635c975abb14610232578063715018a61461026157806375e5807914610278578063781a01be146102cf5780637bdf5796146103425780638456cb59146103af5780638c9d9776146103c65780638da5cb5b14610451578063a85b27f4146104a8578063d92aabfc146104ed578063e060e11814610544578063e7f178a4146105ea578063f2fde38b14610615575b600080fd5b34801561010257600080fd5b50610167600480360381019080803590602001908201803590602001908080601f016020809104026020016040519081016040528093929190818152602001838380828437820191505050505050919291929080359060200190929190505050610658565b604051808215151515815260200191505060405180910390f35b34801561018d57600080fd5b506101c2600480360381019080803573ffffffffffffffffffffffffffffffffffffffff169060200190929190505050610850565b005b3480156101d057600080fd5b506101d9610952565b604051808273ffffffffffffffffffffffffffffffffffffffff1673ffffffffffffffffffffffffffffffffffffffff16815260200191505060405180910390f35b34801561022757600080fd5b50610230610978565b005b34801561023e57600080fd5b50610247610a36565b604051808215151515815260200191505060405180910390f35b34801561026d57600080fd5b50610276610a49565b005b34801561028457600080fd5b5061028d610b4b565b604051808273ffffffffffffffffffffffffffffffffffffffff1673ffffffffffffffffffffffffffffffffffffffff16815260200191505060405180910390f35b3480156102db57600080fd5b5061034060048036038101908080359060200190929190803590602001908201803590602001908080601f0160208091040260200160405190810160405280939291908181526020018383808284378201915050505050509192919290505050610b71565b005b34801561034e57600080fd5b5061036d60048036038101908080359060200190929190505050610eca565b604051808273ffffffffffffffffffffffffffffffffffffffff1673ffffffffffffffffffffffffffffffffffffffff16815260200191505060405180910390f35b3480156103bb57600080fd5b506103c4610efd565b005b3480156103d257600080fd5b50610437600480360381019080803590602001908201803590602001908080601f016020809104026020016040519081016040528093929190818152602001838380828437820191505050505050919291929080359060200190929190505050610fbd565b604051808215151515815260200191505060405180910390f35b34801561045d57600080fd5b506104666111f6565b604051808273ffffffffffffffffffffffffffffffffffffffff1673ffffffffffffffffffffffffffffffffffffffff16815260200191505060405180910390f35b3480156104b457600080fd5b506104d36004803603810190808035906020019092919050505061121c565b604051808215151515815260200191505060405180910390f35b3480156104f957600080fd5b506105026112a0565b604051808273ffffffffffffffffffffffffffffffffffffffff1673ffffffffffffffffffffffffffffffffffffffff16815260200191505060405180910390f35b34801561055057600080fd5b5061056f600480360381019080803590602001909291905050506112c6565b6040518080602001828103825283818151815260200191508051906020019080838360005b838110156105af578082015181840152602081019050610594565b50505050905090810190601f1680156105dc5780820380516001836020036101000a031916815260200191505b509250505060405180910390f35b3480156105f657600080fd5b506105ff611381565b6040518082815260200191505060405180910390f35b34801561062157600080fd5b50610656600480360381019080803573ffffffffffffffffffffffffffffffffffffffff16906020019092919050505061138e565b005b60008060149054906101000a900460ff1615151561067557600080fd5b600560009054906101000a900473ffffffffffffffffffffffffffffffffffffffff1673ffffffffffffffffffffffffffffffffffffffff1663a6c4ec0e336040518263ffffffff167c0100000000000000000000000000000000000000000000000000000000028152600401808273ffffffffffffffffffffffffffffffffffffffff1673ffffffffffffffffffffffffffffffffffffffff168152602001915050602060405180830381600087803b15801561073257600080fd5b505af1158015610746573d6000803e3d6000fd5b505050506040513d602081101561075c57600080fd5b8101908080519060200190929190505050151561077857600080fd5b8260078381548110151561078857fe5b9060005260206000200190805190602001906107a59291906114ef565b507f5ff6b62a50b216f6a168a3c9ef546f852061593cd1c70b08982c99b83658053883836040518080602001838152602001828103825284818151815260200191508051906020019080838360005b8381101561080f5780820151818401526020810190506107f4565b50505050905090810190601f16801561083c5780820380516001836020036101000a031916815260200191505b50935050505060405180910390a192915050565b6000809054906101000a900473ffffffffffffffffffffffffffffffffffffffff1673ffffffffffffffffffffffffffffffffffffffff163373ffffffffffffffffffffffffffffffffffffffff161415156108ab57600080fd5b80600260006101000a81548173ffffffffffffffffffffffffffffffffffffffff021916908373ffffffffffffffffffffffffffffffffffffffff160217905550600260009054906101000a900473ffffffffffffffffffffffffffffffffffffffff16600560006101000a81548173ffffffffffffffffffffffffffffffffffffffff021916908373ffffffffffffffffffffffffffffffffffffffff16021790555050565b600360009054906101000a900473ffffffffffffffffffffffffffffffffffffffff1681565b6000809054906101000a900473ffffffffffffffffffffffffffffffffffffffff1673ffffffffffffffffffffffffffffffffffffffff163373ffffffffffffffffffffffffffffffffffffffff161415156109d357600080fd5b600060149054906101000a900460ff1615156109ee57600080fd5b60008060146101000a81548160ff0219169083151502179055507fa45f47fdea8a1efdd9029a5691c7f759c32b7c698632b563573e155625d1693360405160405180910390a1565b600060149054906101000a900460ff1681565b6000809054906101000a900473ffffffffffffffffffffffffffffffffffffffff1673ffffffffffffffffffffffffffffffffffffffff163373ffffffffffffffffffffffffffffffffffffffff16141515610aa457600080fd5b6000809054906101000a900473ffffffffffffffffffffffffffffffffffffffff1673ffffffffffffffffffffffffffffffffffffffff167ff8df31144d9c2f0f6b59d69b8b98abd5459d07f2742c4df920b25aae33c6482060405160405180910390a260008060006101000a81548173ffffffffffffffffffffffffffffffffffffffff021916908373ffffffffffffffffffffffffffffffffffffffff160217905550565b600560009054906101000a900473ffffffffffffffffffffffffffffffffffffffff1681565b600080600060149054906101000a900460ff16151515610b9057600080fd5b600560009054906101000a900473ffffffffffffffffffffffffffffffffffffffff1673ffffffffffffffffffffffffffffffffffffffff1663a6c4ec0e336040518263ffffffff167c0100000000000000000000000000000000000000000000000000000000028152600401808273ffffffffffffffffffffffffffffffffffffffff1673ffffffffffffffffffffffffffffffffffffffff168152602001915050602060405180830381600087803b158015610c4d57600080fd5b505af1158015610c61573d6000803e3d6000fd5b505050506040513d6020811015610c7757600080fd5b81019080805190602001909291905050501515610c9357600080fd5b60008351111515610ca357600080fd5b6007839080600181540180825580915050906001820390600052602060002001600090919290919091509080519060200190610ce09291906114ef565b509150600182039050336006600083815260200190815260200160002060006101000a81548173ffffffffffffffffffffffffffffffffffffffff021916908373ffffffffffffffffffffffffffffffffffffffff160217905550600460009054906101000a900473ffffffffffffffffffffffffffffffffffffffff1673ffffffffffffffffffffffffffffffffffffffff1663eaea2a853386846040518463ffffffff167c0100000000000000000000000000000000000000000000000000000000028152600401808473ffffffffffffffffffffffffffffffffffffffff1673ffffffffffffffffffffffffffffffffffffffff1681526020018381526020018281526020019350505050600060405180830381600087803b158015610e0857600080fd5b505af1158015610e1c573d6000803e3d6000fd5b505050507fede887e77d7974223ca0dc75ded00e51b4f68682ab1fae302b7a5f6ebcd1c05f83826040518080602001838152602001828103825284818151815260200191508051906020019080838360005b83811015610e89578082015181840152602081019050610e6e565b50505050905090810190601f168015610eb65780820380516001836020036101000a031916815260200191505b50935050505060405180910390a150505050565b60066020528060005260406000206000915054906101000a900473ffffffffffffffffffffffffffffffffffffffff1681565b6000809054906101000a900473ffffffffffffffffffffffffffffffffffffffff1673ffffffffffffffffffffffffffffffffffffffff163373ffffffffffffffffffffffffffffffffffffffff16141515610f5857600080fd5b600060149054906101000a900460ff16151515610f7457600080fd5b6001600060146101000a81548160ff0219169083151502179055507f9e87fac88ff661f02d44f95383c817fece4bce600a3dab7a54406878b965e75260405160405180910390a1565b60008060149054906101000a900460ff16151515610fda57600080fd5b600560009054906101000a900473ffffffffffffffffffffffffffffffffffffffff1673ffffffffffffffffffffffffffffffffffffffff1663a6c4ec0e336040518263ffffffff167c0100000000000000000000000000000000000000000000000000000000028152600401808273ffffffffffffffffffffffffffffffffffffffff1673ffffffffffffffffffffffffffffffffffffffff168152602001915050602060405180830381600087803b15801561109757600080fd5b505af11580156110ab573d6000803e3d6000fd5b505050506040513d60208110156110c157600080fd5b810190808051906020019092919050505015156110dd57600080fd5b600083511180156110f8575060016110f3611381565b038211155b151561110357600080fd5b600115156111108361121c565b151514151561111e57600080fd5b8260078381548110151561112e57fe5b90600052602060002001908051906020019061114b9291906114ef565b507f5ff6b62a50b216f6a168a3c9ef546f852061593cd1c70b08982c99b83658053883836040518080602001838152602001828103825284818151815260200191508051906020019080838360005b838110156111b557808201518184015260208101905061119a565b50505050905090810190601f1680156111e25780820380516001836020036101000a031916815260200191505b50935050505060405180910390a192915050565b600160009054906101000a900473ffffffffffffffffffffffffffffffffffffffff1681565b60006001611228611381565b03821115151561123757600080fd5b3373ffffffffffffffffffffffffffffffffffffffff166006600084815260200190815260200160002060009054906101000a900473ffffffffffffffffffffffffffffffffffffffff1673ffffffffffffffffffffffffffffffffffffffff16149050919050565b600260009054906101000a900473ffffffffffffffffffffffffffffffffffffffff1681565b6007818154811015156112d557fe5b906000526020600020016000915090508054600181600116156101000203166002900480601f0160208091040260200160405190810160405280929190818152602001828054600181600116156101000203166002900480156113795780601f1061134e57610100808354040283529160200191611379565b820191906000526020600020905b81548152906001019060200180831161135c57829003601f168201915b505050505081565b6000600780549050905090565b6000809054906101000a900473ffffffffffffffffffffffffffffffffffffffff1673ffffffffffffffffffffffffffffffffffffffff163373ffffffffffffffffffffffffffffffffffffffff161415156113e957600080fd5b6113f2816113f5565b50565b600073ffffffffffffffffffffffffffffffffffffffff168173ffffffffffffffffffffffffffffffffffffffff161415151561143157600080fd5b8073ffffffffffffffffffffffffffffffffffffffff166000809054906101000a900473ffffffffffffffffffffffffffffffffffffffff1673ffffffffffffffffffffffffffffffffffffffff167f8be0079c531659141344cd1fd0a4f28419497f9722a3daafe3b4186f6b6457e060405160405180910390a3806000806101000a81548173ffffffffffffffffffffffffffffffffffffffff021916908373ffffffffffffffffffffffffffffffffffffffff16021790555050565b828054600181600116156101000203166002900490600052602060002090601f016020900481019282601f1061153057805160ff191683800117855561155e565b8280016001018555821561155e579182015b8281111561155d578251825591602001919060010190611542565b5b50905061156b919061156f565b5090565b61159191905b8082111561158d576000816000905550600101611575565b5090565b905600a165627a7a723058200e322f16ce49462b5bb5ad8b71f5d01e65160dd5633696e83131fdba037f15320029",
  "source": "pragma solidity ^0.4.24;\n\nimport './OpenZeppelin/Ownable.sol';\nimport './OpenZeppelin/Pausable.sol';\nimport './User.sol';\nimport './ShastaMarket.sol';\n\n /**\n  * @title SharedMapPrice\n  * This contracts attempts to allow registered users to add locations into a shared map,\n  * where each location is stored in IPFS. Users can add new locations and update their own\n  * locations.\n  *\n  * There is a Circuit Breaker contract in case an attack happens,\n  * that pauses the update and the addition of new locations.\n  * \n  * In this way if there is a security breach there is time to\n  * apply a patch and deploy a new contract with the desired version.\n  *\n  *  NOTES:\n  *  Current fields that Location JSON data could have:\n   * - latitude, longitude, chargerStatus, chargerName, userAddress, locationIndex\n  */\ncontract SharedMapPrice is Ownable, Pausable {\n  address public owner;\n  address public userContractAddress; \n  address public shastaMarketAddress;\n\n  ShastaMarket shastaMarket;\n\n  User public userStorage;\n\n  event NewLocation(string ipfsHash, uint index);\n  event LocationUpdate(string ipfsHash, uint index);\n\n  /**\n   * @dev Link user address to location indexes.\n   */\n  mapping(uint => address) public locationIndexByAddress;\n\n  /**\n   * @dev Store each location IPFS hash into an array.\n   */\n  string[] public locationsIpfsHashes;\n\n  /**\n   * @dev Throws if non-user is trying to interact with the contract method.\n   */\n  modifier onlyUser() {\n    require(userStorage.hasUser(msg.sender));\n    _;\n  }\n\n  /**\n    * @dev Constructor, initiate contract and sets the User contract address to be able to interact with it.\n    * @param contractAddress The deployed User contract address.\n    */\n  constructor(address contractAddress, address _shastaMarketAddress) public {\n    owner = msg.sender;\n\n    // Set the User contract instance\n    userContractAddress = contractAddress;\n    userStorage = User(userContractAddress);\n\n    // Set ShastaMarket contract instance\n    shastaMarketAddress = _shastaMarketAddress;\n    shastaMarket = ShastaMarket(shastaMarketAddress);\n  }\n\n  /**\n    * @dev Sets a new User contract address. Only callable by owner.\n    * @param contractAddress The new contract address.\n    */\n  function setUserContractAddress(address contractAddress) public onlyOwner {\n    userContractAddress = contractAddress;\n    userStorage = User(userContractAddress);\n  }\n\n  /**\n    * @dev Checks if location index belongs to user. Only for reflecting in UI. Ex: to show edit button in locations if location belongs to user.\n    */\n  function isLocationIndexFromUser(uint locationIndex) public view returns (bool){\n    require(locationIndex <= getLocationsLength() - 1);\n    return locationIndexByAddress[locationIndex] == msg.sender;\n  }\n\n  /**\n    * @dev Getter for getting the length of the locations. Used to know the length and be able to loop the locations outside Solidity.\n    * @return length The length of the current location array.\n    */\n  function getLocationsLength() public view returns(uint length) {\n    length = locationsIpfsHashes.length;\n  }\n\n  /**\n    * @dev Add a new location. Only registered users can add locations if the contract is not paused.\n    * @param locationIpfsHash The IPFS hash that points to the location data.\n    * @return added Should return true if location is added.\n    */\n  function addLocation(uint price, string locationIpfsHash) public whenNotPaused onlyUser {\n    require(bytes(locationIpfsHash).length > 0);\n    // Add relation between location index and msg.sender.\n    uint newLength = locationsIpfsHashes.push(locationIpfsHash);\n    uint newIndex = newLength - 1;\n    locationIndexByAddress[newIndex] = msg.sender;\n    shastaMarket.createOfferFor(msg.sender, price, newIndex);\n    emit NewLocation(locationIpfsHash, newIndex);\n  }\n\n  /**\n    * @dev Update a location. Users can only update their own locations if the contract is not paused.\n    * @param locationIpfsHash The IPFS hash that points to the new location data.\n    * @param index The index of the location data hash in locationsIpfsHashes.\n    * @return added Should return true if location is updated.\n    */\n  function updateLocation(string locationIpfsHash, uint index) public whenNotPaused onlyUser returns(bool) {\n    require(bytes(locationIpfsHash).length > 0 && index <= getLocationsLength() - 1);\n    require(isLocationIndexFromUser(index) == true);\n\n    locationsIpfsHashes[index] = locationIpfsHash;\n    emit LocationUpdate(locationIpfsHash, index);\n  }\n\n  /**\n    * @dev Update a location by the admin, in case a fake location is added. (Optional, for sanitize data until a review/score system is developed)\n    * @param locationIpfsHash The IPFS hash that points to the new location data.\n    * @param index The index of the location index in locationsIpfsHashes.\n    * @return added Should return true if location is updated.\n    */\n  function ownerUpdateLocation(string locationIpfsHash, uint index) public whenNotPaused onlyUser returns(bool) {\n    locationsIpfsHashes[index] = locationIpfsHash;\n    emit LocationUpdate(locationIpfsHash, index);\n  }\n}",
  "sourcePath": "/home/kartojal/repos/ShastaOS/contracts/SharedMapPrice.sol",
  "compiler": {
    "name": "solc",
    "version": "0.4.24+commit.e67f0147.Emscripten.clang"
  },
  "schemaVersion": "2.0.1",
  "updatedAt": "2018-09-06T14:37:17.722Z"
}