{
  "contractName": "ShastaMarket",
  "abi": [
    {
      "constant": false,
      "inputs": [],
      "name": "unpause",
      "outputs": [],
      "payable": false,
      "stateMutability": "nonpayable",
      "type": "function",
      "signature": "0x3f4ba83a"
    },
    {
      "constant": true,
      "inputs": [
        {
          "name": "account",
          "type": "address"
        }
      ],
      "name": "isPauser",
      "outputs": [
        {
          "name": "",
          "type": "bool"
        }
      ],
      "payable": false,
      "stateMutability": "view",
      "type": "function",
      "signature": "0x46fbf68e"
    },
    {
      "constant": true,
      "inputs": [],
      "name": "paused",
      "outputs": [
        {
          "name": "",
          "type": "bool"
        }
      ],
      "payable": false,
      "stateMutability": "view",
      "type": "function",
      "signature": "0x5c975abb"
    },
    {
      "constant": false,
      "inputs": [],
      "name": "renouncePauser",
      "outputs": [],
      "payable": false,
      "stateMutability": "nonpayable",
      "type": "function",
      "signature": "0x6ef8d66d"
    },
    {
      "constant": false,
      "inputs": [],
      "name": "renounceOwnership",
      "outputs": [],
      "payable": false,
      "stateMutability": "nonpayable",
      "type": "function",
      "signature": "0x715018a6"
    },
    {
      "constant": true,
      "inputs": [],
      "name": "userStorage",
      "outputs": [
        {
          "name": "",
          "type": "address"
        }
      ],
      "payable": false,
      "stateMutability": "view",
      "type": "function",
      "signature": "0x75e58079"
    },
    {
      "constant": false,
      "inputs": [
        {
          "name": "account",
          "type": "address"
        }
      ],
      "name": "addPauser",
      "outputs": [],
      "payable": false,
      "stateMutability": "nonpayable",
      "type": "function",
      "signature": "0x82dc1ec4"
    },
    {
      "constant": false,
      "inputs": [],
      "name": "pause",
      "outputs": [],
      "payable": false,
      "stateMutability": "nonpayable",
      "type": "function",
      "signature": "0x8456cb59"
    },
    {
      "constant": true,
      "inputs": [],
      "name": "owner",
      "outputs": [
        {
          "name": "",
          "type": "address"
        }
      ],
      "payable": false,
      "stateMutability": "view",
      "type": "function",
      "signature": "0x8da5cb5b"
    },
    {
      "constant": true,
      "inputs": [],
      "name": "isOwner",
      "outputs": [
        {
          "name": "",
          "type": "bool"
        }
      ],
      "payable": false,
      "stateMutability": "view",
      "type": "function",
      "signature": "0x8f32d59b"
    },
    {
      "constant": false,
      "inputs": [
        {
          "name": "newOwner",
          "type": "address"
        }
      ],
      "name": "transferOwnership",
      "outputs": [],
      "payable": false,
      "stateMutability": "nonpayable",
      "type": "function",
      "signature": "0xf2fde38b"
    },
    {
      "anonymous": false,
      "inputs": [
        {
          "indexed": false,
          "name": "seller",
          "type": "address"
        },
        {
          "indexed": false,
          "name": "value",
          "type": "uint256"
        }
      ],
      "name": "newOffer",
      "type": "event",
      "signature": "0xc44f70c0c62792d2b262d5017ad3e277fe7c45197451598a16c571d6fa6ff4e1"
    },
    {
      "anonymous": false,
      "inputs": [
        {
          "indexed": false,
          "name": "seller",
          "type": "address"
        },
        {
          "indexed": false,
          "name": "value",
          "type": "uint256"
        }
      ],
      "name": "cancelOfferEvent",
      "type": "event",
      "signature": "0xa48a50019a8d8278af8914527342b95b69bdbda162aec5b6c4763e49ec7c828e"
    },
    {
      "anonymous": false,
      "inputs": [],
      "name": "Paused",
      "type": "event",
      "signature": "0x9e87fac88ff661f02d44f95383c817fece4bce600a3dab7a54406878b965e752"
    },
    {
      "anonymous": false,
      "inputs": [],
      "name": "Unpaused",
      "type": "event",
      "signature": "0xa45f47fdea8a1efdd9029a5691c7f759c32b7c698632b563573e155625d16933"
    },
    {
      "anonymous": false,
      "inputs": [
        {
          "indexed": true,
          "name": "account",
          "type": "address"
        }
      ],
      "name": "PauserAdded",
      "type": "event",
      "signature": "0x6719d08c1888103bea251a4ed56406bd0c3e69723c8a1686e017e7bbe159b6f8"
    },
    {
      "anonymous": false,
      "inputs": [
        {
          "indexed": true,
          "name": "account",
          "type": "address"
        }
      ],
      "name": "PauserRemoved",
      "type": "event",
      "signature": "0xcd265ebaf09df2871cc7bd4133404a235ba12eff2041bb89d9c714a2621c7c7e"
    },
    {
      "anonymous": false,
      "inputs": [
        {
          "indexed": true,
          "name": "previousOwner",
          "type": "address"
        }
      ],
      "name": "OwnershipRenounced",
      "type": "event",
      "signature": "0xf8df31144d9c2f0f6b59d69b8b98abd5459d07f2742c4df920b25aae33c64820"
    },
    {
      "anonymous": false,
      "inputs": [
        {
          "indexed": true,
          "name": "previousOwner",
          "type": "address"
        },
        {
          "indexed": true,
          "name": "newOwner",
          "type": "address"
        }
      ],
      "name": "OwnershipTransferred",
      "type": "event",
      "signature": "0x8be0079c531659141344cd1fd0a4f28419497f9722a3daafe3b4186f6b6457e0"
    },
    {
      "constant": false,
      "inputs": [
        {
          "name": "_value",
          "type": "uint256"
        },
        {
          "name": "_seller",
          "type": "address"
        }
      ],
      "name": "createOffer",
      "outputs": [],
      "payable": false,
      "stateMutability": "nonpayable",
      "type": "function",
      "signature": "0x283eddaf"
    },
    {
      "constant": false,
      "inputs": [
        {
          "name": "_id",
          "type": "uint256"
        },
        {
          "name": "sender",
          "type": "address"
        }
      ],
      "name": "cancelOffer",
      "outputs": [],
      "payable": false,
      "stateMutability": "nonpayable",
      "type": "function",
      "signature": "0xc0fc80a2"
    },
    {
      "constant": true,
      "inputs": [
        {
          "name": "_index",
          "type": "uint256"
        }
      ],
      "name": "getOfferFromIndex",
      "outputs": [
        {
          "name": "",
          "type": "uint256"
        },
        {
          "name": "",
          "type": "address"
        },
        {
          "name": "",
          "type": "bool"
        }
      ],
      "payable": false,
      "stateMutability": "view",
      "type": "function",
      "signature": "0xeb666caa"
    },
    {
      "constant": true,
      "inputs": [],
      "name": "getOfferIndexesFromAddress",
      "outputs": [
        {
          "name": "",
          "type": "uint256[]"
        }
      ],
      "payable": false,
      "stateMutability": "view",
      "type": "function",
      "signature": "0x4cf65ee5"
    },
    {
      "constant": true,
      "inputs": [],
      "name": "getOffersLength",
      "outputs": [
        {
          "name": "",
          "type": "uint256"
        }
      ],
      "payable": false,
      "stateMutability": "view",
      "type": "function",
      "signature": "0x73c2dc12"
    }
  ],
  "bytecode": "0x60806040526000600260006101000a81548160ff021916908315150217905550336000806101000a81548173ffffffffffffffffffffffffffffffffffffffff021916908373ffffffffffffffffffffffffffffffffffffffff16021790555061008033600161008564010000000002610de5179091906401000000009004565b61011f565b600073ffffffffffffffffffffffffffffffffffffffff168173ffffffffffffffffffffffffffffffffffffffff16141515156100c157600080fd5b60018260000160008373ffffffffffffffffffffffffffffffffffffffff1673ffffffffffffffffffffffffffffffffffffffff16815260200190815260200160002060006101000a81548160ff0219169083151502179055505050565b610fdf8061012e6000396000f3006080604052600436106100e6576000357c0100000000000000000000000000000000000000000000000000000000900463ffffffff168063283eddaf146100eb5780633f4ba83a1461013857806346fbf68e1461014f5780634cf65ee5146101aa5780635c975abb146102165780636ef8d66d14610245578063715018a61461025c57806373c2dc121461027357806375e580791461029e57806382dc1ec4146102f55780638456cb59146103385780638da5cb5b1461034f5780638f32d59b146103a6578063c0fc80a2146103d5578063eb666caa14610422578063f2fde38b146104a1575b600080fd5b3480156100f757600080fd5b5061013660048036038101908080359060200190929190803573ffffffffffffffffffffffffffffffffffffffff1690602001909291905050506104e4565b005b34801561014457600080fd5b5061014d6106dd565b005b34801561015b57600080fd5b50610190600480360381019080803573ffffffffffffffffffffffffffffffffffffffff169060200190929190505050610755565b604051808215151515815260200191505060405180910390f35b3480156101b657600080fd5b506101bf610772565b6040518080602001828103825283818151815260200191508051906020019060200280838360005b838110156102025780820151818401526020810190506101e7565b505050509050019250505060405180910390f35b34801561022257600080fd5b5061022b610807565b604051808215151515815260200191505060405180910390f35b34801561025157600080fd5b5061025a61081e565b005b34801561026857600080fd5b50610271610834565b005b34801561027f57600080fd5b506102886108ee565b6040518082815260200191505060405180910390f35b3480156102aa57600080fd5b506102b36108fb565b604051808273ffffffffffffffffffffffffffffffffffffffff1673ffffffffffffffffffffffffffffffffffffffff16815260200191505060405180910390f35b34801561030157600080fd5b50610336600480360381019080803573ffffffffffffffffffffffffffffffffffffffff169060200190929190505050610921565b005b34801561034457600080fd5b5061034d61098f565b005b34801561035b57600080fd5b50610364610a08565b604051808273ffffffffffffffffffffffffffffffffffffffff1673ffffffffffffffffffffffffffffffffffffffff16815260200191505060405180910390f35b3480156103b257600080fd5b506103bb610a2e565b604051808215151515815260200191505060405180910390f35b3480156103e157600080fd5b5061042060048036038101908080359060200190929190803573ffffffffffffffffffffffffffffffffffffffff169060200190929190505050610a85565b005b34801561042e57600080fd5b5061044d60048036038101908080359060200190929190505050610be3565b604051808481526020018373ffffffffffffffffffffffffffffffffffffffff1673ffffffffffffffffffffffffffffffffffffffff16815260200182151515158152602001935050505060405180910390f35b3480156104ad57600080fd5b506104e2600480360381019080803573ffffffffffffffffffffffffffffffffffffffff169060200190929190505050610c98565b005b6104ec610f79565b6000600260009054906101000a900460ff1615151561050a57600080fd5b82826000019073ffffffffffffffffffffffffffffffffffffffff16908173ffffffffffffffffffffffffffffffffffffffff168152505083826020018181525050600182604001901515908115158152505060016004839080600181540180825580915050906001820390600052602060002090600302016000909192909190915060008201518160000160006101000a81548173ffffffffffffffffffffffffffffffffffffffff021916908373ffffffffffffffffffffffffffffffffffffffff1602179055506020820151816001015560408201518160020160006101000a81548160ff0219169083151502179055505050039050600360008473ffffffffffffffffffffffffffffffffffffffff1673ffffffffffffffffffffffffffffffffffffffff1681526020019081526020016000208190806001815401808255809150509060018203906000526020600020016000909192909190915055507fc44f70c0c62792d2b262d5017ad3e277fe7c45197451598a16c571d6fa6ff4e18385604051808373ffffffffffffffffffffffffffffffffffffffff1673ffffffffffffffffffffffffffffffffffffffff1681526020018281526020019250505060405180910390a150505050565b6106e633610755565b15156106f157600080fd5b600260009054906101000a900460ff16151561070c57600080fd5b6000600260006101000a81548160ff0219169083151502179055507fa45f47fdea8a1efdd9029a5691c7f759c32b7c698632b563573e155625d1693360405160405180910390a1565b600061076b826001610cb790919063ffffffff16565b9050919050565b6060600360003373ffffffffffffffffffffffffffffffffffffffff1673ffffffffffffffffffffffffffffffffffffffff1681526020019081526020016000208054806020026020016040519081016040528092919081815260200182805480156107fd57602002820191906000526020600020905b8154815260200190600101908083116107e9575b5050505050905090565b6000600260009054906101000a900460ff16905090565b610832336001610d4b90919063ffffffff16565b565b61083c610a2e565b151561084757600080fd5b6000809054906101000a900473ffffffffffffffffffffffffffffffffffffffff1673ffffffffffffffffffffffffffffffffffffffff167ff8df31144d9c2f0f6b59d69b8b98abd5459d07f2742c4df920b25aae33c6482060405160405180910390a260008060006101000a81548173ffffffffffffffffffffffffffffffffffffffff021916908373ffffffffffffffffffffffffffffffffffffffff160217905550565b6000600480549050905090565b600260019054906101000a900473ffffffffffffffffffffffffffffffffffffffff1681565b61092a33610755565b151561093557600080fd5b610949816001610de590919063ffffffff16565b8073ffffffffffffffffffffffffffffffffffffffff167f6719d08c1888103bea251a4ed56406bd0c3e69723c8a1686e017e7bbe159b6f860405160405180910390a250565b61099833610755565b15156109a357600080fd5b600260009054906101000a900460ff161515156109bf57600080fd5b6001600260006101000a81548160ff0219169083151502179055507f9e87fac88ff661f02d44f95383c817fece4bce600a3dab7a54406878b965e75260405160405180910390a1565b600560009054906101000a900473ffffffffffffffffffffffffffffffffffffffff1681565b60008060009054906101000a900473ffffffffffffffffffffffffffffffffffffffff1673ffffffffffffffffffffffffffffffffffffffff163373ffffffffffffffffffffffffffffffffffffffff1614905090565b600260009054906101000a900460ff16151515610aa157600080fd5b8073ffffffffffffffffffffffffffffffffffffffff16600483815481101515610ac757fe5b906000526020600020906003020160000160009054906101000a900473ffffffffffffffffffffffffffffffffffffffff1673ffffffffffffffffffffffffffffffffffffffff16141515610b1b57600080fd5b6000600483815481101515610b2c57fe5b906000526020600020906003020160020160006101000a81548160ff0219169083151502179055507fa48a50019a8d8278af8914527342b95b69bdbda162aec5b6c4763e49ec7c828e81600484815481101515610b8557fe5b906000526020600020906003020160010154604051808373ffffffffffffffffffffffffffffffffffffffff1673ffffffffffffffffffffffffffffffffffffffff1681526020018281526020019250505060405180910390a15050565b600080600083600480549050111515610bfb57600080fd5b600484815481101515610c0a57fe5b906000526020600020906003020160010154600485815481101515610c2b57fe5b906000526020600020906003020160000160009054906101000a900473ffffffffffffffffffffffffffffffffffffffff16600486815481101515610c6c57fe5b906000526020600020906003020160020160009054906101000a900460ff169250925092509193909250565b610ca0610a2e565b1515610cab57600080fd5b610cb481610e7f565b50565b60008073ffffffffffffffffffffffffffffffffffffffff168273ffffffffffffffffffffffffffffffffffffffff1614151515610cf457600080fd5b8260000160008373ffffffffffffffffffffffffffffffffffffffff1673ffffffffffffffffffffffffffffffffffffffff16815260200190815260200160002060009054906101000a900460ff16905092915050565b600073ffffffffffffffffffffffffffffffffffffffff168173ffffffffffffffffffffffffffffffffffffffff1614151515610d8757600080fd5b60008260000160008373ffffffffffffffffffffffffffffffffffffffff1673ffffffffffffffffffffffffffffffffffffffff16815260200190815260200160002060006101000a81548160ff0219169083151502179055505050565b600073ffffffffffffffffffffffffffffffffffffffff168173ffffffffffffffffffffffffffffffffffffffff1614151515610e2157600080fd5b60018260000160008373ffffffffffffffffffffffffffffffffffffffff1673ffffffffffffffffffffffffffffffffffffffff16815260200190815260200160002060006101000a81548160ff0219169083151502179055505050565b600073ffffffffffffffffffffffffffffffffffffffff168173ffffffffffffffffffffffffffffffffffffffff1614151515610ebb57600080fd5b8073ffffffffffffffffffffffffffffffffffffffff166000809054906101000a900473ffffffffffffffffffffffffffffffffffffffff1673ffffffffffffffffffffffffffffffffffffffff167f8be0079c531659141344cd1fd0a4f28419497f9722a3daafe3b4186f6b6457e060405160405180910390a3806000806101000a81548173ffffffffffffffffffffffffffffffffffffffff021916908373ffffffffffffffffffffffffffffffffffffffff16021790555050565b606060405190810160405280600073ffffffffffffffffffffffffffffffffffffffff1681526020016000815260200160001515815250905600a165627a7a723058203085ddf075ca65cb4910ad0c8ef2f092f9e55206450e6221d6069a20e76713d50029",
  "source": "pragma solidity ^0.4.24;\n\nimport \"openzeppelin-solidity/contracts/ownership/Ownable.sol\";\nimport \"openzeppelin-solidity/contracts/lifecycle/Pausable.sol\";\n\nimport \"./User.sol\";\n\n /**\n  * @title ShastaMarketplace\n  * Manage the storage of energy offers\n  *\n  */\ncontract ShastaMarket is Ownable, Pausable {\n    User public userStorage;\n    mapping(address => uint[]) private addressToOffersIndex;\n    Offer[] private offersList;\n    address public owner;\n\n    struct Offer {\n        address seller;\n        uint value;\n        bool isActive;\n    }\n\n    event newOffer(address seller, uint value);\n    event cancelOfferEvent(address seller, uint value);\n\n    /**\n    * @dev Throws if non-user is trying to interact with the contract method.\n    */\n    modifier onlyUser() {\n        require(userStorage.hasUser(msg.sender));\n        _;\n    }\n    \n    /** @dev Save a new energy offer.\n      * @param _value the price of the unit of energy\n      * @param _seller the address of the energy producer\n      */\n    function createOffer(uint _value, address _seller) public whenNotPaused {\n        Offer memory myOffer;\n        myOffer.seller = _seller;\n        myOffer.value = _value;\n        myOffer.isActive = true;\n\n        uint index = offersList.push(myOffer) - 1;\n        addressToOffersIndex[_seller].push(index);\n        emit newOffer(_seller, _value);\n    }\n\n    /**\n    * @dev Cancel an offer. Only offer owners can cancel their offer\n    * @param _id The id of the offer to cancel\n    */\n    function cancelOffer(uint _id, address sender) public whenNotPaused {\n        require(offersList[_id].seller == sender);\n        offersList[_id].isActive = false;\n        emit cancelOfferEvent(sender, offersList[_id].value);\n        \n    }\n\n    /**\n    * @dev Get offer by index\n    * @param _index The index the offer to cancel\n    * @return uint The energy unit price\n    * @return address The seller address\n    * @return bool The state of the offer\n    */\n    function getOfferFromIndex(uint _index) public view returns(uint, address, bool) {\n        require(offersList.length > _index);\n        return (offersList[_index].value, offersList[_index].seller, offersList[_index].isActive);\n    }\n    \n    /**\n    * @dev Get user offer indexes\n    * @return uint[bool] The list of indexes\n    */\n    function getOfferIndexesFromAddress() public view returns(uint[]) {\n        return addressToOffersIndex[msg.sender];\n    }\n\n    /**\n    * @dev Get offers length\n    * @return bool The length of the offers list\n    */\n    function getOffersLength() public view returns(uint) {\n        return offersList.length;\n    }\n}",
  "sourcePath": "/home/kartojal/repos/ShastaOS/contracts/ShastaMarket.sol",
  "compiler": {
    "name": "solc",
    "version": "0.4.24+commit.e67f0147.Emscripten.clang"
  },
  "schemaVersion": "3.0.0-beta.0",
  "updatedAt": "2018-10-18T10:24:11.873Z"
}