{
  "contractName": "ShastaMarket",
  "abi": [
    {
      "constant": false,
      "inputs": [],
      "name": "unpause",
      "outputs": [],
      "payable": false,
      "stateMutability": "nonpayable",
      "type": "function"
    },
    {
      "constant": true,
      "inputs": [],
      "name": "paused",
      "outputs": [
        {
          "name": "",
          "type": "bool"
        }
      ],
      "payable": false,
      "stateMutability": "view",
      "type": "function"
    },
    {
      "constant": false,
      "inputs": [],
      "name": "renounceOwnership",
      "outputs": [],
      "payable": false,
      "stateMutability": "nonpayable",
      "type": "function"
    },
    {
      "constant": true,
      "inputs": [],
      "name": "userStorage",
      "outputs": [
        {
          "name": "",
          "type": "address"
        }
      ],
      "payable": false,
      "stateMutability": "view",
      "type": "function"
    },
    {
      "constant": false,
      "inputs": [],
      "name": "pause",
      "outputs": [],
      "payable": false,
      "stateMutability": "nonpayable",
      "type": "function"
    },
    {
      "constant": true,
      "inputs": [],
      "name": "owner",
      "outputs": [
        {
          "name": "",
          "type": "address"
        }
      ],
      "payable": false,
      "stateMutability": "view",
      "type": "function"
    },
    {
      "constant": false,
      "inputs": [
        {
          "name": "_newOwner",
          "type": "address"
        }
      ],
      "name": "transferOwnership",
      "outputs": [],
      "payable": false,
      "stateMutability": "nonpayable",
      "type": "function"
    },
    {
      "inputs": [],
      "payable": false,
      "stateMutability": "nonpayable",
      "type": "constructor"
    },
    {
      "anonymous": false,
      "inputs": [
        {
          "indexed": false,
          "name": "seller",
          "type": "address"
        },
        {
          "indexed": false,
          "name": "value",
          "type": "uint256"
        }
      ],
      "name": "newBid",
      "type": "event"
    },
    {
      "anonymous": false,
      "inputs": [
        {
          "indexed": false,
          "name": "buyer",
          "type": "address"
        },
        {
          "indexed": false,
          "name": "value",
          "type": "uint256"
        },
        {
          "indexed": false,
          "name": "locationIndex",
          "type": "uint256"
        }
      ],
      "name": "newOffer",
      "type": "event"
    },
    {
      "anonymous": false,
      "inputs": [],
      "name": "Paused",
      "type": "event"
    },
    {
      "anonymous": false,
      "inputs": [],
      "name": "Unpaused",
      "type": "event"
    },
    {
      "anonymous": false,
      "inputs": [
        {
          "indexed": true,
          "name": "previousOwner",
          "type": "address"
        }
      ],
      "name": "OwnershipRenounced",
      "type": "event"
    },
    {
      "anonymous": false,
      "inputs": [
        {
          "indexed": true,
          "name": "previousOwner",
          "type": "address"
        },
        {
          "indexed": true,
          "name": "newOwner",
          "type": "address"
        }
      ],
      "name": "OwnershipTransferred",
      "type": "event"
    },
    {
      "constant": false,
      "inputs": [
        {
          "name": "_value",
          "type": "uint256"
        },
        {
          "name": "_seller",
          "type": "address"
        }
      ],
      "name": "createBid",
      "outputs": [],
      "payable": false,
      "stateMutability": "nonpayable",
      "type": "function"
    },
    {
      "constant": false,
      "inputs": [
        {
          "name": "_value",
          "type": "uint256"
        }
      ],
      "name": "createOffer",
      "outputs": [],
      "payable": false,
      "stateMutability": "nonpayable",
      "type": "function"
    },
    {
      "constant": false,
      "inputs": [
        {
          "name": "origin",
          "type": "address"
        },
        {
          "name": "_value",
          "type": "uint256"
        },
        {
          "name": "_locationIndex",
          "type": "uint256"
        }
      ],
      "name": "createOfferFor",
      "outputs": [],
      "payable": false,
      "stateMutability": "nonpayable",
      "type": "function"
    },
    {
      "constant": true,
      "inputs": [
        {
          "name": "_index",
          "type": "uint256"
        }
      ],
      "name": "getBidFromIndex",
      "outputs": [
        {
          "name": "",
          "type": "uint256"
        },
        {
          "name": "",
          "type": "address"
        }
      ],
      "payable": false,
      "stateMutability": "view",
      "type": "function"
    },
    {
      "constant": true,
      "inputs": [],
      "name": "getBidsIndexesFromAddress",
      "outputs": [
        {
          "name": "",
          "type": "uint256[]"
        }
      ],
      "payable": false,
      "stateMutability": "view",
      "type": "function"
    },
    {
      "constant": true,
      "inputs": [
        {
          "name": "_index",
          "type": "uint256"
        }
      ],
      "name": "getOfferFromIndex",
      "outputs": [
        {
          "name": "",
          "type": "uint256"
        },
        {
          "name": "",
          "type": "address"
        },
        {
          "name": "",
          "type": "uint256"
        }
      ],
      "payable": false,
      "stateMutability": "view",
      "type": "function"
    },
    {
      "constant": true,
      "inputs": [],
      "name": "getOfferIndexesFromAddress",
      "outputs": [
        {
          "name": "",
          "type": "uint256[]"
        }
      ],
      "payable": false,
      "stateMutability": "view",
      "type": "function"
    },
    {
      "constant": true,
      "inputs": [],
      "name": "getBidsLength",
      "outputs": [
        {
          "name": "",
          "type": "uint256"
        }
      ],
      "payable": false,
      "stateMutability": "view",
      "type": "function"
    },
    {
      "constant": true,
      "inputs": [],
      "name": "getOffersLength",
      "outputs": [
        {
          "name": "",
          "type": "uint256"
        }
      ],
      "payable": false,
      "stateMutability": "view",
      "type": "function"
    },
    {
      "constant": false,
      "inputs": [
        {
          "name": "username",
          "type": "bytes16"
        },
        {
          "name": "ipfsHash",
          "type": "bytes"
        }
      ],
      "name": "createUser",
      "outputs": [
        {
          "name": "success",
          "type": "bool"
        }
      ],
      "payable": false,
      "stateMutability": "nonpayable",
      "type": "function"
    }
  ],
  "bytecode": "0x608060405260008060146101000a81548160ff02191690831515021790555034801561002a57600080fd5b50336000806101000a81548173ffffffffffffffffffffffffffffffffffffffff021916908373ffffffffffffffffffffffffffffffffffffffff160217905550336000806101000a81548173ffffffffffffffffffffffffffffffffffffffff021916908373ffffffffffffffffffffffffffffffffffffffff160217905550611415806100ba6000396000f3006080604052600436106100f1576000357c0100000000000000000000000000000000000000000000000000000000900463ffffffff1680633f4ba83a146100f6578063402f707e1461010d5780634cf65ee5146101ab5780635c975abb14610217578063715018a61461024657806373c2dc121461025d57806375e580791461028857806375fb24e4146102df5780638456cb59146103535780638da5cb5b1461036a578063a269993d146103c1578063b8bd1b1d146103ee578063d879914a1461043b578063db7818ed14610466578063eaea2a85146104d2578063eb666caa14610529578063f2fde38b146105a4575b600080fd5b34801561010257600080fd5b5061010b6105e7565b005b34801561011957600080fd5b5061019160048036038101908080356fffffffffffffffffffffffffffffffff19169060200190929190803590602001908201803590602001908080601f01602080910402602001604051908101604052809392919081815260200183838082843782019150505050505091929192905050506106a5565b604051808215151515815260200191505060405180910390f35b3480156101b757600080fd5b506101c061080e565b6040518080602001828103825283818151815260200191508051906020019060200280838360005b838110156102035780820151818401526020810190506101e8565b505050509050019250505060405180910390f35b34801561022357600080fd5b5061022c6108a3565b604051808215151515815260200191505060405180910390f35b34801561025257600080fd5b5061025b6108b6565b005b34801561026957600080fd5b506102726109b8565b6040518082815260200191505060405180910390f35b34801561029457600080fd5b5061029d6109c5565b604051808273ffffffffffffffffffffffffffffffffffffffff1673ffffffffffffffffffffffffffffffffffffffff16815260200191505060405180910390f35b3480156102eb57600080fd5b5061030a600480360381019080803590602001909291905050506109eb565b604051808381526020018273ffffffffffffffffffffffffffffffffffffffff1673ffffffffffffffffffffffffffffffffffffffff1681526020019250505060405180910390f35b34801561035f57600080fd5b50610368610a6c565b005b34801561037657600080fd5b5061037f610b2c565b604051808273ffffffffffffffffffffffffffffffffffffffff1673ffffffffffffffffffffffffffffffffffffffff16815260200191505060405180910390f35b3480156103cd57600080fd5b506103ec60048036038101908080359060200190929190505050610b51565b005b3480156103fa57600080fd5b5061043960048036038101908080359060200190929190803573ffffffffffffffffffffffffffffffffffffffff169060200190929190505050610d2b565b005b34801561044757600080fd5b50610450610ef2565b6040518082815260200191505060405180910390f35b34801561047257600080fd5b5061047b610eff565b6040518080602001828103825283818151815260200191508051906020019060200280838360005b838110156104be5780820151818401526020810190506104a3565b505050509050019250505060405180910390f35b3480156104de57600080fd5b50610527600480360381019080803573ffffffffffffffffffffffffffffffffffffffff1690602001909291908035906020019092919080359060200190929190505050610f94565b005b34801561053557600080fd5b5061055460048036038101908080359060200190929190505050611178565b604051808481526020018373ffffffffffffffffffffffffffffffffffffffff1673ffffffffffffffffffffffffffffffffffffffff168152602001828152602001935050505060405180910390f35b3480156105b057600080fd5b506105e5600480360381019080803573ffffffffffffffffffffffffffffffffffffffff169060200190929190505050611220565b005b6000809054906101000a900473ffffffffffffffffffffffffffffffffffffffff1673ffffffffffffffffffffffffffffffffffffffff163373ffffffffffffffffffffffffffffffffffffffff1614151561064257600080fd5b600060149054906101000a900460ff16151561065d57600080fd5b60008060146101000a81548160ff0219169083151502179055507fa45f47fdea8a1efdd9029a5691c7f759c32b7c698632b563573e155625d1693360405160405180910390a1565b6000600160009054906101000a900473ffffffffffffffffffffffffffffffffffffffff1673ffffffffffffffffffffffffffffffffffffffff1663402f707e84846040518363ffffffff167c010000000000000000000000000000000000000000000000000000000002815260040180836fffffffffffffffffffffffffffffffff19166fffffffffffffffffffffffffffffffff1916815260200180602001828103825283818151815260200191508051906020019080838360005b8381101561077e578082015181840152602081019050610763565b50505050905090810190601f1680156107ab5780820380516001836020036101000a031916815260200191505b509350505050602060405180830381600087803b1580156107cb57600080fd5b505af11580156107df573d6000803e3d6000fd5b505050506040513d60208110156107f557600080fd5b8101908080519060200190929190505050905092915050565b6060600360003373ffffffffffffffffffffffffffffffffffffffff1673ffffffffffffffffffffffffffffffffffffffff16815260200190815260200160002080548060200260200160405190810160405280929190818152602001828054801561089957602002820191906000526020600020905b815481526020019060010190808311610885575b5050505050905090565b600060149054906101000a900460ff1681565b6000809054906101000a900473ffffffffffffffffffffffffffffffffffffffff1673ffffffffffffffffffffffffffffffffffffffff163373ffffffffffffffffffffffffffffffffffffffff1614151561091157600080fd5b6000809054906101000a900473ffffffffffffffffffffffffffffffffffffffff1673ffffffffffffffffffffffffffffffffffffffff167ff8df31144d9c2f0f6b59d69b8b98abd5459d07f2742c4df920b25aae33c6482060405160405180910390a260008060006101000a81548173ffffffffffffffffffffffffffffffffffffffff021916908373ffffffffffffffffffffffffffffffffffffffff160217905550565b6000600580549050905090565b600160009054906101000a900473ffffffffffffffffffffffffffffffffffffffff1681565b60008082600480549050111515610a0157600080fd5b600483815481101515610a1057fe5b906000526020600020906002020160010154600484815481101515610a3157fe5b906000526020600020906002020160000160009054906101000a900473ffffffffffffffffffffffffffffffffffffffff1691509150915091565b6000809054906101000a900473ffffffffffffffffffffffffffffffffffffffff1673ffffffffffffffffffffffffffffffffffffffff163373ffffffffffffffffffffffffffffffffffffffff16141515610ac757600080fd5b600060149054906101000a900460ff16151515610ae357600080fd5b6001600060146101000a81548160ff0219169083151502179055507f9e87fac88ff661f02d44f95383c817fece4bce600a3dab7a54406878b965e75260405160405180910390a1565b6000809054906101000a900473ffffffffffffffffffffffffffffffffffffffff1681565b610b59611381565b60008060149054906101000a900460ff16151515610b7657600080fd5b33826000019073ffffffffffffffffffffffffffffffffffffffff16908173ffffffffffffffffffffffffffffffffffffffff16815250508282602001818152505060016005839080600181540180825580915050906001820390600052602060002090600302016000909192909190915060008201518160000160006101000a81548173ffffffffffffffffffffffffffffffffffffffff021916908373ffffffffffffffffffffffffffffffffffffffff16021790555060208201518160010155604082015181600201555050039050600360003373ffffffffffffffffffffffffffffffffffffffff1673ffffffffffffffffffffffffffffffffffffffff1681526020019081526020016000208190806001815401808255809150509060018203906000526020600020016000909192909190915055507f342755d0717fd75566bb422685bf73a98846bea50d03342c1dc3244f3770b8b833846103e7604051808473ffffffffffffffffffffffffffffffffffffffff1673ffffffffffffffffffffffffffffffffffffffff168152602001838152602001828152602001935050505060405180910390a1505050565b610d336113b9565b60008060149054906101000a900460ff16151515610d5057600080fd5b82826000019073ffffffffffffffffffffffffffffffffffffffff16908173ffffffffffffffffffffffffffffffffffffffff16815250508382602001818152505060016004839080600181540180825580915050906001820390600052602060002090600202016000909192909190915060008201518160000160006101000a81548173ffffffffffffffffffffffffffffffffffffffff021916908373ffffffffffffffffffffffffffffffffffffffff160217905550602082015181600101555050039050600260003373ffffffffffffffffffffffffffffffffffffffff1673ffffffffffffffffffffffffffffffffffffffff1681526020019081526020016000208190806001815401808255809150509060018203906000526020600020016000909192909190915055507f7b6bc441ac62da4ede87e2fafbf3885745a385ec42ec7611d5d8094e7b850be13385604051808373ffffffffffffffffffffffffffffffffffffffff1673ffffffffffffffffffffffffffffffffffffffff1681526020018281526020019250505060405180910390a150505050565b6000600480549050905090565b6060600260003373ffffffffffffffffffffffffffffffffffffffff1673ffffffffffffffffffffffffffffffffffffffff168152602001908152602001600020805480602002602001604051908101604052809291908181526020018280548015610f8a57602002820191906000526020600020905b815481526020019060010190808311610f76575b5050505050905090565b610f9c611381565b60008060149054906101000a900460ff16151515610fb957600080fd5b84826000019073ffffffffffffffffffffffffffffffffffffffff16908173ffffffffffffffffffffffffffffffffffffffff1681525050838260200181815250508282604001818152505060016005839080600181540180825580915050906001820390600052602060002090600302016000909192909190915060008201518160000160006101000a81548173ffffffffffffffffffffffffffffffffffffffff021916908373ffffffffffffffffffffffffffffffffffffffff16021790555060208201518160010155604082015181600201555050039050600360008673ffffffffffffffffffffffffffffffffffffffff1673ffffffffffffffffffffffffffffffffffffffff1681526020019081526020016000208190806001815401808255809150509060018203906000526020600020016000909192909190915055507f342755d0717fd75566bb422685bf73a98846bea50d03342c1dc3244f3770b8b8858585604051808473ffffffffffffffffffffffffffffffffffffffff1673ffffffffffffffffffffffffffffffffffffffff168152602001838152602001828152602001935050505060405180910390a15050505050565b60008060008360058054905011151561119057600080fd5b60058481548110151561119f57fe5b9060005260206000209060030201600101546005858154811015156111c057fe5b906000526020600020906003020160000160009054906101000a900473ffffffffffffffffffffffffffffffffffffffff1660058681548110151561120157fe5b9060005260206000209060030201600201549250925092509193909250565b6000809054906101000a900473ffffffffffffffffffffffffffffffffffffffff1673ffffffffffffffffffffffffffffffffffffffff163373ffffffffffffffffffffffffffffffffffffffff1614151561127b57600080fd5b61128481611287565b50565b600073ffffffffffffffffffffffffffffffffffffffff168173ffffffffffffffffffffffffffffffffffffffff16141515156112c357600080fd5b8073ffffffffffffffffffffffffffffffffffffffff166000809054906101000a900473ffffffffffffffffffffffffffffffffffffffff1673ffffffffffffffffffffffffffffffffffffffff167f8be0079c531659141344cd1fd0a4f28419497f9722a3daafe3b4186f6b6457e060405160405180910390a3806000806101000a81548173ffffffffffffffffffffffffffffffffffffffff021916908373ffffffffffffffffffffffffffffffffffffffff16021790555050565b606060405190810160405280600073ffffffffffffffffffffffffffffffffffffffff16815260200160008152602001600081525090565b6040805190810160405280600073ffffffffffffffffffffffffffffffffffffffff1681526020016000815250905600a165627a7a72305820e003610d6c60962151ae99be67f2a5619bdc98bf0e6bf68c7ccd2fb2abad8bc90029",
  "source": "pragma solidity ^0.4.24;\n\nimport './OpenZeppelin/Ownable.sol';\nimport './OpenZeppelin/Pausable.sol';\nimport './User.sol';\n\n /**\n  * @title ShastaMarketplace\n  * This contract will manage the creation and execution of bids and asks\n  *\n  */\n\ncontract ShastaMarket is Ownable, Pausable {\n\n    User public userStorage;\n    mapping(address => uint[]) private addressToBidsIndex;\n    mapping(address => uint[]) private addressToOffersIndex;\n    Bid[] private bidsList;\n    Offer[] private offersList;\n    \n    struct Bid {\n        address seller;\n        uint value;\n    }\n\n    struct Offer {\n        address buyer;\n        uint value;\n        uint locationIndex;\n    }\n\n    event newBid(address seller, uint value);\n    event newOffer(address buyer, uint value, uint locationIndex);\n\n    constructor () public {\n        owner = msg.sender;\n    }\n    \n    /**\n    * @dev Throws if non-user is trying to interact with the contract method.\n    */\n    modifier onlyUser() {\n        require(userStorage.hasUser(msg.sender));\n        _;\n    }\n\n    function createBid(uint _value, address _seller) public whenNotPaused {\n        Bid memory myBid;\n        myBid.seller = _seller;\n        myBid.value = _value;\n        \n        uint index = bidsList.push(myBid) - 1;\n        addressToBidsIndex[msg.sender].push(index);\n        emit newBid(msg.sender, _value);\n    }\n    \n    function createOffer(uint _value) public whenNotPaused {\n        Offer memory myOffer;\n        myOffer.buyer = msg.sender;\n        myOffer.value = _value;\n        \n        uint index = offersList.push(myOffer) - 1;\n        addressToOffersIndex[msg.sender].push(index);\n        emit newOffer(msg.sender, _value, 999);\n    }\n\n    // Not secure, for demo purposes only, this call need to be whitelisted via a modifier.\n    function createOfferFor(address origin, uint _value, uint _locationIndex) public whenNotPaused {\n        Offer memory myOffer;\n        myOffer.buyer = origin;\n        myOffer.value = _value;\n        myOffer.locationIndex = _locationIndex;\n            \n        uint index = offersList.push(myOffer) - 1;\n        addressToOffersIndex[origin].push(index);\n        emit newOffer(origin, _value, _locationIndex);\n    }\n    \n    function getBidFromIndex(uint _index) public view returns(uint, address) {\n        require(bidsList.length > _index);\n        return (bidsList[_index].value, bidsList[_index].seller);\n    }\n    \n    function getBidsIndexesFromAddress() public view returns(uint[]) {\n        return addressToBidsIndex[msg.sender];\n    }\n\n    function getOfferFromIndex(uint _index) public view returns(uint, address, uint) {\n        require(offersList.length > _index);\n        return (offersList[_index].value, offersList[_index].buyer, offersList[_index].locationIndex);\n    }\n    \n    function getOfferIndexesFromAddress() public view returns(uint[]) {\n        return addressToOffersIndex[msg.sender];\n    }\n    function getBidsLength() public view returns(uint) {\n        return bidsList.length;\n    }\n    function getOffersLength() public view returns(uint) {\n        return offersList.length;\n    }\n      function updateUser(bytes ipfsHash) private returns(bool success)\n  {\n    return userStorage.updateUser(ipfsHash);\n  }  \n\nfunction createUser(bytes16 username, bytes ipfsHash) public returns(bool success)\n  {\n      return userStorage.createUser(username, ipfsHash);\n\n  }\n}",
  "sourcePath": "/home/kartojal/repos/ShastaOS/contracts/ShastaMarket.sol",
  "compiler": {
    "name": "solc",
    "version": "0.4.24+commit.e67f0147.Emscripten.clang"
  },
  "schemaVersion": "2.0.1",
  "updatedAt": "2018-09-06T14:37:17.723Z"
}