{
  "contractName": "User",
  "abi": [
    {
      "constant": true,
      "inputs": [],
      "name": "shastaMarket",
      "outputs": [
        {
          "name": "",
          "type": "address"
        }
      ],
      "payable": false,
      "stateMutability": "view",
      "type": "function"
    },
    {
      "constant": true,
      "inputs": [],
      "name": "shastaMarketAddress",
      "outputs": [
        {
          "name": "",
          "type": "address"
        }
      ],
      "payable": false,
      "stateMutability": "view",
      "type": "function"
    },
    {
      "inputs": [
        {
          "name": "_shastaMarketAddress",
          "type": "address"
        }
      ],
      "payable": false,
      "stateMutability": "nonpayable",
      "type": "constructor"
    },
    {
      "anonymous": false,
      "inputs": [
        {
          "indexed": false,
          "name": "username",
          "type": "bytes16"
        },
        {
          "indexed": false,
          "name": "owner",
          "type": "address"
        }
      ],
      "name": "NewUser",
      "type": "event"
    },
    {
      "anonymous": false,
      "inputs": [
        {
          "indexed": false,
          "name": "owner",
          "type": "address"
        },
        {
          "indexed": false,
          "name": "ipfsHash",
          "type": "bytes"
        }
      ],
      "name": "UpdatedUser",
      "type": "event"
    },
    {
      "constant": false,
      "inputs": [
        {
          "name": "from",
          "type": "address"
        },
        {
          "name": "amount",
          "type": "uint256"
        }
      ],
      "name": "withdraw",
      "outputs": [
        {
          "name": "",
          "type": "bool"
        }
      ],
      "payable": false,
      "stateMutability": "nonpayable",
      "type": "function"
    },
    {
      "constant": true,
      "inputs": [
        {
          "name": "userAddress",
          "type": "address"
        }
      ],
      "name": "hasUser",
      "outputs": [
        {
          "name": "hasIndeed",
          "type": "bool"
        }
      ],
      "payable": false,
      "stateMutability": "view",
      "type": "function"
    },
    {
      "constant": true,
      "inputs": [],
      "name": "getBalance",
      "outputs": [
        {
          "name": "",
          "type": "uint256"
        }
      ],
      "payable": false,
      "stateMutability": "view",
      "type": "function"
    },
    {
      "constant": true,
      "inputs": [
        {
          "name": "username",
          "type": "bytes16"
        }
      ],
      "name": "usernameTaken",
      "outputs": [
        {
          "name": "takenIndeed",
          "type": "bool"
        }
      ],
      "payable": false,
      "stateMutability": "view",
      "type": "function"
    },
    {
      "constant": false,
      "inputs": [
        {
          "name": "username",
          "type": "bytes16"
        },
        {
          "name": "ipfsHash",
          "type": "bytes"
        }
      ],
      "name": "createUser",
      "outputs": [
        {
          "name": "success",
          "type": "bool"
        }
      ],
      "payable": false,
      "stateMutability": "nonpayable",
      "type": "function"
    },
    {
      "constant": false,
      "inputs": [
        {
          "name": "_value",
          "type": "uint256"
        },
        {
          "name": "ipfsHash",
          "type": "bytes"
        }
      ],
      "name": "createBid",
      "outputs": [],
      "payable": true,
      "stateMutability": "payable",
      "type": "function"
    },
    {
      "constant": false,
      "inputs": [
        {
          "name": "_value",
          "type": "uint256"
        },
        {
          "name": "ipfsHash",
          "type": "bytes"
        }
      ],
      "name": "createOffer",
      "outputs": [],
      "payable": true,
      "stateMutability": "payable",
      "type": "function"
    },
    {
      "constant": false,
      "inputs": [
        {
          "name": "ipfsHash",
          "type": "bytes"
        }
      ],
      "name": "updateUser",
      "outputs": [
        {
          "name": "success",
          "type": "bool"
        }
      ],
      "payable": true,
      "stateMutability": "payable",
      "type": "function"
    },
    {
      "constant": true,
      "inputs": [],
      "name": "getUserCount",
      "outputs": [
        {
          "name": "count",
          "type": "uint256"
        }
      ],
      "payable": false,
      "stateMutability": "view",
      "type": "function"
    },
    {
      "constant": true,
      "inputs": [
        {
          "name": "index",
          "type": "uint256"
        }
      ],
      "name": "getAddressByIndex",
      "outputs": [
        {
          "name": "userAddress",
          "type": "address"
        }
      ],
      "payable": false,
      "stateMutability": "view",
      "type": "function"
    },
    {
      "constant": true,
      "inputs": [
        {
          "name": "index",
          "type": "uint256"
        }
      ],
      "name": "getIpfsHashByIndex",
      "outputs": [
        {
          "name": "ipfsHash",
          "type": "bytes"
        }
      ],
      "payable": false,
      "stateMutability": "view",
      "type": "function"
    },
    {
      "constant": true,
      "inputs": [
        {
          "name": "userAddress",
          "type": "address"
        }
      ],
      "name": "getUserByAddress",
      "outputs": [
        {
          "name": "index",
          "type": "uint256"
        },
        {
          "name": "username",
          "type": "bytes16"
        },
        {
          "name": "ipfsHash",
          "type": "bytes"
        }
      ],
      "payable": false,
      "stateMutability": "view",
      "type": "function"
    },
    {
      "constant": true,
      "inputs": [
        {
          "name": "userAddress",
          "type": "address"
        }
      ],
      "name": "getIndexByAddress",
      "outputs": [
        {
          "name": "index",
          "type": "uint256"
        }
      ],
      "payable": false,
      "stateMutability": "view",
      "type": "function"
    },
    {
      "constant": true,
      "inputs": [
        {
          "name": "userAddress",
          "type": "address"
        }
      ],
      "name": "getUsernameByAddress",
      "outputs": [
        {
          "name": "username",
          "type": "bytes16"
        }
      ],
      "payable": false,
      "stateMutability": "view",
      "type": "function"
    },
    {
      "constant": true,
      "inputs": [
        {
          "name": "userAddress",
          "type": "address"
        }
      ],
      "name": "getIpfsHashByAddress",
      "outputs": [
        {
          "name": "ipfsHash",
          "type": "bytes"
        }
      ],
      "payable": false,
      "stateMutability": "view",
      "type": "function"
    },
    {
      "constant": true,
      "inputs": [
        {
          "name": "username",
          "type": "bytes16"
        }
      ],
      "name": "getAddressByUsername",
      "outputs": [
        {
          "name": "userAddress",
          "type": "address"
        }
      ],
      "payable": false,
      "stateMutability": "view",
      "type": "function"
    },
    {
      "constant": true,
      "inputs": [
        {
          "name": "username",
          "type": "bytes16"
        }
      ],
      "name": "getIpfsHashByUsername",
      "outputs": [
        {
          "name": "ipfsHash",
          "type": "bytes"
        }
      ],
      "payable": false,
      "stateMutability": "view",
      "type": "function"
    }
  ],
  "bytecode": "0x60806040523480156200001157600080fd5b5060405160208062001de88339810180604052810190808051906020019092919050505060053390806001815401808255809150509060018203906000526020600020016000909192909190916101000a81548173ffffffffffffffffffffffffffffffffffffffff021916908373ffffffffffffffffffffffffffffffffffffffff16021790555050600680600181540180825580915050906001820390600052602060002090600291828204019190066010027f73656c6600000000000000000000000000000000000000000000000000000000909190916101000a8154816fffffffffffffffffffffffffffffffff0219169083700100000000000000000000000000000000900402179055505060078060018154018082558091505090600182039060005260206000200160006040805190810160405280600d81526020017f6e6f742d617661696c61626c6500000000000000000000000000000000000000815250909190915090805190602001906200019292919062000280565b505033600860006101000a81548173ffffffffffffffffffffffffffffffffffffffff021916908373ffffffffffffffffffffffffffffffffffffffff16021790555080600460006101000a81548173ffffffffffffffffffffffffffffffffffffffff021916908373ffffffffffffffffffffffffffffffffffffffff160217905550600460009054906101000a900473ffffffffffffffffffffffffffffffffffffffff16600360006101000a81548173ffffffffffffffffffffffffffffffffffffffff021916908373ffffffffffffffffffffffffffffffffffffffff160217905550506200032f565b828054600181600116156101000203166002900490600052602060002090601f016020900481019282601f10620002c357805160ff1916838001178555620002f4565b82800160010185558215620002f4579182015b82811115620002f3578251825591602001919060010190620002d6565b5b50905062000303919062000307565b5090565b6200032c91905b80821115620003285760008160009055506001016200030e565b5090565b90565b611aa9806200033f6000396000f300608060405260043610610107576000357c0100000000000000000000000000000000000000000000000000000000900463ffffffff168063026d11701461010c5780630810fe84146101805780630ab7c933146101e657806312065fe01461029f57806314feb681146102ca57806316b7addf146103215780631973ef91146103795780631e7c5a90146103d057806329f78d8814610427578063402f707e146104cd578063422f90a11461056b57806363db68db146105d157806369c212f614610651578063a6c4ec0e14610741578063a74380a61461079c578063b5cb15f714610858578063ce10cf8814610883578063ed1a998d146108f0578063f3fef3a31461096d575b600080fd5b610166600480360381019080803590602001908201803590602001908080601f01602080910402602001604051908101604052809392919081815260200183838082843782019150505050505091929192905050506109d2565b604051808215151515815260200191505060405180910390f35b6101e460048036038101908080359060200190929190803590602001908201803590602001908080601f0160208091040260200160405190810160405280939291908181526020018383808284378201915050505050509192919290505050610b7a565b005b3480156101f257600080fd5b5061022460048036038101908080356fffffffffffffffffffffffffffffffff19169060200190929190505050610c65565b6040518080602001828103825283818151815260200191508051906020019080838360005b83811015610264578082015181840152602081019050610249565b50505050905090810190601f1680156102915780820380516001836020036101000a031916815260200191505b509250505060405180910390f35b3480156102ab57600080fd5b506102b4610dd6565b6040518082815260200191505060405180910390f35b3480156102d657600080fd5b506102df610e1d565b604051808273ffffffffffffffffffffffffffffffffffffffff1673ffffffffffffffffffffffffffffffffffffffff16815260200191505060405180910390f35b34801561032d57600080fd5b5061035f60048036038101908080356fffffffffffffffffffffffffffffffff19169060200190929190505050610e43565b604051808215151515815260200191505060405180910390f35b34801561038557600080fd5b506103ba600480360381019080803573ffffffffffffffffffffffffffffffffffffffff169060200190929190505050610ec5565b6040518082815260200191505060405180910390f35b3480156103dc57600080fd5b506103e5610f21565b604051808273ffffffffffffffffffffffffffffffffffffffff1673ffffffffffffffffffffffffffffffffffffffff16815260200191505060405180910390f35b34801561043357600080fd5b5061045260048036038101908080359060200190929190505050610f47565b6040518080602001828103825283818151815260200191508051906020019080838360005b83811015610492578082015181840152602081019050610477565b50505050905090810190601f1680156104bf5780820380516001836020036101000a031916815260200191505b509250505060405180910390f35b3480156104d957600080fd5b5061055160048036038101908080356fffffffffffffffffffffffffffffffff19169060200190929190803590602001908201803590602001908080601f0160208091040260200160405190810160405280939291908181526020018383808284378201915050505050509192919290505050611015565b604051808215151515815260200191505060405180910390f35b6105cf60048036038101908080359060200190929190803590602001908201803590602001908080601f01602080910402602001604051908101604052809392919081815260200183838082843782019150505050505091929192905050506112c2565b005b3480156105dd57600080fd5b5061060f60048036038101908080356fffffffffffffffffffffffffffffffff191690602001909291905050506113ad565b604051808273ffffffffffffffffffffffffffffffffffffffff1673ffffffffffffffffffffffffffffffffffffffff16815260200191505060405180910390f35b34801561065d57600080fd5b50610692600480360381019080803573ffffffffffffffffffffffffffffffffffffffff16906020019092919050505061143d565b60405180848152602001836fffffffffffffffffffffffffffffffff19166fffffffffffffffffffffffffffffffff1916815260200180602001828103825283818151815260200191508051906020019080838360005b838110156107045780820151818401526020810190506106e9565b50505050905090810190601f1680156107315780820380516001836020036101000a031916815260200191505b5094505050505060405180910390f35b34801561074d57600080fd5b50610782600480360381019080803573ffffffffffffffffffffffffffffffffffffffff169060200190929190505050611614565b604051808215151515815260200191505060405180910390f35b3480156107a857600080fd5b506107dd600480360381019080803573ffffffffffffffffffffffffffffffffffffffff16906020019092919050505061165e565b6040518080602001828103825283818151815260200191508051906020019080838360005b8381101561081d578082015181840152602081019050610802565b50505050905090810190601f16801561084a5780820380516001836020036101000a031916815260200191505b509250505060405180910390f35b34801561086457600080fd5b5061086d61176b565b6040518082815260200191505060405180910390f35b34801561088f57600080fd5b506108ae60048036038101908080359060200190929190505050611778565b604051808273ffffffffffffffffffffffffffffffffffffffff1673ffffffffffffffffffffffffffffffffffffffff16815260200191505060405180910390f35b3480156108fc57600080fd5b50610931600480360381019080803573ffffffffffffffffffffffffffffffffffffffff1690602001909291905050506117ce565b60405180826fffffffffffffffffffffffffffffffff19166fffffffffffffffffffffffffffffffff1916815260200191505060405180910390f35b34801561097957600080fd5b506109b8600480360381019080803573ffffffffffffffffffffffffffffffffffffffff1690602001909291908035906020019092919050505061186b565b604051808215151515815260200191505060405180910390f35b60006109dd33611614565b15156109e857600080fd5b8160076000803373ffffffffffffffffffffffffffffffffffffffff1673ffffffffffffffffffffffffffffffffffffffff16815260200190815260200160002054815481101515610a3657fe5b906000526020600020019080519060200190610a539291906119d8565b5034600260003373ffffffffffffffffffffffffffffffffffffffff1673ffffffffffffffffffffffffffffffffffffffff168152602001908152602001600020600082825401925050819055507f4d2f3c458728cc855fca6ac7346011c667a2342bb0960e935972804772a7fdde3383604051808373ffffffffffffffffffffffffffffffffffffffff1673ffffffffffffffffffffffffffffffffffffffff16815260200180602001828103825283818151815260200191508051906020019080838360005b83811015610b36578082015181840152602081019050610b1b565b50505050905090810190601f168015610b635780820380516001836020036101000a031916815260200191505b50935050505060405180910390a160019050919050565b600360009054906101000a900473ffffffffffffffffffffffffffffffffffffffff1673ffffffffffffffffffffffffffffffffffffffff1663283eddaf83336040518363ffffffff167c0100000000000000000000000000000000000000000000000000000000028152600401808381526020018273ffffffffffffffffffffffffffffffffffffffff1673ffffffffffffffffffffffffffffffffffffffff16815260200192505050600060405180830381600087803b158015610c3f57600080fd5b505af1158015610c53573d6000803e3d6000fd5b50505050610c60816109d2565b505050565b6060610c7082610e43565b1515610ce4576040517f08c379a00000000000000000000000000000000000000000000000000000000081526004018080602001828103825260198152602001807f557365726e616d6520646f6573206e6f74206578697374732e0000000000000081525060200191505060405180910390fd5b600760016000846fffffffffffffffffffffffffffffffff19166fffffffffffffffffffffffffffffffff1916815260200190815260200160002054815481101515610d2c57fe5b906000526020600020018054600181600116156101000203166002900480601f016020809104026020016040519081016040528092919081815260200182805460018160011615610100020316600290048015610dca5780601f10610d9f57610100808354040283529160200191610dca565b820191906000526020600020905b815481529060010190602001808311610dad57829003601f168201915b50505050509050919050565b6000600260003373ffffffffffffffffffffffffffffffffffffffff1673ffffffffffffffffffffffffffffffffffffffff16815260200190815260200160002054905090565b600360009054906101000a900473ffffffffffffffffffffffffffffffffffffffff1681565b60008060016000846fffffffffffffffffffffffffffffffff19166fffffffffffffffffffffffffffffffff19168152602001908152602001600020541180610ebe57507f73656c6600000000000000000000000000000000000000000000000000000000826fffffffffffffffffffffffffffffffff1916145b9050919050565b6000610ed082611614565b1515610edb57600080fd5b6000808373ffffffffffffffffffffffffffffffffffffffff1673ffffffffffffffffffffffffffffffffffffffff168152602001908152602001600020549050919050565b600460009054906101000a900473ffffffffffffffffffffffffffffffffffffffff1681565b606060058054905082101515610f5c57600080fd5b600782815481101515610f6b57fe5b906000526020600020018054600181600116156101000203166002900480601f0160208091040260200160405190810160405280929190818152602001828054600181600116156101000203166002900480156110095780601f10610fde57610100808354040283529160200191611009565b820191906000526020600020905b815481529060010190602001808311610fec57829003601f168201915b50505050509050919050565b600061102033611614565b15151561102c57600080fd5b61103583610e43565b15151561104157600080fd5b60053390806001815401808255809150509060018203906000526020600020016000909192909190916101000a81548173ffffffffffffffffffffffffffffffffffffffff021916908373ffffffffffffffffffffffffffffffffffffffff16021790555050600683908060018154018082558091505090600182039060005260206000209060029182820401919006601002909192909190916101000a8154816fffffffffffffffffffffffffffffffff02191690837001000000000000000000000000000000009004021790555050600782908060018154018082558091505090600182039060005260206000200160009091929091909150908051906020019061114f9291906119d8565b50506000600260003373ffffffffffffffffffffffffffffffffffffffff1673ffffffffffffffffffffffffffffffffffffffff168152602001908152602001600020819055506001600580549050036000803373ffffffffffffffffffffffffffffffffffffffff1673ffffffffffffffffffffffffffffffffffffffff1681526020019081526020016000208190555060016005805490500360016000856fffffffffffffffffffffffffffffffff19166fffffffffffffffffffffffffffffffff19168152602001908152602001600020819055507f70bc5abb7245e65daa5b8301ce3dc2dfeaac3fcfc4a0196348ce649eae8c4286833360405180836fffffffffffffffffffffffffffffffff19166fffffffffffffffffffffffffffffffff191681526020018273ffffffffffffffffffffffffffffffffffffffff1673ffffffffffffffffffffffffffffffffffffffff1681526020019250505060405180910390a16001905092915050565b600360009054906101000a900473ffffffffffffffffffffffffffffffffffffffff1673ffffffffffffffffffffffffffffffffffffffff1663b8bd1b1d83336040518363ffffffff167c0100000000000000000000000000000000000000000000000000000000028152600401808381526020018273ffffffffffffffffffffffffffffffffffffffff1673ffffffffffffffffffffffffffffffffffffffff16815260200192505050600060405180830381600087803b15801561138757600080fd5b505af115801561139b573d6000803e3d6000fd5b505050506113a8816109d2565b505050565b60006113b882610e43565b15156113c357600080fd5b600560016000846fffffffffffffffffffffffffffffffff19166fffffffffffffffffffffffffffffffff191681526020019081526020016000205481548110151561140b57fe5b9060005260206000200160009054906101000a900473ffffffffffffffffffffffffffffffffffffffff169050919050565b60008060606005805490508310151561145557600080fd5b6000808573ffffffffffffffffffffffffffffffffffffffff1673ffffffffffffffffffffffffffffffffffffffff1681526020019081526020016000205460066000808773ffffffffffffffffffffffffffffffffffffffff1673ffffffffffffffffffffffffffffffffffffffff168152602001908152602001600020548154811015156114e157fe5b90600052602060002090600291828204019190066010029054906101000a90047001000000000000000000000000000000000260076000808873ffffffffffffffffffffffffffffffffffffffff1673ffffffffffffffffffffffffffffffffffffffff1681526020019081526020016000205481548110151561156157fe5b90600052602060002001808054600181600116156101000203166002900480601f0160208091040260200160405190810160405280929190818152602001828054600181600116156101000203166002900480156116005780601f106115d557610100808354040283529160200191611600565b820191906000526020600020905b8154815290600101906020018083116115e357829003601f168201915b505050505090509250925092509193909250565b6000806000808473ffffffffffffffffffffffffffffffffffffffff1673ffffffffffffffffffffffffffffffffffffffff16815260200190815260200160002054119050919050565b606061166982611614565b151561167457600080fd5b60076000808473ffffffffffffffffffffffffffffffffffffffff1673ffffffffffffffffffffffffffffffffffffffff168152602001908152602001600020548154811015156116c157fe5b906000526020600020018054600181600116156101000203166002900480601f01602080910402602001604051908101604052809291908181526020018280546001816001161561010002031660029004801561175f5780601f106117345761010080835404028352916020019161175f565b820191906000526020600020905b81548152906001019060200180831161174257829003601f168201915b50505050509050919050565b6000600580549050905090565b60006005805490508210151561178d57600080fd5b60058281548110151561179c57fe5b9060005260206000200160009054906101000a900473ffffffffffffffffffffffffffffffffffffffff169050919050565b60006117d982611614565b15156117e457600080fd5b60066000808473ffffffffffffffffffffffffffffffffffffffff1673ffffffffffffffffffffffffffffffffffffffff1681526020019081526020016000205481548110151561183157fe5b90600052602060002090600291828204019190066010029054906101000a9004700100000000000000000000000000000000029050919050565b6000600860009054906101000a900473ffffffffffffffffffffffffffffffffffffffff1673ffffffffffffffffffffffffffffffffffffffff163373ffffffffffffffffffffffffffffffffffffffff16141515156118ca57600080fd5b600260008473ffffffffffffffffffffffffffffffffffffffff1673ffffffffffffffffffffffffffffffffffffffff16815260200190815260200160002054821115151561191857600080fd5b81600260008573ffffffffffffffffffffffffffffffffffffffff1673ffffffffffffffffffffffffffffffffffffffff16815260200190815260200160002060008282540392505081905550600860009054906101000a900473ffffffffffffffffffffffffffffffffffffffff1673ffffffffffffffffffffffffffffffffffffffff166108fc839081150290604051600060405180830381858888f193505050501580156119cd573d6000803e3d6000fd5b506001905092915050565b828054600181600116156101000203166002900490600052602060002090601f016020900481019282601f10611a1957805160ff1916838001178555611a47565b82800160010185558215611a47579182015b82811115611a46578251825591602001919060010190611a2b565b5b509050611a549190611a58565b5090565b611a7a91905b80821115611a76576000816000905550600101611a5e565b5090565b905600a165627a7a72305820703bd67828d6550bc9443d5fa129afc3d19e0048aa0084a66eebbc301d235ecc0029",
  "source": "pragma solidity ^0.4.24;\n\nimport \"openzeppelin-solidity/contracts/math/SafeMath.sol\";\nimport \"./ShastaMarket.sol\";\n\ncontract User {\n    \n  mapping(address => uint) private addressToIndex;\n  mapping(bytes16 => uint) private usernameToIndex;\n  mapping(address => uint) private addressToBalance;\n\n  event NewUser(bytes16 username, address owner);\n  event UpdatedUser(address owner, bytes ipfsHash);\n\n  ShastaMarket public shastaMarket;\n  address public shastaMarketAddress;\n  address[] private addresses;\n  bytes16[] private usernames;\n  bytes[] private ipfsHashes;\n  address owner;\n  \n  modifier onlyOwner() {\n    require (msg.sender != owner);\n    _;\n  }\n\n  constructor(address _shastaMarketAddress) public {\n\n    // mappings are virtually initialized to zero values so we need to \"waste\" the first element of the arrays\n    // instead of wasting it we use it to create a user for the contract itself\n    addresses.push(msg.sender);\n    usernames.push('self');\n    ipfsHashes.push('not-available');\n    owner = msg.sender;\n    shastaMarketAddress = _shastaMarketAddress;\n    shastaMarket = ShastaMarket(shastaMarketAddress);\n\n  }\n\n  function withdraw(address from, uint amount) public onlyOwner returns(bool) {\n      \n      require(amount <= addressToBalance[from]);\n      addressToBalance[from] -= amount;\n      owner.transfer(amount);\n      return true;\n\n  }\n\n  function hasUser(address userAddress) public view returns(bool hasIndeed) \n  {\n    return (addressToIndex[userAddress] > 0);\n  }\n\n\n  function getBalance() public view returns (uint){\n    return addressToBalance[msg.sender];\n  }\n  \n  function usernameTaken(bytes16 username) public view returns(bool takenIndeed) \n  {\n    return (usernameToIndex[username] > 0 || username == 'self');\n  }\n  \n  function createUser(bytes16 username, bytes ipfsHash) public returns(bool success)\n  {\n    require(!hasUser(msg.sender));\n    require(!usernameTaken(username));\n\n    addresses.push(msg.sender);\n    usernames.push(username);\n    ipfsHashes.push(ipfsHash);\n    addressToBalance[msg.sender] = 0;\n\n    addressToIndex[msg.sender] = addresses.length - 1;\n    usernameToIndex[username] = addresses.length - 1;\n    \n    emit NewUser(username, msg.sender);\n    return true;\n  }\n\nfunction createBid(uint _value, bytes ipfsHash) public payable {\n       shastaMarket.createBid(_value, msg.sender);\n        updateUser(ipfsHash);\n}\n\nfunction createOffer(uint _value, bytes ipfsHash) public payable {\n       shastaMarket.createOffer(_value, msg.sender);\n        updateUser(ipfsHash);\n}\n  function updateUser(bytes ipfsHash) public payable returns(bool success)\n  {\n    require(hasUser(msg.sender));\n    \n    ipfsHashes[addressToIndex[msg.sender]] = ipfsHash;\n    addressToBalance[msg.sender] += msg.value;\n    \n    emit UpdatedUser(msg.sender, ipfsHash);\n    return true;\n  }  \n \n  function getUserCount() public view returns(uint count)\n  {\n    return addresses.length;\n  }\n\n  // get by index\n/*   function getUserByIndex(uint index) public view returns(address userAddress, bytes16 username, bytes ipfsHash) {\n    require(index < addresses.length);\n\n    return(addresses[index], usernames[index], ipfsHashes[index]);\n  } */\n\n  function getAddressByIndex(uint index) public view returns(address userAddress)\n  {\n    require(index < addresses.length);\n\n    return addresses[index];\n  }\n\n/*   function getUsernameByIndex(uint index) public view returns(bytes16 username)\n  {\n    require(index < addresses.length);\n\n    return usernames[index];\n  } */\n\n  function getIpfsHashByIndex(uint index) public view returns(bytes ipfsHash)\n  {\n    require(index < addresses.length);\n\n    return ipfsHashes[index];\n  }\n\n  // get by address\n  function getUserByAddress(address userAddress) public view returns(uint index, bytes16 username, bytes ipfsHash) {\n    require(index < addresses.length);\n\n    return(addressToIndex[userAddress], usernames[addressToIndex[userAddress]], ipfsHashes[addressToIndex[userAddress]]);\n  }\n\n  function getIndexByAddress(address userAddress) public view returns(uint index)\n  {\n    require(hasUser(userAddress));\n\n    return addressToIndex[userAddress];\n  }\n\n  function getUsernameByAddress(address userAddress) public view returns(bytes16 username)\n  {\n    require(hasUser(userAddress));\n\n    return usernames[addressToIndex[userAddress]];\n  }\n\n  function getIpfsHashByAddress(address userAddress) public view returns(bytes ipfsHash)\n  {\n    require(hasUser(userAddress));\n\n    return ipfsHashes[addressToIndex[userAddress]];\n  }\n\n  // get by username\n /*  function getUserByUsername(bytes16 username) public view returns(uint index, address userAddress, bytes ipfsHash) {\n    require(index < addresses.length);\n\n    return(usernameToIndex[username], addresses[usernameToIndex[username]], ipfsHashes[usernameToIndex[username]]);\n  } */\n\n/*   function getIndexByUsername(bytes16 username) public view returns(uint index)\n  {\n    require(usernameTaken(username));\n\n    return usernameToIndex[username];\n  }   */\n\n  function getAddressByUsername(bytes16 username) public view returns(address userAddress)\n  {\n    require(usernameTaken(username));\n\n    return addresses[usernameToIndex[username]];\n  }  \n\n  function getIpfsHashByUsername(bytes16 username) public view returns(bytes ipfsHash)\n  {\n    require(usernameTaken(username), \"Username does not exists.\");\n\n    return ipfsHashes[usernameToIndex[username]];\n  }\n\n}",
  "sourcePath": "/home/david/repos/ShastaOS/contracts/User.sol",
  "compiler": {
    "name": "solc",
    "version": "0.4.24+commit.e67f0147.Emscripten.clang"
  },
  "schemaVersion": "3.0.0-beta.0",
  "updatedAt": "2018-09-20T08:57:53.086Z"
}