{
  "contractName": "User",
  "abi": [
    {
      "constant": true,
      "inputs": [],
      "name": "shastaMarket",
      "outputs": [
        {
          "name": "",
          "type": "address"
        }
      ],
      "payable": false,
      "stateMutability": "view",
      "type": "function"
    },
    {
      "constant": true,
      "inputs": [],
      "name": "shastaMarketAddress",
      "outputs": [
        {
          "name": "",
          "type": "address"
        }
      ],
      "payable": false,
      "stateMutability": "view",
      "type": "function"
    },
    {
      "inputs": [
        {
          "name": "_shastaMarketAddress",
          "type": "address"
        }
      ],
      "payable": false,
      "stateMutability": "nonpayable",
      "type": "constructor"
    },
    {
      "anonymous": false,
      "inputs": [
        {
          "indexed": false,
          "name": "username",
          "type": "bytes16"
        },
        {
          "indexed": false,
          "name": "owner",
          "type": "address"
        }
      ],
      "name": "NewUser",
      "type": "event"
    },
    {
      "anonymous": false,
      "inputs": [
        {
          "indexed": false,
          "name": "owner",
          "type": "address"
        },
        {
          "indexed": false,
          "name": "ipfsHash",
          "type": "bytes"
        }
      ],
      "name": "UpdatedUser",
      "type": "event"
    },
    {
      "constant": true,
      "inputs": [
        {
          "name": "userAddress",
          "type": "address"
        }
      ],
      "name": "hasUser",
      "outputs": [
        {
          "name": "",
          "type": "bool"
        }
      ],
      "payable": false,
      "stateMutability": "view",
      "type": "function"
    },
    {
      "constant": true,
      "inputs": [
        {
          "name": "username",
          "type": "bytes16"
        }
      ],
      "name": "usernameTaken",
      "outputs": [
        {
          "name": "",
          "type": "bool"
        }
      ],
      "payable": false,
      "stateMutability": "view",
      "type": "function"
    },
    {
      "constant": false,
      "inputs": [
        {
          "name": "username",
          "type": "bytes16"
        },
        {
          "name": "ipfsHash",
          "type": "bytes"
        }
      ],
      "name": "createUser",
      "outputs": [
        {
          "name": "",
          "type": "bool"
        }
      ],
      "payable": false,
      "stateMutability": "nonpayable",
      "type": "function"
    },
    {
      "constant": false,
      "inputs": [
        {
          "name": "_value",
          "type": "uint256"
        },
        {
          "name": "ipfsHash",
          "type": "bytes"
        }
      ],
      "name": "createOffer",
      "outputs": [],
      "payable": true,
      "stateMutability": "payable",
      "type": "function"
    },
    {
      "constant": false,
      "inputs": [
        {
          "name": "_id",
          "type": "uint256"
        },
        {
          "name": "ipfsHash",
          "type": "bytes"
        }
      ],
      "name": "cancelOffer",
      "outputs": [],
      "payable": true,
      "stateMutability": "payable",
      "type": "function"
    },
    {
      "constant": false,
      "inputs": [
        {
          "name": "ipfsHash",
          "type": "bytes"
        }
      ],
      "name": "updateUser",
      "outputs": [
        {
          "name": "success",
          "type": "bool"
        }
      ],
      "payable": true,
      "stateMutability": "payable",
      "type": "function"
    },
    {
      "constant": true,
      "inputs": [],
      "name": "getUserCount",
      "outputs": [
        {
          "name": "count",
          "type": "uint256"
        }
      ],
      "payable": false,
      "stateMutability": "view",
      "type": "function"
    },
    {
      "constant": true,
      "inputs": [
        {
          "name": "index",
          "type": "uint256"
        }
      ],
      "name": "getAddressByIndex",
      "outputs": [
        {
          "name": "userAddress",
          "type": "address"
        }
      ],
      "payable": false,
      "stateMutability": "view",
      "type": "function"
    },
    {
      "constant": true,
      "inputs": [
        {
          "name": "username",
          "type": "bytes16"
        }
      ],
      "name": "getAddressByUsername",
      "outputs": [
        {
          "name": "userAddress",
          "type": "address"
        }
      ],
      "payable": false,
      "stateMutability": "view",
      "type": "function"
    },
    {
      "constant": true,
      "inputs": [
        {
          "name": "userAddress",
          "type": "address"
        }
      ],
      "name": "getUserByAddress",
      "outputs": [
        {
          "name": "index",
          "type": "uint256"
        },
        {
          "name": "username",
          "type": "bytes16"
        },
        {
          "name": "ipfsHash",
          "type": "bytes"
        }
      ],
      "payable": false,
      "stateMutability": "view",
      "type": "function"
    },
    {
      "constant": true,
      "inputs": [
        {
          "name": "userAddress",
          "type": "address"
        }
      ],
      "name": "getUsernameByAddress",
      "outputs": [
        {
          "name": "username",
          "type": "bytes16"
        }
      ],
      "payable": false,
      "stateMutability": "view",
      "type": "function"
    },
    {
      "constant": true,
      "inputs": [
        {
          "name": "index",
          "type": "uint256"
        }
      ],
      "name": "getIpfsHashByIndex",
      "outputs": [
        {
          "name": "ipfsHash",
          "type": "bytes"
        }
      ],
      "payable": false,
      "stateMutability": "view",
      "type": "function"
    },
    {
      "constant": true,
      "inputs": [
        {
          "name": "userAddress",
          "type": "address"
        }
      ],
      "name": "getIpfsHashByAddress",
      "outputs": [
        {
          "name": "ipfsHash",
          "type": "bytes"
        }
      ],
      "payable": false,
      "stateMutability": "view",
      "type": "function"
    },
    {
      "constant": true,
      "inputs": [
        {
          "name": "username",
          "type": "bytes16"
        }
      ],
      "name": "getIpfsHashByUsername",
      "outputs": [
        {
          "name": "ipfsHash",
          "type": "bytes"
        }
      ],
      "payable": false,
      "stateMutability": "view",
      "type": "function"
    },
    {
      "constant": true,
      "inputs": [
        {
          "name": "userAddress",
          "type": "address"
        }
      ],
      "name": "getIndexByAddress",
      "outputs": [
        {
          "name": "index",
          "type": "uint256"
        }
      ],
      "payable": false,
      "stateMutability": "view",
      "type": "function"
    }
  ],
  "bytecode": "0x60806040523480156200001157600080fd5b5060405160208062001b8b8339810180604052810190808051906020019092919050505033600760006101000a81548173ffffffffffffffffffffffffffffffffffffffff021916908373ffffffffffffffffffffffffffffffffffffffff16021790555080600360006101000a81548173ffffffffffffffffffffffffffffffffffffffff021916908373ffffffffffffffffffffffffffffffffffffffff160217905550600360009054906101000a900473ffffffffffffffffffffffffffffffffffffffff16600260006101000a81548173ffffffffffffffffffffffffffffffffffffffff021916908373ffffffffffffffffffffffffffffffffffffffff16021790555060043390806001815401808255809150509060018203906000526020600020016000909192909190916101000a81548173ffffffffffffffffffffffffffffffffffffffff021916908373ffffffffffffffffffffffffffffffffffffffff16021790555050600580600181540180825580915050906001820390600052602060002090600291828204019190066010027f73656c6600000000000000000000000000000000000000000000000000000000909190916101000a8154816fffffffffffffffffffffffffffffffff0219169083700100000000000000000000000000000000900402179055505060068060018154018082558091505090600182039060005260206000200160006040805190810160405280600a81526020017f6e6f497066734861736800000000000000000000000000000000000000000000815250909190915090805190602001906200027792919062000280565b5050506200032f565b828054600181600116156101000203166002900490600052602060002090601f016020900481019282601f10620002c357805160ff1916838001178555620002f4565b82800160010185558215620002f4579182015b82811115620002f3578251825591602001919060010190620002d6565b5b50905062000303919062000307565b5090565b6200032c91905b80821115620003285760008160009055506001016200030e565b5090565b90565b61184c806200033f6000396000f3006080604052600436106100f1576000357c0100000000000000000000000000000000000000000000000000000000900463ffffffff1680630213bbe4146100f6578063026d11701461015c5780630810fe84146101d05780630ab7c9331461023657806314feb681146102ef57806316b7addf146103465780631973ef911461039e5780631e7c5a90146103f557806329f78d881461044c578063402f707e146104f257806363db68db1461059057806369c212f614610610578063a6c4ec0e14610700578063a74380a61461075b578063b5cb15f714610817578063ce10cf8814610842578063ed1a998d146108af575b600080fd5b61015a60048036038101908080359060200190929190803590602001908201803590602001908080601f016020809104026020016040519081016040528093929190818152602001838380828437820191505050505050919291929050505061092c565b005b6101b6600480360381019080803590602001908201803590602001908080601f0160208091040260200160405190810160405280939291908181526020018383808284378201915050505050509192919290505050610a17565b604051808215151515815260200191505060405180910390f35b61023460048036038101908080359060200190929190803590602001908201803590602001908080601f0160208091040260200160405190810160405280939291908181526020018383808284378201915050505050509192919290505050610c01565b005b34801561024257600080fd5b5061027460048036038101908080356fffffffffffffffffffffffffffffffff19169060200190929190505050610cec565b6040518080602001828103825283818151815260200191508051906020019080838360005b838110156102b4578082015181840152602081019050610299565b50505050905090810190601f1680156102e15780820380516001836020036101000a031916815260200191505b509250505060405180910390f35b3480156102fb57600080fd5b50610304610e5d565b604051808273ffffffffffffffffffffffffffffffffffffffff1673ffffffffffffffffffffffffffffffffffffffff16815260200191505060405180910390f35b34801561035257600080fd5b5061038460048036038101908080356fffffffffffffffffffffffffffffffff19169060200190929190505050610e83565b604051808215151515815260200191505060405180910390f35b3480156103aa57600080fd5b506103df600480360381019080803573ffffffffffffffffffffffffffffffffffffffff169060200190929190505050610f05565b6040518082815260200191505060405180910390f35b34801561040157600080fd5b5061040a610f61565b604051808273ffffffffffffffffffffffffffffffffffffffff1673ffffffffffffffffffffffffffffffffffffffff16815260200191505060405180910390f35b34801561045857600080fd5b5061047760048036038101908080359060200190929190505050610f87565b6040518080602001828103825283818151815260200191508051906020019080838360005b838110156104b757808201518184015260208101905061049c565b50505050905090810190601f1680156104e45780820380516001836020036101000a031916815260200191505b509250505060405180910390f35b3480156104fe57600080fd5b5061057660048036038101908080356fffffffffffffffffffffffffffffffff19169060200190929190803590602001908201803590602001908080601f0160208091040260200160405190810160405280939291908181526020018383808284378201915050505050509192919290505050611055565b604051808215151515815260200191505060405180910390f35b34801561059c57600080fd5b506105ce60048036038101908080356fffffffffffffffffffffffffffffffff191690602001909291905050506112bd565b604051808273ffffffffffffffffffffffffffffffffffffffff1673ffffffffffffffffffffffffffffffffffffffff16815260200191505060405180910390f35b34801561061c57600080fd5b50610651600480360381019080803573ffffffffffffffffffffffffffffffffffffffff16906020019092919050505061134d565b60405180848152602001836fffffffffffffffffffffffffffffffff19166fffffffffffffffffffffffffffffffff1916815260200180602001828103825283818151815260200191508051906020019080838360005b838110156106c35780820151818401526020810190506106a8565b50505050905090810190601f1680156106f05780820380516001836020036101000a031916815260200191505b5094505050505060405180910390f35b34801561070c57600080fd5b50610741600480360381019080803573ffffffffffffffffffffffffffffffffffffffff169060200190929190505050611524565b604051808215151515815260200191505060405180910390f35b34801561076757600080fd5b5061079c600480360381019080803573ffffffffffffffffffffffffffffffffffffffff16906020019092919050505061156e565b6040518080602001828103825283818151815260200191508051906020019080838360005b838110156107dc5780820151818401526020810190506107c1565b50505050905090810190601f1680156108095780820380516001836020036101000a031916815260200191505b509250505060405180910390f35b34801561082357600080fd5b5061082c61167b565b6040518082815260200191505060405180910390f35b34801561084e57600080fd5b5061086d60048036038101908080359060200190929190505050611688565b604051808273ffffffffffffffffffffffffffffffffffffffff1673ffffffffffffffffffffffffffffffffffffffff16815260200191505060405180910390f35b3480156108bb57600080fd5b506108f0600480360381019080803573ffffffffffffffffffffffffffffffffffffffff1690602001909291905050506116de565b60405180826fffffffffffffffffffffffffffffffff19166fffffffffffffffffffffffffffffffff1916815260200191505060405180910390f35b600260009054906101000a900473ffffffffffffffffffffffffffffffffffffffff1673ffffffffffffffffffffffffffffffffffffffff1663c0fc80a283336040518363ffffffff167c0100000000000000000000000000000000000000000000000000000000028152600401808381526020018273ffffffffffffffffffffffffffffffffffffffff1673ffffffffffffffffffffffffffffffffffffffff16815260200192505050600060405180830381600087803b1580156109f157600080fd5b505af1158015610a05573d6000803e3d6000fd5b50505050610a1281610a17565b505050565b6000610a2233611524565b1515610abc576040517f08c379a000000000000000000000000000000000000000000000000000000000815260040180806020018281038252603c8152602001807f596f757220657468657265756d206164647265737320646f6573206e6f74206281526020017f656c6f6e6720746f20616e7920536861737461206163636f756e742e0000000081525060400191505060405180910390fd5b8160066000803373ffffffffffffffffffffffffffffffffffffffff1673ffffffffffffffffffffffffffffffffffffffff16815260200190815260200160002054815481101515610b0a57fe5b906000526020600020019080519060200190610b2792919061177b565b507f4d2f3c458728cc855fca6ac7346011c667a2342bb0960e935972804772a7fdde3383604051808373ffffffffffffffffffffffffffffffffffffffff1673ffffffffffffffffffffffffffffffffffffffff16815260200180602001828103825283818151815260200191508051906020019080838360005b83811015610bbd578082015181840152602081019050610ba2565b50505050905090810190601f168015610bea5780820380516001836020036101000a031916815260200191505b50935050505060405180910390a160019050919050565b600260009054906101000a900473ffffffffffffffffffffffffffffffffffffffff1673ffffffffffffffffffffffffffffffffffffffff1663283eddaf83336040518363ffffffff167c0100000000000000000000000000000000000000000000000000000000028152600401808381526020018273ffffffffffffffffffffffffffffffffffffffff1673ffffffffffffffffffffffffffffffffffffffff16815260200192505050600060405180830381600087803b158015610cc657600080fd5b505af1158015610cda573d6000803e3d6000fd5b50505050610ce781610a17565b505050565b6060610cf782610e83565b1515610d6b576040517f08c379a00000000000000000000000000000000000000000000000000000000081526004018080602001828103825260198152602001807f557365726e616d6520646f6573206e6f74206578697374732e0000000000000081525060200191505060405180910390fd5b600660016000846fffffffffffffffffffffffffffffffff19166fffffffffffffffffffffffffffffffff1916815260200190815260200160002054815481101515610db357fe5b906000526020600020018054600181600116156101000203166002900480601f016020809104026020016040519081016040528092919081815260200182805460018160011615610100020316600290048015610e515780601f10610e2657610100808354040283529160200191610e51565b820191906000526020600020905b815481529060010190602001808311610e3457829003601f168201915b50505050509050919050565b600260009054906101000a900473ffffffffffffffffffffffffffffffffffffffff1681565b60008060016000846fffffffffffffffffffffffffffffffff19166fffffffffffffffffffffffffffffffff19168152602001908152602001600020541180610efe57507f73656c6600000000000000000000000000000000000000000000000000000000826fffffffffffffffffffffffffffffffff1916145b9050919050565b6000610f1082611524565b1515610f1b57600080fd5b6000808373ffffffffffffffffffffffffffffffffffffffff1673ffffffffffffffffffffffffffffffffffffffff168152602001908152602001600020549050919050565b600360009054906101000a900473ffffffffffffffffffffffffffffffffffffffff1681565b606060048054905082101515610f9c57600080fd5b600682815481101515610fab57fe5b906000526020600020018054600181600116156101000203166002900480601f0160208091040260200160405190810160405280929190818152602001828054600181600116156101000203166002900480156110495780601f1061101e57610100808354040283529160200191611049565b820191906000526020600020905b81548152906001019060200180831161102c57829003601f168201915b50505050509050919050565b600061106033611524565b15151561106c57600080fd5b61107583610e83565b15151561108157600080fd5b60043390806001815401808255809150509060018203906000526020600020016000909192909190916101000a81548173ffffffffffffffffffffffffffffffffffffffff021916908373ffffffffffffffffffffffffffffffffffffffff16021790555050600583908060018154018082558091505090600182039060005260206000209060029182820401919006601002909192909190916101000a8154816fffffffffffffffffffffffffffffffff02191690837001000000000000000000000000000000009004021790555050600682908060018154018082558091505090600182039060005260206000200160009091929091909150908051906020019061118f92919061177b565b50506001600480549050036000803373ffffffffffffffffffffffffffffffffffffffff1673ffffffffffffffffffffffffffffffffffffffff1681526020019081526020016000208190555060016004805490500360016000856fffffffffffffffffffffffffffffffff19166fffffffffffffffffffffffffffffffff19168152602001908152602001600020819055507f70bc5abb7245e65daa5b8301ce3dc2dfeaac3fcfc4a0196348ce649eae8c4286833360405180836fffffffffffffffffffffffffffffffff19166fffffffffffffffffffffffffffffffff191681526020018273ffffffffffffffffffffffffffffffffffffffff1673ffffffffffffffffffffffffffffffffffffffff1681526020019250505060405180910390a16001905092915050565b60006112c882610e83565b15156112d357600080fd5b600460016000846fffffffffffffffffffffffffffffffff19166fffffffffffffffffffffffffffffffff191681526020019081526020016000205481548110151561131b57fe5b9060005260206000200160009054906101000a900473ffffffffffffffffffffffffffffffffffffffff169050919050565b60008060606004805490508310151561136557600080fd5b6000808573ffffffffffffffffffffffffffffffffffffffff1673ffffffffffffffffffffffffffffffffffffffff1681526020019081526020016000205460056000808773ffffffffffffffffffffffffffffffffffffffff1673ffffffffffffffffffffffffffffffffffffffff168152602001908152602001600020548154811015156113f157fe5b90600052602060002090600291828204019190066010029054906101000a90047001000000000000000000000000000000000260066000808873ffffffffffffffffffffffffffffffffffffffff1673ffffffffffffffffffffffffffffffffffffffff1681526020019081526020016000205481548110151561147157fe5b90600052602060002001808054600181600116156101000203166002900480601f0160208091040260200160405190810160405280929190818152602001828054600181600116156101000203166002900480156115105780601f106114e557610100808354040283529160200191611510565b820191906000526020600020905b8154815290600101906020018083116114f357829003601f168201915b505050505090509250925092509193909250565b6000806000808473ffffffffffffffffffffffffffffffffffffffff1673ffffffffffffffffffffffffffffffffffffffff16815260200190815260200160002054119050919050565b606061157982611524565b151561158457600080fd5b60066000808473ffffffffffffffffffffffffffffffffffffffff1673ffffffffffffffffffffffffffffffffffffffff168152602001908152602001600020548154811015156115d157fe5b906000526020600020018054600181600116156101000203166002900480601f01602080910402602001604051908101604052809291908181526020018280546001816001161561010002031660029004801561166f5780601f106116445761010080835404028352916020019161166f565b820191906000526020600020905b81548152906001019060200180831161165257829003601f168201915b50505050509050919050565b6000600480549050905090565b60006004805490508210151561169d57600080fd5b6004828154811015156116ac57fe5b9060005260206000200160009054906101000a900473ffffffffffffffffffffffffffffffffffffffff169050919050565b60006116e982611524565b15156116f457600080fd5b60056000808473ffffffffffffffffffffffffffffffffffffffff1673ffffffffffffffffffffffffffffffffffffffff1681526020019081526020016000205481548110151561174157fe5b90600052602060002090600291828204019190066010029054906101000a9004700100000000000000000000000000000000029050919050565b828054600181600116156101000203166002900490600052602060002090601f016020900481019282601f106117bc57805160ff19168380011785556117ea565b828001600101855582156117ea579182015b828111156117e95782518255916020019190600101906117ce565b5b5090506117f791906117fb565b5090565b61181d91905b80821115611819576000816000905550600101611801565b5090565b905600a165627a7a723058203a0008ef85e3fef31ca298c223158d7fc392b4b892dea2f295c4ea0e6478accc0029",
  "source": "pragma solidity ^0.4.24;\n\nimport \"openzeppelin-solidity/contracts/math/SafeMath.sol\";\nimport \"./ShastaMarket.sol\";\n\n/** @title User */\ncontract User {\n    \n  mapping(address => uint) private addressToIndex;\n  mapping(bytes16 => uint) private usernameToIndex;\n\n  event NewUser(bytes16 username, address owner);\n  event UpdatedUser(address owner, bytes ipfsHash);\n\n  ShastaMarket public shastaMarket;\n  address public shastaMarketAddress;\n  address[] private addresses;\n  bytes16[] private usernames;\n  bytes[] private ipfsHashes;\n  address owner;\n  \n  modifier onlyOwner() {\n    require (msg.sender != owner);\n    _;\n  }\n\n  constructor(address _shastaMarketAddress) public {\n\n    // mappings are virtually initialized to zero values so we need to \"waste\" the first element of the arrays\n    // instead of wasting it we use it to create a user for the contract itself\n    owner = msg.sender;\n    shastaMarketAddress = _shastaMarketAddress;\n    shastaMarket = ShastaMarket(shastaMarketAddress);\n    addresses.push(msg.sender);\n    usernames.push('self');\n    ipfsHashes.push('noIpfsHash');\n  }\n\n  /**\n    * @dev Check if the address belongs to a user\n    * @param userAddress The address to check if exists in the user registry.\n    */\n  function hasUser(address userAddress) public view returns(bool) \n  {\n    return (addressToIndex[userAddress] > 0);\n  }\n\n  /**\n    * @dev Check if the username belongs to a user\n    * @param username The username to check if exists in the user registry\n    */\n  function usernameTaken(bytes16 username) public view returns(bool) \n  {\n    return (usernameToIndex[username] > 0 || username == 'self');\n  }\n\n  /**\n    * @dev Create a new user\n    * @param username The organization name\n    * @param ipfsHash The IPFS hash string with more metadata\n    */\n  function createUser(bytes16 username, bytes ipfsHash) public returns(bool)\n  {\n    require(!hasUser(msg.sender));\n    require(!usernameTaken(username));\n\n    addresses.push(msg.sender);\n    usernames.push(username);\n    ipfsHashes.push(ipfsHash);\n\n    addressToIndex[msg.sender] = addresses.length - 1;\n    usernameToIndex[username] = addresses.length - 1;\n    \n    emit NewUser(username, msg.sender);\n    return true;\n  }\n\n  /**\n    * @dev Create a new energy offer\n    * @param _value The amount of watts/hour available to sell\n    * @param ipfsHash The IPFS hash string with metadata\n    */\n  function createOffer(uint _value, bytes ipfsHash) public payable {\n    shastaMarket.createOffer(_value, msg.sender);\n    updateUser(ipfsHash);\n  }\n\n  /**\n    * @dev Cancel a energy offer\n    * @param _id The ID of the the offer\n    * @param ipfsHash The IPFS hash string with metadata\n    */\n  function cancelOffer(uint _id, bytes ipfsHash) public payable {\n    shastaMarket.cancelOffer(_id, msg.sender);\n    updateUser(ipfsHash);\n  }\n\n  /**\n    * @dev Update the user ipfs hash string\n    * @param ipfsHash The IPFS hash string to update\n    * @return success Returns true if succesful\n    */\n  function updateUser(bytes ipfsHash) public payable returns(bool success)\n  {\n    require(hasUser(msg.sender), 'Your ethereum address does not belong to any Shasta account.');\n    \n    ipfsHashes[addressToIndex[msg.sender]] = ipfsHash;\n    \n    emit UpdatedUser(msg.sender, ipfsHash);\n    return true;\n  }  \n\n  /**\n    * @dev Get the user length\n    * @return count The number of current users registered in Shasta\n    */\n  function getUserCount() public view returns(uint count)\n  {\n    return addresses.length;\n  }\n\n  /**\n    * @dev Get the address of an user by user index\n    * @param index The user index\n    * @return userAddress the user address\n    */\n  function getAddressByIndex(uint index) public view returns(address userAddress)\n  {\n    require(index < addresses.length);\n\n    return addresses[index];\n  }\n\n  /**\n    * @dev Get the address of an user by username\n    * @param username The username in bytes16\n    * @return userAddress the user address\n    */\n  function getAddressByUsername(bytes16 username) public view returns(address userAddress)\n  {\n    require(usernameTaken(username));\n\n    return addresses[usernameToIndex[username]];\n  }  \n\n  /**\n    * @dev Get the user data by address\n    * @param userAddress The user address\n    * @return index The user index\n    * @return username The user name\n    * @return ipfsHash The ipfs hash where more metadata is stored in IPFS\n    */\n  function getUserByAddress(address userAddress) public view returns(uint index, bytes16 username, bytes ipfsHash) {\n    require(index < addresses.length);\n\n    return(addressToIndex[userAddress], usernames[addressToIndex[userAddress]], ipfsHashes[addressToIndex[userAddress]]);\n  }\n\n\n  /**\n    * @dev Get the username by address\n    * @param userAddress The user address\n    * @return username The user name\n    */\n  function getUsernameByAddress(address userAddress) public view returns(bytes16 username)\n  {\n    require(hasUser(userAddress));\n\n    return usernames[addressToIndex[userAddress]];\n  }\n\n  /**\n    * @dev Get the IPFS hash by index\n    * @param index The user index\n    * @return ipfsHash The ipfs hash where more metadata is stored in IPFS\n    */\n  function getIpfsHashByIndex(uint index) public view returns(bytes ipfsHash)\n  {\n    require(index < addresses.length);\n\n    return ipfsHashes[index];\n  }\n  /**\n    * @dev Get the IPFS hash by address\n    * @param userAddress The user address\n    * @return ipfsHash The ipfs hash where more metadata is stored in IPFS\n    */\n  function getIpfsHashByAddress(address userAddress) public view returns(bytes ipfsHash)\n  {\n    require(hasUser(userAddress));\n\n    return ipfsHashes[addressToIndex[userAddress]];\n  }\n\n  /**\n    * @dev Get the IPFS hash by username\n    * @param username The user name\n    * @return ipfsHash The ipfs hash where more metadata is stored in IPFS\n    */\n  function getIpfsHashByUsername(bytes16 username) public view returns(bytes ipfsHash)\n  {\n    require(usernameTaken(username), \"Username does not exists.\");\n\n    return ipfsHashes[usernameToIndex[username]];\n  }\n\n  /**\n    * @dev Get the user index by address\n    * @param userAddress The user address\n    * @return index The user index\n    */\n  function getIndexByAddress(address userAddress) public view returns(uint index)\n  {\n    require(hasUser(userAddress));\n\n    return addressToIndex[userAddress];\n  }\n}",
  "sourcePath": "/home/davidracero/repos/ShastaOS/contracts/User.sol",
  "compiler": {
    "name": "solc",
    "version": "0.4.24+commit.e67f0147.Emscripten.clang"
  },
  "schemaVersion": "3.0.0-beta.1",
  "updatedAt": "2018-11-14T13:09:55.722Z"
}