{
  "contractName": "User",
  "abi": [
    {
      "constant": true,
      "inputs": [],
      "name": "shastaMarket",
      "outputs": [
        {
          "name": "",
          "type": "address"
        }
      ],
      "payable": false,
      "stateMutability": "view",
      "type": "function",
      "signature": "0x14feb681"
    },
    {
      "constant": true,
      "inputs": [],
      "name": "shastaMarketAddress",
      "outputs": [
        {
          "name": "",
          "type": "address"
        }
      ],
      "payable": false,
      "stateMutability": "view",
      "type": "function",
      "signature": "0x1e7c5a90"
    },
    {
      "constant": true,
      "inputs": [
        {
          "name": "",
          "type": "address"
        },
        {
          "name": "",
          "type": "uint256"
        }
      ],
      "name": "addressToOrganization",
      "outputs": [
        {
          "name": "",
          "type": "string"
        }
      ],
      "payable": false,
      "stateMutability": "view",
      "type": "function",
      "signature": "0x3933b8d6"
    },
    {
      "inputs": [
        {
          "name": "_shastaMarketAddress",
          "type": "address"
        }
      ],
      "payable": false,
      "stateMutability": "nonpayable",
      "type": "constructor",
      "signature": "constructor"
    },
    {
      "anonymous": false,
      "inputs": [
        {
          "indexed": false,
          "name": "username",
          "type": "bytes16"
        },
        {
          "indexed": false,
          "name": "owner",
          "type": "address"
        }
      ],
      "name": "NewUser",
      "type": "event",
      "signature": "0x70bc5abb7245e65daa5b8301ce3dc2dfeaac3fcfc4a0196348ce649eae8c4286"
    },
    {
      "anonymous": false,
      "inputs": [
        {
          "indexed": false,
          "name": "owner",
          "type": "address"
        },
        {
          "indexed": false,
          "name": "ipfsHash",
          "type": "bytes"
        }
      ],
      "name": "UpdatedUser",
      "type": "event",
      "signature": "0x4d2f3c458728cc855fca6ac7346011c667a2342bb0960e935972804772a7fdde"
    },
    {
      "constant": true,
      "inputs": [
        {
          "name": "user",
          "type": "address"
        }
      ],
      "name": "addressOrganizationLength",
      "outputs": [
        {
          "name": "",
          "type": "uint256"
        }
      ],
      "payable": false,
      "stateMutability": "view",
      "type": "function",
      "signature": "0xfea76598"
    },
    {
      "constant": false,
      "inputs": [
        {
          "name": "ensName",
          "type": "string"
        }
      ],
      "name": "saveOrganizationName",
      "outputs": [
        {
          "name": "",
          "type": "bool"
        }
      ],
      "payable": false,
      "stateMutability": "nonpayable",
      "type": "function",
      "signature": "0xc4eb1afd"
    },
    {
      "constant": false,
      "inputs": [
        {
          "name": "index",
          "type": "uint256"
        }
      ],
      "name": "deleteOrganizationName",
      "outputs": [
        {
          "name": "",
          "type": "bool"
        }
      ],
      "payable": false,
      "stateMutability": "nonpayable",
      "type": "function",
      "signature": "0xbd998a82"
    },
    {
      "constant": true,
      "inputs": [
        {
          "name": "userAddress",
          "type": "address"
        }
      ],
      "name": "hasUser",
      "outputs": [
        {
          "name": "",
          "type": "bool"
        }
      ],
      "payable": false,
      "stateMutability": "view",
      "type": "function",
      "signature": "0xa6c4ec0e"
    },
    {
      "constant": true,
      "inputs": [
        {
          "name": "username",
          "type": "bytes16"
        }
      ],
      "name": "usernameTaken",
      "outputs": [
        {
          "name": "",
          "type": "bool"
        }
      ],
      "payable": false,
      "stateMutability": "view",
      "type": "function",
      "signature": "0x16b7addf"
    },
    {
      "constant": false,
      "inputs": [
        {
          "name": "username",
          "type": "bytes16"
        },
        {
          "name": "ipfsHash",
          "type": "bytes"
        }
      ],
      "name": "createUser",
      "outputs": [
        {
          "name": "",
          "type": "bool"
        }
      ],
      "payable": false,
      "stateMutability": "nonpayable",
      "type": "function",
      "signature": "0x402f707e"
    },
    {
      "constant": false,
      "inputs": [
        {
          "name": "_value",
          "type": "uint256"
        },
        {
          "name": "ipfsHash",
          "type": "bytes"
        }
      ],
      "name": "createOffer",
      "outputs": [],
      "payable": true,
      "stateMutability": "payable",
      "type": "function",
      "signature": "0x0810fe84"
    },
    {
      "constant": false,
      "inputs": [
        {
          "name": "_id",
          "type": "uint256"
        },
        {
          "name": "ipfsHash",
          "type": "bytes"
        }
      ],
      "name": "cancelOffer",
      "outputs": [],
      "payable": true,
      "stateMutability": "payable",
      "type": "function",
      "signature": "0x0213bbe4"
    },
    {
      "constant": false,
      "inputs": [
        {
          "name": "ipfsHash",
          "type": "bytes"
        }
      ],
      "name": "updateUser",
      "outputs": [
        {
          "name": "success",
          "type": "bool"
        }
      ],
      "payable": true,
      "stateMutability": "payable",
      "type": "function",
      "signature": "0x026d1170"
    },
    {
      "constant": true,
      "inputs": [],
      "name": "getUserCount",
      "outputs": [
        {
          "name": "count",
          "type": "uint256"
        }
      ],
      "payable": false,
      "stateMutability": "view",
      "type": "function",
      "signature": "0xb5cb15f7"
    },
    {
      "constant": true,
      "inputs": [
        {
          "name": "index",
          "type": "uint256"
        }
      ],
      "name": "getAddressByIndex",
      "outputs": [
        {
          "name": "userAddress",
          "type": "address"
        }
      ],
      "payable": false,
      "stateMutability": "view",
      "type": "function",
      "signature": "0xce10cf88"
    },
    {
      "constant": true,
      "inputs": [
        {
          "name": "username",
          "type": "bytes16"
        }
      ],
      "name": "getAddressByUsername",
      "outputs": [
        {
          "name": "userAddress",
          "type": "address"
        }
      ],
      "payable": false,
      "stateMutability": "view",
      "type": "function",
      "signature": "0x63db68db"
    },
    {
      "constant": true,
      "inputs": [
        {
          "name": "userAddress",
          "type": "address"
        }
      ],
      "name": "getUserByAddress",
      "outputs": [
        {
          "name": "index",
          "type": "uint256"
        },
        {
          "name": "username",
          "type": "bytes16"
        },
        {
          "name": "ipfsHash",
          "type": "bytes"
        }
      ],
      "payable": false,
      "stateMutability": "view",
      "type": "function",
      "signature": "0x69c212f6"
    },
    {
      "constant": true,
      "inputs": [
        {
          "name": "userAddress",
          "type": "address"
        }
      ],
      "name": "getUsernameByAddress",
      "outputs": [
        {
          "name": "username",
          "type": "bytes16"
        }
      ],
      "payable": false,
      "stateMutability": "view",
      "type": "function",
      "signature": "0xed1a998d"
    },
    {
      "constant": true,
      "inputs": [
        {
          "name": "index",
          "type": "uint256"
        }
      ],
      "name": "getIpfsHashByIndex",
      "outputs": [
        {
          "name": "ipfsHash",
          "type": "bytes"
        }
      ],
      "payable": false,
      "stateMutability": "view",
      "type": "function",
      "signature": "0x29f78d88"
    },
    {
      "constant": true,
      "inputs": [
        {
          "name": "userAddress",
          "type": "address"
        }
      ],
      "name": "getIpfsHashByAddress",
      "outputs": [
        {
          "name": "ipfsHash",
          "type": "bytes"
        }
      ],
      "payable": false,
      "stateMutability": "view",
      "type": "function",
      "signature": "0xa74380a6"
    },
    {
      "constant": true,
      "inputs": [
        {
          "name": "username",
          "type": "bytes16"
        }
      ],
      "name": "getIpfsHashByUsername",
      "outputs": [
        {
          "name": "ipfsHash",
          "type": "bytes"
        }
      ],
      "payable": false,
      "stateMutability": "view",
      "type": "function",
      "signature": "0x0ab7c933"
    },
    {
      "constant": true,
      "inputs": [
        {
          "name": "userAddress",
          "type": "address"
        }
      ],
      "name": "getIndexByAddress",
      "outputs": [
        {
          "name": "index",
          "type": "uint256"
        }
      ],
      "payable": false,
      "stateMutability": "view",
      "type": "function",
      "signature": "0x1973ef91"
    }
  ],
  "bytecode": "0x60806040523480156200001157600080fd5b506040516020806200206a8339810180604052810190808051906020019092919050505033600860006101000a81548173ffffffffffffffffffffffffffffffffffffffff021916908373ffffffffffffffffffffffffffffffffffffffff16021790555080600460006101000a81548173ffffffffffffffffffffffffffffffffffffffff021916908373ffffffffffffffffffffffffffffffffffffffff160217905550600460009054906101000a900473ffffffffffffffffffffffffffffffffffffffff16600360006101000a81548173ffffffffffffffffffffffffffffffffffffffff021916908373ffffffffffffffffffffffffffffffffffffffff16021790555060053390806001815401808255809150509060018203906000526020600020016000909192909190916101000a81548173ffffffffffffffffffffffffffffffffffffffff021916908373ffffffffffffffffffffffffffffffffffffffff16021790555050600680600181540180825580915050906001820390600052602060002090600291828204019190066010027f73656c6600000000000000000000000000000000000000000000000000000000909190916101000a8154816fffffffffffffffffffffffffffffffff0219169083700100000000000000000000000000000000900402179055505060078060018154018082558091505090600182039060005260206000200160006040805190810160405280600a81526020017f6e6f497066734861736800000000000000000000000000000000000000000000815250909190915090805190602001906200027792919062000280565b5050506200032f565b828054600181600116156101000203166002900490600052602060002090601f016020900481019282601f10620002c357805160ff1916838001178555620002f4565b82800160010185558215620002f4579182015b82811115620002f3578251825591602001919060010190620002d6565b5b50905062000303919062000307565b5090565b6200032c91905b80821115620003285760008160009055506001016200030e565b5090565b90565b611d2b806200033f6000396000f30060806040526004361061011d576000357c0100000000000000000000000000000000000000000000000000000000900463ffffffff1680630213bbe414610122578063026d1170146101885780630810fe84146101fc5780630ab7c9331461026257806314feb6811461031b57806316b7addf146103725780631973ef91146103ca5780631e7c5a901461042157806329f78d88146104785780633933b8d61461051e578063402f707e146105e457806363db68db1461068257806369c212f614610702578063a6c4ec0e146107f2578063a74380a61461084d578063b5cb15f714610909578063bd998a8214610934578063c4eb1afd14610979578063ce10cf88146109fa578063ed1a998d14610a67578063fea7659814610ae4575b600080fd5b61018660048036038101908080359060200190929190803590602001908201803590602001908080601f0160208091040260200160405190810160405280939291908181526020018383808284378201915050505050509192919290505050610b3b565b005b6101e2600480360381019080803590602001908201803590602001908080601f0160208091040260200160405190810160405280939291908181526020018383808284378201915050505050509192919290505050610c26565b604051808215151515815260200191505060405180910390f35b61026060048036038101908080359060200190929190803590602001908201803590602001908080601f0160208091040260200160405190810160405280939291908181526020018383808284378201915050505050509192919290505050610e10565b005b34801561026e57600080fd5b506102a060048036038101908080356fffffffffffffffffffffffffffffffff19169060200190929190505050610efb565b6040518080602001828103825283818151815260200191508051906020019080838360005b838110156102e05780820151818401526020810190506102c5565b50505050905090810190601f16801561030d5780820380516001836020036101000a031916815260200191505b509250505060405180910390f35b34801561032757600080fd5b5061033061106c565b604051808273ffffffffffffffffffffffffffffffffffffffff1673ffffffffffffffffffffffffffffffffffffffff16815260200191505060405180910390f35b34801561037e57600080fd5b506103b060048036038101908080356fffffffffffffffffffffffffffffffff19169060200190929190505050611092565b604051808215151515815260200191505060405180910390f35b3480156103d657600080fd5b5061040b600480360381019080803573ffffffffffffffffffffffffffffffffffffffff169060200190929190505050611114565b6040518082815260200191505060405180910390f35b34801561042d57600080fd5b50610436611170565b604051808273ffffffffffffffffffffffffffffffffffffffff1673ffffffffffffffffffffffffffffffffffffffff16815260200191505060405180910390f35b34801561048457600080fd5b506104a360048036038101908080359060200190929190505050611196565b6040518080602001828103825283818151815260200191508051906020019080838360005b838110156104e35780820151818401526020810190506104c8565b50505050905090810190601f1680156105105780820380516001836020036101000a031916815260200191505b509250505060405180910390f35b34801561052a57600080fd5b50610569600480360381019080803573ffffffffffffffffffffffffffffffffffffffff16906020019092919080359060200190929190505050611264565b6040518080602001828103825283818151815260200191508051906020019080838360005b838110156105a957808201518184015260208101905061058e565b50505050905090810190601f1680156105d65780820380516001836020036101000a031916815260200191505b509250505060405180910390f35b3480156105f057600080fd5b5061066860048036038101908080356fffffffffffffffffffffffffffffffff19169060200190929190803590602001908201803590602001908080601f016020809104026020016040519081016040528093929190818152602001838380828437820191505050505050919291929050505061132c565b604051808215151515815260200191505060405180910390f35b34801561068e57600080fd5b506106c060048036038101908080356fffffffffffffffffffffffffffffffff19169060200190929190505050611594565b604051808273ffffffffffffffffffffffffffffffffffffffff1673ffffffffffffffffffffffffffffffffffffffff16815260200191505060405180910390f35b34801561070e57600080fd5b50610743600480360381019080803573ffffffffffffffffffffffffffffffffffffffff169060200190929190505050611624565b60405180848152602001836fffffffffffffffffffffffffffffffff19166fffffffffffffffffffffffffffffffff1916815260200180602001828103825283818151815260200191508051906020019080838360005b838110156107b557808201518184015260208101905061079a565b50505050905090810190601f1680156107e25780820380516001836020036101000a031916815260200191505b5094505050505060405180910390f35b3480156107fe57600080fd5b50610833600480360381019080803573ffffffffffffffffffffffffffffffffffffffff1690602001909291905050506117fb565b604051808215151515815260200191505060405180910390f35b34801561085957600080fd5b5061088e600480360381019080803573ffffffffffffffffffffffffffffffffffffffff169060200190929190505050611845565b6040518080602001828103825283818151815260200191508051906020019080838360005b838110156108ce5780820151818401526020810190506108b3565b50505050905090810190601f1680156108fb5780820380516001836020036101000a031916815260200191505b509250505060405180910390f35b34801561091557600080fd5b5061091e611952565b6040518082815260200191505060405180910390f35b34801561094057600080fd5b5061095f6004803603810190808035906020019092919050505061195f565b604051808215151515815260200191505060405180910390f35b34801561098557600080fd5b506109e0600480360381019080803590602001908201803590602001908080601f01602080910402602001604051908101604052809392919081815260200183838082843782019150505050505091929192905050506119cc565b604051808215151515815260200191505060405180910390f35b348015610a0657600080fd5b50610a2560048036038101908080359060200190929190505050611a53565b604051808273ffffffffffffffffffffffffffffffffffffffff1673ffffffffffffffffffffffffffffffffffffffff16815260200191505060405180910390f35b348015610a7357600080fd5b50610aa8600480360381019080803573ffffffffffffffffffffffffffffffffffffffff169060200190929190505050611aa9565b60405180826fffffffffffffffffffffffffffffffff19166fffffffffffffffffffffffffffffffff1916815260200191505060405180910390f35b348015610af057600080fd5b50610b25600480360381019080803573ffffffffffffffffffffffffffffffffffffffff169060200190929190505050611b46565b6040518082815260200191505060405180910390f35b600360009054906101000a900473ffffffffffffffffffffffffffffffffffffffff1673ffffffffffffffffffffffffffffffffffffffff1663c0fc80a283336040518363ffffffff167c0100000000000000000000000000000000000000000000000000000000028152600401808381526020018273ffffffffffffffffffffffffffffffffffffffff1673ffffffffffffffffffffffffffffffffffffffff16815260200192505050600060405180830381600087803b158015610c0057600080fd5b505af1158015610c14573d6000803e3d6000fd5b50505050610c2181610c26565b505050565b6000610c31336117fb565b1515610ccb576040517f08c379a000000000000000000000000000000000000000000000000000000000815260040180806020018281038252603c8152602001807f596f757220657468657265756d206164647265737320646f6573206e6f74206281526020017f656c6f6e6720746f20616e7920536861737461206163636f756e742e0000000081525060400191505060405180910390fd5b8160076000803373ffffffffffffffffffffffffffffffffffffffff1673ffffffffffffffffffffffffffffffffffffffff16815260200190815260200160002054815481101515610d1957fe5b906000526020600020019080519060200190610d36929190611b92565b507f4d2f3c458728cc855fca6ac7346011c667a2342bb0960e935972804772a7fdde3383604051808373ffffffffffffffffffffffffffffffffffffffff1673ffffffffffffffffffffffffffffffffffffffff16815260200180602001828103825283818151815260200191508051906020019080838360005b83811015610dcc578082015181840152602081019050610db1565b50505050905090810190601f168015610df95780820380516001836020036101000a031916815260200191505b50935050505060405180910390a160019050919050565b600360009054906101000a900473ffffffffffffffffffffffffffffffffffffffff1673ffffffffffffffffffffffffffffffffffffffff1663283eddaf83336040518363ffffffff167c0100000000000000000000000000000000000000000000000000000000028152600401808381526020018273ffffffffffffffffffffffffffffffffffffffff1673ffffffffffffffffffffffffffffffffffffffff16815260200192505050600060405180830381600087803b158015610ed557600080fd5b505af1158015610ee9573d6000803e3d6000fd5b50505050610ef681610c26565b505050565b6060610f0682611092565b1515610f7a576040517f08c379a00000000000000000000000000000000000000000000000000000000081526004018080602001828103825260198152602001807f557365726e616d6520646f6573206e6f74206578697374732e0000000000000081525060200191505060405180910390fd5b600760016000846fffffffffffffffffffffffffffffffff19166fffffffffffffffffffffffffffffffff1916815260200190815260200160002054815481101515610fc257fe5b906000526020600020018054600181600116156101000203166002900480601f0160208091040260200160405190810160405280929190818152602001828054600181600116156101000203166002900480156110605780601f1061103557610100808354040283529160200191611060565b820191906000526020600020905b81548152906001019060200180831161104357829003601f168201915b50505050509050919050565b600360009054906101000a900473ffffffffffffffffffffffffffffffffffffffff1681565b60008060016000846fffffffffffffffffffffffffffffffff19166fffffffffffffffffffffffffffffffff1916815260200190815260200160002054118061110d57507f73656c6600000000000000000000000000000000000000000000000000000000826fffffffffffffffffffffffffffffffff1916145b9050919050565b600061111f826117fb565b151561112a57600080fd5b6000808373ffffffffffffffffffffffffffffffffffffffff1673ffffffffffffffffffffffffffffffffffffffff168152602001908152602001600020549050919050565b600460009054906101000a900473ffffffffffffffffffffffffffffffffffffffff1681565b6060600580549050821015156111ab57600080fd5b6007828154811015156111ba57fe5b906000526020600020018054600181600116156101000203166002900480601f0160208091040260200160405190810160405280929190818152602001828054600181600116156101000203166002900480156112585780601f1061122d57610100808354040283529160200191611258565b820191906000526020600020905b81548152906001019060200180831161123b57829003601f168201915b50505050509050919050565b60026020528160005260406000208181548110151561127f57fe5b90600052602060002001600091509150508054600181600116156101000203166002900480601f0160208091040260200160405190810160405280929190818152602001828054600181600116156101000203166002900480156113245780601f106112f957610100808354040283529160200191611324565b820191906000526020600020905b81548152906001019060200180831161130757829003601f168201915b505050505081565b6000611337336117fb565b15151561134357600080fd5b61134c83611092565b15151561135857600080fd5b60053390806001815401808255809150509060018203906000526020600020016000909192909190916101000a81548173ffffffffffffffffffffffffffffffffffffffff021916908373ffffffffffffffffffffffffffffffffffffffff16021790555050600683908060018154018082558091505090600182039060005260206000209060029182820401919006601002909192909190916101000a8154816fffffffffffffffffffffffffffffffff021916908370010000000000000000000000000000000090040217905550506007829080600181540180825580915050906001820390600052602060002001600090919290919091509080519060200190611466929190611b92565b50506001600580549050036000803373ffffffffffffffffffffffffffffffffffffffff1673ffffffffffffffffffffffffffffffffffffffff1681526020019081526020016000208190555060016005805490500360016000856fffffffffffffffffffffffffffffffff19166fffffffffffffffffffffffffffffffff19168152602001908152602001600020819055507f70bc5abb7245e65daa5b8301ce3dc2dfeaac3fcfc4a0196348ce649eae8c4286833360405180836fffffffffffffffffffffffffffffffff19166fffffffffffffffffffffffffffffffff191681526020018273ffffffffffffffffffffffffffffffffffffffff1673ffffffffffffffffffffffffffffffffffffffff1681526020019250505060405180910390a16001905092915050565b600061159f82611092565b15156115aa57600080fd5b600560016000846fffffffffffffffffffffffffffffffff19166fffffffffffffffffffffffffffffffff19168152602001908152602001600020548154811015156115f257fe5b9060005260206000200160009054906101000a900473ffffffffffffffffffffffffffffffffffffffff169050919050565b60008060606005805490508310151561163c57600080fd5b6000808573ffffffffffffffffffffffffffffffffffffffff1673ffffffffffffffffffffffffffffffffffffffff1681526020019081526020016000205460066000808773ffffffffffffffffffffffffffffffffffffffff1673ffffffffffffffffffffffffffffffffffffffff168152602001908152602001600020548154811015156116c857fe5b90600052602060002090600291828204019190066010029054906101000a90047001000000000000000000000000000000000260076000808873ffffffffffffffffffffffffffffffffffffffff1673ffffffffffffffffffffffffffffffffffffffff1681526020019081526020016000205481548110151561174857fe5b90600052602060002001808054600181600116156101000203166002900480601f0160208091040260200160405190810160405280929190818152602001828054600181600116156101000203166002900480156117e75780601f106117bc576101008083540402835291602001916117e7565b820191906000526020600020905b8154815290600101906020018083116117ca57829003601f168201915b505050505090509250925092509193909250565b6000806000808473ffffffffffffffffffffffffffffffffffffffff1673ffffffffffffffffffffffffffffffffffffffff16815260200190815260200160002054119050919050565b6060611850826117fb565b151561185b57600080fd5b60076000808473ffffffffffffffffffffffffffffffffffffffff1673ffffffffffffffffffffffffffffffffffffffff168152602001908152602001600020548154811015156118a857fe5b906000526020600020018054600181600116156101000203166002900480601f0160208091040260200160405190810160405280929190818152602001828054600181600116156101000203166002900480156119465780601f1061191b57610100808354040283529160200191611946565b820191906000526020600020905b81548152906001019060200180831161192957829003601f168201915b50505050509050919050565b6000600580549050905090565b6000600260003373ffffffffffffffffffffffffffffffffffffffff1673ffffffffffffffffffffffffffffffffffffffff168152602001908152602001600020828154811015156119ad57fe5b9060005260206000200160006119c39190611c12565b60019050919050565b6000600260003373ffffffffffffffffffffffffffffffffffffffff1673ffffffffffffffffffffffffffffffffffffffff168152602001908152602001600020829080600181540180825580915050906001820390600052602060002001600090919290919091509080519060200190611a48929190611c5a565b505060019050919050565b600060058054905082101515611a6857600080fd5b600582815481101515611a7757fe5b9060005260206000200160009054906101000a900473ffffffffffffffffffffffffffffffffffffffff169050919050565b6000611ab4826117fb565b1515611abf57600080fd5b60066000808473ffffffffffffffffffffffffffffffffffffffff1673ffffffffffffffffffffffffffffffffffffffff16815260200190815260200160002054815481101515611b0c57fe5b90600052602060002090600291828204019190066010029054906101000a9004700100000000000000000000000000000000029050919050565b6000600260008373ffffffffffffffffffffffffffffffffffffffff1673ffffffffffffffffffffffffffffffffffffffff168152602001908152602001600020805490509050919050565b828054600181600116156101000203166002900490600052602060002090601f016020900481019282601f10611bd357805160ff1916838001178555611c01565b82800160010185558215611c01579182015b82811115611c00578251825591602001919060010190611be5565b5b509050611c0e9190611cda565b5090565b50805460018160011615610100020316600290046000825580601f10611c385750611c57565b601f016020900490600052602060002090810190611c569190611cda565b5b50565b828054600181600116156101000203166002900490600052602060002090601f016020900481019282601f10611c9b57805160ff1916838001178555611cc9565b82800160010185558215611cc9579182015b82811115611cc8578251825591602001919060010190611cad565b5b509050611cd69190611cda565b5090565b611cfc91905b80821115611cf8576000816000905550600101611ce0565b5090565b905600a165627a7a7230582006411d3157fdca165d581b2fe00b347525ad52f9bb3047947807fc17a792078d0029",
  "source": "pragma solidity ^0.4.24;\n\nimport \"openzeppelin-solidity/contracts/math/SafeMath.sol\";\nimport \"./ShastaMarket.sol\";\n\n/** @title User */\ncontract User {\n    \n  mapping(address => uint) private addressToIndex;\n  mapping(bytes16 => uint) private usernameToIndex;\n\n  mapping(address => string[]) public addressToOrganization;\n\n  event NewUser(bytes16 username, address owner);\n  event UpdatedUser(address owner, bytes ipfsHash);\n\n  ShastaMarket public shastaMarket;\n  address public shastaMarketAddress;\n  address[] private addresses;\n  bytes16[] private usernames;\n  bytes[] private ipfsHashes;\n  address owner;\n  \n  modifier onlyOwner() {\n    require (msg.sender != owner);\n    _;\n  }\n\n  constructor(address _shastaMarketAddress) public {\n\n    // mappings are virtually initialized to zero values so we need to \"waste\" the first element of the arrays\n    // instead of wasting it we use it to create a user for the contract itself\n    owner = msg.sender;\n    shastaMarketAddress = _shastaMarketAddress;\n    shastaMarket = ShastaMarket(shastaMarketAddress);\n    addresses.push(msg.sender);\n    usernames.push('self');\n    ipfsHashes.push('noIpfsHash');\n  }\n\n  /**\n    * @dev Get the current aragon organizations length\n    * @param user The user address to check\n    */\n  function addressOrganizationLength(address user) public view returns(uint) {\n    return addressToOrganization[user].length;\n  }\n\n  /**\n    * @dev Save an ENS Aragon organization\n    * @param ensName The domain to save to the current Shasta user\n    */\n  function saveOrganizationName(string ensName) public returns(bool) {\n    addressToOrganization[msg.sender].push(ensName);\n    return true;\n  }\n\n  /**\n    * @dev Disable an aragon organization. The indexes will keep the same, but the value will be false.\n    * @dev In frontend the client can filter false values.\n    * @param index The user address to check\n    */\n  function deleteOrganizationName(uint index) public returns(bool) {\n    delete addressToOrganization[msg.sender][index];\n    return true;\n  }\n\n  /**\n    * @dev Check if the address belongs to a user\n    * @param userAddress The address to check if exists in the user registry.\n    */\n  function hasUser(address userAddress) public view returns(bool) \n  {\n    return (addressToIndex[userAddress] > 0);\n  }\n\n  /**\n    * @dev Check if the username belongs to a user\n    * @param username The username to check if exists in the user registry\n    */\n  function usernameTaken(bytes16 username) public view returns(bool) \n  {\n    return (usernameToIndex[username] > 0 || username == 'self');\n  }\n\n  /**\n    * @dev Create a new user\n    * @param username The organization name\n    * @param ipfsHash The IPFS hash string with more metadata\n    */\n  function createUser(bytes16 username, bytes ipfsHash) public returns(bool)\n  {\n    require(!hasUser(msg.sender));\n    require(!usernameTaken(username));\n\n    addresses.push(msg.sender);\n    usernames.push(username);\n    ipfsHashes.push(ipfsHash);\n\n    addressToIndex[msg.sender] = addresses.length - 1;\n    usernameToIndex[username] = addresses.length - 1;\n    \n    emit NewUser(username, msg.sender);\n    return true;\n  }\n\n  /**\n    * @dev Create a new energy offer\n    * @param _value The amount of watts/hour available to sell\n    * @param ipfsHash The IPFS hash string with metadata\n    */\n  function createOffer(uint _value, bytes ipfsHash) public payable {\n    shastaMarket.createOffer(_value, msg.sender);\n    updateUser(ipfsHash);\n  }\n\n  /**\n    * @dev Cancel a energy offer\n    * @param _id The ID of the the offer\n    * @param ipfsHash The IPFS hash string with metadata\n    */\n  function cancelOffer(uint _id, bytes ipfsHash) public payable {\n    shastaMarket.cancelOffer(_id, msg.sender);\n    updateUser(ipfsHash);\n  }\n\n  /**\n    * @dev Update the user ipfs hash string\n    * @param ipfsHash The IPFS hash string to update\n    * @return success Returns true if succesful\n    */\n  function updateUser(bytes ipfsHash) public payable returns(bool success)\n  {\n    require(hasUser(msg.sender), 'Your ethereum address does not belong to any Shasta account.');\n    \n    ipfsHashes[addressToIndex[msg.sender]] = ipfsHash;\n    \n    emit UpdatedUser(msg.sender, ipfsHash);\n    return true;\n  }  \n\n  /**\n    * @dev Get the user length\n    * @return count The number of current users registered in Shasta\n    */\n  function getUserCount() public view returns(uint count)\n  {\n    return addresses.length;\n  }\n\n  /**\n    * @dev Get the address of an user by user index\n    * @param index The user index\n    * @return userAddress the user address\n    */\n  function getAddressByIndex(uint index) public view returns(address userAddress)\n  {\n    require(index < addresses.length);\n\n    return addresses[index];\n  }\n\n  /**\n    * @dev Get the address of an user by username\n    * @param username The username in bytes16\n    * @return userAddress the user address\n    */\n  function getAddressByUsername(bytes16 username) public view returns(address userAddress)\n  {\n    require(usernameTaken(username));\n\n    return addresses[usernameToIndex[username]];\n  }  \n\n  /**\n    * @dev Get the user data by address\n    * @param userAddress The user address\n    * @return index The user index\n    * @return username The user name\n    * @return ipfsHash The ipfs hash where more metadata is stored in IPFS\n    */\n  function getUserByAddress(address userAddress) public view returns(uint index, bytes16 username, bytes ipfsHash) {\n    require(index < addresses.length);\n\n    return(addressToIndex[userAddress], usernames[addressToIndex[userAddress]], ipfsHashes[addressToIndex[userAddress]]);\n  }\n\n\n  /**\n    * @dev Get the username by address\n    * @param userAddress The user address\n    * @return username The user name\n    */\n  function getUsernameByAddress(address userAddress) public view returns(bytes16 username)\n  {\n    require(hasUser(userAddress));\n\n    return usernames[addressToIndex[userAddress]];\n  }\n\n  /**\n    * @dev Get the IPFS hash by index\n    * @param index The user index\n    * @return ipfsHash The ipfs hash where more metadata is stored in IPFS\n    */\n  function getIpfsHashByIndex(uint index) public view returns(bytes ipfsHash)\n  {\n    require(index < addresses.length);\n\n    return ipfsHashes[index];\n  }\n  /**\n    * @dev Get the IPFS hash by address\n    * @param userAddress The user address\n    * @return ipfsHash The ipfs hash where more metadata is stored in IPFS\n    */\n  function getIpfsHashByAddress(address userAddress) public view returns(bytes ipfsHash)\n  {\n    require(hasUser(userAddress));\n\n    return ipfsHashes[addressToIndex[userAddress]];\n  }\n\n  /**\n    * @dev Get the IPFS hash by username\n    * @param username The user name\n    * @return ipfsHash The ipfs hash where more metadata is stored in IPFS\n    */\n  function getIpfsHashByUsername(bytes16 username) public view returns(bytes ipfsHash)\n  {\n    require(usernameTaken(username), \"Username does not exists.\");\n\n    return ipfsHashes[usernameToIndex[username]];\n  }\n\n  /**\n    * @dev Get the user index by address\n    * @param userAddress The user address\n    * @return index The user index\n    */\n  function getIndexByAddress(address userAddress) public view returns(uint index)\n  {\n    require(hasUser(userAddress));\n\n    return addressToIndex[userAddress];\n  }\n}",
  "sourcePath": "/home/kartojal/repos/ShastaOS/contracts/User.sol",
  "compiler": {
    "name": "solc",
    "version": "0.4.24+commit.e67f0147.Emscripten.clang"
  },
  "schemaVersion": "3.0.0-beta.0",
  "updatedAt": "2018-10-18T10:24:11.903Z"
}